{
  "_format": "hh-sol-artifact-1",
  "contractName": "NDLGovernor",
  "sourceName": "contracts/NDL/NDLGovernor.sol",
  "abi": [
    {
      "inputs": [
        {
          "internalType": "contract IVotes",
          "name": "_token",
          "type": "address"
        },
        {
          "internalType": "contract TimelockController",
          "name": "_timelock",
          "type": "address"
        }
      ],
      "stateMutability": "nonpayable",
      "type": "constructor"
    },
    {
      "inputs": [],
      "name": "Empty",
      "type": "error"
    },
    {
      "inputs": [],
      "name": "InvalidShortString",
      "type": "error"
    },
    {
      "inputs": [
        {
          "internalType": "string",
          "name": "str",
          "type": "string"
        }
      ],
      "name": "StringTooLong",
      "type": "error"
    },
    {
      "anonymous": false,
      "inputs": [],
      "name": "EIP712DomainChanged",
      "type": "event"
    },
    {
      "anonymous": false,
      "inputs": [
        {
          "indexed": false,
          "internalType": "uint256",
          "name": "proposalId",
          "type": "uint256"
        }
      ],
      "name": "ProposalCanceled",
      "type": "event"
    },
    {
      "anonymous": false,
      "inputs": [
        {
          "indexed": false,
          "internalType": "uint256",
          "name": "proposalId",
          "type": "uint256"
        },
        {
          "indexed": false,
          "internalType": "address",
          "name": "proposer",
          "type": "address"
        },
        {
          "indexed": false,
          "internalType": "address[]",
          "name": "targets",
          "type": "address[]"
        },
        {
          "indexed": false,
          "internalType": "uint256[]",
          "name": "values",
          "type": "uint256[]"
        },
        {
          "indexed": false,
          "internalType": "string[]",
          "name": "signatures",
          "type": "string[]"
        },
        {
          "indexed": false,
          "internalType": "bytes[]",
          "name": "calldatas",
          "type": "bytes[]"
        },
        {
          "indexed": false,
          "internalType": "uint256",
          "name": "voteStart",
          "type": "uint256"
        },
        {
          "indexed": false,
          "internalType": "uint256",
          "name": "voteEnd",
          "type": "uint256"
        },
        {
          "indexed": false,
          "internalType": "string",
          "name": "description",
          "type": "string"
        }
      ],
      "name": "ProposalCreated",
      "type": "event"
    },
    {
      "anonymous": false,
      "inputs": [
        {
          "indexed": false,
          "internalType": "uint256",
          "name": "proposalId",
          "type": "uint256"
        }
      ],
      "name": "ProposalExecuted",
      "type": "event"
    },
    {
      "anonymous": false,
      "inputs": [
        {
          "indexed": false,
          "internalType": "uint256",
          "name": "proposalId",
          "type": "uint256"
        },
        {
          "indexed": false,
          "internalType": "uint256",
          "name": "eta",
          "type": "uint256"
        }
      ],
      "name": "ProposalQueued",
      "type": "event"
    },
    {
      "anonymous": false,
      "inputs": [
        {
          "indexed": false,
          "internalType": "uint256",
          "name": "oldProposalThreshold",
          "type": "uint256"
        },
        {
          "indexed": false,
          "internalType": "uint256",
          "name": "newProposalThreshold",
          "type": "uint256"
        }
      ],
      "name": "ProposalThresholdSet",
      "type": "event"
    },
    {
      "anonymous": false,
      "inputs": [
        {
          "indexed": false,
          "internalType": "uint256",
          "name": "oldQuorumNumerator",
          "type": "uint256"
        },
        {
          "indexed": false,
          "internalType": "uint256",
          "name": "newQuorumNumerator",
          "type": "uint256"
        }
      ],
      "name": "QuorumNumeratorUpdated",
      "type": "event"
    },
    {
      "anonymous": false,
      "inputs": [
        {
          "indexed": false,
          "internalType": "address",
          "name": "oldTimelock",
          "type": "address"
        },
        {
          "indexed": false,
          "internalType": "address",
          "name": "newTimelock",
          "type": "address"
        }
      ],
      "name": "TimelockChange",
      "type": "event"
    },
    {
      "anonymous": false,
      "inputs": [
        {
          "indexed": true,
          "internalType": "address",
          "name": "voter",
          "type": "address"
        },
        {
          "indexed": false,
          "internalType": "uint256",
          "name": "proposalId",
          "type": "uint256"
        },
        {
          "indexed": false,
          "internalType": "uint8",
          "name": "support",
          "type": "uint8"
        },
        {
          "indexed": false,
          "internalType": "uint256",
          "name": "weight",
          "type": "uint256"
        },
        {
          "indexed": false,
          "internalType": "string",
          "name": "reason",
          "type": "string"
        }
      ],
      "name": "VoteCast",
      "type": "event"
    },
    {
      "anonymous": false,
      "inputs": [
        {
          "indexed": true,
          "internalType": "address",
          "name": "voter",
          "type": "address"
        },
        {
          "indexed": false,
          "internalType": "uint256",
          "name": "proposalId",
          "type": "uint256"
        },
        {
          "indexed": false,
          "internalType": "uint8",
          "name": "support",
          "type": "uint8"
        },
        {
          "indexed": false,
          "internalType": "uint256",
          "name": "weight",
          "type": "uint256"
        },
        {
          "indexed": false,
          "internalType": "string",
          "name": "reason",
          "type": "string"
        },
        {
          "indexed": false,
          "internalType": "bytes",
          "name": "params",
          "type": "bytes"
        }
      ],
      "name": "VoteCastWithParams",
      "type": "event"
    },
    {
      "anonymous": false,
      "inputs": [
        {
          "indexed": false,
          "internalType": "uint256",
          "name": "oldVotingDelay",
          "type": "uint256"
        },
        {
          "indexed": false,
          "internalType": "uint256",
          "name": "newVotingDelay",
          "type": "uint256"
        }
      ],
      "name": "VotingDelaySet",
      "type": "event"
    },
    {
      "anonymous": false,
      "inputs": [
        {
          "indexed": false,
          "internalType": "uint256",
          "name": "oldVotingPeriod",
          "type": "uint256"
        },
        {
          "indexed": false,
          "internalType": "uint256",
          "name": "newVotingPeriod",
          "type": "uint256"
        }
      ],
      "name": "VotingPeriodSet",
      "type": "event"
    },
    {
      "inputs": [],
      "name": "BALLOT_TYPEHASH",
      "outputs": [
        {
          "internalType": "bytes32",
          "name": "",
          "type": "bytes32"
        }
      ],
      "stateMutability": "view",
      "type": "function"
    },
    {
      "inputs": [],
      "name": "CLOCK_MODE",
      "outputs": [
        {
          "internalType": "string",
          "name": "",
          "type": "string"
        }
      ],
      "stateMutability": "view",
      "type": "function"
    },
    {
      "inputs": [],
      "name": "COUNTING_MODE",
      "outputs": [
        {
          "internalType": "string",
          "name": "",
          "type": "string"
        }
      ],
      "stateMutability": "pure",
      "type": "function"
    },
    {
      "inputs": [],
      "name": "EXTENDED_BALLOT_TYPEHASH",
      "outputs": [
        {
          "internalType": "bytes32",
          "name": "",
          "type": "bytes32"
        }
      ],
      "stateMutability": "view",
      "type": "function"
    },
    {
      "inputs": [
        {
          "internalType": "address[]",
          "name": "targets",
          "type": "address[]"
        },
        {
          "internalType": "uint256[]",
          "name": "values",
          "type": "uint256[]"
        },
        {
          "internalType": "bytes[]",
          "name": "calldatas",
          "type": "bytes[]"
        },
        {
          "internalType": "bytes32",
          "name": "descriptionHash",
          "type": "bytes32"
        }
      ],
      "name": "cancel",
      "outputs": [
        {
          "internalType": "uint256",
          "name": "",
          "type": "uint256"
        }
      ],
      "stateMutability": "nonpayable",
      "type": "function"
    },
    {
      "inputs": [
        {
          "internalType": "uint256",
          "name": "proposalId",
          "type": "uint256"
        },
        {
          "internalType": "uint8",
          "name": "support",
          "type": "uint8"
        }
      ],
      "name": "castVote",
      "outputs": [
        {
          "internalType": "uint256",
          "name": "",
          "type": "uint256"
        }
      ],
      "stateMutability": "nonpayable",
      "type": "function"
    },
    {
      "inputs": [
        {
          "internalType": "uint256",
          "name": "proposalId",
          "type": "uint256"
        },
        {
          "internalType": "uint8",
          "name": "support",
          "type": "uint8"
        },
        {
          "internalType": "uint8",
          "name": "v",
          "type": "uint8"
        },
        {
          "internalType": "bytes32",
          "name": "r",
          "type": "bytes32"
        },
        {
          "internalType": "bytes32",
          "name": "s",
          "type": "bytes32"
        }
      ],
      "name": "castVoteBySig",
      "outputs": [
        {
          "internalType": "uint256",
          "name": "",
          "type": "uint256"
        }
      ],
      "stateMutability": "nonpayable",
      "type": "function"
    },
    {
      "inputs": [
        {
          "internalType": "uint256",
          "name": "proposalId",
          "type": "uint256"
        },
        {
          "internalType": "uint8",
          "name": "support",
          "type": "uint8"
        },
        {
          "internalType": "string",
          "name": "reason",
          "type": "string"
        }
      ],
      "name": "castVoteWithReason",
      "outputs": [
        {
          "internalType": "uint256",
          "name": "",
          "type": "uint256"
        }
      ],
      "stateMutability": "nonpayable",
      "type": "function"
    },
    {
      "inputs": [
        {
          "internalType": "uint256",
          "name": "proposalId",
          "type": "uint256"
        },
        {
          "internalType": "uint8",
          "name": "support",
          "type": "uint8"
        },
        {
          "internalType": "string",
          "name": "reason",
          "type": "string"
        },
        {
          "internalType": "bytes",
          "name": "params",
          "type": "bytes"
        }
      ],
      "name": "castVoteWithReasonAndParams",
      "outputs": [
        {
          "internalType": "uint256",
          "name": "",
          "type": "uint256"
        }
      ],
      "stateMutability": "nonpayable",
      "type": "function"
    },
    {
      "inputs": [
        {
          "internalType": "uint256",
          "name": "proposalId",
          "type": "uint256"
        },
        {
          "internalType": "uint8",
          "name": "support",
          "type": "uint8"
        },
        {
          "internalType": "string",
          "name": "reason",
          "type": "string"
        },
        {
          "internalType": "bytes",
          "name": "params",
          "type": "bytes"
        },
        {
          "internalType": "uint8",
          "name": "v",
          "type": "uint8"
        },
        {
          "internalType": "bytes32",
          "name": "r",
          "type": "bytes32"
        },
        {
          "internalType": "bytes32",
          "name": "s",
          "type": "bytes32"
        }
      ],
      "name": "castVoteWithReasonAndParamsBySig",
      "outputs": [
        {
          "internalType": "uint256",
          "name": "",
          "type": "uint256"
        }
      ],
      "stateMutability": "nonpayable",
      "type": "function"
    },
    {
      "inputs": [],
      "name": "clock",
      "outputs": [
        {
          "internalType": "uint48",
          "name": "",
          "type": "uint48"
        }
      ],
      "stateMutability": "view",
      "type": "function"
    },
    {
      "inputs": [],
      "name": "eip712Domain",
      "outputs": [
        {
          "internalType": "bytes1",
          "name": "fields",
          "type": "bytes1"
        },
        {
          "internalType": "string",
          "name": "name",
          "type": "string"
        },
        {
          "internalType": "string",
          "name": "version",
          "type": "string"
        },
        {
          "internalType": "uint256",
          "name": "chainId",
          "type": "uint256"
        },
        {
          "internalType": "address",
          "name": "verifyingContract",
          "type": "address"
        },
        {
          "internalType": "bytes32",
          "name": "salt",
          "type": "bytes32"
        },
        {
          "internalType": "uint256[]",
          "name": "extensions",
          "type": "uint256[]"
        }
      ],
      "stateMutability": "view",
      "type": "function"
    },
    {
      "inputs": [
        {
          "internalType": "address[]",
          "name": "targets",
          "type": "address[]"
        },
        {
          "internalType": "uint256[]",
          "name": "values",
          "type": "uint256[]"
        },
        {
          "internalType": "bytes[]",
          "name": "calldatas",
          "type": "bytes[]"
        },
        {
          "internalType": "bytes32",
          "name": "descriptionHash",
          "type": "bytes32"
        }
      ],
      "name": "execute",
      "outputs": [
        {
          "internalType": "uint256",
          "name": "",
          "type": "uint256"
        }
      ],
      "stateMutability": "payable",
      "type": "function"
    },
    {
      "inputs": [
        {
          "internalType": "address",
          "name": "account",
          "type": "address"
        },
        {
          "internalType": "uint256",
          "name": "timepoint",
          "type": "uint256"
        }
      ],
      "name": "getVotes",
      "outputs": [
        {
          "internalType": "uint256",
          "name": "",
          "type": "uint256"
        }
      ],
      "stateMutability": "view",
      "type": "function"
    },
    {
      "inputs": [
        {
          "internalType": "address",
          "name": "account",
          "type": "address"
        },
        {
          "internalType": "uint256",
          "name": "timepoint",
          "type": "uint256"
        },
        {
          "internalType": "bytes",
          "name": "params",
          "type": "bytes"
        }
      ],
      "name": "getVotesWithParams",
      "outputs": [
        {
          "internalType": "uint256",
          "name": "",
          "type": "uint256"
        }
      ],
      "stateMutability": "view",
      "type": "function"
    },
    {
      "inputs": [
        {
          "internalType": "uint256",
          "name": "proposalId",
          "type": "uint256"
        },
        {
          "internalType": "address",
          "name": "account",
          "type": "address"
        }
      ],
      "name": "hasVoted",
      "outputs": [
        {
          "internalType": "bool",
          "name": "",
          "type": "bool"
        }
      ],
      "stateMutability": "view",
      "type": "function"
    },
    {
      "inputs": [
        {
          "internalType": "address[]",
          "name": "targets",
          "type": "address[]"
        },
        {
          "internalType": "uint256[]",
          "name": "values",
          "type": "uint256[]"
        },
        {
          "internalType": "bytes[]",
          "name": "calldatas",
          "type": "bytes[]"
        },
        {
          "internalType": "bytes32",
          "name": "descriptionHash",
          "type": "bytes32"
        }
      ],
      "name": "hashProposal",
      "outputs": [
        {
          "internalType": "uint256",
          "name": "",
          "type": "uint256"
        }
      ],
      "stateMutability": "pure",
      "type": "function"
    },
    {
      "inputs": [],
      "name": "name",
      "outputs": [
        {
          "internalType": "string",
          "name": "",
          "type": "string"
        }
      ],
      "stateMutability": "view",
      "type": "function"
    },
    {
      "inputs": [
        {
          "internalType": "address",
          "name": "",
          "type": "address"
        },
        {
          "internalType": "address",
          "name": "",
          "type": "address"
        },
        {
          "internalType": "uint256[]",
          "name": "",
          "type": "uint256[]"
        },
        {
          "internalType": "uint256[]",
          "name": "",
          "type": "uint256[]"
        },
        {
          "internalType": "bytes",
          "name": "",
          "type": "bytes"
        }
      ],
      "name": "onERC1155BatchReceived",
      "outputs": [
        {
          "internalType": "bytes4",
          "name": "",
          "type": "bytes4"
        }
      ],
      "stateMutability": "nonpayable",
      "type": "function"
    },
    {
      "inputs": [
        {
          "internalType": "address",
          "name": "",
          "type": "address"
        },
        {
          "internalType": "address",
          "name": "",
          "type": "address"
        },
        {
          "internalType": "uint256",
          "name": "",
          "type": "uint256"
        },
        {
          "internalType": "uint256",
          "name": "",
          "type": "uint256"
        },
        {
          "internalType": "bytes",
          "name": "",
          "type": "bytes"
        }
      ],
      "name": "onERC1155Received",
      "outputs": [
        {
          "internalType": "bytes4",
          "name": "",
          "type": "bytes4"
        }
      ],
      "stateMutability": "nonpayable",
      "type": "function"
    },
    {
      "inputs": [
        {
          "internalType": "address",
          "name": "",
          "type": "address"
        },
        {
          "internalType": "address",
          "name": "",
          "type": "address"
        },
        {
          "internalType": "uint256",
          "name": "",
          "type": "uint256"
        },
        {
          "internalType": "bytes",
          "name": "",
          "type": "bytes"
        }
      ],
      "name": "onERC721Received",
      "outputs": [
        {
          "internalType": "bytes4",
          "name": "",
          "type": "bytes4"
        }
      ],
      "stateMutability": "nonpayable",
      "type": "function"
    },
    {
      "inputs": [
        {
          "internalType": "uint256",
          "name": "proposalId",
          "type": "uint256"
        }
      ],
      "name": "proposalDeadline",
      "outputs": [
        {
          "internalType": "uint256",
          "name": "",
          "type": "uint256"
        }
      ],
      "stateMutability": "view",
      "type": "function"
    },
    {
      "inputs": [
        {
          "internalType": "uint256",
          "name": "proposalId",
          "type": "uint256"
        }
      ],
      "name": "proposalEta",
      "outputs": [
        {
          "internalType": "uint256",
          "name": "",
          "type": "uint256"
        }
      ],
      "stateMutability": "view",
      "type": "function"
    },
    {
      "inputs": [
        {
          "internalType": "uint256",
          "name": "proposalId",
          "type": "uint256"
        }
      ],
      "name": "proposalProposer",
      "outputs": [
        {
          "internalType": "address",
          "name": "",
          "type": "address"
        }
      ],
      "stateMutability": "view",
      "type": "function"
    },
    {
      "inputs": [
        {
          "internalType": "uint256",
          "name": "proposalId",
          "type": "uint256"
        }
      ],
      "name": "proposalSnapshot",
      "outputs": [
        {
          "internalType": "uint256",
          "name": "",
          "type": "uint256"
        }
      ],
      "stateMutability": "view",
      "type": "function"
    },
    {
      "inputs": [],
      "name": "proposalThreshold",
      "outputs": [
        {
          "internalType": "uint256",
          "name": "",
          "type": "uint256"
        }
      ],
      "stateMutability": "view",
      "type": "function"
    },
    {
      "inputs": [
        {
          "internalType": "uint256",
          "name": "proposalId",
          "type": "uint256"
        }
      ],
      "name": "proposalVotes",
      "outputs": [
        {
          "internalType": "uint256",
          "name": "againstVotes",
          "type": "uint256"
        },
        {
          "internalType": "uint256",
          "name": "forVotes",
          "type": "uint256"
        },
        {
          "internalType": "uint256",
          "name": "abstainVotes",
          "type": "uint256"
        }
      ],
      "stateMutability": "view",
      "type": "function"
    },
    {
      "inputs": [
        {
          "internalType": "address[]",
          "name": "targets",
          "type": "address[]"
        },
        {
          "internalType": "uint256[]",
          "name": "values",
          "type": "uint256[]"
        },
        {
          "internalType": "bytes[]",
          "name": "calldatas",
          "type": "bytes[]"
        },
        {
          "internalType": "string",
          "name": "description",
          "type": "string"
        }
      ],
      "name": "propose",
      "outputs": [
        {
          "internalType": "uint256",
          "name": "",
          "type": "uint256"
        }
      ],
      "stateMutability": "nonpayable",
      "type": "function"
    },
    {
      "inputs": [
        {
          "internalType": "address[]",
          "name": "targets",
          "type": "address[]"
        },
        {
          "internalType": "uint256[]",
          "name": "values",
          "type": "uint256[]"
        },
        {
          "internalType": "bytes[]",
          "name": "calldatas",
          "type": "bytes[]"
        },
        {
          "internalType": "bytes32",
          "name": "descriptionHash",
          "type": "bytes32"
        }
      ],
      "name": "queue",
      "outputs": [
        {
          "internalType": "uint256",
          "name": "",
          "type": "uint256"
        }
      ],
      "stateMutability": "nonpayable",
      "type": "function"
    },
    {
      "inputs": [
        {
          "internalType": "uint256",
          "name": "blockNumber",
          "type": "uint256"
        }
      ],
      "name": "quorum",
      "outputs": [
        {
          "internalType": "uint256",
          "name": "",
          "type": "uint256"
        }
      ],
      "stateMutability": "view",
      "type": "function"
    },
    {
      "inputs": [],
      "name": "quorumDenominator",
      "outputs": [
        {
          "internalType": "uint256",
          "name": "",
          "type": "uint256"
        }
      ],
      "stateMutability": "view",
      "type": "function"
    },
    {
      "inputs": [
        {
          "internalType": "uint256",
          "name": "timepoint",
          "type": "uint256"
        }
      ],
      "name": "quorumNumerator",
      "outputs": [
        {
          "internalType": "uint256",
          "name": "",
          "type": "uint256"
        }
      ],
      "stateMutability": "view",
      "type": "function"
    },
    {
      "inputs": [],
      "name": "quorumNumerator",
      "outputs": [
        {
          "internalType": "uint256",
          "name": "",
          "type": "uint256"
        }
      ],
      "stateMutability": "view",
      "type": "function"
    },
    {
      "inputs": [
        {
          "internalType": "address",
          "name": "target",
          "type": "address"
        },
        {
          "internalType": "uint256",
          "name": "value",
          "type": "uint256"
        },
        {
          "internalType": "bytes",
          "name": "data",
          "type": "bytes"
        }
      ],
      "name": "relay",
      "outputs": [],
      "stateMutability": "payable",
      "type": "function"
    },
    {
      "inputs": [
        {
          "internalType": "uint256",
          "name": "newProposalThreshold",
          "type": "uint256"
        }
      ],
      "name": "setProposalThreshold",
      "outputs": [],
      "stateMutability": "nonpayable",
      "type": "function"
    },
    {
      "inputs": [
        {
          "internalType": "uint256",
          "name": "newVotingDelay",
          "type": "uint256"
        }
      ],
      "name": "setVotingDelay",
      "outputs": [],
      "stateMutability": "nonpayable",
      "type": "function"
    },
    {
      "inputs": [
        {
          "internalType": "uint256",
          "name": "newVotingPeriod",
          "type": "uint256"
        }
      ],
      "name": "setVotingPeriod",
      "outputs": [],
      "stateMutability": "nonpayable",
      "type": "function"
    },
    {
      "inputs": [
        {
          "internalType": "uint256",
          "name": "proposalId",
          "type": "uint256"
        }
      ],
      "name": "state",
      "outputs": [
        {
          "internalType": "enum IGovernor.ProposalState",
          "name": "",
          "type": "uint8"
        }
      ],
      "stateMutability": "view",
      "type": "function"
    },
    {
      "inputs": [
        {
          "internalType": "bytes4",
          "name": "interfaceId",
          "type": "bytes4"
        }
      ],
      "name": "supportsInterface",
      "outputs": [
        {
          "internalType": "bool",
          "name": "",
          "type": "bool"
        }
      ],
      "stateMutability": "view",
      "type": "function"
    },
    {
      "inputs": [],
      "name": "timelock",
      "outputs": [
        {
          "internalType": "address",
          "name": "",
          "type": "address"
        }
      ],
      "stateMutability": "view",
      "type": "function"
    },
    {
      "inputs": [],
      "name": "token",
      "outputs": [
        {
          "internalType": "contract IERC5805",
          "name": "",
          "type": "address"
        }
      ],
      "stateMutability": "view",
      "type": "function"
    },
    {
      "inputs": [
        {
          "internalType": "uint256",
          "name": "newQuorumNumerator",
          "type": "uint256"
        }
      ],
      "name": "updateQuorumNumerator",
      "outputs": [],
      "stateMutability": "nonpayable",
      "type": "function"
    },
    {
      "inputs": [
        {
          "internalType": "contract TimelockController",
          "name": "newTimelock",
          "type": "address"
        }
      ],
      "name": "updateTimelock",
      "outputs": [],
      "stateMutability": "nonpayable",
      "type": "function"
    },
    {
      "inputs": [],
      "name": "version",
      "outputs": [
        {
          "internalType": "string",
          "name": "",
          "type": "string"
        }
      ],
      "stateMutability": "view",
      "type": "function"
    },
    {
      "inputs": [],
      "name": "votingDelay",
      "outputs": [
        {
          "internalType": "uint256",
          "name": "",
          "type": "uint256"
        }
      ],
      "stateMutability": "view",
      "type": "function"
    },
    {
      "inputs": [],
      "name": "votingPeriod",
      "outputs": [
        {
          "internalType": "uint256",
          "name": "",
          "type": "uint256"
        }
      ],
      "stateMutability": "view",
      "type": "function"
    },
    {
      "stateMutability": "payable",
      "type": "receive"
    }
  ],
  "bytecode": "0x6101806040523480156200001257600080fd5b50604051620053d4380380620053d4833981016040819052620000359162000a95565b80600483600161b2fa60006040518060400160405280600b81526020016a27222623b7bb32b93737b960a91b8152508062000075620001b460201b60201c565b62000090600083620001cf60201b620019101790919060201c565b61012052620000ad816001620001cf602090811b6200191017901c565b61014052815160208084019190912060e052815190820120610100524660a0526200013b60e05161010051604080517f8b73c3c69bb8fe3d512ecc4cf759cc79239f7b179b0ffacaa9a75d522b39400f60208201529081019290925260608201524660808201523060a082015260009060c00160405160208183030381529060405280519060200120905090565b60805250503060601b60c05280516200015c906002906020840190620009e0565b506200016a90508362000223565b620001758262000264565b62000180816200030b565b50505060601b6001600160601b031916610160526200019f816200034c565b50620001ab8162000501565b50505062000bdb565b6040805180820190915260018152603160f81b602082015290565b6000602083511015620001ef57620001e7836200056a565b90506200021d565b826200020683620005ad60201b620019471760201c565b8151620002179260200190620009e0565b5060ff90505b92915050565b60065460408051918252602082018390527fc565b045403dc03c2eea82b81a0465edad9e2e7fc4d97e11421c209da93d7a93910160405180910390a1600655565b60008111620002ca5760405162461bcd60e51b815260206004820152602760248201527f476f7665726e6f7253657474696e67733a20766f74696e6720706572696f6420604482015266746f6f206c6f7760c81b60648201526084015b60405180910390fd5b60075460408051918252602082018390527f7e3f7f0708a84de9203036abaa450dccc85ad5ff52f78c170f3edb55cf5e8828910160405180910390a1600755565b60085460408051918252602082018390527fccb45da8d5717e6c4544694297c4ba5cf151d455c9bb0ed4fc7a38411bc05461910160405180910390a1600855565b6064811115620003d15760405162461bcd60e51b815260206004820152604360248201527f476f7665726e6f72566f74657351756f72756d4672616374696f6e3a2071756f60448201527f72756d4e756d657261746f72206f7665722071756f72756d44656e6f6d696e616064820152623a37b960e91b608482015260a401620002c1565b6000620003dd620005b0565b90508015801590620003ef5750600b54155b156200046a57600b6000016040518060400160405280600063ffffffff1681526020016200042884620005ea60201b6200194a1760201c565b6001600160e01b0390811690915282546001810184556000938452602093849020835194909301519091166401000000000263ffffffff909316929092179101555b620004c2620004956200047c62000659565b65ffffffffffff16620006ee60201b620019b71760201c565b620004ab84620005ea60201b6200194a1760201c565b600b6200075560201b62001a1c179092919060201c565b505060408051828152602081018490527f0553476bf02ef2726e8ce5ced78d63e26e602e4a2257b1f559418e24b4633997910160405180910390a15050565b600c54604080516001600160a01b03928316815291831660208301527f08f74ea46ef7894f65eabfb5e6e695de773a000b47c529ab559178069b226401910160405180910390a1600c80546001600160a01b0319166001600160a01b0392909216919091179055565b600080829050601f8151111562000598578260405163305a27a960e01b8152600401620002c1919062000ad4565b8051620005a58262000b2c565b179392505050565b90565b600b5460009015620005e157620005d3600b6200077260201b62001a371760201c565b6001600160e01b0316905090565b600a545b905090565b60006001600160e01b03821115620006555760405162461bcd60e51b815260206004820152602760248201527f53616665436173743a2076616c756520646f65736e27742066697420696e20326044820152663234206269747360c81b6064820152608401620002c1565b5090565b60006101605160601c6001600160a01b03166391ddadf46040518163ffffffff1660e01b815260040160206040518083038186803b1580156200069b57600080fd5b505afa925050508015620006ce575060408051601f3d908101601f19168201909252620006cb9181019062000b54565b60015b620006e957620005e543620007c060201b62001a751760201c565b919050565b600063ffffffff821115620006555760405162461bcd60e51b815260206004820152602660248201527f53616665436173743a2076616c756520646f65736e27742066697420696e203360448201526532206269747360d01b6064820152608401620002c1565b6000806200076585858562000829565b915091505b935093915050565b80546000908015620007b6576200079e836200079060018462000b7e565b600091825260209091200190565b5464010000000090046001600160e01b0316620007b9565b60005b9392505050565b600065ffffffffffff821115620006555760405162461bcd60e51b815260206004820152602660248201527f53616665436173743a2076616c756520646f65736e27742066697420696e203460448201526538206269747360d01b6064820152608401620002c1565b825460009081908015620009855760006200084b876200079060018562000b7e565b60408051808201909152905463ffffffff8082168084526401000000009092046001600160e01b031660208401529192509087161015620008cf5760405162461bcd60e51b815260206004820152601b60248201527f436865636b706f696e743a2064656372656173696e67206b65797300000000006044820152606401620002c1565b8563ffffffff16816000015163ffffffff161415620009245784620008fb886200079060018662000b7e565b80546001600160e01b03929092166401000000000263ffffffff90921691909117905562000974565b6040805180820190915263ffffffff80881682526001600160e01b0380881660208085019182528b54600181018d5560008d81529190912094519151909216640100000000029216919091179101555b6020015192508391506200076a9050565b50506040805180820190915263ffffffff80851682526001600160e01b0380851660208085019182528854600181018a5560008a8152918220955192519093166401000000000291909316179201919091559050816200076a565b828054620009ee9062000ba4565b90600052602060002090601f01602090048101928262000a12576000855562000a5d565b82601f1062000a2d57805160ff191683800117855562000a5d565b8280016001018555821562000a5d579182015b8281111562000a5d57825182559160200191906001019062000a40565b50620006559291505b8082111562000655576000815560010162000a66565b6001600160a01b038116811462000a9257600080fd5b50565b6000806040838503121562000aa957600080fd5b825162000ab68162000a7c565b602084015190925062000ac98162000a7c565b809150509250929050565b600060208083528351808285015260005b8181101562000b035785810183015185820160400152820162000ae5565b8181111562000b16576000604083870101525b50601f01601f1916929092016040019392505050565b8051602080830151919081101562000b4e576000198160200360031b1b821691505b50919050565b60006020828403121562000b6757600080fd5b815165ffffffffffff81168114620007b957600080fd5b60008282101562000b9f57634e487b7160e01b600052601160045260246000fd5b500390565b600181811c9082168062000bb957607f821691505b6020821081141562000b4e57634e487b7160e01b600052602260045260246000fd5b60805160a05160c05160601c60e0516101005161012051610140516101605160601c61477162000c63600039600081816109e1015281816111030152818161146901528181612642015261284501526000611415015260006113eb01526000612c3501526000612c0d01526000612b6801526000612b9201526000612bbc01526147716000f3fe6080604052600436106102815760003560e01c80637b3c71d31161014f578063c01f9e37116100c1578063ea0217cf1161007a578063ea0217cf14610923578063eb9019d414610943578063ece40cc114610963578063f23a6e6114610983578063f8ce560a146109af578063fc0c546a146109cf57600080fd5b8063c01f9e371461081f578063c28bc2fa14610858578063c59057e41461086b578063d33219b41461088b578063dd4e2ba5146108a9578063deaaa7cc146108ef57600080fd5b80639a802a6d116101135780639a802a6d14610769578063a7713a7014610789578063a890c9101461079e578063ab58fb8e146107be578063b58131b0146107de578063bc197c81146107f357600080fd5b80637b3c71d3146106c15780637d5e81e2146106e157806384b0196e1461070157806391ddadf41461072957806397c3d3341461075557600080fd5b80633932abb1116101f3578063544ffc9c116101ac578063544ffc9c146105c257806354fd4d501461061757806356781388146106415780635f398a141461066157806360c4247f1461068157806370b0f660146106a157600080fd5b80633932abb1146104e15780633bccf4fd146104f65780633e4f49e6146105165780634385963214610543578063452115d61461058d5780634bf5d7e9146105ad57600080fd5b8063143489d011610245578063143489d0146103ab578063150b7a0214610400578063160cbed7146104445780632656227d146104645780632d63f693146104775780632fe3e261146104ad57600080fd5b806301ffc9a7146102f157806302a251a314610326578063034201811461034957806306f3f9e61461036957806306fdde031461038957600080fd5b366102ec573061028f610a03565b6001600160a01b0316146102ea5760405162461bcd60e51b815260206004820152601f60248201527f476f7665726e6f723a206d7573742073656e6420746f206578656375746f720060448201526064015b60405180910390fd5b005b600080fd5b3480156102fd57600080fd5b5061031161030c36600461379f565b610a1c565b60405190151581526020015b60405180910390f35b34801561033257600080fd5b5061033b610a2d565b60405190815260200161031d565b34801561035557600080fd5b5061033b6103643660046138ed565b610a38565b34801561037557600080fd5b506102ea610384366004613993565b610b30565b34801561039557600080fd5b5061039e610bbf565b60405161031d9190613a08565b3480156103b757600080fd5b506103e86103c6366004613993565b600090815260036020526040902054600160401b90046001600160a01b031690565b6040516001600160a01b03909116815260200161031d565b34801561040c57600080fd5b5061042b61041b366004613a30565b630a85bd0160e11b949350505050565b6040516001600160e01b0319909116815260200161031d565b34801561045057600080fd5b5061033b61045f366004613c07565b610c51565b61033b610472366004613c07565b610e70565b34801561048357600080fd5b5061033b610492366004613993565b6000908152600360205260409020546001600160401b031690565b3480156104b957600080fd5b5061033b7fb3b3f3b703cd84ce352197dcff232b1b5d3cfb2025ce47cf04742d0651f1af8881565b3480156104ed57600080fd5b5061033b610f62565b34801561050257600080fd5b5061033b610511366004613c96565b610f6d565b34801561052257600080fd5b50610536610531366004613993565b610fe3565b60405161031d9190613cfa565b34801561054f57600080fd5b5061031161055e366004613d22565b60008281526009602090815260408083206001600160a01b038516845260030190915290205460ff1692915050565b34801561059957600080fd5b5061033b6105a8366004613c07565b610fee565b3480156105b957600080fd5b5061039e6110ff565b3480156105ce57600080fd5b506105fc6105dd366004613993565b6000908152600960205260409020805460018201546002909201549092565b6040805193845260208401929092529082015260600161031d565b34801561062357600080fd5b506040805180820190915260018152603160f81b602082015261039e565b34801561064d57600080fd5b5061033b61065c366004613d52565b6111d0565b34801561066d57600080fd5b5061033b61067c366004613d7e565b6111f9565b34801561068d57600080fd5b5061033b61069c366004613993565b611243565b3480156106ad57600080fd5b506102ea6106bc366004613993565b6112f2565b3480156106cd57600080fd5b5061033b6106dc366004613e01565b61137e565b3480156106ed57600080fd5b5061033b6106fc366004613e5a565b6113c6565b34801561070d57600080fd5b506107166113dd565b60405161031d9796959493929190613f49565b34801561073557600080fd5b5061073e611465565b60405165ffffffffffff909116815260200161031d565b34801561076157600080fd5b50606461033b565b34801561077557600080fd5b5061033b610784366004613fab565b6114fd565b34801561079557600080fd5b5061033b611514565b3480156107aa57600080fd5b506102ea6107b9366004614003565b61153e565b3480156107ca57600080fd5b5061033b6107d9366004613993565b6115ca565b3480156107ea57600080fd5b5061033b611673565b3480156107ff57600080fd5b5061042b61080e366004614020565b63bc197c8160e01b95945050505050565b34801561082b57600080fd5b5061033b61083a366004613993565b6000908152600360205260409020600101546001600160401b031690565b6102ea6108663660046140b3565b61167e565b34801561087757600080fd5b5061033b610886366004613c07565b611792565b34801561089757600080fd5b50600c546001600160a01b03166103e8565b3480156108b557600080fd5b506040805180820190915260208082527f737570706f72743d627261766f2671756f72756d3d666f722c6162737461696e9082015261039e565b3480156108fb57600080fd5b5061033b7f150214d74d59b7d1e90c73fc22ef3d991dd0a76b046543d4d80ab92d2a50328f81565b34801561092f57600080fd5b506102ea61093e366004613993565b6117cc565b34801561094f57600080fd5b5061033b61095e3660046140f6565b611858565b34801561096f57600080fd5b506102ea61097e366004613993565b611879565b34801561098f57600080fd5b5061042b61099e366004614122565b63f23a6e6160e01b95945050505050565b3480156109bb57600080fd5b5061033b6109ca366004613993565b611905565b3480156109db57600080fd5b506103e87f000000000000000000000000000000000000000000000000000000000000000081565b6000610a17600c546001600160a01b031690565b905090565b6000610a2782611adc565b92915050565b6000610a1760075490565b600080610adc610ad47fb3b3f3b703cd84ce352197dcff232b1b5d3cfb2025ce47cf04742d0651f1af888c8c8c8c604051610a7492919061418a565b60405180910390208b80519060200120604051602001610ab9959493929190948552602085019390935260ff9190911660408401526060830152608082015260a00190565b60405160208183030381529060405280519060200120611b01565b868686611b2e565b9050610b228a828b8b8b8080601f0160208091040260200160405190810160405280939291908181526020018383808284376000920191909152508d9250611b4c915050565b9a9950505050505050505050565b610b38610a03565b6001600160a01b0316336001600160a01b031614610b685760405162461bcd60e51b81526004016102e19061419a565b30610b71610a03565b6001600160a01b031614610bb35760008036604051610b9192919061418a565b604051809103902090505b80610ba76004611c9e565b14610bb157610b9c565b505b610bbc81611d1d565b50565b606060028054610bce906141d1565b80601f0160208091040260200160405190810160405280929190818152602001828054610bfa906141d1565b8015610c475780601f10610c1c57610100808354040283529160200191610c47565b820191906000526020600020905b815481529060010190602001808311610c2a57829003601f168201915b5050505050905090565b600080610c6086868686611792565b90506004610c6d82610fe3565b6007811115610c7e57610c7e613ce4565b14610c9b5760405162461bcd60e51b81526004016102e19061420c565b600c546040805163793d064960e11b815290516000926001600160a01b03169163f27a0c92916004808301926020929190829003018186803b158015610ce057600080fd5b505afa158015610cf4573d6000803e3d6000fd5b505050506040513d601f19601f82011682018060405250810190610d18919061424d565b600c5460405163b1c5f42760e01b81529192506001600160a01b03169063b1c5f42790610d52908a908a908a906000908b906004016142f4565b60206040518083038186803b158015610d6a57600080fd5b505afa158015610d7e573d6000803e3d6000fd5b505050506040513d601f19601f82011682018060405250810190610da2919061424d565b6000838152600d602052604080822092909255600c5491516308f2a0bb60e41b81526001600160a01b0390921691638f2a0bb091610ded918b918b918b91908b908990600401614342565b600060405180830381600087803b158015610e0757600080fd5b505af1158015610e1b573d6000803e3d6000fd5b505050507f9a2e42fd6722813d69113e7d0079d3d940171428df7373df9c7f7617cfda2892828242610e4d91906143b0565b604080519283526020830191909152015b60405180910390a15095945050505050565b600080610e7f86868686611792565b90506000610e8c82610fe3565b90506004816007811115610ea257610ea2613ce4565b1480610ebf57506005816007811115610ebd57610ebd613ce4565b145b610edb5760405162461bcd60e51b81526004016102e19061420c565b60008281526003602052604090819020600201805460ff19166001179055517f712ae1383f79ac853f8d882153778e0260ef8f03b504e2866e0593e04d2b291f90610f299084815260200190565b60405180910390a1610f3e8288888888611e8b565b610f4b8288888888611f2e565b610f588288888888611f3b565b5095945050505050565b6000610a1760065490565b604080517f150214d74d59b7d1e90c73fc22ef3d991dd0a76b046543d4d80ab92d2a50328f602082015290810186905260ff851660608201526000908190610fbb90610ad490608001610ab9565b9050610fd887828860405180602001604052806000815250611f74565b979650505050505050565b6000610a2782611f97565b600080610ffd86868686611792565b9050600061100a82610fe3565b600781111561101b5761101b613ce4565b146110685760405162461bcd60e51b815260206004820152601c60248201527f476f7665726e6f723a20746f6f206c61746520746f2063616e63656c0000000060448201526064016102e1565b600081815260036020526040902054600160401b90046001600160a01b0316336001600160a01b0316146110e95760405162461bcd60e51b815260206004820152602260248201527f476f7665726e6f723a206f6e6c792070726f706f7365722063616e2063616e63604482015261195b60f21b60648201526084016102e1565b6110f5868686866120ff565b9695505050505050565b60607f00000000000000000000000000000000000000000000000000000000000000006001600160a01b0316634bf5d7e96040518163ffffffff1660e01b815260040160006040518083038186803b15801561115a57600080fd5b505afa92505050801561118f57506040513d6000823e601f3d908101601f1916820160405261118c91908101906143c8565b60015b6111cb575060408051808201909152601d81527f6d6f64653d626c6f636b6e756d6265722666726f6d3d64656661756c74000000602082015290565b919050565b6000803390506111f184828560405180602001604052806000815250611f74565b949350505050565b600080339050610fd887828888888080601f0160208091040260200160405190810160405280939291908181526020018383808284376000920191909152508a9250611b4c915050565b600b5460009080611258575050600a54919050565b6000600b611267600184614435565b815481106112775761127761444c565b60009182526020918290206040805180820190915291015463ffffffff8116808352600160201b9091046001600160e01b031692820192909252915084106112cd57602001516001600160e01b03169392505050565b6112e16112d9856119b7565b600b9061210d565b6001600160e01b0316949350505050565b6112fa610a03565b6001600160a01b0316336001600160a01b03161461132a5760405162461bcd60e51b81526004016102e19061419a565b30611333610a03565b6001600160a01b031614611375576000803660405161135392919061418a565b604051809103902090505b806113696004611c9e565b146113735761135e565b505b610bbc816121b2565b6000803390506110f586828787878080601f016020809104026020016040519081016040528093929190818152602001838380828437600092019190915250611f7492505050565b60006113d4858585856121f3565b95945050505050565b6000606080828080836114107f000000000000000000000000000000000000000000000000000000000000000083612575565b61143b7f00000000000000000000000000000000000000000000000000000000000000006001612575565b60408051600080825260208201909252600f60f81b9b939a50919850469750309650945092509050565b60007f00000000000000000000000000000000000000000000000000000000000000006001600160a01b03166391ddadf46040518163ffffffff1660e01b815260040160206040518083038186803b1580156114c057600080fd5b505afa9250505080156114f0575060408051601f3d908101601f191682019092526114ed91810190614462565b60015b6111cb57610a1743611a75565b600061150a848484612619565b90505b9392505050565b600b546000901561153757611529600b611a37565b6001600160e01b0316905090565b50600a5490565b611546610a03565b6001600160a01b0316336001600160a01b0316146115765760405162461bcd60e51b81526004016102e19061419a565b3061157f610a03565b6001600160a01b0316146115c1576000803660405161159f92919061418a565b604051809103902090505b806115b56004611c9e565b146115bf576115aa565b505b610bbc816126be565b600c546000828152600d602052604080822054905163d45c443560e01b81526004810191909152909182916001600160a01b039091169063d45c44359060240160206040518083038186803b15801561162257600080fd5b505afa158015611636573d6000803e3d6000fd5b505050506040513d601f19601f8201168201806040525081019061165a919061424d565b90508060011461166a578061150d565b60009392505050565b6000610a1760085490565b611686610a03565b6001600160a01b0316336001600160a01b0316146116b65760405162461bcd60e51b81526004016102e19061419a565b306116bf610a03565b6001600160a01b03161461170157600080366040516116df92919061418a565b604051809103902090505b806116f56004611c9e565b146116ff576116ea565b505b600080856001600160a01b031685858560405161171f92919061418a565b60006040518083038185875af1925050503d806000811461175c576040519150601f19603f3d011682016040523d82523d6000602084013e611761565b606091505b5091509150611789828260405180606001604052806028815260200161471460289139612727565b50505050505050565b6000848484846040516020016117ab949392919061448a565b60408051601f19818403018152919052805160209091012095945050505050565b6117d4610a03565b6001600160a01b0316336001600160a01b0316146118045760405162461bcd60e51b81526004016102e19061419a565b3061180d610a03565b6001600160a01b03161461184f576000803660405161182d92919061418a565b604051809103902090505b806118436004611c9e565b1461184d57611838565b505b610bbc81612740565b600061150d838361187460408051602081019091526000815290565b612619565b611881610a03565b6001600160a01b0316336001600160a01b0316146118b15760405162461bcd60e51b81526004016102e19061419a565b306118ba610a03565b6001600160a01b0316146118fc57600080366040516118da92919061418a565b604051809103902090505b806118f06004611c9e565b146118fa576118e5565b505b610bbc816127e1565b6000610a2782612822565b600060208351101561192c57611925836128db565b9050610a27565b8282815161193d926020019061370f565b5060ff9050610a27565b90565b60006001600160e01b038211156119b35760405162461bcd60e51b815260206004820152602760248201527f53616665436173743a2076616c756520646f65736e27742066697420696e20326044820152663234206269747360c81b60648201526084016102e1565b5090565b600063ffffffff8211156119b35760405162461bcd60e51b815260206004820152602660248201527f53616665436173743a2076616c756520646f65736e27742066697420696e203360448201526532206269747360d01b60648201526084016102e1565b600080611a2a858585612919565b915091505b935093915050565b8054600090801561166a57611a5f83611a51600184614435565b600091825260209091200190565b54600160201b90046001600160e01b031661150d565b600065ffffffffffff8211156119b35760405162461bcd60e51b815260206004820152602660248201527f53616665436173743a2076616c756520646f65736e27742066697420696e203460448201526538206269747360d01b60648201526084016102e1565b60006001600160e01b03198216636e665ced60e01b1480610a275750610a2782612abf565b6000610a27611b0e612b5b565b8360405161190160f01b8152600281019290925260228201526042902090565b6000806000611b3f87878787612c86565b91509150610f5881612d4a565b60008581526003602052604081206001611b6588610fe3565b6007811115611b7657611b76613ce4565b14611bcf5760405162461bcd60e51b815260206004820152602360248201527f476f7665726e6f723a20766f7465206e6f742063757272656e746c792061637460448201526269766560e81b60648201526084016102e1565b8054600090611be99088906001600160401b031686612619565b9050611bf88888888488612e98565b8351611c4a57866001600160a01b03167fb8e138887d0aa13bab447e82de9d5c1777041ecd21ca36ba824ff1e6c07ddda489888489604051611c3d94939291906144d5565b60405180910390a2610fd8565b866001600160a01b03167fe2babfbac5889a709b63bb7f598b324e08bc5a4fb9ec647fb3cbc9ec07eb87128988848989604051611c8b9594939291906144fd565b60405180910390a2979650505050505050565b6000611cb98254600f81810b600160801b909204900b131590565b15611cd757604051631ed9509560e11b815260040160405180910390fd5b508054600f0b6000818152600180840160205260408220805492905583546fffffffffffffffffffffffffffffffff191692016001600160801b03169190911790915590565b6064811115611da05760405162461bcd60e51b815260206004820152604360248201527f476f7665726e6f72566f74657351756f72756d4672616374696f6e3a2071756f60448201527f72756d4e756d657261746f72206f7665722071756f72756d44656e6f6d696e616064820152623a37b960e91b608482015260a4016102e1565b6000611daa611514565b90508015801590611dbb5750600b54155b15611e1f576040805180820190915260008152600b9060208101611dde8461194a565b6001600160e01b039081169091528254600181018455600093845260209384902083519490930151909116600160201b0263ffffffff909316929092179101555b611e4c611e3a611e2d611465565b65ffffffffffff166119b7565b611e438461194a565b600b9190611a1c565b505060408051828152602081018490527f0553476bf02ef2726e8ce5ced78d63e26e602e4a2257b1f559418e24b4633997910160405180910390a15050565b30611e94610a03565b6001600160a01b031614611f275760005b8451811015611f2557306001600160a01b0316858281518110611eca57611eca61444c565b60200260200101516001600160a01b03161415611f1557611f15838281518110611ef657611ef661444c565b602002602001015180519060200120600461301790919063ffffffff16565b611f1e81614543565b9050611ea5565b505b5050505050565b611f278585858585613053565b30611f44610a03565b6001600160a01b031614611f2757600454600f81810b600160801b909204900b1315611f27576000600455611f27565b60006113d485858585611f9260408051602081019091526000815290565b611b4c565b600080611fa3836130c7565b90506004816007811115611fb957611fb9613ce4565b14611fc45792915050565b6000838152600d602052604090205480611fdf575092915050565b600c54604051632ab0f52960e01b8152600481018390526001600160a01b0390911690632ab0f5299060240160206040518083038186803b15801561202357600080fd5b505afa158015612037573d6000803e3d6000fd5b505050506040513d601f19601f8201168201806040525081019061205b919061455e565b1561206a575060079392505050565b600c54604051632c258a9f60e11b8152600481018390526001600160a01b039091169063584b153e9060240160206040518083038186803b1580156120ae57600080fd5b505afa1580156120c2573d6000803e3d6000fd5b505050506040513d601f19601f820116820180604052508101906120e6919061455e565b156120f5575060059392505050565b5060029392505050565b60006113d485858585613204565b81546000908181600581111561216a576000612128846132b6565b6121329085614435565b60008881526020902090915081015463ffffffff908116908716101561215a57809150612168565b6121658160016143b0565b92505b505b60006121788787858561339b565b905080156121a55761218f87611a51600184614435565b54600160201b90046001600160e01b0316610fd8565b6000979650505050505050565b60065460408051918252602082018390527fc565b045403dc03c2eea82b81a0465edad9e2e7fc4d97e11421c209da93d7a93910160405180910390a1600655565b600033816121ff611465565b65ffffffffffff169050612211611673565b6122208361095e600185614435565b10156122885760405162461bcd60e51b815260206004820152603160248201527f476f7665726e6f723a2070726f706f73657220766f7465732062656c6f7720706044820152701c9bdc1bdcd85b081d1a1c995cda1bdb19607a1b60648201526084016102e1565b600061229d8888888880519060200120611792565b905086518851146122c05760405162461bcd60e51b81526004016102e190614580565b85518851146122e15760405162461bcd60e51b81526004016102e190614580565b60008851116123325760405162461bcd60e51b815260206004820152601860248201527f476f7665726e6f723a20656d7074792070726f706f73616c000000000000000060448201526064016102e1565b6000818152600360205260409020546001600160401b0316156123a15760405162461bcd60e51b815260206004820152602160248201527f476f7665726e6f723a2070726f706f73616c20616c72656164792065786973746044820152607360f81b60648201526084016102e1565b60006123ab610f62565b6123b590846143b0565b905060006123c1610a2d565b6123cb90836143b0565b90506040518060e001604052806123e1846133f9565b6001600160401b031681526001600160a01b03871660208201526000604082015260600161240e836133f9565b6001600160401b039081168252600060208084018290526040808501839052606094850183905288835260038252918290208551815492870151878501519186166001600160e01b031990941693909317600160401b6001600160a01b039094168402176001600160e01b0316600160e01b60e09290921c91909102178155938501516080860151908416921c0217600183015560a08301516002909201805460c09094015161ffff1990941692151561ff00191692909217610100931515939093029290921790558a517f7d84a6263ae0d98d3329bd7b46bb4e8d6f98cd35a7adb45c274c8b7fd5ebd5e091859188918e918e9181111561251257612512613822565b60405190808252806020026020018201604052801561254557816020015b60608152602001906001900390816125305790505b508d88888f60405161255f999897969594939291906145c1565b60405180910390a1509098975050505050505050565b606060ff83146125885761192583613461565b818054612594906141d1565b80601f01602080910402602001604051908101604052809291908181526020018280546125c0906141d1565b801561260d5780601f106125e25761010080835404028352916020019161260d565b820191906000526020600020905b8154815290600101906020018083116125f057829003601f168201915b50505050509050610a27565b604051630748d63560e31b81526001600160a01b038481166004830152602482018490526000917f000000000000000000000000000000000000000000000000000000000000000090911690633a46b1a89060440160206040518083038186803b15801561268657600080fd5b505afa15801561269a573d6000803e3d6000fd5b505050506040513d601f19601f8201168201806040525081019061150a919061424d565b600c54604080516001600160a01b03928316815291831660208301527f08f74ea46ef7894f65eabfb5e6e695de773a000b47c529ab559178069b226401910160405180910390a1600c80546001600160a01b0319166001600160a01b0392909216919091179055565b6060831561273657508161150d565b61150d83836134a0565b600081116127a05760405162461bcd60e51b815260206004820152602760248201527f476f7665726e6f7253657474696e67733a20766f74696e6720706572696f6420604482015266746f6f206c6f7760c81b60648201526084016102e1565b60075460408051918252602082018390527f7e3f7f0708a84de9203036abaa450dccc85ad5ff52f78c170f3edb55cf5e8828910160405180910390a1600755565b60085460408051918252602082018390527fccb45da8d5717e6c4544694297c4ba5cf151d455c9bb0ed4fc7a38411bc05461910160405180910390a1600855565b6000606461282f83611243565b604051632394e7a360e21b8152600481018590527f00000000000000000000000000000000000000000000000000000000000000006001600160a01b031690638e539e8c9060240160206040518083038186803b15801561288f57600080fd5b505afa1580156128a3573d6000803e3d6000fd5b505050506040513d601f19601f820116820180604052508101906128c7919061424d565b6128d19190614698565b610a2791906146cd565b600080829050601f81511115612906578260405163305a27a960e01b81526004016102e19190613a08565b8051612911826146ef565b179392505050565b825460009081908015612a6657600061293787611a51600185614435565b60408051808201909152905463ffffffff808216808452600160201b9092046001600160e01b0316602084015291925090871610156129b85760405162461bcd60e51b815260206004820152601b60248201527f436865636b706f696e743a2064656372656173696e67206b657973000000000060448201526064016102e1565b8563ffffffff16816000015163ffffffff161415612a0757846129e088611a51600186614435565b80546001600160e01b0392909216600160201b0263ffffffff909216919091179055612a56565b6040805180820190915263ffffffff80881682526001600160e01b0380881660208085019182528b54600181018d5560008d81529190912094519151909216600160201b029216919091179101555b602001519250839150611a2f9050565b50506040805180820190915263ffffffff80851682526001600160e01b0380851660208085019182528854600181018a5560008a815291822095519251909316600160201b029190931617920191909155905081611a2f565b600063288ace0360e11b6318df743f60e31b63bf26d89760e01b6379dd796f60e01b6001600160e01b03198616821480612b0557506001600160e01b0319868116908216145b80612b1c57506001600160e01b0319868116908516145b80612b3757506001600160e01b03198616630271189760e51b145b806110f557506301ffc9a760e01b6001600160e01b03198716149695505050505050565b6000306001600160a01b037f000000000000000000000000000000000000000000000000000000000000000016148015612bb457507f000000000000000000000000000000000000000000000000000000000000000046145b15612bde57507f000000000000000000000000000000000000000000000000000000000000000090565b610a17604080517f8b73c3c69bb8fe3d512ecc4cf759cc79239f7b179b0ffacaa9a75d522b39400f60208201527f0000000000000000000000000000000000000000000000000000000000000000918101919091527f000000000000000000000000000000000000000000000000000000000000000060608201524660808201523060a082015260009060c00160405160208183030381529060405280519060200120905090565b6000807f7fffffffffffffffffffffffffffffff5d576e7357a4501ddfe92f46681b20a0831115612cbd5750600090506003612d41565b6040805160008082526020820180845289905260ff881692820192909252606081018690526080810185905260019060a0016020604051602081039080840390855afa158015612d11573d6000803e3d6000fd5b5050604051601f1901519150506001600160a01b038116612d3a57600060019250925050612d41565b9150600090505b94509492505050565b6000816004811115612d5e57612d5e613ce4565b1415612d675750565b6001816004811115612d7b57612d7b613ce4565b1415612dc95760405162461bcd60e51b815260206004820152601860248201527f45434453413a20696e76616c6964207369676e6174757265000000000000000060448201526064016102e1565b6002816004811115612ddd57612ddd613ce4565b1415612e2b5760405162461bcd60e51b815260206004820152601f60248201527f45434453413a20696e76616c6964207369676e6174757265206c656e6774680060448201526064016102e1565b6003816004811115612e3f57612e3f613ce4565b1415610bbc5760405162461bcd60e51b815260206004820152602260248201527f45434453413a20696e76616c6964207369676e6174757265202773272076616c604482015261756560f01b60648201526084016102e1565b60008581526009602090815260408083206001600160a01b0388168452600381019092529091205460ff1615612f205760405162461bcd60e51b815260206004820152602760248201527f476f7665726e6f72566f74696e6753696d706c653a20766f746520616c726561604482015266191e4818d85cdd60ca1b60648201526084016102e1565b6001600160a01b03851660009081526003820160205260408120805460ff1916600117905560ff168460ff161415612f715782816000016000828254612f6691906143b0565b90915550611f259050565b60ff841660011415612f915782816001016000828254612f6691906143b0565b60ff841660021415612fb15782816002016000828254612f6691906143b0565b60405162461bcd60e51b815260206004820152603560248201527f476f7665726e6f72566f74696e6753696d706c653a20696e76616c69642076616044820152746c756520666f7220656e756d20566f74655479706560581b60648201526084016102e1565b8154600160801b90819004600f0b6000818152600180860160205260409091209390935583546001600160801b03908116939091011602179055565b600c5460405163e38335e560e01b81526001600160a01b039091169063e38335e590349061308e9088908890889060009089906004016142f4565b6000604051808303818588803b1580156130a757600080fd5b505af11580156130bb573d6000803e3d6000fd5b50505050505050505050565b6000818152600360205260408120600281015460ff16156130eb5750600792915050565b6002810154610100900460ff16156131065750600292915050565b6000838152600360205260409020546001600160401b03168061316b5760405162461bcd60e51b815260206004820152601d60248201527f476f7665726e6f723a20756e6b6e6f776e2070726f706f73616c20696400000060448201526064016102e1565b6000613175611465565b65ffffffffffff16905080821061319157506000949350505050565b6000858152600360205260409020600101546001600160401b03168181106131bf5750600195945050505050565b6131c8866134ca565b80156131e7575060008681526009602052604090208054600190910154115b156131f85750600495945050505050565b50600395945050505050565b60008061321386868686613516565b6000818152600d6020526040902054909150156113d457600c546000828152600d60205260409081902054905163c4d252f560e01b81526001600160a01b039092169163c4d252f59161326c9160040190815260200190565b600060405180830381600087803b15801561328657600080fd5b505af115801561329a573d6000803e3d6000fd5b5050506000828152600d60205260408120555095945050505050565b6000816132c557506000919050565b600060016132d284613622565b901c6001901b905060018184816132eb576132eb6146b7565b048201901c90506001818481613303576133036146b7565b048201901c9050600181848161331b5761331b6146b7565b048201901c90506001818481613333576133336146b7565b048201901c9050600181848161334b5761334b6146b7565b048201901c90506001818481613363576133636146b7565b048201901c9050600181848161337b5761337b6146b7565b048201901c905061150d81828581613395576133956146b7565b046136b6565b60005b818310156133f15760006133b284846136cc565b60008781526020902090915063ffffffff86169082015463ffffffff1611156133dd578092506133eb565b6133e88160016143b0565b93505b5061339e565b509392505050565b60006001600160401b038211156119b35760405162461bcd60e51b815260206004820152602660248201527f53616665436173743a2076616c756520646f65736e27742066697420696e203660448201526534206269747360d01b60648201526084016102e1565b6060600061346e836136e7565b604080516020808252818301909252919250600091906020820181803683375050509182525060208101929092525090565b8151156134b05781518083602001fd5b8060405162461bcd60e51b81526004016102e19190613a08565b6000818152600960205260408120600281015460018201546134ec91906143b0565b60008481526003602052604090205461350d906001600160401b0316611905565b11159392505050565b60008061352586868686611792565b9050600061353282610fe3565b9050600281600781111561354857613548613ce4565b141580156135685750600681600781111561356557613565613ce4565b14155b80156135865750600781600781111561358357613583613ce4565b14155b6135d25760405162461bcd60e51b815260206004820152601d60248201527f476f7665726e6f723a2070726f706f73616c206e6f742061637469766500000060448201526064016102e1565b60008281526003602052604090819020600201805461ff001916610100179055517f789cf55be980739dad1d0699b93b58e806b51c9d96619bfa8fe0a28abaa7b30c90610e5e9084815260200190565b600080608083901c1561363757608092831c92015b604083901c1561364957604092831c92015b602083901c1561365b57602092831c92015b601083901c1561366d57601092831c92015b600883901c1561367f57600892831c92015b600483901c1561369157600492831c92015b600283901c156136a357600292831c92015b600183901c15610a275760010192915050565b60008183106136c5578161150d565b5090919050565b60006136db60028484186146cd565b61150d908484166143b0565b600060ff8216601f811115610a2757604051632cd44ac360e21b815260040160405180910390fd5b82805461371b906141d1565b90600052602060002090601f01602090048101928261373d5760008555613783565b82601f1061375657805160ff1916838001178555613783565b82800160010185558215613783579182015b82811115613783578251825591602001919060010190613768565b506119b39291505b808211156119b3576000815560010161378b565b6000602082840312156137b157600080fd5b81356001600160e01b03198116811461150d57600080fd5b803560ff811681146111cb57600080fd5b60008083601f8401126137ec57600080fd5b5081356001600160401b0381111561380357600080fd5b60208301915083602082850101111561381b57600080fd5b9250929050565b634e487b7160e01b600052604160045260246000fd5b604051601f8201601f191681016001600160401b038111828210171561386057613860613822565b604052919050565b60006001600160401b0382111561388157613881613822565b50601f01601f191660200190565b60006138a261389d84613868565b613838565b90508281528383830111156138b657600080fd5b828260208301376000602084830101529392505050565b600082601f8301126138de57600080fd5b61150d8383356020850161388f565b60008060008060008060008060e0898b03121561390957600080fd5b8835975061391960208a016137c9565b965060408901356001600160401b038082111561393557600080fd5b6139418c838d016137da565b909850965060608b013591508082111561395a57600080fd5b506139678b828c016138cd565b94505061397660808a016137c9565b925060a0890135915060c089013590509295985092959890939650565b6000602082840312156139a557600080fd5b5035919050565b60005b838110156139c75781810151838201526020016139af565b838111156139d6576000848401525b50505050565b600081518084526139f48160208601602086016139ac565b601f01601f19169290920160200192915050565b60208152600061150d60208301846139dc565b6001600160a01b0381168114610bbc57600080fd5b60008060008060808587031215613a4657600080fd5b8435613a5181613a1b565b93506020850135613a6181613a1b565b92506040850135915060608501356001600160401b03811115613a8357600080fd5b613a8f878288016138cd565b91505092959194509250565b60006001600160401b03821115613ab457613ab4613822565b5060051b60200190565b600082601f830112613acf57600080fd5b81356020613adf61389d83613a9b565b82815260059290921b84018101918181019086841115613afe57600080fd5b8286015b84811015613b22578035613b1581613a1b565b8352918301918301613b02565b509695505050505050565b600082601f830112613b3e57600080fd5b81356020613b4e61389d83613a9b565b82815260059290921b84018101918181019086841115613b6d57600080fd5b8286015b84811015613b225780358352918301918301613b71565b600082601f830112613b9957600080fd5b81356020613ba961389d83613a9b565b82815260059290921b84018101918181019086841115613bc857600080fd5b8286015b84811015613b225780356001600160401b03811115613beb5760008081fd5b613bf98986838b01016138cd565b845250918301918301613bcc565b60008060008060808587031215613c1d57600080fd5b84356001600160401b0380821115613c3457600080fd5b613c4088838901613abe565b95506020870135915080821115613c5657600080fd5b613c6288838901613b2d565b94506040870135915080821115613c7857600080fd5b50613c8587828801613b88565b949793965093946060013593505050565b600080600080600060a08688031215613cae57600080fd5b85359450613cbe602087016137c9565b9350613ccc604087016137c9565b94979396509394606081013594506080013592915050565b634e487b7160e01b600052602160045260246000fd5b6020810160088310613d1c57634e487b7160e01b600052602160045260246000fd5b91905290565b60008060408385031215613d3557600080fd5b823591506020830135613d4781613a1b565b809150509250929050565b60008060408385031215613d6557600080fd5b82359150613d75602084016137c9565b90509250929050565b600080600080600060808688031215613d9657600080fd5b85359450613da6602087016137c9565b935060408601356001600160401b0380821115613dc257600080fd5b613dce89838a016137da565b90955093506060880135915080821115613de757600080fd5b50613df4888289016138cd565b9150509295509295909350565b60008060008060608587031215613e1757600080fd5b84359350613e27602086016137c9565b925060408501356001600160401b03811115613e4257600080fd5b613e4e878288016137da565b95989497509550505050565b60008060008060808587031215613e7057600080fd5b84356001600160401b0380821115613e8757600080fd5b613e9388838901613abe565b95506020870135915080821115613ea957600080fd5b613eb588838901613b2d565b94506040870135915080821115613ecb57600080fd5b613ed788838901613b88565b93506060870135915080821115613eed57600080fd5b508501601f81018713613eff57600080fd5b613a8f8782356020840161388f565b600081518084526020808501945080840160005b83811015613f3e57815187529582019590820190600101613f22565b509495945050505050565b60ff60f81b8816815260e060208201526000613f6860e08301896139dc565b8281036040840152613f7a81896139dc565b606084018890526001600160a01b038716608085015260a0840186905283810360c08501529050610b228185613f0e565b600080600060608486031215613fc057600080fd5b8335613fcb81613a1b565b92506020840135915060408401356001600160401b03811115613fed57600080fd5b613ff9868287016138cd565b9150509250925092565b60006020828403121561401557600080fd5b813561150d81613a1b565b600080600080600060a0868803121561403857600080fd5b853561404381613a1b565b9450602086013561405381613a1b565b935060408601356001600160401b038082111561406f57600080fd5b61407b89838a01613b2d565b9450606088013591508082111561409157600080fd5b61409d89838a01613b2d565b93506080880135915080821115613de757600080fd5b600080600080606085870312156140c957600080fd5b84356140d481613a1b565b93506020850135925060408501356001600160401b03811115613e4257600080fd5b6000806040838503121561410957600080fd5b823561411481613a1b565b946020939093013593505050565b600080600080600060a0868803121561413a57600080fd5b853561414581613a1b565b9450602086013561415581613a1b565b9350604086013592506060860135915060808601356001600160401b0381111561417e57600080fd5b613df4888289016138cd565b8183823760009101908152919050565b60208082526018908201527f476f7665726e6f723a206f6e6c79476f7665726e616e63650000000000000000604082015260600190565b600181811c908216806141e557607f821691505b6020821081141561420657634e487b7160e01b600052602260045260246000fd5b50919050565b60208082526021908201527f476f7665726e6f723a2070726f706f73616c206e6f74207375636365737366756040820152601b60fa1b606082015260800190565b60006020828403121561425f57600080fd5b5051919050565b600081518084526020808501945080840160005b83811015613f3e5781516001600160a01b03168752958201959082019060010161427a565b600081518084526020808501808196508360051b8101915082860160005b858110156142e75782840389526142d58483516139dc565b988501989350908401906001016142bd565b5091979650505050505050565b60a08152600061430760a0830188614266565b82810360208401526143198188613f0e565b9050828103604084015261432d818761429f565b60608401959095525050608001529392505050565b60c08152600061435560c0830189614266565b82810360208401526143678189613f0e565b9050828103604084015261437b818861429f565b60608401969096525050608081019290925260a0909101529392505050565b634e487b7160e01b600052601160045260246000fd5b600082198211156143c3576143c361439a565b500190565b6000602082840312156143da57600080fd5b81516001600160401b038111156143f057600080fd5b8201601f8101841361440157600080fd5b805161440f61389d82613868565b81815285602083850101111561442457600080fd5b6113d48260208301602086016139ac565b6000828210156144475761444761439a565b500390565b634e487b7160e01b600052603260045260246000fd5b60006020828403121561447457600080fd5b815165ffffffffffff8116811461150d57600080fd5b60808152600061449d6080830187614266565b82810360208401526144af8187613f0e565b905082810360408401526144c3818661429f565b91505082606083015295945050505050565b84815260ff841660208201528260408201526080606082015260006110f560808301846139dc565b85815260ff8516602082015283604082015260a06060820152600061452560a08301856139dc565b828103608084015261453781856139dc565b98975050505050505050565b60006000198214156145575761455761439a565b5060010190565b60006020828403121561457057600080fd5b8151801515811461150d57600080fd5b60208082526021908201527f476f7665726e6f723a20696e76616c69642070726f706f73616c206c656e67746040820152600d60fb1b606082015260800190565b60006101208b8352602060018060a01b038c16818501528160408501526145ea8285018c614266565b915083820360608501526145fe828b613f0e565b915083820360808501528189518084528284019150828160051b850101838c0160005b8381101561464f57601f1987840301855261463d8383516139dc565b94860194925090850190600101614621565b505086810360a0880152614663818c61429f565b9450505050508560c08401528460e084015282810361010084015261468881856139dc565b9c9b505050505050505050505050565b60008160001904831182151516156146b2576146b261439a565b500290565b634e487b7160e01b600052601260045260246000fd5b6000826146ea57634e487b7160e01b600052601260045260246000fd5b500490565b805160208083015191908110156142065760001960209190910360031b1b1691905056fe476f7665726e6f723a2072656c617920726576657274656420776974686f7574206d657373616765a26469706673582212201a9e23cc2ace4a556cf881aa9dc82d78db7a7d2baf33baa91fd71ae5ade5de8564736f6c63430008080033",
  "linkReferences": {},
  "deployedLinkReferences": {}
}