{
  "_format": "hh-sol-artifact-1",
  "contractName": "NDLToken",
  "sourceName": "contracts/NDL/NDLToken.sol",
  "abi": [
    {
      "inputs": [],
      "stateMutability": "nonpayable",
      "type": "constructor"
    },
    {
      "anonymous": false,
      "inputs": [
        {
          "indexed": true,
          "internalType": "address",
          "name": "owner",
          "type": "address"
        },
        {
          "indexed": true,
          "internalType": "address",
          "name": "spender",
          "type": "address"
        },
        {
          "indexed": false,
          "internalType": "uint256",
          "name": "value",
          "type": "uint256"
        }
      ],
      "name": "Approval",
      "type": "event"
    },
    {
      "anonymous": false,
      "inputs": [
        {
          "indexed": true,
          "internalType": "address",
          "name": "delegator",
          "type": "address"
        },
        {
          "indexed": true,
          "internalType": "address",
          "name": "fromDelegate",
          "type": "address"
        },
        {
          "indexed": true,
          "internalType": "address",
          "name": "toDelegate",
          "type": "address"
        }
      ],
      "name": "DelegateChanged",
      "type": "event"
    },
    {
      "anonymous": false,
      "inputs": [
        {
          "indexed": true,
          "internalType": "address",
          "name": "delegate",
          "type": "address"
        },
        {
          "indexed": false,
          "internalType": "uint256",
          "name": "previousBalance",
          "type": "uint256"
        },
        {
          "indexed": false,
          "internalType": "uint256",
          "name": "newBalance",
          "type": "uint256"
        }
      ],
      "name": "DelegateVotesChanged",
      "type": "event"
    },
    {
      "anonymous": false,
      "inputs": [],
      "name": "EIP712DomainChanged",
      "type": "event"
    },
    {
      "anonymous": false,
      "inputs": [
        {
          "indexed": false,
          "internalType": "uint8",
          "name": "version",
          "type": "uint8"
        }
      ],
      "name": "Initialized",
      "type": "event"
    },
    {
      "anonymous": false,
      "inputs": [
        {
          "indexed": true,
          "internalType": "address",
          "name": "previousOwner",
          "type": "address"
        },
        {
          "indexed": true,
          "internalType": "address",
          "name": "newOwner",
          "type": "address"
        }
      ],
      "name": "OwnershipTransferred",
      "type": "event"
    },
    {
      "anonymous": false,
      "inputs": [
        {
          "indexed": true,
          "internalType": "address",
          "name": "from",
          "type": "address"
        },
        {
          "indexed": true,
          "internalType": "address",
          "name": "to",
          "type": "address"
        },
        {
          "indexed": false,
          "internalType": "uint256",
          "name": "value",
          "type": "uint256"
        }
      ],
      "name": "Transfer",
      "type": "event"
    },
    {
      "inputs": [],
      "name": "CLOCK_MODE",
      "outputs": [
        {
          "internalType": "string",
          "name": "",
          "type": "string"
        }
      ],
      "stateMutability": "view",
      "type": "function"
    },
    {
      "inputs": [],
      "name": "DOMAIN_SEPARATOR",
      "outputs": [
        {
          "internalType": "bytes32",
          "name": "",
          "type": "bytes32"
        }
      ],
      "stateMutability": "view",
      "type": "function"
    },
    {
      "inputs": [
        {
          "internalType": "address",
          "name": "owner",
          "type": "address"
        },
        {
          "internalType": "address",
          "name": "spender",
          "type": "address"
        }
      ],
      "name": "allowance",
      "outputs": [
        {
          "internalType": "uint256",
          "name": "",
          "type": "uint256"
        }
      ],
      "stateMutability": "view",
      "type": "function"
    },
    {
      "inputs": [
        {
          "internalType": "address",
          "name": "spender",
          "type": "address"
        },
        {
          "internalType": "uint256",
          "name": "amount",
          "type": "uint256"
        }
      ],
      "name": "approve",
      "outputs": [
        {
          "internalType": "bool",
          "name": "",
          "type": "bool"
        }
      ],
      "stateMutability": "nonpayable",
      "type": "function"
    },
    {
      "inputs": [
        {
          "internalType": "address",
          "name": "account",
          "type": "address"
        }
      ],
      "name": "balanceOf",
      "outputs": [
        {
          "internalType": "uint256",
          "name": "",
          "type": "uint256"
        }
      ],
      "stateMutability": "view",
      "type": "function"
    },
    {
      "inputs": [
        {
          "internalType": "address",
          "name": "account",
          "type": "address"
        },
        {
          "internalType": "uint32",
          "name": "pos",
          "type": "uint32"
        }
      ],
      "name": "checkpoints",
      "outputs": [
        {
          "components": [
            {
              "internalType": "uint32",
              "name": "fromBlock",
              "type": "uint32"
            },
            {
              "internalType": "uint224",
              "name": "votes",
              "type": "uint224"
            }
          ],
          "internalType": "struct ERC20VotesUpgradeable.Checkpoint",
          "name": "",
          "type": "tuple"
        }
      ],
      "stateMutability": "view",
      "type": "function"
    },
    {
      "inputs": [],
      "name": "clock",
      "outputs": [
        {
          "internalType": "uint48",
          "name": "",
          "type": "uint48"
        }
      ],
      "stateMutability": "view",
      "type": "function"
    },
    {
      "inputs": [],
      "name": "decimals",
      "outputs": [
        {
          "internalType": "uint8",
          "name": "",
          "type": "uint8"
        }
      ],
      "stateMutability": "view",
      "type": "function"
    },
    {
      "inputs": [
        {
          "internalType": "address",
          "name": "spender",
          "type": "address"
        },
        {
          "internalType": "uint256",
          "name": "subtractedValue",
          "type": "uint256"
        }
      ],
      "name": "decreaseAllowance",
      "outputs": [
        {
          "internalType": "bool",
          "name": "",
          "type": "bool"
        }
      ],
      "stateMutability": "nonpayable",
      "type": "function"
    },
    {
      "inputs": [
        {
          "internalType": "address",
          "name": "delegatee",
          "type": "address"
        }
      ],
      "name": "delegate",
      "outputs": [],
      "stateMutability": "nonpayable",
      "type": "function"
    },
    {
      "inputs": [
        {
          "internalType": "address",
          "name": "delegatee",
          "type": "address"
        },
        {
          "internalType": "uint256",
          "name": "nonce",
          "type": "uint256"
        },
        {
          "internalType": "uint256",
          "name": "expiry",
          "type": "uint256"
        },
        {
          "internalType": "uint8",
          "name": "v",
          "type": "uint8"
        },
        {
          "internalType": "bytes32",
          "name": "r",
          "type": "bytes32"
        },
        {
          "internalType": "bytes32",
          "name": "s",
          "type": "bytes32"
        }
      ],
      "name": "delegateBySig",
      "outputs": [],
      "stateMutability": "nonpayable",
      "type": "function"
    },
    {
      "inputs": [
        {
          "internalType": "address",
          "name": "account",
          "type": "address"
        }
      ],
      "name": "delegates",
      "outputs": [
        {
          "internalType": "address",
          "name": "",
          "type": "address"
        }
      ],
      "stateMutability": "view",
      "type": "function"
    },
    {
      "inputs": [],
      "name": "eip712Domain",
      "outputs": [
        {
          "internalType": "bytes1",
          "name": "fields",
          "type": "bytes1"
        },
        {
          "internalType": "string",
          "name": "name",
          "type": "string"
        },
        {
          "internalType": "string",
          "name": "version",
          "type": "string"
        },
        {
          "internalType": "uint256",
          "name": "chainId",
          "type": "uint256"
        },
        {
          "internalType": "address",
          "name": "verifyingContract",
          "type": "address"
        },
        {
          "internalType": "bytes32",
          "name": "salt",
          "type": "bytes32"
        },
        {
          "internalType": "uint256[]",
          "name": "extensions",
          "type": "uint256[]"
        }
      ],
      "stateMutability": "view",
      "type": "function"
    },
    {
      "inputs": [
        {
          "internalType": "uint256",
          "name": "timepoint",
          "type": "uint256"
        }
      ],
      "name": "getPastTotalSupply",
      "outputs": [
        {
          "internalType": "uint256",
          "name": "",
          "type": "uint256"
        }
      ],
      "stateMutability": "view",
      "type": "function"
    },
    {
      "inputs": [
        {
          "internalType": "address",
          "name": "account",
          "type": "address"
        },
        {
          "internalType": "uint256",
          "name": "timepoint",
          "type": "uint256"
        }
      ],
      "name": "getPastVotes",
      "outputs": [
        {
          "internalType": "uint256",
          "name": "",
          "type": "uint256"
        }
      ],
      "stateMutability": "view",
      "type": "function"
    },
    {
      "inputs": [
        {
          "internalType": "address",
          "name": "account",
          "type": "address"
        }
      ],
      "name": "getVotes",
      "outputs": [
        {
          "internalType": "uint256",
          "name": "",
          "type": "uint256"
        }
      ],
      "stateMutability": "view",
      "type": "function"
    },
    {
      "inputs": [
        {
          "internalType": "address",
          "name": "spender",
          "type": "address"
        },
        {
          "internalType": "uint256",
          "name": "addedValue",
          "type": "uint256"
        }
      ],
      "name": "increaseAllowance",
      "outputs": [
        {
          "internalType": "bool",
          "name": "",
          "type": "bool"
        }
      ],
      "stateMutability": "nonpayable",
      "type": "function"
    },
    {
      "inputs": [],
      "name": "initialize",
      "outputs": [],
      "stateMutability": "nonpayable",
      "type": "function"
    },
    {
      "inputs": [
        {
          "internalType": "address",
          "name": "pool",
          "type": "address"
        }
      ],
      "name": "initializePool",
      "outputs": [],
      "stateMutability": "nonpayable",
      "type": "function"
    },
    {
      "inputs": [
        {
          "internalType": "address",
          "name": "to",
          "type": "address"
        },
        {
          "internalType": "uint256",
          "name": "amount",
          "type": "uint256"
        }
      ],
      "name": "mint",
      "outputs": [],
      "stateMutability": "nonpayable",
      "type": "function"
    },
    {
      "inputs": [],
      "name": "name",
      "outputs": [
        {
          "internalType": "string",
          "name": "",
          "type": "string"
        }
      ],
      "stateMutability": "view",
      "type": "function"
    },
    {
      "inputs": [
        {
          "internalType": "address",
          "name": "owner",
          "type": "address"
        }
      ],
      "name": "nonces",
      "outputs": [
        {
          "internalType": "uint256",
          "name": "",
          "type": "uint256"
        }
      ],
      "stateMutability": "view",
      "type": "function"
    },
    {
      "inputs": [
        {
          "internalType": "address",
          "name": "account",
          "type": "address"
        }
      ],
      "name": "numCheckpoints",
      "outputs": [
        {
          "internalType": "uint32",
          "name": "",
          "type": "uint32"
        }
      ],
      "stateMutability": "view",
      "type": "function"
    },
    {
      "inputs": [],
      "name": "owner",
      "outputs": [
        {
          "internalType": "address",
          "name": "",
          "type": "address"
        }
      ],
      "stateMutability": "view",
      "type": "function"
    },
    {
      "inputs": [
        {
          "internalType": "address",
          "name": "owner",
          "type": "address"
        },
        {
          "internalType": "address",
          "name": "spender",
          "type": "address"
        },
        {
          "internalType": "uint256",
          "name": "value",
          "type": "uint256"
        },
        {
          "internalType": "uint256",
          "name": "deadline",
          "type": "uint256"
        },
        {
          "internalType": "uint8",
          "name": "v",
          "type": "uint8"
        },
        {
          "internalType": "bytes32",
          "name": "r",
          "type": "bytes32"
        },
        {
          "internalType": "bytes32",
          "name": "s",
          "type": "bytes32"
        }
      ],
      "name": "permit",
      "outputs": [],
      "stateMutability": "nonpayable",
      "type": "function"
    },
    {
      "inputs": [],
      "name": "renounceOwnership",
      "outputs": [],
      "stateMutability": "nonpayable",
      "type": "function"
    },
    {
      "inputs": [],
      "name": "symbol",
      "outputs": [
        {
          "internalType": "string",
          "name": "",
          "type": "string"
        }
      ],
      "stateMutability": "view",
      "type": "function"
    },
    {
      "inputs": [],
      "name": "totalSupply",
      "outputs": [
        {
          "internalType": "uint256",
          "name": "",
          "type": "uint256"
        }
      ],
      "stateMutability": "view",
      "type": "function"
    },
    {
      "inputs": [
        {
          "internalType": "address",
          "name": "to",
          "type": "address"
        },
        {
          "internalType": "uint256",
          "name": "amount",
          "type": "uint256"
        }
      ],
      "name": "transfer",
      "outputs": [
        {
          "internalType": "bool",
          "name": "",
          "type": "bool"
        }
      ],
      "stateMutability": "nonpayable",
      "type": "function"
    },
    {
      "inputs": [
        {
          "internalType": "address",
          "name": "from",
          "type": "address"
        },
        {
          "internalType": "address",
          "name": "to",
          "type": "address"
        },
        {
          "internalType": "uint256",
          "name": "amount",
          "type": "uint256"
        }
      ],
      "name": "transferFrom",
      "outputs": [
        {
          "internalType": "bool",
          "name": "",
          "type": "bool"
        }
      ],
      "stateMutability": "nonpayable",
      "type": "function"
    },
    {
      "inputs": [
        {
          "internalType": "address",
          "name": "newOwner",
          "type": "address"
        }
      ],
      "name": "transferOwnership",
      "outputs": [],
      "stateMutability": "nonpayable",
      "type": "function"
    }
  ],
  "bytecode": "0x608060405234801561001057600080fd5b5061272c806100206000396000f3fe608060405234801561001057600080fd5b50600436106101e55760003560e01c8063715018a61161010f5780639ab24eb0116100a2578063d505accf11610071578063d505accf1461043a578063dd62ed3e1461044d578063f1127ed814610460578063f2fde38b1461049d57600080fd5b80639ab24eb0146103ee578063a457c2d714610401578063a9059cbb14610414578063c3cda5201461042757600080fd5b80638da5cb5b116100de5780638da5cb5b146103a35780638e539e8c146103b457806391ddadf4146103c757806395d89b41146103e657600080fd5b8063715018a6146103655780637ecebe001461036d5780638129fc1c1461038057806384b0196e1461038857600080fd5b80633a46b1a811610187578063587cde1e11610156578063587cde1e146102bd5780635c19a95c146103015780636fcfff451461031457806370a082311461033c57600080fd5b80633a46b1a81461027a578063407431f71461028d57806340c10f19146102a25780634bf5d7e9146102b557600080fd5b806323b872dd116101c357806323b872dd1461023d578063313ce567146102505780633644e5151461025f578063395093511461026757600080fd5b806306fdde03146101ea578063095ea7b31461020857806318160ddd1461022b575b600080fd5b6101f26104b0565b6040516101ff9190612216565b60405180910390f35b61021b610216366004612245565b610542565b60405190151581526020016101ff565b6035545b6040519081526020016101ff565b61021b61024b36600461226f565b61055c565b604051601281526020016101ff565b61022f610580565b61021b610275366004612245565b61058f565b61022f610288366004612245565b6105b1565b6102a061029b3660046122ab565b61063b565b005b6102a06102b0366004612245565b61066a565b6101f26106d3565b6102e96102cb3660046122ab565b6001600160a01b03908116600090815260fe60205260409020541690565b6040516001600160a01b0390911681526020016101ff565b6102a061030f3660046122ab565b61076b565b6103276103223660046122ab565b610775565b60405163ffffffff90911681526020016101ff565b61022f61034a3660046122ab565b6001600160a01b031660009081526033602052604090205490565b6102a0610797565b61022f61037b3660046122ab565b6107ab565b6102a06107c9565b61039061096a565b6040516101ff97969594939291906122c6565b6065546001600160a01b03166102e9565b61022f6103c236600461235c565b610a08565b6103cf610a70565b60405165ffffffffffff90911681526020016101ff565b6101f2610a7b565b61022f6103fc3660046122ab565b610a8a565b61021b61040f366004612245565b610b0c565b61021b610422366004612245565b610b87565b6102a0610435366004612386565b610b95565b6102a06104483660046123de565b610ccb565b61022f61045b366004612448565b610e2f565b61047361046e36600461247b565b610e5a565b60408051825163ffffffff1681526020928301516001600160e01b031692810192909252016101ff565b6102a06104ab3660046122ab565b610ede565b6060603680546104bf906124bb565b80601f01602080910402602001604051908101604052809291908181526020018280546104eb906124bb565b80156105385780601f1061050d57610100808354040283529160200191610538565b820191906000526020600020905b81548152906001019060200180831161051b57829003601f168201915b5050505050905090565b600033610550818585610f54565b60019150505b92915050565b60003361056a858285611078565b6105758585856110f2565b506001949350505050565b600061058a6112a3565b905090565b6000336105508185856105a28383610e2f565b6105ac9190612506565b610f54565b60006105bb610a70565b65ffffffffffff1682106106125760405162461bcd60e51b815260206004820152601960248201527804552433230566f7465733a20667574757265206c6f6f6b757603c1b60448201526064015b60405180910390fd5b6001600160a01b038316600090815260ff6020526040902061063490836112ad565b9392505050565b610643611396565b61013080546001600160a01b0319166001600160a01b038316179055610667610797565b50565b610130546001600160a01b031633146106c55760405162461bcd60e51b815260206004820152601f60248201527f4f776e61626c653a2063616c6c6572206973206e6f742074686520706f6f6c006044820152606401610609565b6106cf82826113f0565b5050565b6060436106de610a70565b65ffffffffffff16146107335760405162461bcd60e51b815260206004820152601d60248201527f4552433230566f7465733a2062726f6b656e20636c6f636b206d6f64650000006044820152606401610609565b5060408051808201909152601d81527f6d6f64653d626c6f636b6e756d6265722666726f6d3d64656661756c74000000602082015290565b61066733826113fa565b6001600160a01b038116600090815260ff602052604081205461055690611474565b61079f611396565b6107a960006114dd565b565b6001600160a01b038116600090815260cb6020526040812054610556565b600054610100900460ff16158080156107e95750600054600160ff909116105b806108035750303b158015610803575060005460ff166001145b6108665760405162461bcd60e51b815260206004820152602e60248201527f496e697469616c697a61626c653a20636f6e747261637420697320616c72656160448201526d191e481a5b9a5d1a585b1a5e995960921b6064820152608401610609565b6000805460ff191660011790558015610889576000805461ff0019166101001790555b6108ce604051806040016040528060088152602001672722262a37b5b2b760c11b8152506040518060400160405280600381526020016213911360ea1b81525061152f565b6108f7604051806040016040528060088152602001672722262a37b5b2b760c11b815250611560565b6108ff6115aa565b6109223361090f6012600a612602565b61091d90633b9aca00612611565b6113f0565b8015610667576000805461ff0019169055604051600181527f7f26b83ff96e1f2b6a682f133852f6798a09c465da95921460cefb38474024989060200160405180910390a150565b6000606080600080600060606097546000801b14801561098a5750609854155b6109ce5760405162461bcd60e51b81526020600482015260156024820152741152540dcc4c8e88155b9a5b9a5d1a585b1a5e9959605a1b6044820152606401610609565b6109d66115d9565b6109de6115e8565b60408051600080825260208201909252600f60f81b9b939a50919850469750309650945092509050565b6000610a12610a70565b65ffffffffffff168210610a645760405162461bcd60e51b815260206004820152601960248201527804552433230566f7465733a20667574757265206c6f6f6b757603c1b6044820152606401610609565b610556610100836112ad565b600061058a436115f7565b6060603780546104bf906124bb565b6001600160a01b038116600090815260ff60205260408120548015610af9576001600160a01b038316600090815260ff6020526040902080546000198301908110610ad757610ad7612630565b60009182526020909120015464010000000090046001600160e01b0316610afc565b60005b6001600160e01b03169392505050565b60003381610b1a8286610e2f565b905083811015610b7a5760405162461bcd60e51b815260206004820152602560248201527f45524332303a2064656372656173656420616c6c6f77616e63652062656c6f77604482015264207a65726f60d81b6064820152608401610609565b6105758286868403610f54565b6000336105508185856110f2565b83421115610be55760405162461bcd60e51b815260206004820152601d60248201527f4552433230566f7465733a207369676e617475726520657870697265640000006044820152606401610609565b604080517fe48329057bfd03d55e49b547132e39cffd9c1820ad7b9d4c5307691425d15adf60208201526001600160a01b038816918101919091526060810186905260808101859052600090610c5f90610c579060a0016040516020818303038152906040528051906020012061165e565b85858561168b565b9050610c6a816116b3565b8614610cb85760405162461bcd60e51b815260206004820152601960248201527f4552433230566f7465733a20696e76616c6964206e6f6e6365000000000000006044820152606401610609565b610cc281886113fa565b50505050505050565b83421115610d1b5760405162461bcd60e51b815260206004820152601d60248201527f45524332305065726d69743a206578706972656420646561646c696e650000006044820152606401610609565b60007f6e71edae12b1b97f4d1f60370fef10105fa2faae0126114a169c64845d6126c9888888610d4a8c6116b3565b6040805160208101969096526001600160a01b0394851690860152929091166060840152608083015260a082015260c0810186905260e0016040516020818303038152906040528051906020012090506000610da58261165e565b90506000610db58287878761168b565b9050896001600160a01b0316816001600160a01b031614610e185760405162461bcd60e51b815260206004820152601e60248201527f45524332305065726d69743a20696e76616c6964207369676e617475726500006044820152606401610609565b610e238a8a8a610f54565b50505050505050505050565b6001600160a01b03918216600090815260346020908152604080832093909416825291909152205490565b60408051808201909152600080825260208201526001600160a01b038316600090815260ff60205260409020805463ffffffff8416908110610e9e57610e9e612630565b60009182526020918290206040805180820190915291015463ffffffff8116825264010000000090046001600160e01b0316918101919091529392505050565b610ee6611396565b6001600160a01b038116610f4b5760405162461bcd60e51b815260206004820152602660248201527f4f776e61626c653a206e6577206f776e657220697320746865207a65726f206160448201526564647265737360d01b6064820152608401610609565b610667816114dd565b6001600160a01b038316610fb65760405162461bcd60e51b8152602060048201526024808201527f45524332303a20617070726f76652066726f6d20746865207a65726f206164646044820152637265737360e01b6064820152608401610609565b6001600160a01b0382166110175760405162461bcd60e51b815260206004820152602260248201527f45524332303a20617070726f766520746f20746865207a65726f206164647265604482015261737360f01b6064820152608401610609565b6001600160a01b0383811660008181526034602090815260408083209487168084529482529182902085905590518481527f8c5be1e5ebec7d5bd14f71427d1e84f3dd0314c0f7b2291e5b200ac8c7c3b925910160405180910390a3505050565b60006110848484610e2f565b905060001981146110ec57818110156110df5760405162461bcd60e51b815260206004820152601d60248201527f45524332303a20696e73756666696369656e7420616c6c6f77616e63650000006044820152606401610609565b6110ec8484848403610f54565b50505050565b6001600160a01b0383166111565760405162461bcd60e51b815260206004820152602560248201527f45524332303a207472616e736665722066726f6d20746865207a65726f206164604482015264647265737360d81b6064820152608401610609565b6001600160a01b0382166111b85760405162461bcd60e51b815260206004820152602360248201527f45524332303a207472616e7366657220746f20746865207a65726f206164647260448201526265737360e81b6064820152608401610609565b6001600160a01b038316600090815260336020526040902054818110156112305760405162461bcd60e51b815260206004820152602660248201527f45524332303a207472616e7366657220616d6f756e7420657863656564732062604482015265616c616e636560d01b6064820152608401610609565b6001600160a01b0380851660008181526033602052604080822086860390559286168082529083902080548601905591517fddf252ad1be2c89b69c2b068fc378daa952ba7f163c4a11628f55a4df523b3ef906112909086815260200190565b60405180910390a36110ec8484846116e0565b600061058a6116eb565b8154600090818160058111156113075760006112c88461175f565b6112d29085612646565b600088815260209020909150869082015463ffffffff1611156112f757809150611305565b611302816001612506565b92505b505b8082101561135457600061131b8383611844565b600088815260209020909150869082015463ffffffff1611156113405780915061134e565b61134b816001612506565b92505b50611307565b8015611380576000868152602090208101600019015464010000000090046001600160e01b0316611383565b60005b6001600160e01b03169695505050505050565b6065546001600160a01b031633146107a95760405162461bcd60e51b815260206004820181905260248201527f4f776e61626c653a2063616c6c6572206973206e6f7420746865206f776e65726044820152606401610609565b6106cf828261185f565b6001600160a01b03828116600081815260fe6020818152604080842080546033845282862054949093528787166001600160a01b03198416811790915590519190951694919391928592917f3134e8a2e6d97e929a7e54011ea5485d7d196dd5f0ba4d4ef95803e8e3fc257f9190a46110ec8284836118ea565b600063ffffffff8211156114d95760405162461bcd60e51b815260206004820152602660248201527f53616665436173743a2076616c756520646f65736e27742066697420696e203360448201526532206269747360d01b6064820152608401610609565b5090565b606580546001600160a01b038381166001600160a01b0319831681179093556040519116919082907f8be0079c531659141344cd1fd0a4f28419497f9722a3daafe3b4186f6b6457e090600090a35050565b600054610100900460ff166115565760405162461bcd60e51b81526004016106099061265d565b6106cf8282611a27565b600054610100900460ff166115875760405162461bcd60e51b81526004016106099061265d565b61066781604051806040016040528060018152602001603160f81b815250611a75565b600054610100900460ff166115d15760405162461bcd60e51b81526004016106099061265d565b6107a9611ad2565b6060609980546104bf906124bb565b6060609a80546104bf906124bb565b600065ffffffffffff8211156114d95760405162461bcd60e51b815260206004820152602660248201527f53616665436173743a2076616c756520646f65736e27742066697420696e203460448201526538206269747360d01b6064820152608401610609565b600061055661166b6112a3565b8360405161190160f01b8152600281019290925260228201526042902090565b600080600061169c87878787611b02565b915091506116a981611bc6565b5095945050505050565b6001600160a01b038116600090815260cb602052604090208054600181018255905b50919050565b505050565b6116db838383611d14565b60007f8b73c3c69bb8fe3d512ecc4cf759cc79239f7b179b0ffacaa9a75d522b39400f611716611d46565b61171e611d9f565b60408051602081019490945283019190915260608201524660808201523060a082015260c00160405160208183030381529060405280519060200120905090565b60008161176e57506000919050565b6000600161177b84611dd0565b901c6001901b90506001818481611794576117946126a8565b048201901c905060018184816117ac576117ac6126a8565b048201901c905060018184816117c4576117c46126a8565b048201901c905060018184816117dc576117dc6126a8565b048201901c905060018184816117f4576117f46126a8565b048201901c9050600181848161180c5761180c6126a8565b048201901c90506001818481611824576118246126a8565b048201901c90506106348182858161183e5761183e6126a8565b04611e64565b600061185360028484186126be565b61063490848416612506565b6118698282611e7a565b6035546001600160e01b0310156118db5760405162461bcd60e51b815260206004820152603060248201527f4552433230566f7465733a20746f74616c20737570706c79207269736b73206f60448201526f766572666c6f77696e6720766f74657360801b6064820152608401610609565b6110ec610100611f4383611f4f565b816001600160a01b0316836001600160a01b03161415801561190c5750600081115b156116db576001600160a01b0383161561199a576001600160a01b038316600090815260ff602052604081208190611947906120c485611f4f565b91509150846001600160a01b03167fdec2bacdd2f05b59de34da9b523dff8be42e5e38e818c82fdb0bae774387a724838360405161198f929190918252602082015260400190565b60405180910390a250505b6001600160a01b038216156116db576001600160a01b038216600090815260ff6020526040812081906119d090611f4385611f4f565b91509150836001600160a01b03167fdec2bacdd2f05b59de34da9b523dff8be42e5e38e818c82fdb0bae774387a7248383604051611a18929190918252602082015260400190565b60405180910390a25050505050565b600054610100900460ff16611a4e5760405162461bcd60e51b81526004016106099061265d565b8151611a61906036906020850190612139565b5080516116db906037906020840190612139565b600054610100900460ff16611a9c5760405162461bcd60e51b81526004016106099061265d565b8151611aaf906099906020850190612139565b508051611ac390609a906020840190612139565b50506000609781905560985550565b600054610100900460ff16611af95760405162461bcd60e51b81526004016106099061265d565b6107a9336114dd565b6000807f7fffffffffffffffffffffffffffffff5d576e7357a4501ddfe92f46681b20a0831115611b395750600090506003611bbd565b6040805160008082526020820180845289905260ff881692820192909252606081018690526080810185905260019060a0016020604051602081039080840390855afa158015611b8d573d6000803e3d6000fd5b5050604051601f1901519150506001600160a01b038116611bb657600060019250925050611bbd565b9150600090505b94509492505050565b6000816004811115611bda57611bda6126e0565b1415611be35750565b6001816004811115611bf757611bf76126e0565b1415611c455760405162461bcd60e51b815260206004820152601860248201527f45434453413a20696e76616c6964207369676e617475726500000000000000006044820152606401610609565b6002816004811115611c5957611c596126e0565b1415611ca75760405162461bcd60e51b815260206004820152601f60248201527f45434453413a20696e76616c6964207369676e6174757265206c656e677468006044820152606401610609565b6003816004811115611cbb57611cbb6126e0565b14156106675760405162461bcd60e51b815260206004820152602260248201527f45434453413a20696e76616c6964207369676e6174757265202773272076616c604482015261756560f01b6064820152608401610609565b6001600160a01b03838116600090815260fe60205260408082205485841683529120546116db929182169116836118ea565b600080611d516115d9565b805190915015611d68578051602090910120919050565b6097548015611d775792915050565b7fc5d2460186f7233c927e7db2dcc703c0e500b653ca82273b7bfad8045d85a4709250505090565b600080611daa6115e8565b805190915015611dc1578051602090910120919050565b6098548015611d775792915050565b600080608083901c15611de557608092831c92015b604083901c15611df757604092831c92015b602083901c15611e0957602092831c92015b601083901c15611e1b57601092831c92015b600883901c15611e2d57600892831c92015b600483901c15611e3f57600492831c92015b600283901c15611e5157600292831c92015b600183901c156105565760010192915050565b6000818310611e735781610634565b5090919050565b6001600160a01b038216611ed05760405162461bcd60e51b815260206004820152601f60248201527f45524332303a206d696e7420746f20746865207a65726f2061646472657373006044820152606401610609565b8060356000828254611ee29190612506565b90915550506001600160a01b0382166000818152603360209081526040808320805486019055518481527fddf252ad1be2c89b69c2b068fc378daa952ba7f163c4a11628f55a4df523b3ef910160405180910390a36106cf600083836116e0565b60006106348284612506565b82546000908190818115611f9c5760008781526020902082016000190160408051808201909152905463ffffffff8116825264010000000090046001600160e01b03166020820152611fb1565b60408051808201909152600080825260208201525b905080602001516001600160e01b03169350611fd184868863ffffffff16565b9250600082118015611ffb5750611fe6610a70565b65ffffffffffff16816000015163ffffffff16145b1561204057612009836120d0565b60008881526020902083016000190180546001600160e01b03929092166401000000000263ffffffff9092169190911790556120ba565b866040518060400160405280612064612057610a70565b65ffffffffffff16611474565b63ffffffff168152602001612078866120d0565b6001600160e01b0390811690915282546001810184556000938452602093849020835194909301519091166401000000000263ffffffff909316929092179101555b5050935093915050565b60006106348284612646565b60006001600160e01b038211156114d95760405162461bcd60e51b815260206004820152602760248201527f53616665436173743a2076616c756520646f65736e27742066697420696e20326044820152663234206269747360c81b6064820152608401610609565b828054612145906124bb565b90600052602060002090601f01602090048101928261216757600085556121ad565b82601f1061218057805160ff19168380011785556121ad565b828001600101855582156121ad579182015b828111156121ad578251825591602001919060010190612192565b506114d99291505b808211156114d957600081556001016121b5565b6000815180845260005b818110156121ef576020818501810151868301820152016121d3565b81811115612201576000602083870101525b50601f01601f19169290920160200192915050565b60208152600061063460208301846121c9565b80356001600160a01b038116811461224057600080fd5b919050565b6000806040838503121561225857600080fd5b61226183612229565b946020939093013593505050565b60008060006060848603121561228457600080fd5b61228d84612229565b925061229b60208501612229565b9150604084013590509250925092565b6000602082840312156122bd57600080fd5b61063482612229565b60ff60f81b881681526000602060e0818401526122e660e084018a6121c9565b83810360408501526122f8818a6121c9565b606085018990526001600160a01b038816608086015260a0850187905284810360c0860152855180825283870192509083019060005b8181101561234a5783518352928401929184019160010161232e565b50909c9b505050505050505050505050565b60006020828403121561236e57600080fd5b5035919050565b803560ff8116811461224057600080fd5b60008060008060008060c0878903121561239f57600080fd5b6123a887612229565b955060208701359450604087013593506123c460608801612375565b92506080870135915060a087013590509295509295509295565b600080600080600080600060e0888a0312156123f957600080fd5b61240288612229565b965061241060208901612229565b9550604088013594506060880135935061242c60808901612375565b925060a0880135915060c0880135905092959891949750929550565b6000806040838503121561245b57600080fd5b61246483612229565b915061247260208401612229565b90509250929050565b6000806040838503121561248e57600080fd5b61249783612229565b9150602083013563ffffffff811681146124b057600080fd5b809150509250929050565b600181811c908216806124cf57607f821691505b602082108114156116d557634e487b7160e01b600052602260045260246000fd5b634e487b7160e01b600052601160045260246000fd5b60008219821115612519576125196124f0565b500190565b600181815b8085111561255957816000190482111561253f5761253f6124f0565b8085161561254c57918102915b93841c9390800290612523565b509250929050565b60008261257057506001610556565b8161257d57506000610556565b8160018114612593576002811461259d576125b9565b6001915050610556565b60ff8411156125ae576125ae6124f0565b50506001821b610556565b5060208310610133831016604e8410600b84101617156125dc575081810a610556565b6125e6838361251e565b80600019048211156125fa576125fa6124f0565b029392505050565b600061063460ff841683612561565b600081600019048311821515161561262b5761262b6124f0565b500290565b634e487b7160e01b600052603260045260246000fd5b600082821015612658576126586124f0565b500390565b6020808252602b908201527f496e697469616c697a61626c653a20636f6e7472616374206973206e6f74206960408201526a6e697469616c697a696e6760a81b606082015260800190565b634e487b7160e01b600052601260045260246000fd5b6000826126db57634e487b7160e01b600052601260045260246000fd5b500490565b634e487b7160e01b600052602160045260246000fdfea2646970667358221220ac60b57212cff36f500faf5211e8eeedf68d141b292a381366602084a1be0bfb64736f6c63430008080033",
  "linkReferences": {},
  "deployedLinkReferences": {}
}