{
  "_format": "hh-sol-artifact-1",
  "contractName": "NDLToken",
  "sourceName": "contracts/NDL/NDLToken.sol",
  "abi": [
    {
      "inputs": [],
      "stateMutability": "nonpayable",
      "type": "constructor"
    },
    {
      "anonymous": false,
      "inputs": [
        {
          "indexed": true,
          "internalType": "address",
          "name": "owner",
          "type": "address"
        },
        {
          "indexed": true,
          "internalType": "address",
          "name": "spender",
          "type": "address"
        },
        {
          "indexed": false,
          "internalType": "uint256",
          "name": "value",
          "type": "uint256"
        }
      ],
      "name": "Approval",
      "type": "event"
    },
    {
      "anonymous": false,
      "inputs": [
        {
          "indexed": true,
          "internalType": "address",
          "name": "delegator",
          "type": "address"
        },
        {
          "indexed": true,
          "internalType": "address",
          "name": "fromDelegate",
          "type": "address"
        },
        {
          "indexed": true,
          "internalType": "address",
          "name": "toDelegate",
          "type": "address"
        }
      ],
      "name": "DelegateChanged",
      "type": "event"
    },
    {
      "anonymous": false,
      "inputs": [
        {
          "indexed": true,
          "internalType": "address",
          "name": "delegate",
          "type": "address"
        },
        {
          "indexed": false,
          "internalType": "uint256",
          "name": "previousBalance",
          "type": "uint256"
        },
        {
          "indexed": false,
          "internalType": "uint256",
          "name": "newBalance",
          "type": "uint256"
        }
      ],
      "name": "DelegateVotesChanged",
      "type": "event"
    },
    {
      "anonymous": false,
      "inputs": [],
      "name": "EIP712DomainChanged",
      "type": "event"
    },
    {
      "anonymous": false,
      "inputs": [
        {
          "indexed": false,
          "internalType": "uint8",
          "name": "version",
          "type": "uint8"
        }
      ],
      "name": "Initialized",
      "type": "event"
    },
    {
      "anonymous": false,
      "inputs": [
        {
          "indexed": false,
          "internalType": "address",
          "name": "_lockupContractFactoryAddress",
          "type": "address"
        }
      ],
      "name": "LockupContractFactoryAddressSet",
      "type": "event"
    },
    {
      "anonymous": false,
      "inputs": [
        {
          "indexed": false,
          "internalType": "address",
          "name": "_ndlStakingAddress",
          "type": "address"
        }
      ],
      "name": "NDLStakingAddressSet",
      "type": "event"
    },
    {
      "anonymous": false,
      "inputs": [
        {
          "indexed": true,
          "internalType": "address",
          "name": "previousOwner",
          "type": "address"
        },
        {
          "indexed": true,
          "internalType": "address",
          "name": "newOwner",
          "type": "address"
        }
      ],
      "name": "OwnershipTransferred",
      "type": "event"
    },
    {
      "anonymous": false,
      "inputs": [
        {
          "indexed": true,
          "internalType": "address",
          "name": "from",
          "type": "address"
        },
        {
          "indexed": true,
          "internalType": "address",
          "name": "to",
          "type": "address"
        },
        {
          "indexed": false,
          "internalType": "uint256",
          "name": "value",
          "type": "uint256"
        }
      ],
      "name": "Transfer",
      "type": "event"
    },
    {
      "inputs": [],
      "name": "CLOCK_MODE",
      "outputs": [
        {
          "internalType": "string",
          "name": "",
          "type": "string"
        }
      ],
      "stateMutability": "view",
      "type": "function"
    },
    {
      "inputs": [],
      "name": "DOMAIN_SEPARATOR",
      "outputs": [
        {
          "internalType": "bytes32",
          "name": "",
          "type": "bytes32"
        }
      ],
      "stateMutability": "view",
      "type": "function"
    },
    {
      "inputs": [
        {
          "internalType": "address",
          "name": "owner",
          "type": "address"
        },
        {
          "internalType": "address",
          "name": "spender",
          "type": "address"
        }
      ],
      "name": "allowance",
      "outputs": [
        {
          "internalType": "uint256",
          "name": "",
          "type": "uint256"
        }
      ],
      "stateMutability": "view",
      "type": "function"
    },
    {
      "inputs": [
        {
          "internalType": "address",
          "name": "spender",
          "type": "address"
        },
        {
          "internalType": "uint256",
          "name": "amount",
          "type": "uint256"
        }
      ],
      "name": "approve",
      "outputs": [
        {
          "internalType": "bool",
          "name": "",
          "type": "bool"
        }
      ],
      "stateMutability": "nonpayable",
      "type": "function"
    },
    {
      "inputs": [
        {
          "internalType": "address",
          "name": "account",
          "type": "address"
        }
      ],
      "name": "balanceOf",
      "outputs": [
        {
          "internalType": "uint256",
          "name": "",
          "type": "uint256"
        }
      ],
      "stateMutability": "view",
      "type": "function"
    },
    {
      "inputs": [
        {
          "internalType": "address",
          "name": "account",
          "type": "address"
        },
        {
          "internalType": "uint32",
          "name": "pos",
          "type": "uint32"
        }
      ],
      "name": "checkpoints",
      "outputs": [
        {
          "components": [
            {
              "internalType": "uint32",
              "name": "fromBlock",
              "type": "uint32"
            },
            {
              "internalType": "uint224",
              "name": "votes",
              "type": "uint224"
            }
          ],
          "internalType": "struct ERC20VotesUpgradeable.Checkpoint",
          "name": "",
          "type": "tuple"
        }
      ],
      "stateMutability": "view",
      "type": "function"
    },
    {
      "inputs": [],
      "name": "clock",
      "outputs": [
        {
          "internalType": "uint48",
          "name": "",
          "type": "uint48"
        }
      ],
      "stateMutability": "view",
      "type": "function"
    },
    {
      "inputs": [],
      "name": "decimals",
      "outputs": [
        {
          "internalType": "uint8",
          "name": "",
          "type": "uint8"
        }
      ],
      "stateMutability": "view",
      "type": "function"
    },
    {
      "inputs": [
        {
          "internalType": "address",
          "name": "spender",
          "type": "address"
        },
        {
          "internalType": "uint256",
          "name": "subtractedValue",
          "type": "uint256"
        }
      ],
      "name": "decreaseAllowance",
      "outputs": [
        {
          "internalType": "bool",
          "name": "",
          "type": "bool"
        }
      ],
      "stateMutability": "nonpayable",
      "type": "function"
    },
    {
      "inputs": [
        {
          "internalType": "address",
          "name": "delegatee",
          "type": "address"
        }
      ],
      "name": "delegate",
      "outputs": [],
      "stateMutability": "nonpayable",
      "type": "function"
    },
    {
      "inputs": [
        {
          "internalType": "address",
          "name": "delegatee",
          "type": "address"
        },
        {
          "internalType": "uint256",
          "name": "nonce",
          "type": "uint256"
        },
        {
          "internalType": "uint256",
          "name": "expiry",
          "type": "uint256"
        },
        {
          "internalType": "uint8",
          "name": "v",
          "type": "uint8"
        },
        {
          "internalType": "bytes32",
          "name": "r",
          "type": "bytes32"
        },
        {
          "internalType": "bytes32",
          "name": "s",
          "type": "bytes32"
        }
      ],
      "name": "delegateBySig",
      "outputs": [],
      "stateMutability": "nonpayable",
      "type": "function"
    },
    {
      "inputs": [
        {
          "internalType": "address",
          "name": "account",
          "type": "address"
        }
      ],
      "name": "delegates",
      "outputs": [
        {
          "internalType": "address",
          "name": "",
          "type": "address"
        }
      ],
      "stateMutability": "view",
      "type": "function"
    },
    {
      "inputs": [],
      "name": "eip712Domain",
      "outputs": [
        {
          "internalType": "bytes1",
          "name": "fields",
          "type": "bytes1"
        },
        {
          "internalType": "string",
          "name": "name",
          "type": "string"
        },
        {
          "internalType": "string",
          "name": "version",
          "type": "string"
        },
        {
          "internalType": "uint256",
          "name": "chainId",
          "type": "uint256"
        },
        {
          "internalType": "address",
          "name": "verifyingContract",
          "type": "address"
        },
        {
          "internalType": "bytes32",
          "name": "salt",
          "type": "bytes32"
        },
        {
          "internalType": "uint256[]",
          "name": "extensions",
          "type": "uint256[]"
        }
      ],
      "stateMutability": "view",
      "type": "function"
    },
    {
      "inputs": [
        {
          "internalType": "uint256",
          "name": "timepoint",
          "type": "uint256"
        }
      ],
      "name": "getPastTotalSupply",
      "outputs": [
        {
          "internalType": "uint256",
          "name": "",
          "type": "uint256"
        }
      ],
      "stateMutability": "view",
      "type": "function"
    },
    {
      "inputs": [
        {
          "internalType": "address",
          "name": "account",
          "type": "address"
        },
        {
          "internalType": "uint256",
          "name": "timepoint",
          "type": "uint256"
        }
      ],
      "name": "getPastVotes",
      "outputs": [
        {
          "internalType": "uint256",
          "name": "",
          "type": "uint256"
        }
      ],
      "stateMutability": "view",
      "type": "function"
    },
    {
      "inputs": [
        {
          "internalType": "address",
          "name": "account",
          "type": "address"
        }
      ],
      "name": "getVotes",
      "outputs": [
        {
          "internalType": "uint256",
          "name": "",
          "type": "uint256"
        }
      ],
      "stateMutability": "view",
      "type": "function"
    },
    {
      "inputs": [
        {
          "internalType": "address",
          "name": "spender",
          "type": "address"
        },
        {
          "internalType": "uint256",
          "name": "addedValue",
          "type": "uint256"
        }
      ],
      "name": "increaseAllowance",
      "outputs": [
        {
          "internalType": "bool",
          "name": "",
          "type": "bool"
        }
      ],
      "stateMutability": "nonpayable",
      "type": "function"
    },
    {
      "inputs": [],
      "name": "initialize",
      "outputs": [],
      "stateMutability": "nonpayable",
      "type": "function"
    },
    {
      "inputs": [
        {
          "internalType": "address",
          "name": "pool",
          "type": "address"
        }
      ],
      "name": "initializePool",
      "outputs": [],
      "stateMutability": "nonpayable",
      "type": "function"
    },
    {
      "inputs": [
        {
          "internalType": "address",
          "name": "to",
          "type": "address"
        },
        {
          "internalType": "uint256",
          "name": "amount",
          "type": "uint256"
        }
      ],
      "name": "mint",
      "outputs": [],
      "stateMutability": "nonpayable",
      "type": "function"
    },
    {
      "inputs": [],
      "name": "name",
      "outputs": [
        {
          "internalType": "string",
          "name": "",
          "type": "string"
        }
      ],
      "stateMutability": "view",
      "type": "function"
    },
    {
      "inputs": [
        {
          "internalType": "address",
          "name": "owner",
          "type": "address"
        }
      ],
      "name": "nonces",
      "outputs": [
        {
          "internalType": "uint256",
          "name": "",
          "type": "uint256"
        }
      ],
      "stateMutability": "view",
      "type": "function"
    },
    {
      "inputs": [
        {
          "internalType": "address",
          "name": "account",
          "type": "address"
        }
      ],
      "name": "numCheckpoints",
      "outputs": [
        {
          "internalType": "uint32",
          "name": "",
          "type": "uint32"
        }
      ],
      "stateMutability": "view",
      "type": "function"
    },
    {
      "inputs": [],
      "name": "owner",
      "outputs": [
        {
          "internalType": "address",
          "name": "",
          "type": "address"
        }
      ],
      "stateMutability": "view",
      "type": "function"
    },
    {
      "inputs": [
        {
          "internalType": "address",
          "name": "owner",
          "type": "address"
        },
        {
          "internalType": "address",
          "name": "spender",
          "type": "address"
        },
        {
          "internalType": "uint256",
          "name": "value",
          "type": "uint256"
        },
        {
          "internalType": "uint256",
          "name": "deadline",
          "type": "uint256"
        },
        {
          "internalType": "uint8",
          "name": "v",
          "type": "uint8"
        },
        {
          "internalType": "bytes32",
          "name": "r",
          "type": "bytes32"
        },
        {
          "internalType": "bytes32",
          "name": "s",
          "type": "bytes32"
        }
      ],
      "name": "permit",
      "outputs": [],
      "stateMutability": "nonpayable",
      "type": "function"
    },
    {
      "inputs": [],
      "name": "renounceOwnership",
      "outputs": [],
      "stateMutability": "nonpayable",
      "type": "function"
    },
    {
      "inputs": [
        {
          "internalType": "address",
          "name": "_receiver",
          "type": "address"
        },
        {
          "internalType": "uint256",
          "name": "_amount",
          "type": "uint256"
        }
      ],
      "name": "returnFromPool",
      "outputs": [],
      "stateMutability": "nonpayable",
      "type": "function"
    },
    {
      "inputs": [
        {
          "internalType": "address",
          "name": "_sender",
          "type": "address"
        },
        {
          "internalType": "uint256",
          "name": "_amount",
          "type": "uint256"
        }
      ],
      "name": "sendNDLToPool",
      "outputs": [],
      "stateMutability": "nonpayable",
      "type": "function"
    },
    {
      "inputs": [],
      "name": "symbol",
      "outputs": [
        {
          "internalType": "string",
          "name": "",
          "type": "string"
        }
      ],
      "stateMutability": "view",
      "type": "function"
    },
    {
      "inputs": [],
      "name": "totalSupply",
      "outputs": [
        {
          "internalType": "uint256",
          "name": "",
          "type": "uint256"
        }
      ],
      "stateMutability": "view",
      "type": "function"
    },
    {
      "inputs": [
        {
          "internalType": "address",
          "name": "to",
          "type": "address"
        },
        {
          "internalType": "uint256",
          "name": "amount",
          "type": "uint256"
        }
      ],
      "name": "transfer",
      "outputs": [
        {
          "internalType": "bool",
          "name": "",
          "type": "bool"
        }
      ],
      "stateMutability": "nonpayable",
      "type": "function"
    },
    {
      "inputs": [
        {
          "internalType": "address",
          "name": "from",
          "type": "address"
        },
        {
          "internalType": "address",
          "name": "to",
          "type": "address"
        },
        {
          "internalType": "uint256",
          "name": "amount",
          "type": "uint256"
        }
      ],
      "name": "transferFrom",
      "outputs": [
        {
          "internalType": "bool",
          "name": "",
          "type": "bool"
        }
      ],
      "stateMutability": "nonpayable",
      "type": "function"
    },
    {
      "inputs": [
        {
          "internalType": "address",
          "name": "newOwner",
          "type": "address"
        }
      ],
      "name": "transferOwnership",
      "outputs": [],
      "stateMutability": "nonpayable",
      "type": "function"
    }
  ],
  "bytecode": "0x608060405234801561001057600080fd5b506127fa806100206000396000f3fe608060405234801561001057600080fd5b50600436106101fb5760003560e01c8063715018a61161011a5780639ab24eb0116100ad578063c77acc361161007c578063c77acc3614610463578063d505accf14610476578063dd62ed3e14610489578063f1127ed81461049c578063f2fde38b146104d957600080fd5b80639ab24eb014610417578063a457c2d71461042a578063a9059cbb1461043d578063c3cda5201461045057600080fd5b80638da5cb5b116100e95780638da5cb5b146103cc5780638e539e8c146103dd57806391ddadf4146103f057806395d89b411461040f57600080fd5b8063715018a61461038e5780637ecebe00146103965780638129fc1c146103a957806384b0196e146103b157600080fd5b80633a46b1a811610192578063587cde1e11610161578063587cde1e146102e65780635c19a95c1461032a5780636fcfff451461033d57806370a082311461036557600080fd5b80633a46b1a8146102a5578063407431f7146102b857806340c10f19146102cb5780634bf5d7e9146102de57600080fd5b806323b872dd116101ce57806323b872dd14610268578063313ce5671461027b5780633644e5151461028a578063395093511461029257600080fd5b806306fdde0314610200578063095ea7b31461021e57806318160ddd146102415780631c91a4d614610253575b600080fd5b6102086104ec565b60405161021591906122ad565b60405180910390f35b61023161022c3660046122dc565b61057e565b6040519015158152602001610215565b6035545b604051908152602001610215565b6102666102613660046122dc565b610598565b005b610231610276366004612306565b6105e8565b60405160128152602001610215565b61024561060c565b6102316102a03660046122dc565b61061b565b6102456102b33660046122dc565b61063d565b6102666102c6366004612342565b6106c2565b6102666102d93660046122dc565b6106f1565b610208610726565b6103126102f4366004612342565b6001600160a01b03908116600090815260fe60205260409020541690565b6040516001600160a01b039091168152602001610215565b610266610338366004612342565b6107be565b61035061034b366004612342565b6107c8565b60405163ffffffff9091168152602001610215565b610245610373366004612342565b6001600160a01b031660009081526033602052604090205490565b6102666107ea565b6102456103a4366004612342565b6107fe565b61026661081c565b6103b96109bd565b604051610215979695949392919061235d565b6065546001600160a01b0316610312565b6102456103eb3660046123f3565b610a5b565b6103f8610ac3565b60405165ffffffffffff9091168152602001610215565b610208610ace565b610245610425366004612342565b610add565b6102316104383660046122dc565b610b5f565b61023161044b3660046122dc565b610bda565b61026661045e36600461241d565b610be8565b6102666104713660046122dc565b610d1e565b610266610484366004612475565b610d62565b6102456104973660046124df565b610ec6565b6104af6104aa366004612512565b610ef1565b60408051825163ffffffff1681526020928301516001600160e01b03169281019290925201610215565b6102666104e7366004612342565b610f75565b6060603680546104fb90612552565b80601f016020809104026020016040519081016040528092919081815260200182805461052790612552565b80156105745780601f1061054957610100808354040283529160200191610574565b820191906000526020600020905b81548152906001019060200180831161055757829003601f168201915b5050505050905090565b60003361058c818585610feb565b60019150505b92915050565b610130546001600160a01b031633146105cc5760405162461bcd60e51b81526004016105c390612587565b60405180910390fd5b610130546105e4906001600160a01b0316838361110f565b5050565b6000336105f68582856112c6565b61060185858561110f565b506001949350505050565b600061061661133a565b905090565b60003361058c81858561062e8383610ec6565b61063891906125d4565b610feb565b6000610647610ac3565b65ffffffffffff1682106106995760405162461bcd60e51b815260206004820152601960248201527804552433230566f7465733a20667574757265206c6f6f6b757603c1b60448201526064016105c3565b6001600160a01b038316600090815260ff602052604090206106bb9083611344565b9392505050565b6106ca61142d565b61013080546001600160a01b0319166001600160a01b0383161790556106ee6107ea565b50565b610130546001600160a01b0316331461071c5760405162461bcd60e51b81526004016105c390612587565b6105e48282611487565b606043610731610ac3565b65ffffffffffff16146107865760405162461bcd60e51b815260206004820152601d60248201527f4552433230566f7465733a2062726f6b656e20636c6f636b206d6f646500000060448201526064016105c3565b5060408051808201909152601d81527f6d6f64653d626c6f636b6e756d6265722666726f6d3d64656661756c74000000602082015290565b6106ee3382611491565b6001600160a01b038116600090815260ff60205260408120546105929061150b565b6107f261142d565b6107fc6000611574565b565b6001600160a01b038116600090815260cb6020526040812054610592565b600054610100900460ff161580801561083c5750600054600160ff909116105b806108565750303b158015610856575060005460ff166001145b6108b95760405162461bcd60e51b815260206004820152602e60248201527f496e697469616c697a61626c653a20636f6e747261637420697320616c72656160448201526d191e481a5b9a5d1a585b1a5e995960921b60648201526084016105c3565b6000805460ff1916600117905580156108dc576000805461ff0019166101001790555b610921604051806040016040528060088152602001672722262a37b5b2b760c11b8152506040518060400160405280600381526020016213911360ea1b8152506115c6565b61094a604051806040016040528060088152602001672722262a37b5b2b760c11b8152506115f7565b610952611641565b610975336109626012600a6126d0565b61097090633b9aca006126df565b611487565b80156106ee576000805461ff0019169055604051600181527f7f26b83ff96e1f2b6a682f133852f6798a09c465da95921460cefb38474024989060200160405180910390a150565b6000606080600080600060606097546000801b1480156109dd5750609854155b610a215760405162461bcd60e51b81526020600482015260156024820152741152540dcc4c8e88155b9a5b9a5d1a585b1a5e9959605a1b60448201526064016105c3565b610a29611670565b610a3161167f565b60408051600080825260208201909252600f60f81b9b939a50919850469750309650945092509050565b6000610a65610ac3565b65ffffffffffff168210610ab75760405162461bcd60e51b815260206004820152601960248201527804552433230566f7465733a20667574757265206c6f6f6b757603c1b60448201526064016105c3565b61059261010083611344565b60006106164361168e565b6060603780546104fb90612552565b6001600160a01b038116600090815260ff60205260408120548015610b4c576001600160a01b038316600090815260ff6020526040902080546000198301908110610b2a57610b2a6126fe565b60009182526020909120015464010000000090046001600160e01b0316610b4f565b60005b6001600160e01b03169392505050565b60003381610b6d8286610ec6565b905083811015610bcd5760405162461bcd60e51b815260206004820152602560248201527f45524332303a2064656372656173656420616c6c6f77616e63652062656c6f77604482015264207a65726f60d81b60648201526084016105c3565b6106018286868403610feb565b60003361058c81858561110f565b83421115610c385760405162461bcd60e51b815260206004820152601d60248201527f4552433230566f7465733a207369676e6174757265206578706972656400000060448201526064016105c3565b604080517fe48329057bfd03d55e49b547132e39cffd9c1820ad7b9d4c5307691425d15adf60208201526001600160a01b038816918101919091526060810186905260808101859052600090610cb290610caa9060a001604051602081830303815290604052805190602001206116f5565b858585611722565b9050610cbd8161174a565b8614610d0b5760405162461bcd60e51b815260206004820152601960248201527f4552433230566f7465733a20696e76616c6964206e6f6e63650000000000000060448201526064016105c3565b610d158188611491565b50505050505050565b610130546001600160a01b03163314610d495760405162461bcd60e51b81526004016105c390612587565b610130546105e49083906001600160a01b03168361110f565b83421115610db25760405162461bcd60e51b815260206004820152601d60248201527f45524332305065726d69743a206578706972656420646561646c696e6500000060448201526064016105c3565b60007f6e71edae12b1b97f4d1f60370fef10105fa2faae0126114a169c64845d6126c9888888610de18c61174a565b6040805160208101969096526001600160a01b0394851690860152929091166060840152608083015260a082015260c0810186905260e0016040516020818303038152906040528051906020012090506000610e3c826116f5565b90506000610e4c82878787611722565b9050896001600160a01b0316816001600160a01b031614610eaf5760405162461bcd60e51b815260206004820152601e60248201527f45524332305065726d69743a20696e76616c6964207369676e6174757265000060448201526064016105c3565b610eba8a8a8a610feb565b50505050505050505050565b6001600160a01b03918216600090815260346020908152604080832093909416825291909152205490565b60408051808201909152600080825260208201526001600160a01b038316600090815260ff60205260409020805463ffffffff8416908110610f3557610f356126fe565b60009182526020918290206040805180820190915291015463ffffffff8116825264010000000090046001600160e01b0316918101919091529392505050565b610f7d61142d565b6001600160a01b038116610fe25760405162461bcd60e51b815260206004820152602660248201527f4f776e61626c653a206e6577206f776e657220697320746865207a65726f206160448201526564647265737360d01b60648201526084016105c3565b6106ee81611574565b6001600160a01b03831661104d5760405162461bcd60e51b8152602060048201526024808201527f45524332303a20617070726f76652066726f6d20746865207a65726f206164646044820152637265737360e01b60648201526084016105c3565b6001600160a01b0382166110ae5760405162461bcd60e51b815260206004820152602260248201527f45524332303a20617070726f766520746f20746865207a65726f206164647265604482015261737360f01b60648201526084016105c3565b6001600160a01b0383811660008181526034602090815260408083209487168084529482529182902085905590518481527f8c5be1e5ebec7d5bd14f71427d1e84f3dd0314c0f7b2291e5b200ac8c7c3b925910160405180910390a3505050565b6001600160a01b0383166111735760405162461bcd60e51b815260206004820152602560248201527f45524332303a207472616e736665722066726f6d20746865207a65726f206164604482015264647265737360d81b60648201526084016105c3565b6001600160a01b0382166111d55760405162461bcd60e51b815260206004820152602360248201527f45524332303a207472616e7366657220746f20746865207a65726f206164647260448201526265737360e81b60648201526084016105c3565b6001600160a01b0383166000908152603360205260409020548181101561124d5760405162461bcd60e51b815260206004820152602660248201527f45524332303a207472616e7366657220616d6f756e7420657863656564732062604482015265616c616e636560d01b60648201526084016105c3565b6001600160a01b0380851660008181526033602052604080822086860390559286168082529083902080548601905591517fddf252ad1be2c89b69c2b068fc378daa952ba7f163c4a11628f55a4df523b3ef906112ad9086815260200190565b60405180910390a36112c0848484611777565b50505050565b60006112d28484610ec6565b905060001981146112c0578181101561132d5760405162461bcd60e51b815260206004820152601d60248201527f45524332303a20696e73756666696369656e7420616c6c6f77616e636500000060448201526064016105c3565b6112c08484848403610feb565b6000610616611782565b81546000908181600581111561139e57600061135f846117f6565b6113699085612714565b600088815260209020909150869082015463ffffffff16111561138e5780915061139c565b6113998160016125d4565b92505b505b808210156113eb5760006113b283836118db565b600088815260209020909150869082015463ffffffff1611156113d7578091506113e5565b6113e28160016125d4565b92505b5061139e565b8015611417576000868152602090208101600019015464010000000090046001600160e01b031661141a565b60005b6001600160e01b03169695505050505050565b6065546001600160a01b031633146107fc5760405162461bcd60e51b815260206004820181905260248201527f4f776e61626c653a2063616c6c6572206973206e6f7420746865206f776e657260448201526064016105c3565b6105e482826118f6565b6001600160a01b03828116600081815260fe6020818152604080842080546033845282862054949093528787166001600160a01b03198416811790915590519190951694919391928592917f3134e8a2e6d97e929a7e54011ea5485d7d196dd5f0ba4d4ef95803e8e3fc257f9190a46112c0828483611981565b600063ffffffff8211156115705760405162461bcd60e51b815260206004820152602660248201527f53616665436173743a2076616c756520646f65736e27742066697420696e203360448201526532206269747360d01b60648201526084016105c3565b5090565b606580546001600160a01b038381166001600160a01b0319831681179093556040519116919082907f8be0079c531659141344cd1fd0a4f28419497f9722a3daafe3b4186f6b6457e090600090a35050565b600054610100900460ff166115ed5760405162461bcd60e51b81526004016105c39061272b565b6105e48282611abe565b600054610100900460ff1661161e5760405162461bcd60e51b81526004016105c39061272b565b6106ee81604051806040016040528060018152602001603160f81b815250611b0c565b600054610100900460ff166116685760405162461bcd60e51b81526004016105c39061272b565b6107fc611b69565b6060609980546104fb90612552565b6060609a80546104fb90612552565b600065ffffffffffff8211156115705760405162461bcd60e51b815260206004820152602660248201527f53616665436173743a2076616c756520646f65736e27742066697420696e203460448201526538206269747360d01b60648201526084016105c3565b600061059261170261133a565b8360405161190160f01b8152600281019290925260228201526042902090565b600080600061173387878787611b99565b9150915061174081611c5d565b5095945050505050565b6001600160a01b038116600090815260cb602052604090208054600181018255905b50919050565b505050565b611772838383611dab565b60007f8b73c3c69bb8fe3d512ecc4cf759cc79239f7b179b0ffacaa9a75d522b39400f6117ad611ddd565b6117b5611e36565b60408051602081019490945283019190915260608201524660808201523060a082015260c00160405160208183030381529060405280519060200120905090565b60008161180557506000919050565b6000600161181284611e67565b901c6001901b9050600181848161182b5761182b612776565b048201901c9050600181848161184357611843612776565b048201901c9050600181848161185b5761185b612776565b048201901c9050600181848161187357611873612776565b048201901c9050600181848161188b5761188b612776565b048201901c905060018184816118a3576118a3612776565b048201901c905060018184816118bb576118bb612776565b048201901c90506106bb818285816118d5576118d5612776565b04611efb565b60006118ea600284841861278c565b6106bb908484166125d4565b6119008282611f11565b6035546001600160e01b0310156119725760405162461bcd60e51b815260206004820152603060248201527f4552433230566f7465733a20746f74616c20737570706c79207269736b73206f60448201526f766572666c6f77696e6720766f74657360801b60648201526084016105c3565b6112c0610100611fda83611fe6565b816001600160a01b0316836001600160a01b0316141580156119a35750600081115b15611772576001600160a01b03831615611a31576001600160a01b038316600090815260ff6020526040812081906119de9061215b85611fe6565b91509150846001600160a01b03167fdec2bacdd2f05b59de34da9b523dff8be42e5e38e818c82fdb0bae774387a7248383604051611a26929190918252602082015260400190565b60405180910390a250505b6001600160a01b03821615611772576001600160a01b038216600090815260ff602052604081208190611a6790611fda85611fe6565b91509150836001600160a01b03167fdec2bacdd2f05b59de34da9b523dff8be42e5e38e818c82fdb0bae774387a7248383604051611aaf929190918252602082015260400190565b60405180910390a25050505050565b600054610100900460ff16611ae55760405162461bcd60e51b81526004016105c39061272b565b8151611af89060369060208501906121d0565b5080516117729060379060208401906121d0565b600054610100900460ff16611b335760405162461bcd60e51b81526004016105c39061272b565b8151611b469060999060208501906121d0565b508051611b5a90609a9060208401906121d0565b50506000609781905560985550565b600054610100900460ff16611b905760405162461bcd60e51b81526004016105c39061272b565b6107fc33611574565b6000807f7fffffffffffffffffffffffffffffff5d576e7357a4501ddfe92f46681b20a0831115611bd05750600090506003611c54565b6040805160008082526020820180845289905260ff881692820192909252606081018690526080810185905260019060a0016020604051602081039080840390855afa158015611c24573d6000803e3d6000fd5b5050604051601f1901519150506001600160a01b038116611c4d57600060019250925050611c54565b9150600090505b94509492505050565b6000816004811115611c7157611c716127ae565b1415611c7a5750565b6001816004811115611c8e57611c8e6127ae565b1415611cdc5760405162461bcd60e51b815260206004820152601860248201527f45434453413a20696e76616c6964207369676e6174757265000000000000000060448201526064016105c3565b6002816004811115611cf057611cf06127ae565b1415611d3e5760405162461bcd60e51b815260206004820152601f60248201527f45434453413a20696e76616c6964207369676e6174757265206c656e6774680060448201526064016105c3565b6003816004811115611d5257611d526127ae565b14156106ee5760405162461bcd60e51b815260206004820152602260248201527f45434453413a20696e76616c6964207369676e6174757265202773272076616c604482015261756560f01b60648201526084016105c3565b6001600160a01b03838116600090815260fe602052604080822054858416835291205461177292918216911683611981565b600080611de8611670565b805190915015611dff578051602090910120919050565b6097548015611e0e5792915050565b7fc5d2460186f7233c927e7db2dcc703c0e500b653ca82273b7bfad8045d85a4709250505090565b600080611e4161167f565b805190915015611e58578051602090910120919050565b6098548015611e0e5792915050565b600080608083901c15611e7c57608092831c92015b604083901c15611e8e57604092831c92015b602083901c15611ea057602092831c92015b601083901c15611eb257601092831c92015b600883901c15611ec457600892831c92015b600483901c15611ed657600492831c92015b600283901c15611ee857600292831c92015b600183901c156105925760010192915050565b6000818310611f0a57816106bb565b5090919050565b6001600160a01b038216611f675760405162461bcd60e51b815260206004820152601f60248201527f45524332303a206d696e7420746f20746865207a65726f20616464726573730060448201526064016105c3565b8060356000828254611f7991906125d4565b90915550506001600160a01b0382166000818152603360209081526040808320805486019055518481527fddf252ad1be2c89b69c2b068fc378daa952ba7f163c4a11628f55a4df523b3ef910160405180910390a36105e460008383611777565b60006106bb82846125d4565b825460009081908181156120335760008781526020902082016000190160408051808201909152905463ffffffff8116825264010000000090046001600160e01b03166020820152612048565b60408051808201909152600080825260208201525b905080602001516001600160e01b0316935061206884868863ffffffff16565b9250600082118015612092575061207d610ac3565b65ffffffffffff16816000015163ffffffff16145b156120d7576120a083612167565b60008881526020902083016000190180546001600160e01b03929092166401000000000263ffffffff909216919091179055612151565b8660405180604001604052806120fb6120ee610ac3565b65ffffffffffff1661150b565b63ffffffff16815260200161210f86612167565b6001600160e01b0390811690915282546001810184556000938452602093849020835194909301519091166401000000000263ffffffff909316929092179101555b5050935093915050565b60006106bb8284612714565b60006001600160e01b038211156115705760405162461bcd60e51b815260206004820152602760248201527f53616665436173743a2076616c756520646f65736e27742066697420696e20326044820152663234206269747360c81b60648201526084016105c3565b8280546121dc90612552565b90600052602060002090601f0160209004810192826121fe5760008555612244565b82601f1061221757805160ff1916838001178555612244565b82800160010185558215612244579182015b82811115612244578251825591602001919060010190612229565b506115709291505b80821115611570576000815560010161224c565b6000815180845260005b818110156122865760208185018101518683018201520161226a565b81811115612298576000602083870101525b50601f01601f19169290920160200192915050565b6020815260006106bb6020830184612260565b80356001600160a01b03811681146122d757600080fd5b919050565b600080604083850312156122ef57600080fd5b6122f8836122c0565b946020939093013593505050565b60008060006060848603121561231b57600080fd5b612324846122c0565b9250612332602085016122c0565b9150604084013590509250925092565b60006020828403121561235457600080fd5b6106bb826122c0565b60ff60f81b881681526000602060e08184015261237d60e084018a612260565b838103604085015261238f818a612260565b606085018990526001600160a01b038816608086015260a0850187905284810360c0860152855180825283870192509083019060005b818110156123e1578351835292840192918401916001016123c5565b50909c9b505050505050505050505050565b60006020828403121561240557600080fd5b5035919050565b803560ff811681146122d757600080fd5b60008060008060008060c0878903121561243657600080fd5b61243f876122c0565b9550602087013594506040870135935061245b6060880161240c565b92506080870135915060a087013590509295509295509295565b600080600080600080600060e0888a03121561249057600080fd5b612499886122c0565b96506124a7602089016122c0565b955060408801359450606088013593506124c36080890161240c565b925060a0880135915060c0880135905092959891949750929550565b600080604083850312156124f257600080fd5b6124fb836122c0565b9150612509602084016122c0565b90509250929050565b6000806040838503121561252557600080fd5b61252e836122c0565b9150602083013563ffffffff8116811461254757600080fd5b809150509250929050565b600181811c9082168061256657607f821691505b6020821081141561176c57634e487b7160e01b600052602260045260246000fd5b6020808252601f908201527f4f776e61626c653a2063616c6c6572206973206e6f742074686520706f6f6c00604082015260600190565b634e487b7160e01b600052601160045260246000fd5b600082198211156125e7576125e76125be565b500190565b600181815b8085111561262757816000190482111561260d5761260d6125be565b8085161561261a57918102915b93841c93908002906125f1565b509250929050565b60008261263e57506001610592565b8161264b57506000610592565b8160018114612661576002811461266b57612687565b6001915050610592565b60ff84111561267c5761267c6125be565b50506001821b610592565b5060208310610133831016604e8410600b84101617156126aa575081810a610592565b6126b483836125ec565b80600019048211156126c8576126c86125be565b029392505050565b60006106bb60ff84168361262f565b60008160001904831182151516156126f9576126f96125be565b500290565b634e487b7160e01b600052603260045260246000fd5b600082821015612726576127266125be565b500390565b6020808252602b908201527f496e697469616c697a61626c653a20636f6e7472616374206973206e6f74206960408201526a6e697469616c697a696e6760a81b606082015260800190565b634e487b7160e01b600052601260045260246000fd5b6000826127a957634e487b7160e01b600052601260045260246000fd5b500490565b634e487b7160e01b600052602160045260246000fdfea26469706673582212207aa0a12153adbc6f21ccbfa0062396ac7417b9b918e31c57665590c538135cc864736f6c63430008080033",
  "linkReferences": {},
  "deployedLinkReferences": {}
}