{
  "_format": "hh-sol-artifact-1",
  "contractName": "NFTOracle",
  "sourceName": "contracts/NFTOracle.sol",
  "abi": [
    {
      "anonymous": false,
      "inputs": [
        {
          "indexed": true,
          "internalType": "address",
          "name": "asset",
          "type": "address"
        }
      ],
      "name": "AssetAdded",
      "type": "event"
    },
    {
      "anonymous": false,
      "inputs": [
        {
          "indexed": true,
          "internalType": "address",
          "name": "asset",
          "type": "address"
        }
      ],
      "name": "AssetRemoved",
      "type": "event"
    },
    {
      "anonymous": false,
      "inputs": [
        {
          "indexed": true,
          "internalType": "address",
          "name": "admin",
          "type": "address"
        }
      ],
      "name": "FeedAdminUpdated",
      "type": "event"
    },
    {
      "anonymous": false,
      "inputs": [
        {
          "indexed": false,
          "internalType": "uint8",
          "name": "version",
          "type": "uint8"
        }
      ],
      "name": "Initialized",
      "type": "event"
    },
    {
      "anonymous": false,
      "inputs": [
        {
          "indexed": true,
          "internalType": "address",
          "name": "previousOwner",
          "type": "address"
        },
        {
          "indexed": true,
          "internalType": "address",
          "name": "newOwner",
          "type": "address"
        }
      ],
      "name": "OwnershipTransferred",
      "type": "event"
    },
    {
      "anonymous": false,
      "inputs": [
        {
          "indexed": true,
          "internalType": "address",
          "name": "asset",
          "type": "address"
        },
        {
          "indexed": false,
          "internalType": "uint256",
          "name": "price",
          "type": "uint256"
        },
        {
          "indexed": false,
          "internalType": "uint256",
          "name": "sale",
          "type": "uint256"
        },
        {
          "indexed": false,
          "internalType": "uint256",
          "name": "volatility",
          "type": "uint256"
        },
        {
          "indexed": false,
          "internalType": "uint256",
          "name": "timestamp",
          "type": "uint256"
        },
        {
          "indexed": false,
          "internalType": "uint256",
          "name": "roundId",
          "type": "uint256"
        }
      ],
      "name": "SetAssetData",
      "type": "event"
    },
    {
      "anonymous": false,
      "inputs": [
        {
          "indexed": true,
          "internalType": "address",
          "name": "asset",
          "type": "address"
        },
        {
          "indexed": false,
          "internalType": "uint256",
          "name": "price",
          "type": "uint256"
        },
        {
          "indexed": false,
          "internalType": "uint256",
          "name": "timestamp",
          "type": "uint256"
        }
      ],
      "name": "SetAssetTwapPrice",
      "type": "event"
    },
    {
      "inputs": [
        {
          "internalType": "address",
          "name": "_nftContract",
          "type": "address"
        },
        {
          "internalType": "string",
          "name": "_name",
          "type": "string"
        },
        {
          "internalType": "string",
          "name": "_symbol",
          "type": "string"
        },
        {
          "internalType": "string",
          "name": "_url",
          "type": "string"
        },
        {
          "internalType": "uint8",
          "name": "nftType",
          "type": "uint8"
        }
      ],
      "name": "addAsset",
      "outputs": [],
      "stateMutability": "nonpayable",
      "type": "function"
    },
    {
      "inputs": [
        {
          "internalType": "address",
          "name": "_nftContract",
          "type": "address"
        }
      ],
      "name": "calculateTwapPrice",
      "outputs": [
        {
          "internalType": "uint256",
          "name": "",
          "type": "uint256"
        }
      ],
      "stateMutability": "view",
      "type": "function"
    },
    {
      "inputs": [
        {
          "internalType": "address",
          "name": "_nftContract",
          "type": "address"
        }
      ],
      "name": "getAssetName",
      "outputs": [
        {
          "internalType": "string",
          "name": "",
          "type": "string"
        }
      ],
      "stateMutability": "view",
      "type": "function"
    },
    {
      "inputs": [
        {
          "internalType": "address",
          "name": "_nftContract",
          "type": "address"
        }
      ],
      "name": "getAssetPrice",
      "outputs": [
        {
          "internalType": "uint256",
          "name": "",
          "type": "uint256"
        },
        {
          "internalType": "uint256",
          "name": "",
          "type": "uint256"
        },
        {
          "internalType": "uint256",
          "name": "",
          "type": "uint256"
        }
      ],
      "stateMutability": "view",
      "type": "function"
    },
    {
      "inputs": [
        {
          "internalType": "uint8",
          "name": "nftType",
          "type": "uint8"
        }
      ],
      "name": "getAssets",
      "outputs": [
        {
          "internalType": "address[]",
          "name": "",
          "type": "address[]"
        },
        {
          "internalType": "string[]",
          "name": "",
          "type": "string[]"
        },
        {
          "internalType": "string[]",
          "name": "",
          "type": "string[]"
        },
        {
          "internalType": "string[]",
          "name": "",
          "type": "string[]"
        }
      ],
      "stateMutability": "view",
      "type": "function"
    },
    {
      "inputs": [
        {
          "internalType": "address",
          "name": "_nftContract",
          "type": "address"
        }
      ],
      "name": "getFinalPrice",
      "outputs": [
        {
          "internalType": "uint256",
          "name": "",
          "type": "uint256"
        }
      ],
      "stateMutability": "view",
      "type": "function"
    },
    {
      "inputs": [
        {
          "internalType": "address",
          "name": "_nftContract",
          "type": "address"
        }
      ],
      "name": "getLatestRoundId",
      "outputs": [
        {
          "internalType": "uint256",
          "name": "",
          "type": "uint256"
        }
      ],
      "stateMutability": "view",
      "type": "function"
    },
    {
      "inputs": [
        {
          "internalType": "address",
          "name": "_nftContract",
          "type": "address"
        }
      ],
      "name": "getLatestTimestamp",
      "outputs": [
        {
          "internalType": "uint256",
          "name": "",
          "type": "uint256"
        }
      ],
      "stateMutability": "view",
      "type": "function"
    },
    {
      "inputs": [
        {
          "internalType": "address",
          "name": "_nftContract",
          "type": "address"
        },
        {
          "internalType": "uint256",
          "name": "_numOfRoundBack",
          "type": "uint256"
        }
      ],
      "name": "getPreviousPrice",
      "outputs": [
        {
          "internalType": "uint256",
          "name": "",
          "type": "uint256"
        }
      ],
      "stateMutability": "view",
      "type": "function"
    },
    {
      "inputs": [
        {
          "internalType": "address",
          "name": "_nftContract",
          "type": "address"
        },
        {
          "internalType": "uint256",
          "name": "_numOfRoundBack",
          "type": "uint256"
        }
      ],
      "name": "getPreviousTimestamp",
      "outputs": [
        {
          "internalType": "uint256",
          "name": "",
          "type": "uint256"
        }
      ],
      "stateMutability": "view",
      "type": "function"
    },
    {
      "inputs": [
        {
          "internalType": "address",
          "name": "_nftContract",
          "type": "address"
        }
      ],
      "name": "getPriceFeedLength",
      "outputs": [
        {
          "internalType": "uint256",
          "name": "length",
          "type": "uint256"
        }
      ],
      "stateMutability": "view",
      "type": "function"
    },
    {
      "inputs": [
        {
          "internalType": "address",
          "name": "_admin",
          "type": "address"
        },
        {
          "internalType": "uint256",
          "name": "_maxPriceDeviation",
          "type": "uint256"
        },
        {
          "internalType": "uint256",
          "name": "_maxPriceDeviationWithTime",
          "type": "uint256"
        },
        {
          "internalType": "uint256",
          "name": "_timeIntervalWithPrice",
          "type": "uint256"
        },
        {
          "internalType": "uint256",
          "name": "_minUpdateTime",
          "type": "uint256"
        },
        {
          "internalType": "uint256",
          "name": "_twapInterval",
          "type": "uint256"
        }
      ],
      "name": "initialize",
      "outputs": [],
      "stateMutability": "nonpayable",
      "type": "function"
    },
    {
      "inputs": [],
      "name": "maxPriceDeviation",
      "outputs": [
        {
          "internalType": "uint256",
          "name": "",
          "type": "uint256"
        }
      ],
      "stateMutability": "view",
      "type": "function"
    },
    {
      "inputs": [],
      "name": "maxPriceDeviationWithTime",
      "outputs": [
        {
          "internalType": "uint256",
          "name": "",
          "type": "uint256"
        }
      ],
      "stateMutability": "view",
      "type": "function"
    },
    {
      "inputs": [],
      "name": "minUpdateTime",
      "outputs": [
        {
          "internalType": "uint256",
          "name": "",
          "type": "uint256"
        }
      ],
      "stateMutability": "view",
      "type": "function"
    },
    {
      "inputs": [
        {
          "internalType": "address",
          "name": "",
          "type": "address"
        }
      ],
      "name": "nftBaseDataMap",
      "outputs": [
        {
          "internalType": "string",
          "name": "name",
          "type": "string"
        },
        {
          "internalType": "string",
          "name": "symbol",
          "type": "string"
        },
        {
          "internalType": "string",
          "name": "baseURI",
          "type": "string"
        }
      ],
      "stateMutability": "view",
      "type": "function"
    },
    {
      "inputs": [
        {
          "internalType": "address",
          "name": "",
          "type": "address"
        }
      ],
      "name": "nftPaused",
      "outputs": [
        {
          "internalType": "bool",
          "name": "",
          "type": "bool"
        }
      ],
      "stateMutability": "view",
      "type": "function"
    },
    {
      "inputs": [
        {
          "internalType": "uint8",
          "name": "",
          "type": "uint8"
        },
        {
          "internalType": "uint256",
          "name": "",
          "type": "uint256"
        }
      ],
      "name": "nftPriceFeedKeyMap",
      "outputs": [
        {
          "internalType": "address",
          "name": "",
          "type": "address"
        }
      ],
      "stateMutability": "view",
      "type": "function"
    },
    {
      "inputs": [
        {
          "internalType": "uint256",
          "name": "",
          "type": "uint256"
        }
      ],
      "name": "nftPriceFeedKeys",
      "outputs": [
        {
          "internalType": "address",
          "name": "",
          "type": "address"
        }
      ],
      "stateMutability": "view",
      "type": "function"
    },
    {
      "inputs": [
        {
          "internalType": "address",
          "name": "",
          "type": "address"
        }
      ],
      "name": "nftPriceFeedMap",
      "outputs": [
        {
          "internalType": "bool",
          "name": "registered",
          "type": "bool"
        }
      ],
      "stateMutability": "view",
      "type": "function"
    },
    {
      "inputs": [],
      "name": "owner",
      "outputs": [
        {
          "internalType": "address",
          "name": "",
          "type": "address"
        }
      ],
      "stateMutability": "view",
      "type": "function"
    },
    {
      "inputs": [],
      "name": "priceFeedAdmin",
      "outputs": [
        {
          "internalType": "address",
          "name": "",
          "type": "address"
        }
      ],
      "stateMutability": "view",
      "type": "function"
    },
    {
      "inputs": [
        {
          "internalType": "address",
          "name": "_nftContract",
          "type": "address"
        },
        {
          "internalType": "uint8",
          "name": "nftType",
          "type": "uint8"
        }
      ],
      "name": "removeAsset",
      "outputs": [],
      "stateMutability": "nonpayable",
      "type": "function"
    },
    {
      "inputs": [],
      "name": "renounceOwnership",
      "outputs": [],
      "stateMutability": "nonpayable",
      "type": "function"
    },
    {
      "inputs": [
        {
          "internalType": "address",
          "name": "_nftContract",
          "type": "address"
        },
        {
          "internalType": "uint256",
          "name": "_price",
          "type": "uint256"
        },
        {
          "internalType": "uint256",
          "name": "_sales",
          "type": "uint256"
        },
        {
          "internalType": "uint256",
          "name": "_volatility",
          "type": "uint256"
        }
      ],
      "name": "setAssetData",
      "outputs": [],
      "stateMutability": "nonpayable",
      "type": "function"
    },
    {
      "inputs": [
        {
          "internalType": "address[]",
          "name": "_nftContracts",
          "type": "address[]"
        },
        {
          "internalType": "string[]",
          "name": "_names",
          "type": "string[]"
        },
        {
          "internalType": "string[]",
          "name": "_symbols",
          "type": "string[]"
        },
        {
          "internalType": "string[]",
          "name": "_urls",
          "type": "string[]"
        },
        {
          "internalType": "uint8",
          "name": "nftType",
          "type": "uint8"
        }
      ],
      "name": "setAssets",
      "outputs": [],
      "stateMutability": "nonpayable",
      "type": "function"
    },
    {
      "inputs": [
        {
          "internalType": "uint256",
          "name": "_maxPriceDeviation",
          "type": "uint256"
        },
        {
          "internalType": "uint256",
          "name": "_maxPriceDeviationWithTime",
          "type": "uint256"
        },
        {
          "internalType": "uint256",
          "name": "_timeIntervalWithPrice",
          "type": "uint256"
        },
        {
          "internalType": "uint256",
          "name": "_minUpdateTime",
          "type": "uint256"
        }
      ],
      "name": "setDataValidityParameters",
      "outputs": [],
      "stateMutability": "nonpayable",
      "type": "function"
    },
    {
      "inputs": [
        {
          "internalType": "address[]",
          "name": "_nftContracts",
          "type": "address[]"
        },
        {
          "internalType": "uint256[]",
          "name": "_prices",
          "type": "uint256[]"
        },
        {
          "internalType": "uint256[]",
          "name": "_sales",
          "type": "uint256[]"
        },
        {
          "internalType": "uint256[]",
          "name": "_volatility",
          "type": "uint256[]"
        }
      ],
      "name": "setMultipleAssetsData",
      "outputs": [],
      "stateMutability": "nonpayable",
      "type": "function"
    },
    {
      "inputs": [
        {
          "internalType": "address",
          "name": "_nftContract",
          "type": "address"
        },
        {
          "internalType": "bool",
          "name": "val",
          "type": "bool"
        }
      ],
      "name": "setPause",
      "outputs": [],
      "stateMutability": "nonpayable",
      "type": "function"
    },
    {
      "inputs": [
        {
          "internalType": "address",
          "name": "_admin",
          "type": "address"
        }
      ],
      "name": "setPriceFeedAdmin",
      "outputs": [],
      "stateMutability": "nonpayable",
      "type": "function"
    },
    {
      "inputs": [
        {
          "internalType": "uint256",
          "name": "_twapInterval",
          "type": "uint256"
        }
      ],
      "name": "setTwapInterval",
      "outputs": [],
      "stateMutability": "nonpayable",
      "type": "function"
    },
    {
      "inputs": [],
      "name": "timeIntervalWithPrice",
      "outputs": [
        {
          "internalType": "uint256",
          "name": "",
          "type": "uint256"
        }
      ],
      "stateMutability": "view",
      "type": "function"
    },
    {
      "inputs": [
        {
          "internalType": "address",
          "name": "newOwner",
          "type": "address"
        }
      ],
      "name": "transferOwnership",
      "outputs": [],
      "stateMutability": "nonpayable",
      "type": "function"
    },
    {
      "inputs": [],
      "name": "twapInterval",
      "outputs": [
        {
          "internalType": "uint256",
          "name": "",
          "type": "uint256"
        }
      ],
      "stateMutability": "view",
      "type": "function"
    },
    {
      "inputs": [
        {
          "internalType": "address",
          "name": "",
          "type": "address"
        }
      ],
      "name": "twapPriceMap",
      "outputs": [
        {
          "internalType": "uint256",
          "name": "",
          "type": "uint256"
        }
      ],
      "stateMutability": "view",
      "type": "function"
    }
  ],
  "bytecode": "0x608060405234801561001057600080fd5b506130f7806100206000396000f3fe608060405234801561001057600080fd5b50600436106102115760003560e01c80638da5cb5b11610125578063c22dc722116100ad578063ec70cb361161007c578063ec70cb36146104c6578063ef1d95b1146104d9578063f2fde38b146104ec578063fcd766dc146104ff578063fda0c5981461051257600080fd5b8063c22dc7221461047a578063d84f885a1461048d578063e889e5d6146104a0578063ea6f3bcd146104b357600080fd5b8063aafa6272116100f4578063aafa6272146103e3578063abad1bb314610403578063b24bb6da14610426578063b3596f0714610439578063c0e2c80c1461046757600080fd5b80638da5cb5b146103ad578063975b8662146103be578063985a6de6146103c757806398f5ec89146103d057600080fd5b80635365a8c6116101a8578063663cdb2311610177578063663cdb231461033457806369bede4e1461035657806369da148d14610389578063715018a61461039257806383c2d72e1461039a57600080fd5b80635365a8c6146102d05780635ea679ef146102fb5780635f0ca42a1461030e578063650999af1461032157600080fd5b80633c1d5df0116101e45780633c1d5df01461028e5780633c745f931461029757806341a6990f146102aa57806345ff4c80146102bd57600080fd5b80630dc94653146102165780630e9f781d14610242578063143671ef14610259578063189ea57714610279575b600080fd5b6102296102243660046127f1565b610525565b60405161023994939291906128b1565b60405180910390f35b61024b609e5481565b604051908152602001610239565b61024b610267366004612952565b60a26020526000908152604090205481565b61028c61028736600461296d565b61099f565b005b61024b60a15481565b61028c6102a53660046129a6565b610a1b565b61024b6102b8366004612952565b610d38565b61028c6102cb3660046129d9565b610dcc565b6102e36102de366004612a23565b610f17565b6040516001600160a01b039091168152602001610239565b61028c610309366004612a4d565b610f4f565b61028c61031c366004612a66565b610f5c565b61028c61032f366004612952565b610f78565b610347610342366004612952565b610fca565b60405161023993929190612a98565b610379610364366004612952565b60986020526000908152604090205460ff1681565b6040519015158152602001610239565b61024b609f5481565b61028c611184565b6097546102e3906001600160a01b031681565b6033546001600160a01b03166102e3565b61024b609c5481565b61024b609d5481565b61024b6103de366004612952565b611198565b6103f66103f1366004612952565b611206565b6040516102399190612adb565b610379610411366004612952565b60a06020526000908152604090205460ff1681565b61028c610434366004612b3a565b6112d5565b61044c610447366004612952565b6114f9565b60408051938452602084019290925290820152606001610239565b61028c610475366004612ca1565b6116c0565b61028c610488366004612d4b565b6116dc565b61024b61049b366004612d87565b61170f565b61024b6104ae366004612d87565b6117cc565b61028c6104c1366004612da3565b611888565b61024b6104d4366004612952565b611a4a565b61024b6104e7366004612952565b611b2b565b61028c6104fa366004612952565b611b49565b6102e361050d366004612a4d565b611bc2565b61024b610520366004612952565b611bec565b60ff81166000908152609b602052604081205460609182918291829167ffffffffffffffff81111561055957610559612bfe565b60405190808252806020026020018201604052801561058c57816020015b60608152602001906001900390816105775790505b5060ff87166000908152609b60205260408120549192509067ffffffffffffffff8111156105bc576105bc612bfe565b6040519080825280602002602001820160405280156105ef57816020015b60608152602001906001900390816105da5790505b5060ff88166000908152609b60205260408120549192509067ffffffffffffffff81111561061f5761061f612bfe565b60405190808252806020026020018201604052801561065257816020015b606081526020019060019003908161063d5790505b50905060005b60ff89166000908152609b60205260409020548110156109145760ff89166000908152609b6020526040812080548390811061069657610696612e77565b60009182526020808320909101546001600160a01b0316808352609990915260409091208054919250906106c990612e8d565b80601f01602080910402602001604051908101604052809291908181526020018280546106f590612e8d565b80156107425780601f1061071757610100808354040283529160200191610742565b820191906000526020600020905b81548152906001019060200180831161072557829003601f168201915b505050505085838151811061075957610759612e77565b602002602001018190525060996000826001600160a01b03166001600160a01b03168152602001908152602001600020600101805461079790612e8d565b80601f01602080910402602001604051908101604052809291908181526020018280546107c390612e8d565b80156108105780601f106107e557610100808354040283529160200191610810565b820191906000526020600020905b8154815290600101906020018083116107f357829003601f168201915b505050505084838151811061082757610827612e77565b602002602001018190525060996000826001600160a01b03166001600160a01b03168152602001908152602001600020600201805461086590612e8d565b80601f016020809104026020016040519081016040528092919081815260200182805461089190612e8d565b80156108de5780601f106108b3576101008083540402835291602001916108de565b820191906000526020600020905b8154815290600101906020018083116108c157829003601f168201915b50505050508383815181106108f5576108f5612e77565b602002602001018190525050808061090c90612ede565b915050610658565b50609b60008960ff1660ff1681526020019081526020016000208383838380548060200260200160405190810160405280929190818152602001828054801561098657602002820191906000526020600020905b81546001600160a01b03168152600190910190602001808311610968575b5050505050935096509650965096505050509193509193565b6097546001600160a01b0316336001600160a01b0316146109fb5760405162461bcd60e51b815260206004820152601160248201527027232a27b930b1b6329d1010b0b236b4b760791b60448201526064015b60405180910390fd5b83610a0581611e9a565b42610a138686868685611f08565b505050505050565b610a23612164565b610a2e8260016121be565b6001600160a01b0382166000908152609860205260408120805460ff1916815590610a5c60018301826126b7565b50506001600160a01b038216600090815260996020526040812090610a8182826126d8565b610a8f6001830160006126d8565b610a9d6002830160006126d8565b505060ff81166000908152609b6020526040812054609a5490915b81811015610bb957846001600160a01b0316609a8281548110610add57610add612e77565b6000918252602090912001546001600160a01b03161415610ba757609a610b05600184612ef9565b81548110610b1557610b15612e77565b600091825260209091200154609a80546001600160a01b039092169183908110610b4157610b41612e77565b9060005260206000200160006101000a8154816001600160a01b0302191690836001600160a01b03160217905550609a805480610b8057610b80612f10565b600082815260209020810160001990810180546001600160a01b0319169055019055610bb9565b80610bb181612ede565b915050610ab8565b5060005b82811015610cfd5760ff84166000908152609b6020526040902080546001600160a01b038716919083908110610bf557610bf5612e77565b6000918252602090912001546001600160a01b03161415610ceb5760ff84166000908152609b60205260409020610c2d600185612ef9565b81548110610c3d57610c3d612e77565b600091825260208083209091015460ff87168352609b909152604090912080546001600160a01b039092169183908110610c7957610c79612e77565b600091825260208083209190910180546001600160a01b0319166001600160a01b03949094169390931790925560ff86168152609b90915260409020805480610cc457610cc4612f10565b600082815260209020810160001990810180546001600160a01b0319169055019055610cfd565b80610cf581612ede565b915050610bbd565b506040516001600160a01b038516907f37803e2125c48ee96c38ddf04e826daf335b0e1603579040fd275aba6d06b6fc90600090a250505050565b6000610d4382612238565b610d5f5760405162461bcd60e51b81526004016109f290612f26565b6000610d6a83611b2b565b905080610d7a5750600092915050565b6001600160a01b0383166000908152609860205260409020600190810190610da29083612ef9565b81548110610db257610db2612e77565b906000526020600020906005020160040154915050919050565b600054610100900460ff1615808015610dec5750600054600160ff909116105b80610e065750303b158015610e06575060005460ff166001145b610e695760405162461bcd60e51b815260206004820152602e60248201527f496e697469616c697a61626c653a20636f6e747261637420697320616c72656160448201526d191e481a5b9a5d1a585b1a5e995960921b60648201526084016109f2565b6000805460ff191660011790558015610e8c576000805461ff0019166101001790555b610e94612256565b609780546001600160a01b0319166001600160a01b038916179055609c869055609d859055609e849055609f83905560a18290558015610f0e576000805461ff0019169055604051600181527f7f26b83ff96e1f2b6a682f133852f6798a09c465da95921460cefb38474024989060200160405180910390a15b50505050505050565b609b6020528160005260406000208181548110610f3357600080fd5b6000918252602090912001546001600160a01b03169150829050565b610f57612164565b60a155565b610f64612164565b609c93909355609d91909155609e55609f55565b610f80612164565b609780546001600160a01b0319166001600160a01b0383169081179091556040517f97b0055e5a3e9fb6730e963abc01ac48eba73106410fed451e50adf93ca99aff90600090a250565b609960205260009081526040902080548190610fe590612e8d565b80601f016020809104026020016040519081016040528092919081815260200182805461101190612e8d565b801561105e5780601f106110335761010080835404028352916020019161105e565b820191906000526020600020905b81548152906001019060200180831161104157829003601f168201915b50505050509080600101805461107390612e8d565b80601f016020809104026020016040519081016040528092919081815260200182805461109f90612e8d565b80156110ec5780601f106110c1576101008083540402835291602001916110ec565b820191906000526020600020905b8154815290600101906020018083116110cf57829003601f168201915b50505050509080600201805461110190612e8d565b80601f016020809104026020016040519081016040528092919081815260200182805461112d90612e8d565b801561117a5780601f1061114f5761010080835404028352916020019161117a565b820191906000526020600020905b81548152906001019060200180831161115d57829003601f168201915b5050505050905083565b61118c612164565b6111966000612285565b565b6000806111a483611b2b565b9050806111b45750600092915050565b6001600160a01b03831660009081526098602052604090206001908101906111dc9083612ef9565b815481106111ec576111ec612e77565b906000526020600020906005020160000154915050919050565b606061121182612238565b61122d5760405162461bcd60e51b81526004016109f290612f26565b6001600160a01b0382166000908152609960205260409020805461125090612e8d565b80601f016020809104026020016040519081016040528092919081815260200182805461127c90612e8d565b80156112c95780601f1061129e576101008083540402835291602001916112c9565b820191906000526020600020905b8154815290600101906020018083116112ac57829003601f168201915b50505050509050919050565b6097546001600160a01b0316336001600160a01b03161461132c5760405162461bcd60e51b815260206004820152601160248201527027232a27b930b1b6329d1010b0b236b4b760791b60448201526064016109f2565b86851461134b5760405162461bcd60e51b81526004016109f290612f5d565b8683146113a45760405162461bcd60e51b815260206004820152602160248201527f4e46544f7261636c653a2073616c6573206c656e677468206e6f74206d6174636044820152600d60fb1b60648201526084016109f2565b8681146114025760405162461bcd60e51b815260206004820152602660248201527f4e46544f7261636c653a20766f6c6174696c697479206c656e677468206e6f74604482015265040dac2e8c6d60d31b60648201526084016109f2565b4260005b888110156114ed57600060a060008c8c8581811061142657611426612e77565b905060200201602081019061143b9190612952565b6001600160a01b0316815260208101919091526040016000205460ff169050806114da576114da8b8b8481811061147457611474612e77565b90506020020160208101906114899190612952565b8a8a8581811061149b5761149b612e77565b905060200201358989868181106114b4576114b4612e77565b905060200201358888878181106114cd576114cd612e77565b9050602002013587611f08565b50806114e581612ede565b915050611406565b50505050505050505050565b600080600061150784612238565b6115235760405162461bcd60e51b81526004016109f290612f26565b600061152e85611b2b565b90506000811161157b5760405162461bcd60e51b81526020600482015260186024820152774e46544f7261636c653a206e6f207072696365206461746160401b60448201526064016109f2565b6001600160a01b038516600090815260a260205260409020548061168f576001600160a01b03861660009081526098602052604090206001908101906115c19084612ef9565b815481106115d1576115d1612e77565b6000918252602080832060016005909302018201546001600160a01b038a168452609890915260409092208101906116099085612ef9565b8154811061161957611619612e77565b90600052602060002090600502016002015460986000896001600160a01b03166001600160a01b031681526020019081526020016000206001016001856116609190612ef9565b8154811061167057611670612e77565b90600052602060002090600502016003015494509450945050506116b9565b6001600160a01b038616600090815260986020526040902081906001908101906116099085612ef9565b9193909250565b6116c8612164565b6116d585858585856122d7565b5050505050565b6116e4612164565b6001600160a01b0391909116600090815260a060205260409020805460ff1916911515919091179055565b600061171a83612238565b6117365760405162461bcd60e51b81526004016109f290612f26565b600061174184611b2b565b905060008111801561175257508083105b61176e5760405162461bcd60e51b81526004016109f290612f9f565b6001600160a01b03841660009081526098602052604090206001908101906117968584612ef9565b6117a09190612ef9565b815481106117b0576117b0612e77565b9060005260206000209060050201600401549150505b92915050565b60006117d783612238565b6117f35760405162461bcd60e51b81526004016109f290612f26565b60006117fe84611b2b565b905060008111801561180f57508083105b61182b5760405162461bcd60e51b81526004016109f290612f9f565b6001600160a01b03841660009081526098602052604090206001908101906118538584612ef9565b61185d9190612ef9565b8154811061186d5761186d612e77565b90600052602060002090600502016001015491505092915050565b611890612164565b8786146118af5760405162461bcd60e51b81526004016109f290612f5d565b8784146118ce5760405162461bcd60e51b81526004016109f290612f5d565b8782146118ed5760405162461bcd60e51b81526004016109f290612f5d565b60005b888110156114ed57611a388a8a8381811061190d5761190d612e77565b90506020020160208101906119229190612952565b89898481811061193457611934612e77565b90506020028101906119469190612fd6565b8080601f0160208091040260200160405190810160405280939291908181526020018383808284376000920191909152508b92508a915086905081811061198f5761198f612e77565b90506020028101906119a19190612fd6565b8080601f0160208091040260200160405190810160405280939291908181526020018383808284376000920191909152508a92508991508790508181106119ea576119ea612e77565b90506020028101906119fc9190612fd6565b8080601f0160208091040260200160405190810160405280939291908181526020018383808284376000920191909152508992506122d7915050565b80611a4281612ede565b9150506118f0565b6000611a5582612238565b611a715760405162461bcd60e51b81526004016109f290612f26565b6000611a7c83611b2b565b905060008111611ac95760405162461bcd60e51b81526020600482015260186024820152774e46544f7261636c653a206e6f207072696365206461746160401b60448201526064016109f2565b6000806000806000611ada886114f9565b945092509050611aeb82601e61301d565b611af884620f4240612ef9565b611b02919061303c565b9450611b0e8186612423565b611b1f90662386f26fc1000061301d565b98975050505050505050565b6001600160a01b031660009081526098602052604090206001015490565b611b51612164565b6001600160a01b038116611bb65760405162461bcd60e51b815260206004820152602660248201527f4f776e61626c653a206e6577206f776e657220697320746865207a65726f206160448201526564647265737360d01b60648201526084016109f2565b611bbf81612285565b50565b609a8181548110611bd257600080fd5b6000918252602090912001546001600160a01b0316905081565b6000611bf782612238565b611c135760405162461bcd60e51b81526004016109f290612f26565b60a154611c625760405162461bcd60e51b815260206004820152601e60248201527f4e46544f7261636c653a20696e74657276616c2063616e27742062652030000060448201526064016109f2565b6000611c6d83611b2b565b905060008111611c8f5760405162461bcd60e51b81526004016109f290612f9f565b6000611c9c600183612ef9565b6001600160a01b03851660009081526098602052604081206001018054929350909183908110611cce57611cce612e77565b600091825260208083206040805160a08101825260059094029091018054845260018101549284019290925260028201549083015260038101546060830152600401546080820181905260a1549193509190611d274290565b611d319190612ef9565b905080821080611d3f575083155b15611d5257505060200151949350505050565b6000611d5e8342612ef9565b905060008390506000828660200151611d77919061301d565b90505b86611d9757611d898382613054565b9a9950505050505050505050565b611da2600188612ef9565b6001600160a01b038b16600090815260986020526040902060010180549198509088908110611dd357611dd3612e77565b60009182526020918290206040805160a081018252600590930290910180548352600181015493830184905260028101549183019190915260038101546060830152600401546080820181905290975090858211611e5257611e358685612ef9565b611e3f908261301d565b611e49908461303c565b92505050611e8d565b6000611e5e8386612ef9565b9050611e6a818361301d565b611e74908561303c565b9350611e80818761303c565b9550829450505050611d7a565b60a154611d899082613054565b6001600160a01b038116600090815260a0602052604090205460ff168015611f045760405162461bcd60e51b815260206004820181905260248201527f4e46544f7261636c653a206e667420707269636520666565642070617573656460448201526064016109f2565b5050565b611f138560016121be565b611f1c85610d38565b8111611f6a5760405162461bcd60e51b815260206004820152601e60248201527f4e46544f7261636c653a20696e636f72726563742074696d657374616d70000060448201526064016109f2565b60008411611fba5760405162461bcd60e51b815260206004820152601d60248201527f4e46544f7261636c653a2070726963652063616e206e6f74206265203000000060448201526064016109f2565b6000611fc78686846124f1565b9050806120165760405162461bcd60e51b815260206004820152601d60248201527f4e46544f7261636c653a20696e76616c6964207072696365206461746100000060448201526064016109f2565b600061202187611b2b565b6040805160a08101825282815260208082018a81528284018a8152606084018a8152608085018a81526001600160a01b038f16600090815260988652968720600190810180548083018255908952958820875160059097020195865593519385019390935590516002840155516003830155516004909101559192506120a689611bec565b6001600160a01b038a16600081815260a2602090815260409182902084905581518c81529081018b90529081018990526060810188905260808101869052919250907f33d686446fa2fbacc6d321bb1daf22159d2d39d3608270b520cc4707b561c9949060a00160405180910390a260408051828152602081018790526001600160a01b038b16917f58bdf68b6e757afad014720959e6c9ecd94de1cc24b964ebf48b08b50366b321910160405180910390a2505050505050505050565b6033546001600160a01b031633146111965760405162461bcd60e51b815260206004820181905260248201527f4f776e61626c653a2063616c6c6572206973206e6f7420746865206f776e657260448201526064016109f2565b80156121e9576121cd82612238565b611f045760405162461bcd60e51b81526004016109f290612f26565b6121f282612238565b15611f045760405162461bcd60e51b815260206004820152601660248201527513919513dc9858db194e881ad95e48195e1a5cdd195960521b60448201526064016109f2565b6001600160a01b031660009081526098602052604090205460ff1690565b600054610100900460ff1661227d5760405162461bcd60e51b81526004016109f290613076565b611196612687565b603380546001600160a01b038381166001600160a01b0319831681179093556040519116919082907f8be0079c531659141344cd1fd0a4f28419497f9722a3daafe3b4186f6b6457e090600090a35050565b6122e28560006121be565b6001600160a01b0385166000818152609860209081526040808320805460ff19166001908117909155609a80548083019091557f44da158ba27f9252712a74ff6a55c5d531f69609f1f6e7f17c4443a8e2089be40180546001600160a01b0319908116871790915560ff87168552609b845282852080549283018155855283852090910180549091168517905592825260998152919020855161238792870190612712565b506001600160a01b038516600090815260996020908152604090912084516123b792600190920191860190612712565b506001600160a01b038516600090815260996020908152604090912083516123e792600290920191850190612712565b506040516001600160a01b038616907f0e3c58ebfb2e7465fbb1c32e6b4f40c3c4f5ca77e8218a386aff8617831260d790600090a25050505050565b6000821580612430575081155b1561243d575060006117c6565b8161244c6002620f4240613054565b61245890600019612ef9565b6124629190613054565b8311156124bd5760405162461bcd60e51b815260206004820152602360248201527f4572726f72732e4d4154485f4d554c5449504c49434154494f4e5f4f564552466044820152624c4f5760e81b60648201526084016109f2565b620f42406124cc600282613054565b6124d6848661301d565b6124e0919061303c565b6124ea9190613054565b9392505050565b6000806124fd85611b2b565b9050801561267c576001600160a01b038516600090815260986020526040812060019081019061252d9084612ef9565b8154811061253d5761253d612e77565b906000526020600020906005020160010154905080851415612564576001925050506124ea565b6001600160a01b038616600090815260986020526040812060019081019061258c9085612ef9565b8154811061259c5761259c612e77565b90600052602060002090600502016004015490506000828711156125e95782670de0b6b3a76400006125ce828a612ef9565b6125d8919061301d565b6125e29190613054565b9050612614565b82670de0b6b3a76400006125fd8983612ef9565b612607919061301d565b6126119190613054565b90505b60006126208388612ef9565b9050609c5482111561263a576000955050505050506124ea565b609f54811015612652576000955050505050506124ea565b609d54821180156126645750609e5481105b15612677576000955050505050506124ea565b505050505b506001949350505050565b600054610100900460ff166126ae5760405162461bcd60e51b81526004016109f290613076565b61119633612285565b5080546000825560050290600052602060002090810190611bbf9190612796565b5080546126e490612e8d565b6000825580601f106126f4575050565b601f016020900490600052602060002090810190611bbf91906127c6565b82805461271e90612e8d565b90600052602060002090601f0160209004810192826127405760008555612786565b82601f1061275957805160ff1916838001178555612786565b82800160010185558215612786579182015b8281111561278657825182559160200191906001019061276b565b506127929291506127c6565b5090565b5b808211156127925760008082556001820181905560028201819055600382018190556004820155600501612797565b5b8082111561279257600081556001016127c7565b803560ff811681146127ec57600080fd5b919050565b60006020828403121561280357600080fd5b6124ea826127db565b6000815180845260005b8181101561283257602081850181015186830182015201612816565b81811115612844576000602083870101525b50601f01601f19169290920160200192915050565b600082825180855260208086019550808260051b84010181860160005b848110156128a457601f1986840301895261289283835161280c565b98840198925090830190600101612876565b5090979650505050505050565b6080808252855190820181905260009060209060a0840190828901845b828110156128f35781516001600160a01b0316845292840192908401906001016128ce565b505050838103828501526129078188612859565b915050828103604084015261291c8186612859565b905082810360608401526129308185612859565b979650505050505050565b80356001600160a01b03811681146127ec57600080fd5b60006020828403121561296457600080fd5b6124ea8261293b565b6000806000806080858703121561298357600080fd5b61298c8561293b565b966020860135965060408601359560600135945092505050565b600080604083850312156129b957600080fd5b6129c28361293b565b91506129d0602084016127db565b90509250929050565b60008060008060008060c087890312156129f257600080fd5b6129fb8761293b565b9860208801359850604088013597606081013597506080810135965060a00135945092505050565b60008060408385031215612a3657600080fd5b612a3f836127db565b946020939093013593505050565b600060208284031215612a5f57600080fd5b5035919050565b60008060008060808587031215612a7c57600080fd5b5050823594602084013594506040840135936060013592509050565b606081526000612aab606083018661280c565b8281036020840152612abd818661280c565b90508281036040840152612ad1818561280c565b9695505050505050565b6020815260006124ea602083018461280c565b60008083601f840112612b0057600080fd5b50813567ffffffffffffffff811115612b1857600080fd5b6020830191508360208260051b8501011115612b3357600080fd5b9250929050565b6000806000806000806000806080898b031215612b5657600080fd5b883567ffffffffffffffff80821115612b6e57600080fd5b612b7a8c838d01612aee565b909a50985060208b0135915080821115612b9357600080fd5b612b9f8c838d01612aee565b909850965060408b0135915080821115612bb857600080fd5b612bc48c838d01612aee565b909650945060608b0135915080821115612bdd57600080fd5b50612bea8b828c01612aee565b999c989b5096995094979396929594505050565b634e487b7160e01b600052604160045260246000fd5b600082601f830112612c2557600080fd5b813567ffffffffffffffff80821115612c4057612c40612bfe565b604051601f8301601f19908116603f01168101908282118183101715612c6857612c68612bfe565b81604052838152866020858801011115612c8157600080fd5b836020870160208301376000602085830101528094505050505092915050565b600080600080600060a08688031215612cb957600080fd5b612cc28661293b565b9450602086013567ffffffffffffffff80821115612cdf57600080fd5b612ceb89838a01612c14565b95506040880135915080821115612d0157600080fd5b612d0d89838a01612c14565b94506060880135915080821115612d2357600080fd5b50612d3088828901612c14565b925050612d3f608087016127db565b90509295509295909350565b60008060408385031215612d5e57600080fd5b612d678361293b565b915060208301358015158114612d7c57600080fd5b809150509250929050565b60008060408385031215612d9a57600080fd5b612a3f8361293b565b600080600080600080600080600060a08a8c031215612dc157600080fd5b893567ffffffffffffffff80821115612dd957600080fd5b612de58d838e01612aee565b909b50995060208c0135915080821115612dfe57600080fd5b612e0a8d838e01612aee565b909950975060408c0135915080821115612e2357600080fd5b612e2f8d838e01612aee565b909750955060608c0135915080821115612e4857600080fd5b50612e558c828d01612aee565b9094509250612e68905060808b016127db565b90509295985092959850929598565b634e487b7160e01b600052603260045260246000fd5b600181811c90821680612ea157607f821691505b60208210811415612ec257634e487b7160e01b600052602260045260246000fd5b50919050565b634e487b7160e01b600052601160045260246000fd5b6000600019821415612ef257612ef2612ec8565b5060010190565b600082821015612f0b57612f0b612ec8565b500390565b634e487b7160e01b600052603160045260246000fd5b6020808252601a908201527f4e46544f7261636c653a206b6579206e6f742065786973746564000000000000604082015260600190565b60208082526022908201527f4e46544f7261636c653a20707269636573206c656e677468206e6f74206d61746040820152610c6d60f31b606082015260800190565b6020808252601d908201527f4e46544f7261636c653a204e6f7420656e6f75676820686973746f7279000000604082015260600190565b6000808335601e19843603018112612fed57600080fd5b83018035915067ffffffffffffffff82111561300857600080fd5b602001915036819003821315612b3357600080fd5b600081600019048311821515161561303757613037612ec8565b500290565b6000821982111561304f5761304f612ec8565b500190565b60008261307157634e487b7160e01b600052601260045260246000fd5b500490565b6020808252602b908201527f496e697469616c697a61626c653a20636f6e7472616374206973206e6f74206960408201526a6e697469616c697a696e6760a81b60608201526080019056fea264697066735822122030fab6b9123dfb3808d9c9a8cd619fbd39b0830872106b36beef3a762622079e64736f6c63430008080033",
  "linkReferences": {},
  "deployedLinkReferences": {}
}