{
  "_format": "hh-sol-artifact-1",
  "contractName": "NFTOracle",
  "sourceName": "contracts/NFTOracle.sol",
  "abi": [
    {
      "anonymous": false,
      "inputs": [
        {
          "indexed": true,
          "internalType": "address",
          "name": "asset",
          "type": "address"
        }
      ],
      "name": "AssetAdded",
      "type": "event"
    },
    {
      "anonymous": false,
      "inputs": [
        {
          "indexed": true,
          "internalType": "address",
          "name": "asset",
          "type": "address"
        }
      ],
      "name": "AssetRemoved",
      "type": "event"
    },
    {
      "anonymous": false,
      "inputs": [
        {
          "indexed": true,
          "internalType": "address",
          "name": "admin",
          "type": "address"
        }
      ],
      "name": "FeedAdminUpdated",
      "type": "event"
    },
    {
      "anonymous": false,
      "inputs": [
        {
          "indexed": false,
          "internalType": "uint8",
          "name": "version",
          "type": "uint8"
        }
      ],
      "name": "Initialized",
      "type": "event"
    },
    {
      "anonymous": false,
      "inputs": [
        {
          "indexed": true,
          "internalType": "address",
          "name": "previousOwner",
          "type": "address"
        },
        {
          "indexed": true,
          "internalType": "address",
          "name": "newOwner",
          "type": "address"
        }
      ],
      "name": "OwnershipTransferred",
      "type": "event"
    },
    {
      "anonymous": false,
      "inputs": [
        {
          "indexed": true,
          "internalType": "address",
          "name": "asset",
          "type": "address"
        },
        {
          "indexed": false,
          "internalType": "uint256",
          "name": "price",
          "type": "uint256"
        },
        {
          "indexed": false,
          "internalType": "uint256",
          "name": "sale",
          "type": "uint256"
        },
        {
          "indexed": false,
          "internalType": "uint256",
          "name": "volatility",
          "type": "uint256"
        },
        {
          "indexed": false,
          "internalType": "uint256",
          "name": "timestamp",
          "type": "uint256"
        },
        {
          "indexed": false,
          "internalType": "uint256",
          "name": "roundId",
          "type": "uint256"
        }
      ],
      "name": "SetAssetData",
      "type": "event"
    },
    {
      "anonymous": false,
      "inputs": [
        {
          "indexed": true,
          "internalType": "address",
          "name": "asset",
          "type": "address"
        },
        {
          "indexed": false,
          "internalType": "uint256",
          "name": "price",
          "type": "uint256"
        },
        {
          "indexed": false,
          "internalType": "uint256",
          "name": "timestamp",
          "type": "uint256"
        }
      ],
      "name": "SetAssetTwapPrice",
      "type": "event"
    },
    {
      "inputs": [
        {
          "internalType": "address",
          "name": "_nftContract",
          "type": "address"
        },
        {
          "internalType": "string",
          "name": "_name",
          "type": "string"
        },
        {
          "internalType": "string",
          "name": "_symbol",
          "type": "string"
        },
        {
          "internalType": "string",
          "name": "_url",
          "type": "string"
        },
        {
          "internalType": "uint8",
          "name": "nftType",
          "type": "uint8"
        }
      ],
      "name": "addAsset",
      "outputs": [],
      "stateMutability": "nonpayable",
      "type": "function"
    },
    {
      "inputs": [
        {
          "internalType": "address",
          "name": "_nftContract",
          "type": "address"
        }
      ],
      "name": "calculateTwapPrice",
      "outputs": [
        {
          "internalType": "uint256",
          "name": "",
          "type": "uint256"
        }
      ],
      "stateMutability": "view",
      "type": "function"
    },
    {
      "inputs": [
        {
          "internalType": "address",
          "name": "_nftContract",
          "type": "address"
        }
      ],
      "name": "getAssetPrice",
      "outputs": [
        {
          "internalType": "uint256",
          "name": "",
          "type": "uint256"
        },
        {
          "internalType": "uint256",
          "name": "",
          "type": "uint256"
        },
        {
          "internalType": "uint256",
          "name": "",
          "type": "uint256"
        }
      ],
      "stateMutability": "view",
      "type": "function"
    },
    {
      "inputs": [
        {
          "internalType": "uint8",
          "name": "nftType",
          "type": "uint8"
        }
      ],
      "name": "getAssets",
      "outputs": [
        {
          "internalType": "address[]",
          "name": "",
          "type": "address[]"
        },
        {
          "internalType": "string[]",
          "name": "",
          "type": "string[]"
        },
        {
          "internalType": "string[]",
          "name": "",
          "type": "string[]"
        },
        {
          "internalType": "string[]",
          "name": "",
          "type": "string[]"
        }
      ],
      "stateMutability": "view",
      "type": "function"
    },
    {
      "inputs": [
        {
          "internalType": "address",
          "name": "_nftContract",
          "type": "address"
        }
      ],
      "name": "getLatestRoundId",
      "outputs": [
        {
          "internalType": "uint256",
          "name": "",
          "type": "uint256"
        }
      ],
      "stateMutability": "view",
      "type": "function"
    },
    {
      "inputs": [
        {
          "internalType": "address",
          "name": "_nftContract",
          "type": "address"
        }
      ],
      "name": "getLatestTimestamp",
      "outputs": [
        {
          "internalType": "uint256",
          "name": "",
          "type": "uint256"
        }
      ],
      "stateMutability": "view",
      "type": "function"
    },
    {
      "inputs": [
        {
          "internalType": "address",
          "name": "_nftContract",
          "type": "address"
        },
        {
          "internalType": "uint256",
          "name": "_numOfRoundBack",
          "type": "uint256"
        }
      ],
      "name": "getPreviousPrice",
      "outputs": [
        {
          "internalType": "uint256",
          "name": "",
          "type": "uint256"
        }
      ],
      "stateMutability": "view",
      "type": "function"
    },
    {
      "inputs": [
        {
          "internalType": "address",
          "name": "_nftContract",
          "type": "address"
        },
        {
          "internalType": "uint256",
          "name": "_numOfRoundBack",
          "type": "uint256"
        }
      ],
      "name": "getPreviousTimestamp",
      "outputs": [
        {
          "internalType": "uint256",
          "name": "",
          "type": "uint256"
        }
      ],
      "stateMutability": "view",
      "type": "function"
    },
    {
      "inputs": [
        {
          "internalType": "address",
          "name": "_nftContract",
          "type": "address"
        }
      ],
      "name": "getPriceFeedLength",
      "outputs": [
        {
          "internalType": "uint256",
          "name": "length",
          "type": "uint256"
        }
      ],
      "stateMutability": "view",
      "type": "function"
    },
    {
      "inputs": [
        {
          "internalType": "address",
          "name": "_admin",
          "type": "address"
        },
        {
          "internalType": "uint256",
          "name": "_maxPriceDeviation",
          "type": "uint256"
        },
        {
          "internalType": "uint256",
          "name": "_maxPriceDeviationWithTime",
          "type": "uint256"
        },
        {
          "internalType": "uint256",
          "name": "_timeIntervalWithPrice",
          "type": "uint256"
        },
        {
          "internalType": "uint256",
          "name": "_minUpdateTime",
          "type": "uint256"
        },
        {
          "internalType": "uint256",
          "name": "_twapInterval",
          "type": "uint256"
        }
      ],
      "name": "initialize",
      "outputs": [],
      "stateMutability": "nonpayable",
      "type": "function"
    },
    {
      "inputs": [],
      "name": "maxPriceDeviation",
      "outputs": [
        {
          "internalType": "uint256",
          "name": "",
          "type": "uint256"
        }
      ],
      "stateMutability": "view",
      "type": "function"
    },
    {
      "inputs": [],
      "name": "maxPriceDeviationWithTime",
      "outputs": [
        {
          "internalType": "uint256",
          "name": "",
          "type": "uint256"
        }
      ],
      "stateMutability": "view",
      "type": "function"
    },
    {
      "inputs": [],
      "name": "minUpdateTime",
      "outputs": [
        {
          "internalType": "uint256",
          "name": "",
          "type": "uint256"
        }
      ],
      "stateMutability": "view",
      "type": "function"
    },
    {
      "inputs": [
        {
          "internalType": "address",
          "name": "",
          "type": "address"
        }
      ],
      "name": "nftBaseDataMap",
      "outputs": [
        {
          "internalType": "string",
          "name": "name",
          "type": "string"
        },
        {
          "internalType": "string",
          "name": "symbol",
          "type": "string"
        },
        {
          "internalType": "string",
          "name": "baseURI",
          "type": "string"
        }
      ],
      "stateMutability": "view",
      "type": "function"
    },
    {
      "inputs": [
        {
          "internalType": "address",
          "name": "",
          "type": "address"
        }
      ],
      "name": "nftPaused",
      "outputs": [
        {
          "internalType": "bool",
          "name": "",
          "type": "bool"
        }
      ],
      "stateMutability": "view",
      "type": "function"
    },
    {
      "inputs": [
        {
          "internalType": "uint8",
          "name": "",
          "type": "uint8"
        },
        {
          "internalType": "uint256",
          "name": "",
          "type": "uint256"
        }
      ],
      "name": "nftPriceFeedKeyMap",
      "outputs": [
        {
          "internalType": "address",
          "name": "",
          "type": "address"
        }
      ],
      "stateMutability": "view",
      "type": "function"
    },
    {
      "inputs": [
        {
          "internalType": "uint256",
          "name": "",
          "type": "uint256"
        }
      ],
      "name": "nftPriceFeedKeys",
      "outputs": [
        {
          "internalType": "address",
          "name": "",
          "type": "address"
        }
      ],
      "stateMutability": "view",
      "type": "function"
    },
    {
      "inputs": [
        {
          "internalType": "address",
          "name": "",
          "type": "address"
        }
      ],
      "name": "nftPriceFeedMap",
      "outputs": [
        {
          "internalType": "bool",
          "name": "registered",
          "type": "bool"
        }
      ],
      "stateMutability": "view",
      "type": "function"
    },
    {
      "inputs": [],
      "name": "owner",
      "outputs": [
        {
          "internalType": "address",
          "name": "",
          "type": "address"
        }
      ],
      "stateMutability": "view",
      "type": "function"
    },
    {
      "inputs": [],
      "name": "priceFeedAdmin",
      "outputs": [
        {
          "internalType": "address",
          "name": "",
          "type": "address"
        }
      ],
      "stateMutability": "view",
      "type": "function"
    },
    {
      "inputs": [
        {
          "internalType": "address",
          "name": "_nftContract",
          "type": "address"
        },
        {
          "internalType": "uint8",
          "name": "nftType",
          "type": "uint8"
        }
      ],
      "name": "removeAsset",
      "outputs": [],
      "stateMutability": "nonpayable",
      "type": "function"
    },
    {
      "inputs": [],
      "name": "renounceOwnership",
      "outputs": [],
      "stateMutability": "nonpayable",
      "type": "function"
    },
    {
      "inputs": [
        {
          "internalType": "address",
          "name": "_nftContract",
          "type": "address"
        },
        {
          "internalType": "uint256",
          "name": "_price",
          "type": "uint256"
        },
        {
          "internalType": "uint256",
          "name": "_sales",
          "type": "uint256"
        },
        {
          "internalType": "uint256",
          "name": "_volatility",
          "type": "uint256"
        }
      ],
      "name": "setAssetData",
      "outputs": [],
      "stateMutability": "nonpayable",
      "type": "function"
    },
    {
      "inputs": [
        {
          "internalType": "address[]",
          "name": "_nftContracts",
          "type": "address[]"
        },
        {
          "internalType": "string[]",
          "name": "_names",
          "type": "string[]"
        },
        {
          "internalType": "string[]",
          "name": "_symbols",
          "type": "string[]"
        },
        {
          "internalType": "string[]",
          "name": "_urls",
          "type": "string[]"
        },
        {
          "internalType": "uint8",
          "name": "nftType",
          "type": "uint8"
        }
      ],
      "name": "setAssets",
      "outputs": [],
      "stateMutability": "nonpayable",
      "type": "function"
    },
    {
      "inputs": [
        {
          "internalType": "uint256",
          "name": "_maxPriceDeviation",
          "type": "uint256"
        },
        {
          "internalType": "uint256",
          "name": "_maxPriceDeviationWithTime",
          "type": "uint256"
        },
        {
          "internalType": "uint256",
          "name": "_timeIntervalWithPrice",
          "type": "uint256"
        },
        {
          "internalType": "uint256",
          "name": "_minUpdateTime",
          "type": "uint256"
        }
      ],
      "name": "setDataValidityParameters",
      "outputs": [],
      "stateMutability": "nonpayable",
      "type": "function"
    },
    {
      "inputs": [
        {
          "internalType": "address[]",
          "name": "_nftContracts",
          "type": "address[]"
        },
        {
          "internalType": "uint256[]",
          "name": "_prices",
          "type": "uint256[]"
        },
        {
          "internalType": "uint256[]",
          "name": "_sales",
          "type": "uint256[]"
        },
        {
          "internalType": "uint256[]",
          "name": "_volatility",
          "type": "uint256[]"
        }
      ],
      "name": "setMultipleAssetsData",
      "outputs": [],
      "stateMutability": "nonpayable",
      "type": "function"
    },
    {
      "inputs": [
        {
          "internalType": "address",
          "name": "_nftContract",
          "type": "address"
        },
        {
          "internalType": "bool",
          "name": "val",
          "type": "bool"
        }
      ],
      "name": "setPause",
      "outputs": [],
      "stateMutability": "nonpayable",
      "type": "function"
    },
    {
      "inputs": [
        {
          "internalType": "address",
          "name": "_admin",
          "type": "address"
        }
      ],
      "name": "setPriceFeedAdmin",
      "outputs": [],
      "stateMutability": "nonpayable",
      "type": "function"
    },
    {
      "inputs": [
        {
          "internalType": "uint256",
          "name": "_twapInterval",
          "type": "uint256"
        }
      ],
      "name": "setTwapInterval",
      "outputs": [],
      "stateMutability": "nonpayable",
      "type": "function"
    },
    {
      "inputs": [],
      "name": "timeIntervalWithPrice",
      "outputs": [
        {
          "internalType": "uint256",
          "name": "",
          "type": "uint256"
        }
      ],
      "stateMutability": "view",
      "type": "function"
    },
    {
      "inputs": [
        {
          "internalType": "address",
          "name": "newOwner",
          "type": "address"
        }
      ],
      "name": "transferOwnership",
      "outputs": [],
      "stateMutability": "nonpayable",
      "type": "function"
    },
    {
      "inputs": [],
      "name": "twapInterval",
      "outputs": [
        {
          "internalType": "uint256",
          "name": "",
          "type": "uint256"
        }
      ],
      "stateMutability": "view",
      "type": "function"
    },
    {
      "inputs": [
        {
          "internalType": "address",
          "name": "",
          "type": "address"
        }
      ],
      "name": "twapPriceMap",
      "outputs": [
        {
          "internalType": "uint256",
          "name": "",
          "type": "uint256"
        }
      ],
      "stateMutability": "view",
      "type": "function"
    }
  ],
  "bytecode": "0x608060405234801561001057600080fd5b50612fb6806100206000396000f3fe608060405234801561001057600080fd5b50600436106101fb5760003560e01c806383c2d72e1161011a578063c0e2c80c116100ad578063ea6f3bcd1161007c578063ea6f3bcd1461047d578063ef1d95b114610490578063f2fde38b146104a3578063fcd766dc146104b6578063fda0c598146104c957600080fd5b8063c0e2c80c14610431578063c22dc72214610444578063d84f885a14610457578063e889e5d61461046a57600080fd5b806398f5ec89116100e957806398f5ec89146103ba578063abad1bb3146103cd578063b24bb6da146103f0578063b3596f071461040357600080fd5b806383c2d72e146103845780638da5cb5b14610397578063975b8662146103a8578063985a6de6146103b157600080fd5b80635365a8c611610192578063663cdb2311610161578063663cdb231461031e57806369bede4e1461034057806369da148d14610373578063715018a61461037c57600080fd5b80635365a8c6146102ba5780635ea679ef146102e55780635f0ca42a146102f8578063650999af1461030b57600080fd5b80633c1d5df0116101ce5780633c1d5df0146102785780633c745f931461028157806341a6990f1461029457806345ff4c80146102a757600080fd5b80630dc94653146102005780630e9f781d1461022c578063143671ef14610243578063189ea57714610263575b600080fd5b61021361020e366004612baf565b6104dc565b6040516102239493929190612c83565b60405180910390f35b610235609e5481565b604051908152602001610223565b610235610251366004612802565b60a26020526000908152604090205481565b610276610271366004612925565b6109b8565b005b61023560a15481565b61027661028f3660046129a6565b610a34565b6102356102a2366004612802565b610dc1565b6102766102b536600461295d565b610e63565b6102cd6102c8366004612bc9565b610fae565b6040516001600160a01b039091168152602001610223565b6102766102f3366004612b66565b610fe6565b610276610306366004612b7e565b610ff3565b610276610319366004612802565b61100f565b61033161032c366004612802565b611061565b60405161022393929190612d0d565b61036361034e366004612802565b60986020526000908152604090205460ff1681565b6040519015158152602001610223565b610235609f5481565b61027661121b565b6097546102cd906001600160a01b031681565b6033546001600160a01b03166102cd565b610235609c5481565b610235609d5481565b6102356103c8366004612802565b61122f565b6103636103db366004612802565b60a06020526000908152604090205460ff1681565b6102766103fe366004612aa7565b6112ab565b610416610411366004612802565b611515565b60408051938452602084019290925290820152606001610223565b61027661043f366004612856565b61170b565b61027661045236600461281c565b611727565b6102356104653660046128fc565b61175a565b6102356104783660046128fc565b611824565b61027661048b3660046129d8565b6118ee565b61023561049e366004612802565b611ae8565b6102766104b1366004612802565b611b06565b6102cd6104c4366004612b66565b611b7f565b6102356104d7366004612802565b611ba9565b60ff81166000908152609b602052604081205460609182918291829167ffffffffffffffff81111561051e57634e487b7160e01b600052604160045260246000fd5b60405190808252806020026020018201604052801561055157816020015b606081526020019060019003908161053c5790505b5060ff87166000908152609b60205260408120549192509067ffffffffffffffff81111561058f57634e487b7160e01b600052604160045260246000fd5b6040519080825280602002602001820160405280156105c257816020015b60608152602001906001900390816105ad5790505b5060ff88166000908152609b60205260408120549192509067ffffffffffffffff81111561060057634e487b7160e01b600052604160045260246000fd5b60405190808252806020026020018201604052801561063357816020015b606081526020019060019003908161061e5790505b50905060005b60ff89166000908152609b602052604090205481101561092d5760ff89166000908152609b6020526040812080548390811061068557634e487b7160e01b600052603260045260246000fd5b60009182526020808320909101546001600160a01b0316808352609990915260409091208054919250906106b890612efe565b80601f01602080910402602001604051908101604052809291908181526020018280546106e490612efe565b80156107315780601f1061070657610100808354040283529160200191610731565b820191906000526020600020905b81548152906001019060200180831161071457829003601f168201915b505050505085838151811061075657634e487b7160e01b600052603260045260246000fd5b602002602001018190525060996000826001600160a01b03166001600160a01b03168152602001908152602001600020600101805461079490612efe565b80601f01602080910402602001604051908101604052809291908181526020018280546107c090612efe565b801561080d5780601f106107e25761010080835404028352916020019161080d565b820191906000526020600020905b8154815290600101906020018083116107f057829003601f168201915b505050505084838151811061083257634e487b7160e01b600052603260045260246000fd5b602002602001018190525060996000826001600160a01b03166001600160a01b03168152602001908152602001600020600201805461087090612efe565b80601f016020809104026020016040519081016040528092919081815260200182805461089c90612efe565b80156108e95780601f106108be576101008083540402835291602001916108e9565b820191906000526020600020905b8154815290600101906020018083116108cc57829003601f168201915b505050505083838151811061090e57634e487b7160e01b600052603260045260246000fd5b602002602001018190525050808061092590612f39565b915050610639565b50609b60008960ff1660ff1681526020019081526020016000208383838380548060200260200160405190810160405280929190818152602001828054801561099f57602002820191906000526020600020905b81546001600160a01b03168152600190910190602001808311610981575b5050505050935096509650965096505050509193509193565b6097546001600160a01b0316336001600160a01b031614610a145760405162461bcd60e51b815260206004820152601160248201527027232a27b930b1b6329d1010b0b236b4b760791b60448201526064015b60405180910390fd5b83610a1e81611e73565b42610a2c8686868685611ee1565b505050505050565b610a3c61213d565b610a47826001612197565b6001600160a01b0382166000908152609860205260408120805460ff1916815590610a7560018301826125e0565b50506001600160a01b038216600090815260996020526040812090610a9a8282612601565b610aa8600183016000612601565b610ab6600283016000612601565b505060ff81166000908152609b6020526040812054609a5490915b81811015610c0a57846001600160a01b0316609a8281548110610b0457634e487b7160e01b600052603260045260246000fd5b6000918252602090912001546001600160a01b03161415610bf857609a610b2c600184612ee7565b81548110610b4a57634e487b7160e01b600052603260045260246000fd5b600091825260209091200154609a80546001600160a01b039092169183908110610b8457634e487b7160e01b600052603260045260246000fd5b9060005260206000200160006101000a8154816001600160a01b0302191690836001600160a01b03160217905550609a805480610bd157634e487b7160e01b600052603160045260246000fd5b600082815260209020810160001990810180546001600160a01b0319169055019055610c0a565b80610c0281612f39565b915050610ad1565b5060005b82811015610d865760ff84166000908152609b6020526040902080546001600160a01b038716919083908110610c5457634e487b7160e01b600052603260045260246000fd5b6000918252602090912001546001600160a01b03161415610d745760ff84166000908152609b60205260409020610c8c600185612ee7565b81548110610caa57634e487b7160e01b600052603260045260246000fd5b600091825260208083209091015460ff87168352609b909152604090912080546001600160a01b039092169183908110610cf457634e487b7160e01b600052603260045260246000fd5b600091825260208083209190910180546001600160a01b0319166001600160a01b03949094169390931790925560ff86168152609b90915260409020805480610d4d57634e487b7160e01b600052603160045260246000fd5b600082815260209020810160001990810180546001600160a01b0319169055019055610d86565b80610d7e81612f39565b915050610c0e565b506040516001600160a01b038516907f37803e2125c48ee96c38ddf04e826daf335b0e1603579040fd275aba6d06b6fc90600090a250505050565b6000610dcc82612211565b610de85760405162461bcd60e51b8152600401610a0b90612d92565b6000610df383611ae8565b905080610e035750600092915050565b6001600160a01b0383166000908152609860205260409020600190810190610e2b9083612ee7565b81548110610e4957634e487b7160e01b600052603260045260246000fd5b906000526020600020906005020160040154915050919050565b600054610100900460ff1615808015610e835750600054600160ff909116105b80610e9d5750303b158015610e9d575060005460ff166001145b610f005760405162461bcd60e51b815260206004820152602e60248201527f496e697469616c697a61626c653a20636f6e747261637420697320616c72656160448201526d191e481a5b9a5d1a585b1a5e995960921b6064820152608401610a0b565b6000805460ff191660011790558015610f23576000805461ff0019166101001790555b610f2b61222f565b609780546001600160a01b0319166001600160a01b038916179055609c869055609d859055609e849055609f83905560a18290558015610fa5576000805461ff0019169055604051600181527f7f26b83ff96e1f2b6a682f133852f6798a09c465da95921460cefb38474024989060200160405180910390a15b50505050505050565b609b6020528160005260406000208181548110610fca57600080fd5b6000918252602090912001546001600160a01b03169150829050565b610fee61213d565b60a155565b610ffb61213d565b609c93909355609d91909155609e55609f55565b61101761213d565b609780546001600160a01b0319166001600160a01b0383169081179091556040517f97b0055e5a3e9fb6730e963abc01ac48eba73106410fed451e50adf93ca99aff90600090a250565b60996020526000908152604090208054819061107c90612efe565b80601f01602080910402602001604051908101604052809291908181526020018280546110a890612efe565b80156110f55780601f106110ca576101008083540402835291602001916110f5565b820191906000526020600020905b8154815290600101906020018083116110d857829003601f168201915b50505050509080600101805461110a90612efe565b80601f016020809104026020016040519081016040528092919081815260200182805461113690612efe565b80156111835780601f1061115857610100808354040283529160200191611183565b820191906000526020600020905b81548152906001019060200180831161116657829003601f168201915b50505050509080600201805461119890612efe565b80601f01602080910402602001604051908101604052809291908181526020018280546111c490612efe565b80156112115780601f106111e657610100808354040283529160200191611211565b820191906000526020600020905b8154815290600101906020018083116111f457829003601f168201915b5050505050905083565b61122361213d565b61122d600061225e565b565b60008061123b83611ae8565b90508061124b5750600092915050565b6001600160a01b03831660009081526098602052604090206001908101906112739083612ee7565b8154811061129157634e487b7160e01b600052603260045260246000fd5b906000526020600020906005020160000154915050919050565b6097546001600160a01b0316336001600160a01b0316146113025760405162461bcd60e51b815260206004820152601160248201527027232a27b930b1b6329d1010b0b236b4b760791b6044820152606401610a0b565b8685146113215760405162461bcd60e51b8152600401610a0b90612d50565b86831461137a5760405162461bcd60e51b815260206004820152602160248201527f4e46544f7261636c653a2073616c6573206c656e677468206e6f74206d6174636044820152600d60fb1b6064820152608401610a0b565b8681146113d85760405162461bcd60e51b815260206004820152602660248201527f4e46544f7261636c653a20766f6c6174696c697479206c656e677468206e6f74604482015265040dac2e8c6d60d31b6064820152608401610a0b565b4260005b8881101561150957600060a060008c8c8581811061140a57634e487b7160e01b600052603260045260246000fd5b905060200201602081019061141f9190612802565b6001600160a01b0316815260208101919091526040016000205460ff169050806114f6576114f68b8b8481811061146657634e487b7160e01b600052603260045260246000fd5b905060200201602081019061147b9190612802565b8a8a8581811061149b57634e487b7160e01b600052603260045260246000fd5b905060200201358989868181106114c257634e487b7160e01b600052603260045260246000fd5b905060200201358888878181106114e957634e487b7160e01b600052603260045260246000fd5b9050602002013587611ee1565b508061150181612f39565b9150506113dc565b50505050505050505050565b600080600061152384612211565b61153f5760405162461bcd60e51b8152600401610a0b90612d92565b600061154a85611ae8565b90506000811161159c5760405162461bcd60e51b815260206004820152601860248201527f4e46544f7261636c653a206e6f207072696365206461746100000000000000006044820152606401610a0b565b6001600160a01b038516600090815260a26020526040902054806116da576001600160a01b03861660009081526098602052604090206001908101906115e29084612ee7565b8154811061160057634e487b7160e01b600052603260045260246000fd5b6000918252602080832060016005909302018201546001600160a01b038a168452609890915260409092208101906116389085612ee7565b8154811061165657634e487b7160e01b600052603260045260246000fd5b90600052602060002090600502016002015460986000896001600160a01b03166001600160a01b0316815260200190815260200160002060010160018561169d9190612ee7565b815481106116bb57634e487b7160e01b600052603260045260246000fd5b9060005260206000209060050201600301549450945094505050611704565b6001600160a01b038616600090815260986020526040902081906001908101906116389085612ee7565b9193909250565b61171361213d565b61172085858585856122b0565b5050505050565b61172f61213d565b6001600160a01b0391909116600090815260a060205260409020805460ff1916911515919091179055565b600061176583612211565b6117815760405162461bcd60e51b8152600401610a0b90612d92565b600061178c84611ae8565b905060008111801561179d57508083105b6117b95760405162461bcd60e51b8152600401610a0b90612e14565b6001600160a01b03841660009081526098602052604090206001908101906117e18584612ee7565b6117eb9190612ee7565b8154811061180957634e487b7160e01b600052603260045260246000fd5b90600052602060002090600502016004015491505092915050565b600061182f83612211565b61184b5760405162461bcd60e51b8152600401610a0b90612d92565b600061185684611ae8565b905060008111801561186757508083105b6118835760405162461bcd60e51b8152600401610a0b90612e14565b6001600160a01b03841660009081526098602052604090206001908101906118ab8584612ee7565b6118b59190612ee7565b815481106118d357634e487b7160e01b600052603260045260246000fd5b90600052602060002090600502016001015491505092915050565b6118f661213d565b8786146119155760405162461bcd60e51b8152600401610a0b90612d50565b8784146119345760405162461bcd60e51b8152600401610a0b90612d50565b8782146119535760405162461bcd60e51b8152600401610a0b90612d50565b60005b8881101561150957611ad68a8a8381811061198157634e487b7160e01b600052603260045260246000fd5b90506020020160208101906119969190612802565b8989848181106119b657634e487b7160e01b600052603260045260246000fd5b90506020028101906119c89190612e4b565b8080601f0160208091040260200160405190810160405280939291908181526020018383808284376000920191909152508b92508a9150869050818110611a1f57634e487b7160e01b600052603260045260246000fd5b9050602002810190611a319190612e4b565b8080601f0160208091040260200160405190810160405280939291908181526020018383808284376000920191909152508a9250899150879050818110611a8857634e487b7160e01b600052603260045260246000fd5b9050602002810190611a9a9190612e4b565b8080601f0160208091040260200160405190810160405280939291908181526020018383808284376000920191909152508992506122b0915050565b80611ae081612f39565b915050611956565b6001600160a01b031660009081526098602052604090206001015490565b611b0e61213d565b6001600160a01b038116611b735760405162461bcd60e51b815260206004820152602660248201527f4f776e61626c653a206e6577206f776e657220697320746865207a65726f206160448201526564647265737360d01b6064820152608401610a0b565b611b7c8161225e565b50565b609a8181548110611b8f57600080fd5b6000918252602090912001546001600160a01b0316905081565b6000611bb482612211565b611bd05760405162461bcd60e51b8152600401610a0b90612d92565b60a154611c1f5760405162461bcd60e51b815260206004820152601e60248201527f4e46544f7261636c653a20696e74657276616c2063616e2774206265203000006044820152606401610a0b565b6000611c2a83611ae8565b905060008111611c4c5760405162461bcd60e51b8152600401610a0b90612e14565b6000611c59600183612ee7565b6001600160a01b03851660009081526098602052604081206001018054929350909183908110611c9957634e487b7160e01b600052603260045260246000fd5b600091825260208083206040805160a08101825260059094029091018054845260018101549284019290925260028201549083015260038101546060830152600401546080820181905260a1549193509190611cf24290565b611cfc9190612ee7565b905080821080611d0a575083155b15611d1d57505060200151949350505050565b6000611d298342612ee7565b905060008390506000828660200151611d429190612ec8565b90505b86611d6257611d548382612ea8565b9a9950505050505050505050565b611d6d600188612ee7565b6001600160a01b038b16600090815260986020526040902060010180549198509088908110611dac57634e487b7160e01b600052603260045260246000fd5b60009182526020918290206040805160a081018252600590930290910180548352600181015493830184905260028101549183019190915260038101546060830152600401546080820181905290975090858211611e2b57611e0e8685612ee7565b611e189082612ec8565b611e229084612e90565b92505050611e66565b6000611e378386612ee7565b9050611e438183612ec8565b611e4d9085612e90565b9350611e598187612e90565b9550829450505050611d45565b60a154611d549082612ea8565b6001600160a01b038116600090815260a0602052604090205460ff168015611edd5760405162461bcd60e51b815260206004820181905260248201527f4e46544f7261636c653a206e66742070726963652066656564207061757365646044820152606401610a0b565b5050565b611eec856001612197565b611ef585610dc1565b8111611f435760405162461bcd60e51b815260206004820152601e60248201527f4e46544f7261636c653a20696e636f72726563742074696d657374616d7000006044820152606401610a0b565b60008411611f935760405162461bcd60e51b815260206004820152601d60248201527f4e46544f7261636c653a2070726963652063616e206e6f7420626520300000006044820152606401610a0b565b6000611fa08686846123fc565b905080611fef5760405162461bcd60e51b815260206004820152601d60248201527f4e46544f7261636c653a20696e76616c696420707269636520646174610000006044820152606401610a0b565b6000611ffa87611ae8565b6040805160a08101825282815260208082018a81528284018a8152606084018a8152608085018a81526001600160a01b038f166000908152609886529687206001908101805480830182559089529588208751600590970201958655935193850193909355905160028401555160038301555160049091015591925061207f89611ba9565b6001600160a01b038a16600081815260a2602090815260409182902084905581518c81529081018b90529081018990526060810188905260808101869052919250907f33d686446fa2fbacc6d321bb1daf22159d2d39d3608270b520cc4707b561c9949060a00160405180910390a260408051828152602081018790526001600160a01b038b16917f58bdf68b6e757afad014720959e6c9ecd94de1cc24b964ebf48b08b50366b321910160405180910390a2505050505050505050565b6033546001600160a01b0316331461122d5760405162461bcd60e51b815260206004820181905260248201527f4f776e61626c653a2063616c6c6572206973206e6f7420746865206f776e65726044820152606401610a0b565b80156121c2576121a682612211565b611edd5760405162461bcd60e51b8152600401610a0b90612d92565b6121cb82612211565b15611edd5760405162461bcd60e51b815260206004820152601660248201527513919513dc9858db194e881ad95e48195e1a5cdd195960521b6044820152606401610a0b565b6001600160a01b031660009081526098602052604090205460ff1690565b600054610100900460ff166122565760405162461bcd60e51b8152600401610a0b90612dc9565b61122d6125b0565b603380546001600160a01b038381166001600160a01b0319831681179093556040519116919082907f8be0079c531659141344cd1fd0a4f28419497f9722a3daafe3b4186f6b6457e090600090a35050565b6122bb856000612197565b6001600160a01b0385166000818152609860209081526040808320805460ff19166001908117909155609a80548083019091557f44da158ba27f9252712a74ff6a55c5d531f69609f1f6e7f17c4443a8e2089be40180546001600160a01b0319908116871790915560ff87168552609b84528285208054928301815585528385209091018054909116851790559282526099815291902085516123609287019061263b565b506001600160a01b038516600090815260996020908152604090912084516123909260019092019186019061263b565b506001600160a01b038516600090815260996020908152604090912083516123c09260029092019185019061263b565b506040516001600160a01b038616907f0e3c58ebfb2e7465fbb1c32e6b4f40c3c4f5ca77e8218a386aff8617831260d790600090a25050505050565b60008061240885611ae8565b905080156125a3576001600160a01b03851660009081526098602052604081206001908101906124389084612ee7565b8154811061245657634e487b7160e01b600052603260045260246000fd5b90600052602060002090600502016001015490508085141561247d576001925050506125a9565b6001600160a01b03861660009081526098602052604081206001908101906124a59085612ee7565b815481106124c357634e487b7160e01b600052603260045260246000fd5b90600052602060002090600502016004015490506000828711156125105782670de0b6b3a76400006124f5828a612ee7565b6124ff9190612ec8565b6125099190612ea8565b905061253b565b82670de0b6b3a76400006125248983612ee7565b61252e9190612ec8565b6125389190612ea8565b90505b60006125478388612ee7565b9050609c54821115612561576000955050505050506125a9565b609f54811015612579576000955050505050506125a9565b609d548211801561258b5750609e5481105b1561259e576000955050505050506125a9565b505050505b60019150505b9392505050565b600054610100900460ff166125d75760405162461bcd60e51b8152600401610a0b90612dc9565b61122d3361225e565b5080546000825560050290600052602060002090810190611b7c91906126bf565b50805461260d90612efe565b6000825580601f1061261d575050565b601f016020900490600052602060002090810190611b7c91906126ef565b82805461264790612efe565b90600052602060002090601f01602090048101928261266957600085556126af565b82601f1061268257805160ff19168380011785556126af565b828001600101855582156126af579182015b828111156126af578251825591602001919060010190612694565b506126bb9291506126ef565b5090565b5b808211156126bb57600080825560018201819055600282018190556003820181905560048201556005016126c0565b5b808211156126bb57600081556001016126f0565b80356001600160a01b038116811461271b57600080fd5b919050565b60008083601f840112612731578081fd5b50813567ffffffffffffffff811115612748578182fd5b6020830191508360208260051b850101111561276357600080fd5b9250929050565b600082601f83011261277a578081fd5b813567ffffffffffffffff8082111561279557612795612f6a565b604051601f8301601f19908116603f011681019082821181831017156127bd576127bd612f6a565b816040528381528660208588010111156127d5578485fd5b8360208701602083013792830160200193909352509392505050565b803560ff8116811461271b57600080fd5b600060208284031215612813578081fd5b6125a982612704565b6000806040838503121561282e578081fd5b61283783612704565b91506020830135801515811461284b578182fd5b809150509250929050565b600080600080600060a0868803121561286d578081fd5b61287686612704565b9450602086013567ffffffffffffffff80821115612892578283fd5b61289e89838a0161276a565b955060408801359150808211156128b3578283fd5b6128bf89838a0161276a565b945060608801359150808211156128d4578283fd5b506128e18882890161276a565b9250506128f0608087016127f1565b90509295509295909350565b6000806040838503121561290e578182fd5b61291783612704565b946020939093013593505050565b6000806000806080858703121561293a578384fd5b61294385612704565b966020860135965060408601359560600135945092505050565b60008060008060008060c08789031215612975578081fd5b61297e87612704565b9860208801359850604088013597606081013597506080810135965060a00135945092505050565b600080604083850312156129b8578182fd5b6129c183612704565b91506129cf602084016127f1565b90509250929050565b600080600080600080600080600060a08a8c0312156129f5578283fd5b893567ffffffffffffffff80821115612a0c578485fd5b612a188d838e01612720565b909b50995060208c0135915080821115612a30578485fd5b612a3c8d838e01612720565b909950975060408c0135915080821115612a54578485fd5b612a608d838e01612720565b909750955060608c0135915080821115612a78578485fd5b50612a858c828d01612720565b9094509250612a98905060808b016127f1565b90509295985092959850929598565b6000806000806000806000806080898b031215612ac2578384fd5b883567ffffffffffffffff80821115612ad9578586fd5b612ae58c838d01612720565b909a50985060208b0135915080821115612afd578586fd5b612b098c838d01612720565b909850965060408b0135915080821115612b21578586fd5b612b2d8c838d01612720565b909650945060608b0135915080821115612b45578384fd5b50612b528b828c01612720565b999c989b5096995094979396929594505050565b600060208284031215612b77578081fd5b5035919050565b60008060008060808587031215612b93578182fd5b5050823594602084013594506040840135936060013592509050565b600060208284031215612bc0578081fd5b6125a9826127f1565b60008060408385031215612bdb578182fd5b612917836127f1565b600081518084526020808501808196508360051b81019150828601855b85811015612c2b578284038952612c19848351612c38565b98850198935090840190600101612c01565b5091979650505050505050565b60008151808452815b81811015612c5d57602081850181015186830182015201612c41565b81811115612c6e5782602083870101525b50601f01601f19169290920160200192915050565b6080808252855190820181905260009060209060a0840190828901845b82811015612cc55781516001600160a01b031684529284019290840190600101612ca0565b50505083810382850152612cd98188612be4565b9150508281036040840152612cee8186612be4565b90508281036060840152612d028185612be4565b979650505050505050565b606081526000612d206060830186612c38565b8281036020840152612d328186612c38565b90508281036040840152612d468185612c38565b9695505050505050565b60208082526022908201527f4e46544f7261636c653a20707269636573206c656e677468206e6f74206d61746040820152610c6d60f31b606082015260800190565b6020808252601a908201527f4e46544f7261636c653a206b6579206e6f742065786973746564000000000000604082015260600190565b6020808252602b908201527f496e697469616c697a61626c653a20636f6e7472616374206973206e6f74206960408201526a6e697469616c697a696e6760a81b606082015260800190565b6020808252601d908201527f4e46544f7261636c653a204e6f7420656e6f75676820686973746f7279000000604082015260600190565b6000808335601e19843603018112612e61578283fd5b83018035915067ffffffffffffffff821115612e7b578283fd5b60200191503681900382131561276357600080fd5b60008219821115612ea357612ea3612f54565b500190565b600082612ec357634e487b7160e01b81526012600452602481fd5b500490565b6000816000190483118215151615612ee257612ee2612f54565b500290565b600082821015612ef957612ef9612f54565b500390565b600181811c90821680612f1257607f821691505b60208210811415612f3357634e487b7160e01b600052602260045260246000fd5b50919050565b6000600019821415612f4d57612f4d612f54565b5060010190565b634e487b7160e01b600052601160045260246000fd5b634e487b7160e01b600052604160045260246000fdfea2646970667358221220943714a3aa705a5e389cb8c0b0cdbef819e0f9bea10d3e07ce66197bb616237564736f6c63430008040033",
  "linkReferences": {},
  "deployedLinkReferences": {}
}