{
  "_format": "hh-sol-artifact-1",
  "contractName": "NFTOracle",
  "sourceName": "contracts/NFTOracle.sol",
  "abi": [
    {
      "anonymous": false,
      "inputs": [
        {
          "indexed": true,
          "internalType": "address",
          "name": "asset",
          "type": "address"
        }
      ],
      "name": "AssetAdded",
      "type": "event"
    },
    {
      "anonymous": false,
      "inputs": [
        {
          "indexed": true,
          "internalType": "address",
          "name": "asset",
          "type": "address"
        }
      ],
      "name": "AssetRemoved",
      "type": "event"
    },
    {
      "anonymous": false,
      "inputs": [
        {
          "indexed": true,
          "internalType": "address",
          "name": "admin",
          "type": "address"
        }
      ],
      "name": "FeedAdminUpdated",
      "type": "event"
    },
    {
      "anonymous": false,
      "inputs": [
        {
          "indexed": false,
          "internalType": "uint8",
          "name": "version",
          "type": "uint8"
        }
      ],
      "name": "Initialized",
      "type": "event"
    },
    {
      "anonymous": false,
      "inputs": [
        {
          "indexed": true,
          "internalType": "address",
          "name": "previousOwner",
          "type": "address"
        },
        {
          "indexed": true,
          "internalType": "address",
          "name": "newOwner",
          "type": "address"
        }
      ],
      "name": "OwnershipTransferred",
      "type": "event"
    },
    {
      "anonymous": false,
      "inputs": [
        {
          "indexed": true,
          "internalType": "address",
          "name": "asset",
          "type": "address"
        },
        {
          "indexed": false,
          "internalType": "uint256",
          "name": "price",
          "type": "uint256"
        },
        {
          "indexed": false,
          "internalType": "uint256",
          "name": "sale",
          "type": "uint256"
        },
        {
          "indexed": false,
          "internalType": "uint256",
          "name": "volatility",
          "type": "uint256"
        },
        {
          "indexed": false,
          "internalType": "uint256",
          "name": "timestamp",
          "type": "uint256"
        },
        {
          "indexed": false,
          "internalType": "uint256",
          "name": "roundId",
          "type": "uint256"
        }
      ],
      "name": "SetAssetData",
      "type": "event"
    },
    {
      "anonymous": false,
      "inputs": [
        {
          "indexed": true,
          "internalType": "address",
          "name": "asset",
          "type": "address"
        },
        {
          "indexed": false,
          "internalType": "uint256",
          "name": "price",
          "type": "uint256"
        },
        {
          "indexed": false,
          "internalType": "uint256",
          "name": "timestamp",
          "type": "uint256"
        }
      ],
      "name": "SetAssetTwapPrice",
      "type": "event"
    },
    {
      "inputs": [
        {
          "internalType": "address",
          "name": "_nftContract",
          "type": "address"
        },
        {
          "internalType": "string",
          "name": "_name",
          "type": "string"
        },
        {
          "internalType": "string",
          "name": "_symbol",
          "type": "string"
        },
        {
          "internalType": "string",
          "name": "_url",
          "type": "string"
        },
        {
          "internalType": "uint8",
          "name": "nftType",
          "type": "uint8"
        }
      ],
      "name": "addAsset",
      "outputs": [],
      "stateMutability": "nonpayable",
      "type": "function"
    },
    {
      "inputs": [
        {
          "internalType": "address",
          "name": "_nftContract",
          "type": "address"
        }
      ],
      "name": "calculateTwapPrice",
      "outputs": [
        {
          "internalType": "uint256",
          "name": "",
          "type": "uint256"
        }
      ],
      "stateMutability": "view",
      "type": "function"
    },
    {
      "inputs": [
        {
          "internalType": "address",
          "name": "_nftContract",
          "type": "address"
        }
      ],
      "name": "getAssetName",
      "outputs": [
        {
          "internalType": "string",
          "name": "",
          "type": "string"
        }
      ],
      "stateMutability": "view",
      "type": "function"
    },
    {
      "inputs": [
        {
          "internalType": "address",
          "name": "_nftContract",
          "type": "address"
        }
      ],
      "name": "getAssetPrice",
      "outputs": [
        {
          "internalType": "uint256",
          "name": "",
          "type": "uint256"
        },
        {
          "internalType": "uint256",
          "name": "",
          "type": "uint256"
        },
        {
          "internalType": "uint256",
          "name": "",
          "type": "uint256"
        }
      ],
      "stateMutability": "view",
      "type": "function"
    },
    {
      "inputs": [
        {
          "internalType": "address",
          "name": "_nftContract",
          "type": "address"
        }
      ],
      "name": "getAssetType",
      "outputs": [
        {
          "internalType": "uint8",
          "name": "",
          "type": "uint8"
        }
      ],
      "stateMutability": "view",
      "type": "function"
    },
    {
      "inputs": [
        {
          "internalType": "uint8",
          "name": "nftType",
          "type": "uint8"
        }
      ],
      "name": "getAssets",
      "outputs": [
        {
          "internalType": "address[]",
          "name": "",
          "type": "address[]"
        },
        {
          "internalType": "string[]",
          "name": "",
          "type": "string[]"
        },
        {
          "internalType": "string[]",
          "name": "",
          "type": "string[]"
        },
        {
          "internalType": "string[]",
          "name": "",
          "type": "string[]"
        }
      ],
      "stateMutability": "view",
      "type": "function"
    },
    {
      "inputs": [
        {
          "internalType": "address",
          "name": "_nftContract",
          "type": "address"
        }
      ],
      "name": "getFinalPrice",
      "outputs": [
        {
          "internalType": "uint256",
          "name": "",
          "type": "uint256"
        }
      ],
      "stateMutability": "view",
      "type": "function"
    },
    {
      "inputs": [
        {
          "internalType": "address",
          "name": "_nftContract",
          "type": "address"
        }
      ],
      "name": "getLatestRoundId",
      "outputs": [
        {
          "internalType": "uint256",
          "name": "",
          "type": "uint256"
        }
      ],
      "stateMutability": "view",
      "type": "function"
    },
    {
      "inputs": [
        {
          "internalType": "address",
          "name": "_nftContract",
          "type": "address"
        }
      ],
      "name": "getLatestTimestamp",
      "outputs": [
        {
          "internalType": "uint256",
          "name": "",
          "type": "uint256"
        }
      ],
      "stateMutability": "view",
      "type": "function"
    },
    {
      "inputs": [
        {
          "internalType": "address",
          "name": "_nftContract",
          "type": "address"
        },
        {
          "internalType": "uint256",
          "name": "_numOfRoundBack",
          "type": "uint256"
        }
      ],
      "name": "getPreviousPrice",
      "outputs": [
        {
          "internalType": "uint256",
          "name": "",
          "type": "uint256"
        }
      ],
      "stateMutability": "view",
      "type": "function"
    },
    {
      "inputs": [
        {
          "internalType": "address",
          "name": "_nftContract",
          "type": "address"
        },
        {
          "internalType": "uint256",
          "name": "_numOfRoundBack",
          "type": "uint256"
        }
      ],
      "name": "getPreviousTimestamp",
      "outputs": [
        {
          "internalType": "uint256",
          "name": "",
          "type": "uint256"
        }
      ],
      "stateMutability": "view",
      "type": "function"
    },
    {
      "inputs": [
        {
          "internalType": "address",
          "name": "_nftContract",
          "type": "address"
        }
      ],
      "name": "getPriceFeedLength",
      "outputs": [
        {
          "internalType": "uint256",
          "name": "length",
          "type": "uint256"
        }
      ],
      "stateMutability": "view",
      "type": "function"
    },
    {
      "inputs": [
        {
          "internalType": "address",
          "name": "_admin",
          "type": "address"
        },
        {
          "internalType": "uint256",
          "name": "_maxPriceDeviation",
          "type": "uint256"
        },
        {
          "internalType": "uint256",
          "name": "_maxPriceDeviationWithTime",
          "type": "uint256"
        },
        {
          "internalType": "uint256",
          "name": "_timeIntervalWithPrice",
          "type": "uint256"
        },
        {
          "internalType": "uint256",
          "name": "_minUpdateTime",
          "type": "uint256"
        },
        {
          "internalType": "uint256",
          "name": "_twapInterval",
          "type": "uint256"
        }
      ],
      "name": "initialize",
      "outputs": [],
      "stateMutability": "nonpayable",
      "type": "function"
    },
    {
      "inputs": [],
      "name": "maxPriceDeviation",
      "outputs": [
        {
          "internalType": "uint256",
          "name": "",
          "type": "uint256"
        }
      ],
      "stateMutability": "view",
      "type": "function"
    },
    {
      "inputs": [],
      "name": "maxPriceDeviationWithTime",
      "outputs": [
        {
          "internalType": "uint256",
          "name": "",
          "type": "uint256"
        }
      ],
      "stateMutability": "view",
      "type": "function"
    },
    {
      "inputs": [],
      "name": "minUpdateTime",
      "outputs": [
        {
          "internalType": "uint256",
          "name": "",
          "type": "uint256"
        }
      ],
      "stateMutability": "view",
      "type": "function"
    },
    {
      "inputs": [
        {
          "internalType": "address",
          "name": "",
          "type": "address"
        }
      ],
      "name": "nftBaseDataMap",
      "outputs": [
        {
          "internalType": "string",
          "name": "name",
          "type": "string"
        },
        {
          "internalType": "string",
          "name": "symbol",
          "type": "string"
        },
        {
          "internalType": "string",
          "name": "baseURI",
          "type": "string"
        },
        {
          "internalType": "uint8",
          "name": "nftType",
          "type": "uint8"
        }
      ],
      "stateMutability": "view",
      "type": "function"
    },
    {
      "inputs": [
        {
          "internalType": "address",
          "name": "",
          "type": "address"
        }
      ],
      "name": "nftPaused",
      "outputs": [
        {
          "internalType": "bool",
          "name": "",
          "type": "bool"
        }
      ],
      "stateMutability": "view",
      "type": "function"
    },
    {
      "inputs": [
        {
          "internalType": "uint8",
          "name": "",
          "type": "uint8"
        },
        {
          "internalType": "uint256",
          "name": "",
          "type": "uint256"
        }
      ],
      "name": "nftPriceFeedKeyMap",
      "outputs": [
        {
          "internalType": "address",
          "name": "",
          "type": "address"
        }
      ],
      "stateMutability": "view",
      "type": "function"
    },
    {
      "inputs": [
        {
          "internalType": "uint256",
          "name": "",
          "type": "uint256"
        }
      ],
      "name": "nftPriceFeedKeys",
      "outputs": [
        {
          "internalType": "address",
          "name": "",
          "type": "address"
        }
      ],
      "stateMutability": "view",
      "type": "function"
    },
    {
      "inputs": [
        {
          "internalType": "address",
          "name": "",
          "type": "address"
        }
      ],
      "name": "nftPriceFeedMap",
      "outputs": [
        {
          "internalType": "bool",
          "name": "registered",
          "type": "bool"
        }
      ],
      "stateMutability": "view",
      "type": "function"
    },
    {
      "inputs": [],
      "name": "owner",
      "outputs": [
        {
          "internalType": "address",
          "name": "",
          "type": "address"
        }
      ],
      "stateMutability": "view",
      "type": "function"
    },
    {
      "inputs": [],
      "name": "priceFeedAdmin",
      "outputs": [
        {
          "internalType": "address",
          "name": "",
          "type": "address"
        }
      ],
      "stateMutability": "view",
      "type": "function"
    },
    {
      "inputs": [
        {
          "internalType": "address",
          "name": "_nftContract",
          "type": "address"
        },
        {
          "internalType": "uint8",
          "name": "nftType",
          "type": "uint8"
        }
      ],
      "name": "removeAsset",
      "outputs": [],
      "stateMutability": "nonpayable",
      "type": "function"
    },
    {
      "inputs": [],
      "name": "renounceOwnership",
      "outputs": [],
      "stateMutability": "nonpayable",
      "type": "function"
    },
    {
      "inputs": [
        {
          "internalType": "address",
          "name": "_nftContract",
          "type": "address"
        },
        {
          "internalType": "uint256",
          "name": "_price",
          "type": "uint256"
        },
        {
          "internalType": "uint256",
          "name": "_sales",
          "type": "uint256"
        },
        {
          "internalType": "uint256",
          "name": "_volatility",
          "type": "uint256"
        }
      ],
      "name": "setAssetData",
      "outputs": [],
      "stateMutability": "nonpayable",
      "type": "function"
    },
    {
      "inputs": [
        {
          "internalType": "address[]",
          "name": "_nftContracts",
          "type": "address[]"
        },
        {
          "internalType": "string[]",
          "name": "_names",
          "type": "string[]"
        },
        {
          "internalType": "string[]",
          "name": "_symbols",
          "type": "string[]"
        },
        {
          "internalType": "string[]",
          "name": "_urls",
          "type": "string[]"
        },
        {
          "internalType": "uint8",
          "name": "nftType",
          "type": "uint8"
        }
      ],
      "name": "setAssets",
      "outputs": [],
      "stateMutability": "nonpayable",
      "type": "function"
    },
    {
      "inputs": [
        {
          "internalType": "uint256",
          "name": "_maxPriceDeviation",
          "type": "uint256"
        },
        {
          "internalType": "uint256",
          "name": "_maxPriceDeviationWithTime",
          "type": "uint256"
        },
        {
          "internalType": "uint256",
          "name": "_timeIntervalWithPrice",
          "type": "uint256"
        },
        {
          "internalType": "uint256",
          "name": "_minUpdateTime",
          "type": "uint256"
        }
      ],
      "name": "setDataValidityParameters",
      "outputs": [],
      "stateMutability": "nonpayable",
      "type": "function"
    },
    {
      "inputs": [
        {
          "internalType": "address[]",
          "name": "_nftContracts",
          "type": "address[]"
        },
        {
          "internalType": "uint256[]",
          "name": "_prices",
          "type": "uint256[]"
        },
        {
          "internalType": "uint256[]",
          "name": "_sales",
          "type": "uint256[]"
        },
        {
          "internalType": "uint256[]",
          "name": "_volatility",
          "type": "uint256[]"
        }
      ],
      "name": "setMultipleAssetsData",
      "outputs": [],
      "stateMutability": "nonpayable",
      "type": "function"
    },
    {
      "inputs": [
        {
          "internalType": "address",
          "name": "_nftContract",
          "type": "address"
        },
        {
          "internalType": "bool",
          "name": "val",
          "type": "bool"
        }
      ],
      "name": "setPause",
      "outputs": [],
      "stateMutability": "nonpayable",
      "type": "function"
    },
    {
      "inputs": [
        {
          "internalType": "address",
          "name": "_admin",
          "type": "address"
        }
      ],
      "name": "setPriceFeedAdmin",
      "outputs": [],
      "stateMutability": "nonpayable",
      "type": "function"
    },
    {
      "inputs": [
        {
          "internalType": "uint256",
          "name": "_twapInterval",
          "type": "uint256"
        }
      ],
      "name": "setTwapInterval",
      "outputs": [],
      "stateMutability": "nonpayable",
      "type": "function"
    },
    {
      "inputs": [],
      "name": "timeIntervalWithPrice",
      "outputs": [
        {
          "internalType": "uint256",
          "name": "",
          "type": "uint256"
        }
      ],
      "stateMutability": "view",
      "type": "function"
    },
    {
      "inputs": [
        {
          "internalType": "address",
          "name": "newOwner",
          "type": "address"
        }
      ],
      "name": "transferOwnership",
      "outputs": [],
      "stateMutability": "nonpayable",
      "type": "function"
    },
    {
      "inputs": [],
      "name": "twapInterval",
      "outputs": [
        {
          "internalType": "uint256",
          "name": "",
          "type": "uint256"
        }
      ],
      "stateMutability": "view",
      "type": "function"
    },
    {
      "inputs": [
        {
          "internalType": "address",
          "name": "",
          "type": "address"
        }
      ],
      "name": "twapPriceMap",
      "outputs": [
        {
          "internalType": "uint256",
          "name": "",
          "type": "uint256"
        }
      ],
      "stateMutability": "view",
      "type": "function"
    }
  ],
  "bytecode": "0x608060405234801561001057600080fd5b506131a9806100206000396000f3fe608060405234801561001057600080fd5b506004361061021c5760003560e01c80638da5cb5b11610125578063c22dc722116100ad578063ec70cb361161007c578063ec70cb36146104f3578063ef1d95b114610506578063f2fde38b14610519578063fcd766dc1461052c578063fda0c5981461053f57600080fd5b8063c22dc722146104a7578063d84f885a146104ba578063e889e5d6146104cd578063ea6f3bcd146104e057600080fd5b8063aafa6272116100f4578063aafa627214610410578063abad1bb314610430578063b24bb6da14610453578063b3596f0714610466578063c0e2c80c1461049457600080fd5b80638da5cb5b146103da578063975b8662146103eb578063985a6de6146103f457806398f5ec89146103fd57600080fd5b80635365a8c6116101a8578063663cdb2311610177578063663cdb231461036057806369bede4e1461038357806369da148d146103b6578063715018a6146103bf57806383c2d72e146103c757600080fd5b80635365a8c6146102fc5780635ea679ef146103275780635f0ca42a1461033a578063650999af1461034d57600080fd5b8063189ea577116101ef578063189ea577146102a55780633c1d5df0146102ba5780633c745f93146102c357806341a6990f146102d657806345ff4c80146102e957600080fd5b8063032c49ed146102215780630dc946531461024b5780630e9f781d1461026e578063143671ef14610285575b600080fd5b61023461022f36600461289e565b610552565b60405160ff90911681526020015b60405180910390f35b61025e6102593660046128ca565b6105a4565b604051610242949392919061298a565b610277609e5481565b604051908152602001610242565b61027761029336600461289e565b60a26020526000908152604090205481565b6102b86102b3366004612a14565b610a1e565b005b61027760a15481565b6102b86102d1366004612a4d565b610a95565b6102776102e436600461289e565b610dbc565b6102b86102f7366004612a80565b610e50565b61030f61030a366004612aca565b610f9b565b6040516001600160a01b039091168152602001610242565b6102b8610335366004612af4565b610fd3565b6102b8610348366004612b0d565b610fe0565b6102b861035b36600461289e565b610ffc565b61037361036e36600461289e565b61104e565b6040516102429493929190612b3f565b6103a661039136600461289e565b60986020526000908152604090205460ff1681565b6040519015158152602001610242565b610277609f5481565b6102b8611211565b60975461030f906001600160a01b031681565b6033546001600160a01b031661030f565b610277609c5481565b610277609d5481565b61027761040b36600461289e565b611225565b61042361041e36600461289e565b611293565b6040516102429190612b8d565b6103a661043e36600461289e565b60a06020526000908152604090205460ff1681565b6102b8610461366004612bec565b611362565b61047961047436600461289e565b611586565b60408051938452602084019290925290820152606001610242565b6102b86104a2366004612d53565b61174d565b6102b86104b5366004612dfd565b611769565b6102776104c8366004612e39565b61179c565b6102776104db366004612e39565b611859565b6102b86104ee366004612e55565b611915565b61027761050136600461289e565b611ad7565b61027761051436600461289e565b611bb8565b6102b861052736600461289e565b611bd6565b61030f61053a366004612af4565b611c4f565b61027761054d36600461289e565b611c79565b600061055d82611f27565b6105825760405162461bcd60e51b815260040161057990612f29565b60405180910390fd5b506001600160a01b031660009081526099602052604090206003015460ff1690565b60ff81166000908152609b602052604081205460609182918291829167ffffffffffffffff8111156105d8576105d8612cb0565b60405190808252806020026020018201604052801561060b57816020015b60608152602001906001900390816105f65790505b5060ff87166000908152609b60205260408120549192509067ffffffffffffffff81111561063b5761063b612cb0565b60405190808252806020026020018201604052801561066e57816020015b60608152602001906001900390816106595790505b5060ff88166000908152609b60205260408120549192509067ffffffffffffffff81111561069e5761069e612cb0565b6040519080825280602002602001820160405280156106d157816020015b60608152602001906001900390816106bc5790505b50905060005b60ff89166000908152609b60205260409020548110156109935760ff89166000908152609b6020526040812080548390811061071557610715612f60565b60009182526020808320909101546001600160a01b03168083526099909152604090912080549192509061074890612f76565b80601f016020809104026020016040519081016040528092919081815260200182805461077490612f76565b80156107c15780601f10610796576101008083540402835291602001916107c1565b820191906000526020600020905b8154815290600101906020018083116107a457829003601f168201915b50505050508583815181106107d8576107d8612f60565b602002602001018190525060996000826001600160a01b03166001600160a01b03168152602001908152602001600020600101805461081690612f76565b80601f016020809104026020016040519081016040528092919081815260200182805461084290612f76565b801561088f5780601f106108645761010080835404028352916020019161088f565b820191906000526020600020905b81548152906001019060200180831161087257829003601f168201915b50505050508483815181106108a6576108a6612f60565b602002602001018190525060996000826001600160a01b03166001600160a01b0316815260200190815260200160002060020180546108e490612f76565b80601f016020809104026020016040519081016040528092919081815260200182805461091090612f76565b801561095d5780601f106109325761010080835404028352916020019161095d565b820191906000526020600020905b81548152906001019060200180831161094057829003601f168201915b505050505083838151811061097457610974612f60565b602002602001018190525050808061098b90612fc7565b9150506106d7565b50609b60008960ff1660ff16815260200190815260200160002083838383805480602002602001604051908101604052809291908181526020018280548015610a0557602002820191906000526020600020905b81546001600160a01b031681526001909101906020018083116109e7575b5050505050935096509650965096505050509193509193565b6097546001600160a01b0316336001600160a01b031614610a755760405162461bcd60e51b815260206004820152601160248201527027232a27b930b1b6329d1010b0b236b4b760791b6044820152606401610579565b83610a7f81611f45565b42610a8d8686868685611fb3565b505050505050565b610a9d61220f565b610aa8826001612269565b6001600160a01b0382166000908152609860205260408120805460ff1916815590610ad6600183018261275e565b50506001600160a01b038216600090815260996020526040812090610afb828261277f565b610b0960018301600061277f565b610b1760028301600061277f565b50600301805460ff1916905560ff81166000908152609b6020526040812054609a5490915b81811015610c3d57846001600160a01b0316609a8281548110610b6157610b61612f60565b6000918252602090912001546001600160a01b03161415610c2b57609a610b89600184612fe2565b81548110610b9957610b99612f60565b600091825260209091200154609a80546001600160a01b039092169183908110610bc557610bc5612f60565b9060005260206000200160006101000a8154816001600160a01b0302191690836001600160a01b03160217905550609a805480610c0457610c04612ff9565b600082815260209020810160001990810180546001600160a01b0319169055019055610c3d565b80610c3581612fc7565b915050610b3c565b5060005b82811015610d815760ff84166000908152609b6020526040902080546001600160a01b038716919083908110610c7957610c79612f60565b6000918252602090912001546001600160a01b03161415610d6f5760ff84166000908152609b60205260409020610cb1600185612fe2565b81548110610cc157610cc1612f60565b600091825260208083209091015460ff87168352609b909152604090912080546001600160a01b039092169183908110610cfd57610cfd612f60565b600091825260208083209190910180546001600160a01b0319166001600160a01b03949094169390931790925560ff86168152609b90915260409020805480610d4857610d48612ff9565b600082815260209020810160001990810180546001600160a01b0319169055019055610d81565b80610d7981612fc7565b915050610c41565b506040516001600160a01b038516907f37803e2125c48ee96c38ddf04e826daf335b0e1603579040fd275aba6d06b6fc90600090a250505050565b6000610dc782611f27565b610de35760405162461bcd60e51b815260040161057990612f29565b6000610dee83611bb8565b905080610dfe5750600092915050565b6001600160a01b0383166000908152609860205260409020600190810190610e269083612fe2565b81548110610e3657610e36612f60565b906000526020600020906005020160040154915050919050565b600054610100900460ff1615808015610e705750600054600160ff909116105b80610e8a5750303b158015610e8a575060005460ff166001145b610eed5760405162461bcd60e51b815260206004820152602e60248201527f496e697469616c697a61626c653a20636f6e747261637420697320616c72656160448201526d191e481a5b9a5d1a585b1a5e995960921b6064820152608401610579565b6000805460ff191660011790558015610f10576000805461ff0019166101001790555b610f186122e3565b609780546001600160a01b0319166001600160a01b038916179055609c869055609d859055609e849055609f83905560a18290558015610f92576000805461ff0019169055604051600181527f7f26b83ff96e1f2b6a682f133852f6798a09c465da95921460cefb38474024989060200160405180910390a15b50505050505050565b609b6020528160005260406000208181548110610fb757600080fd5b6000918252602090912001546001600160a01b03169150829050565b610fdb61220f565b60a155565b610fe861220f565b609c93909355609d91909155609e55609f55565b61100461220f565b609780546001600160a01b0319166001600160a01b0383169081179091556040517f97b0055e5a3e9fb6730e963abc01ac48eba73106410fed451e50adf93ca99aff90600090a250565b60996020526000908152604090208054819061106990612f76565b80601f016020809104026020016040519081016040528092919081815260200182805461109590612f76565b80156110e25780601f106110b7576101008083540402835291602001916110e2565b820191906000526020600020905b8154815290600101906020018083116110c557829003601f168201915b5050505050908060010180546110f790612f76565b80601f016020809104026020016040519081016040528092919081815260200182805461112390612f76565b80156111705780601f1061114557610100808354040283529160200191611170565b820191906000526020600020905b81548152906001019060200180831161115357829003601f168201915b50505050509080600201805461118590612f76565b80601f01602080910402602001604051908101604052809291908181526020018280546111b190612f76565b80156111fe5780601f106111d3576101008083540402835291602001916111fe565b820191906000526020600020905b8154815290600101906020018083116111e157829003601f168201915b5050506003909301549192505060ff1684565b61121961220f565b6112236000612312565b565b60008061123183611bb8565b9050806112415750600092915050565b6001600160a01b03831660009081526098602052604090206001908101906112699083612fe2565b8154811061127957611279612f60565b906000526020600020906005020160000154915050919050565b606061129e82611f27565b6112ba5760405162461bcd60e51b815260040161057990612f29565b6001600160a01b038216600090815260996020526040902080546112dd90612f76565b80601f016020809104026020016040519081016040528092919081815260200182805461130990612f76565b80156113565780601f1061132b57610100808354040283529160200191611356565b820191906000526020600020905b81548152906001019060200180831161133957829003601f168201915b50505050509050919050565b6097546001600160a01b0316336001600160a01b0316146113b95760405162461bcd60e51b815260206004820152601160248201527027232a27b930b1b6329d1010b0b236b4b760791b6044820152606401610579565b8685146113d85760405162461bcd60e51b81526004016105799061300f565b8683146114315760405162461bcd60e51b815260206004820152602160248201527f4e46544f7261636c653a2073616c6573206c656e677468206e6f74206d6174636044820152600d60fb1b6064820152608401610579565b86811461148f5760405162461bcd60e51b815260206004820152602660248201527f4e46544f7261636c653a20766f6c6174696c697479206c656e677468206e6f74604482015265040dac2e8c6d60d31b6064820152608401610579565b4260005b8881101561157a57600060a060008c8c858181106114b3576114b3612f60565b90506020020160208101906114c8919061289e565b6001600160a01b0316815260208101919091526040016000205460ff16905080611567576115678b8b8481811061150157611501612f60565b9050602002016020810190611516919061289e565b8a8a8581811061152857611528612f60565b9050602002013589898681811061154157611541612f60565b9050602002013588888781811061155a5761155a612f60565b9050602002013587611fb3565b508061157281612fc7565b915050611493565b50505050505050505050565b600080600061159484611f27565b6115b05760405162461bcd60e51b815260040161057990612f29565b60006115bb85611bb8565b9050600081116116085760405162461bcd60e51b81526020600482015260186024820152774e46544f7261636c653a206e6f207072696365206461746160401b6044820152606401610579565b6001600160a01b038516600090815260a260205260409020548061171c576001600160a01b038616600090815260986020526040902060019081019061164e9084612fe2565b8154811061165e5761165e612f60565b6000918252602080832060016005909302018201546001600160a01b038a168452609890915260409092208101906116969085612fe2565b815481106116a6576116a6612f60565b90600052602060002090600502016002015460986000896001600160a01b03166001600160a01b031681526020019081526020016000206001016001856116ed9190612fe2565b815481106116fd576116fd612f60565b9060005260206000209060050201600301549450945094505050611746565b6001600160a01b038616600090815260986020526040902081906001908101906116969085612fe2565b9193909250565b61175561220f565b6117628585858585612364565b5050505050565b61177161220f565b6001600160a01b0391909116600090815260a060205260409020805460ff1916911515919091179055565b60006117a783611f27565b6117c35760405162461bcd60e51b815260040161057990612f29565b60006117ce84611bb8565b90506000811180156117df57508083105b6117fb5760405162461bcd60e51b815260040161057990613051565b6001600160a01b03841660009081526098602052604090206001908101906118238584612fe2565b61182d9190612fe2565b8154811061183d5761183d612f60565b9060005260206000209060050201600401549150505b92915050565b600061186483611f27565b6118805760405162461bcd60e51b815260040161057990612f29565b600061188b84611bb8565b905060008111801561189c57508083105b6118b85760405162461bcd60e51b815260040161057990613051565b6001600160a01b03841660009081526098602052604090206001908101906118e08584612fe2565b6118ea9190612fe2565b815481106118fa576118fa612f60565b90600052602060002090600502016001015491505092915050565b61191d61220f565b87861461193c5760405162461bcd60e51b81526004016105799061300f565b87841461195b5760405162461bcd60e51b81526004016105799061300f565b87821461197a5760405162461bcd60e51b81526004016105799061300f565b60005b8881101561157a57611ac58a8a8381811061199a5761199a612f60565b90506020020160208101906119af919061289e565b8989848181106119c1576119c1612f60565b90506020028101906119d39190613088565b8080601f0160208091040260200160405190810160405280939291908181526020018383808284376000920191909152508b92508a9150869050818110611a1c57611a1c612f60565b9050602002810190611a2e9190613088565b8080601f0160208091040260200160405190810160405280939291908181526020018383808284376000920191909152508a9250899150879050818110611a7757611a77612f60565b9050602002810190611a899190613088565b8080601f016020809104026020016040519081016040528093929190818152602001838380828437600092019190915250899250612364915050565b80611acf81612fc7565b91505061197d565b6000611ae282611f27565b611afe5760405162461bcd60e51b815260040161057990612f29565b6000611b0983611bb8565b905060008111611b565760405162461bcd60e51b81526020600482015260186024820152774e46544f7261636c653a206e6f207072696365206461746160401b6044820152606401610579565b6000806000806000611b6788611586565b945092509050611b7882601e6130cf565b611b8584620f4240612fe2565b611b8f91906130ee565b9450611b9b81866124ca565b611bac90662386f26fc100006130cf565b98975050505050505050565b6001600160a01b031660009081526098602052604090206001015490565b611bde61220f565b6001600160a01b038116611c435760405162461bcd60e51b815260206004820152602660248201527f4f776e61626c653a206e6577206f776e657220697320746865207a65726f206160448201526564647265737360d01b6064820152608401610579565b611c4c81612312565b50565b609a8181548110611c5f57600080fd5b6000918252602090912001546001600160a01b0316905081565b6000611c8482611f27565b611ca05760405162461bcd60e51b815260040161057990612f29565b60a154611cef5760405162461bcd60e51b815260206004820152601e60248201527f4e46544f7261636c653a20696e74657276616c2063616e2774206265203000006044820152606401610579565b6000611cfa83611bb8565b905060008111611d1c5760405162461bcd60e51b815260040161057990613051565b6000611d29600183612fe2565b6001600160a01b03851660009081526098602052604081206001018054929350909183908110611d5b57611d5b612f60565b600091825260208083206040805160a08101825260059094029091018054845260018101549284019290925260028201549083015260038101546060830152600401546080820181905260a1549193509190611db44290565b611dbe9190612fe2565b905080821080611dcc575083155b15611ddf57505060200151949350505050565b6000611deb8342612fe2565b905060008390506000828660200151611e0491906130cf565b90505b86611e2457611e168382613106565b9a9950505050505050505050565b611e2f600188612fe2565b6001600160a01b038b16600090815260986020526040902060010180549198509088908110611e6057611e60612f60565b60009182526020918290206040805160a081018252600590930290910180548352600181015493830184905260028101549183019190915260038101546060830152600401546080820181905290975090858211611edf57611ec28685612fe2565b611ecc90826130cf565b611ed690846130ee565b92505050611f1a565b6000611eeb8386612fe2565b9050611ef781836130cf565b611f0190856130ee565b9350611f0d81876130ee565b9550829450505050611e07565b60a154611e169082613106565b6001600160a01b031660009081526098602052604090205460ff1690565b6001600160a01b038116600090815260a0602052604090205460ff168015611faf5760405162461bcd60e51b815260206004820181905260248201527f4e46544f7261636c653a206e66742070726963652066656564207061757365646044820152606401610579565b5050565b611fbe856001612269565b611fc785610dbc565b81116120155760405162461bcd60e51b815260206004820152601e60248201527f4e46544f7261636c653a20696e636f72726563742074696d657374616d7000006044820152606401610579565b600084116120655760405162461bcd60e51b815260206004820152601d60248201527f4e46544f7261636c653a2070726963652063616e206e6f7420626520300000006044820152606401610579565b6000612072868684612598565b9050806120c15760405162461bcd60e51b815260206004820152601d60248201527f4e46544f7261636c653a20696e76616c696420707269636520646174610000006044820152606401610579565b60006120cc87611bb8565b6040805160a08101825282815260208082018a81528284018a8152606084018a8152608085018a81526001600160a01b038f166000908152609886529687206001908101805480830182559089529588208751600590970201958655935193850193909355905160028401555160038301555160049091015591925061215189611c79565b6001600160a01b038a16600081815260a2602090815260409182902084905581518c81529081018b90529081018990526060810188905260808101869052919250907f33d686446fa2fbacc6d321bb1daf22159d2d39d3608270b520cc4707b561c9949060a00160405180910390a260408051828152602081018790526001600160a01b038b16917f58bdf68b6e757afad014720959e6c9ecd94de1cc24b964ebf48b08b50366b321910160405180910390a2505050505050505050565b6033546001600160a01b031633146112235760405162461bcd60e51b815260206004820181905260248201527f4f776e61626c653a2063616c6c6572206973206e6f7420746865206f776e65726044820152606401610579565b80156122945761227882611f27565b611faf5760405162461bcd60e51b815260040161057990612f29565b61229d82611f27565b15611faf5760405162461bcd60e51b815260206004820152601660248201527513919513dc9858db194e881ad95e48195e1a5cdd195960521b6044820152606401610579565b600054610100900460ff1661230a5760405162461bcd60e51b815260040161057990613128565b61122361272e565b603380546001600160a01b038381166001600160a01b0319831681179093556040519116919082907f8be0079c531659141344cd1fd0a4f28419497f9722a3daafe3b4186f6b6457e090600090a35050565b61236f856000612269565b6001600160a01b0385166000818152609860209081526040808320805460ff19166001908117909155609a80548083019091557f44da158ba27f9252712a74ff6a55c5d531f69609f1f6e7f17c4443a8e2089be40180546001600160a01b0319908116871790915560ff87168552609b8452828520805492830181558552838520909101805490911685179055928252609981529190208551612414928701906127b9565b506001600160a01b03851660009081526099602090815260409091208451612444926001909201918601906127b9565b506001600160a01b03851660009081526099602090815260409091208351612474926002909201918501906127b9565b506001600160a01b038516600081815260996020526040808220600301805460ff191660ff8616179055517f0e3c58ebfb2e7465fbb1c32e6b4f40c3c4f5ca77e8218a386aff8617831260d79190a25050505050565b60008215806124d7575081155b156124e457506000611853565b816124f36002620f4240613106565b6124ff90600019612fe2565b6125099190613106565b8311156125645760405162461bcd60e51b815260206004820152602360248201527f4572726f72732e4d4154485f4d554c5449504c49434154494f4e5f4f564552466044820152624c4f5760e81b6064820152608401610579565b620f4240612573600282613106565b61257d84866130cf565b61258791906130ee565b6125919190613106565b9392505050565b6000806125a485611bb8565b90508015612723576001600160a01b03851660009081526098602052604081206001908101906125d49084612fe2565b815481106125e4576125e4612f60565b90600052602060002090600502016001015490508085141561260b57600192505050612591565b6001600160a01b03861660009081526098602052604081206001908101906126339085612fe2565b8154811061264357612643612f60565b90600052602060002090600502016004015490506000828711156126905782670de0b6b3a7640000612675828a612fe2565b61267f91906130cf565b6126899190613106565b90506126bb565b82670de0b6b3a76400006126a48983612fe2565b6126ae91906130cf565b6126b89190613106565b90505b60006126c78388612fe2565b9050609c548211156126e157600095505050505050612591565b609f548110156126f957600095505050505050612591565b609d548211801561270b5750609e5481105b1561271e57600095505050505050612591565b505050505b506001949350505050565b600054610100900460ff166127555760405162461bcd60e51b815260040161057990613128565b61122333612312565b5080546000825560050290600052602060002090810190611c4c919061283d565b50805461278b90612f76565b6000825580601f1061279b575050565b601f016020900490600052602060002090810190611c4c919061286d565b8280546127c590612f76565b90600052602060002090601f0160209004810192826127e7576000855561282d565b82601f1061280057805160ff191683800117855561282d565b8280016001018555821561282d579182015b8281111561282d578251825591602001919060010190612812565b5061283992915061286d565b5090565b5b80821115612839576000808255600182018190556002820181905560038201819055600482015560050161283e565b5b80821115612839576000815560010161286e565b80356001600160a01b038116811461289957600080fd5b919050565b6000602082840312156128b057600080fd5b61259182612882565b803560ff8116811461289957600080fd5b6000602082840312156128dc57600080fd5b612591826128b9565b6000815180845260005b8181101561290b576020818501810151868301820152016128ef565b8181111561291d576000602083870101525b50601f01601f19169290920160200192915050565b600082825180855260208086019550808260051b84010181860160005b8481101561297d57601f1986840301895261296b8383516128e5565b9884019892509083019060010161294f565b5090979650505050505050565b6080808252855190820181905260009060209060a0840190828901845b828110156129cc5781516001600160a01b0316845292840192908401906001016129a7565b505050838103828501526129e08188612932565b91505082810360408401526129f58186612932565b90508281036060840152612a098185612932565b979650505050505050565b60008060008060808587031215612a2a57600080fd5b612a3385612882565b966020860135965060408601359560600135945092505050565b60008060408385031215612a6057600080fd5b612a6983612882565b9150612a77602084016128b9565b90509250929050565b60008060008060008060c08789031215612a9957600080fd5b612aa287612882565b9860208801359850604088013597606081013597506080810135965060a00135945092505050565b60008060408385031215612add57600080fd5b612ae6836128b9565b946020939093013593505050565b600060208284031215612b0657600080fd5b5035919050565b60008060008060808587031215612b2357600080fd5b5050823594602084013594506040840135936060013592509050565b608081526000612b5260808301876128e5565b8281036020840152612b6481876128e5565b90508281036040840152612b7881866128e5565b91505060ff8316606083015295945050505050565b60208152600061259160208301846128e5565b60008083601f840112612bb257600080fd5b50813567ffffffffffffffff811115612bca57600080fd5b6020830191508360208260051b8501011115612be557600080fd5b9250929050565b6000806000806000806000806080898b031215612c0857600080fd5b883567ffffffffffffffff80821115612c2057600080fd5b612c2c8c838d01612ba0565b909a50985060208b0135915080821115612c4557600080fd5b612c518c838d01612ba0565b909850965060408b0135915080821115612c6a57600080fd5b612c768c838d01612ba0565b909650945060608b0135915080821115612c8f57600080fd5b50612c9c8b828c01612ba0565b999c989b5096995094979396929594505050565b634e487b7160e01b600052604160045260246000fd5b600082601f830112612cd757600080fd5b813567ffffffffffffffff80821115612cf257612cf2612cb0565b604051601f8301601f19908116603f01168101908282118183101715612d1a57612d1a612cb0565b81604052838152866020858801011115612d3357600080fd5b836020870160208301376000602085830101528094505050505092915050565b600080600080600060a08688031215612d6b57600080fd5b612d7486612882565b9450602086013567ffffffffffffffff80821115612d9157600080fd5b612d9d89838a01612cc6565b95506040880135915080821115612db357600080fd5b612dbf89838a01612cc6565b94506060880135915080821115612dd557600080fd5b50612de288828901612cc6565b925050612df1608087016128b9565b90509295509295909350565b60008060408385031215612e1057600080fd5b612e1983612882565b915060208301358015158114612e2e57600080fd5b809150509250929050565b60008060408385031215612e4c57600080fd5b612ae683612882565b600080600080600080600080600060a08a8c031215612e7357600080fd5b893567ffffffffffffffff80821115612e8b57600080fd5b612e978d838e01612ba0565b909b50995060208c0135915080821115612eb057600080fd5b612ebc8d838e01612ba0565b909950975060408c0135915080821115612ed557600080fd5b612ee18d838e01612ba0565b909750955060608c0135915080821115612efa57600080fd5b50612f078c828d01612ba0565b9094509250612f1a905060808b016128b9565b90509295985092959850929598565b6020808252601a908201527f4e46544f7261636c653a206b6579206e6f742065786973746564000000000000604082015260600190565b634e487b7160e01b600052603260045260246000fd5b600181811c90821680612f8a57607f821691505b60208210811415612fab57634e487b7160e01b600052602260045260246000fd5b50919050565b634e487b7160e01b600052601160045260246000fd5b6000600019821415612fdb57612fdb612fb1565b5060010190565b600082821015612ff457612ff4612fb1565b500390565b634e487b7160e01b600052603160045260246000fd5b60208082526022908201527f4e46544f7261636c653a20707269636573206c656e677468206e6f74206d61746040820152610c6d60f31b606082015260800190565b6020808252601d908201527f4e46544f7261636c653a204e6f7420656e6f75676820686973746f7279000000604082015260600190565b6000808335601e1984360301811261309f57600080fd5b83018035915067ffffffffffffffff8211156130ba57600080fd5b602001915036819003821315612be557600080fd5b60008160001904831182151516156130e9576130e9612fb1565b500290565b6000821982111561310157613101612fb1565b500190565b60008261312357634e487b7160e01b600052601260045260246000fd5b500490565b6020808252602b908201527f496e697469616c697a61626c653a20636f6e7472616374206973206e6f74206960408201526a6e697469616c697a696e6760a81b60608201526080019056fea26469706673582212209e8ce6af8164f046a7f37bc3bf61315d76481fc70948faa244775c1603c091d064736f6c63430008080033",
  "linkReferences": {},
  "deployedLinkReferences": {}
}