{
  "_format": "hh-sol-artifact-1",
  "contractName": "NFTOracle",
  "sourceName": "contracts/NFTOracle.sol",
  "abi": [
    {
      "anonymous": false,
      "inputs": [
        {
          "indexed": true,
          "internalType": "address",
          "name": "asset",
          "type": "address"
        }
      ],
      "name": "AssetAdded",
      "type": "event"
    },
    {
      "anonymous": false,
      "inputs": [
        {
          "indexed": true,
          "internalType": "address",
          "name": "asset",
          "type": "address"
        }
      ],
      "name": "AssetRemoved",
      "type": "event"
    },
    {
      "anonymous": false,
      "inputs": [
        {
          "indexed": true,
          "internalType": "address",
          "name": "admin",
          "type": "address"
        }
      ],
      "name": "FeedAdminUpdated",
      "type": "event"
    },
    {
      "anonymous": false,
      "inputs": [
        {
          "indexed": false,
          "internalType": "uint8",
          "name": "version",
          "type": "uint8"
        }
      ],
      "name": "Initialized",
      "type": "event"
    },
    {
      "anonymous": false,
      "inputs": [
        {
          "indexed": true,
          "internalType": "address",
          "name": "previousOwner",
          "type": "address"
        },
        {
          "indexed": true,
          "internalType": "address",
          "name": "newOwner",
          "type": "address"
        }
      ],
      "name": "OwnershipTransferred",
      "type": "event"
    },
    {
      "anonymous": false,
      "inputs": [
        {
          "indexed": true,
          "internalType": "address",
          "name": "asset",
          "type": "address"
        },
        {
          "indexed": false,
          "internalType": "uint256",
          "name": "price",
          "type": "uint256"
        },
        {
          "indexed": false,
          "internalType": "uint256",
          "name": "sale",
          "type": "uint256"
        },
        {
          "indexed": false,
          "internalType": "uint256",
          "name": "volatility",
          "type": "uint256"
        },
        {
          "indexed": false,
          "internalType": "uint256",
          "name": "timestamp",
          "type": "uint256"
        },
        {
          "indexed": false,
          "internalType": "uint256",
          "name": "roundId",
          "type": "uint256"
        }
      ],
      "name": "SetAssetData",
      "type": "event"
    },
    {
      "anonymous": false,
      "inputs": [
        {
          "indexed": true,
          "internalType": "address",
          "name": "asset",
          "type": "address"
        },
        {
          "indexed": false,
          "internalType": "uint256",
          "name": "price",
          "type": "uint256"
        },
        {
          "indexed": false,
          "internalType": "uint256",
          "name": "timestamp",
          "type": "uint256"
        }
      ],
      "name": "SetAssetTwapPrice",
      "type": "event"
    },
    {
      "inputs": [
        {
          "internalType": "address",
          "name": "_nftContract",
          "type": "address"
        },
        {
          "internalType": "string",
          "name": "_name",
          "type": "string"
        },
        {
          "internalType": "string",
          "name": "_symbol",
          "type": "string"
        },
        {
          "internalType": "string",
          "name": "_url",
          "type": "string"
        },
        {
          "internalType": "uint8",
          "name": "nftType",
          "type": "uint8"
        }
      ],
      "name": "addAsset",
      "outputs": [],
      "stateMutability": "nonpayable",
      "type": "function"
    },
    {
      "inputs": [
        {
          "internalType": "address",
          "name": "_nftContract",
          "type": "address"
        }
      ],
      "name": "calculateTwapPrice",
      "outputs": [
        {
          "internalType": "uint256",
          "name": "",
          "type": "uint256"
        }
      ],
      "stateMutability": "view",
      "type": "function"
    },
    {
      "inputs": [
        {
          "internalType": "address",
          "name": "_nftContract",
          "type": "address"
        }
      ],
      "name": "getAssetPrice",
      "outputs": [
        {
          "internalType": "uint256",
          "name": "",
          "type": "uint256"
        },
        {
          "internalType": "uint256",
          "name": "",
          "type": "uint256"
        },
        {
          "internalType": "uint256",
          "name": "",
          "type": "uint256"
        }
      ],
      "stateMutability": "view",
      "type": "function"
    },
    {
      "inputs": [
        {
          "internalType": "uint8",
          "name": "nftType",
          "type": "uint8"
        }
      ],
      "name": "getAssets",
      "outputs": [
        {
          "internalType": "address[]",
          "name": "",
          "type": "address[]"
        },
        {
          "internalType": "string[]",
          "name": "",
          "type": "string[]"
        },
        {
          "internalType": "string[]",
          "name": "",
          "type": "string[]"
        },
        {
          "internalType": "string[]",
          "name": "",
          "type": "string[]"
        }
      ],
      "stateMutability": "view",
      "type": "function"
    },
    {
      "inputs": [
        {
          "internalType": "address",
          "name": "_nftContract",
          "type": "address"
        }
      ],
      "name": "getFinalPrice",
      "outputs": [
        {
          "internalType": "uint256",
          "name": "",
          "type": "uint256"
        }
      ],
      "stateMutability": "view",
      "type": "function"
    },
    {
      "inputs": [
        {
          "internalType": "address",
          "name": "_nftContract",
          "type": "address"
        }
      ],
      "name": "getLatestRoundId",
      "outputs": [
        {
          "internalType": "uint256",
          "name": "",
          "type": "uint256"
        }
      ],
      "stateMutability": "view",
      "type": "function"
    },
    {
      "inputs": [
        {
          "internalType": "address",
          "name": "_nftContract",
          "type": "address"
        }
      ],
      "name": "getLatestTimestamp",
      "outputs": [
        {
          "internalType": "uint256",
          "name": "",
          "type": "uint256"
        }
      ],
      "stateMutability": "view",
      "type": "function"
    },
    {
      "inputs": [
        {
          "internalType": "address",
          "name": "_nftContract",
          "type": "address"
        },
        {
          "internalType": "uint256",
          "name": "_numOfRoundBack",
          "type": "uint256"
        }
      ],
      "name": "getPreviousPrice",
      "outputs": [
        {
          "internalType": "uint256",
          "name": "",
          "type": "uint256"
        }
      ],
      "stateMutability": "view",
      "type": "function"
    },
    {
      "inputs": [
        {
          "internalType": "address",
          "name": "_nftContract",
          "type": "address"
        },
        {
          "internalType": "uint256",
          "name": "_numOfRoundBack",
          "type": "uint256"
        }
      ],
      "name": "getPreviousTimestamp",
      "outputs": [
        {
          "internalType": "uint256",
          "name": "",
          "type": "uint256"
        }
      ],
      "stateMutability": "view",
      "type": "function"
    },
    {
      "inputs": [
        {
          "internalType": "address",
          "name": "_nftContract",
          "type": "address"
        }
      ],
      "name": "getPriceFeedLength",
      "outputs": [
        {
          "internalType": "uint256",
          "name": "length",
          "type": "uint256"
        }
      ],
      "stateMutability": "view",
      "type": "function"
    },
    {
      "inputs": [
        {
          "internalType": "address",
          "name": "_admin",
          "type": "address"
        },
        {
          "internalType": "uint256",
          "name": "_maxPriceDeviation",
          "type": "uint256"
        },
        {
          "internalType": "uint256",
          "name": "_maxPriceDeviationWithTime",
          "type": "uint256"
        },
        {
          "internalType": "uint256",
          "name": "_timeIntervalWithPrice",
          "type": "uint256"
        },
        {
          "internalType": "uint256",
          "name": "_minUpdateTime",
          "type": "uint256"
        },
        {
          "internalType": "uint256",
          "name": "_twapInterval",
          "type": "uint256"
        }
      ],
      "name": "initialize",
      "outputs": [],
      "stateMutability": "nonpayable",
      "type": "function"
    },
    {
      "inputs": [],
      "name": "maxPriceDeviation",
      "outputs": [
        {
          "internalType": "uint256",
          "name": "",
          "type": "uint256"
        }
      ],
      "stateMutability": "view",
      "type": "function"
    },
    {
      "inputs": [],
      "name": "maxPriceDeviationWithTime",
      "outputs": [
        {
          "internalType": "uint256",
          "name": "",
          "type": "uint256"
        }
      ],
      "stateMutability": "view",
      "type": "function"
    },
    {
      "inputs": [],
      "name": "minUpdateTime",
      "outputs": [
        {
          "internalType": "uint256",
          "name": "",
          "type": "uint256"
        }
      ],
      "stateMutability": "view",
      "type": "function"
    },
    {
      "inputs": [
        {
          "internalType": "address",
          "name": "",
          "type": "address"
        }
      ],
      "name": "nftBaseDataMap",
      "outputs": [
        {
          "internalType": "string",
          "name": "name",
          "type": "string"
        },
        {
          "internalType": "string",
          "name": "symbol",
          "type": "string"
        },
        {
          "internalType": "string",
          "name": "baseURI",
          "type": "string"
        }
      ],
      "stateMutability": "view",
      "type": "function"
    },
    {
      "inputs": [
        {
          "internalType": "address",
          "name": "",
          "type": "address"
        }
      ],
      "name": "nftPaused",
      "outputs": [
        {
          "internalType": "bool",
          "name": "",
          "type": "bool"
        }
      ],
      "stateMutability": "view",
      "type": "function"
    },
    {
      "inputs": [
        {
          "internalType": "uint8",
          "name": "",
          "type": "uint8"
        },
        {
          "internalType": "uint256",
          "name": "",
          "type": "uint256"
        }
      ],
      "name": "nftPriceFeedKeyMap",
      "outputs": [
        {
          "internalType": "address",
          "name": "",
          "type": "address"
        }
      ],
      "stateMutability": "view",
      "type": "function"
    },
    {
      "inputs": [
        {
          "internalType": "uint256",
          "name": "",
          "type": "uint256"
        }
      ],
      "name": "nftPriceFeedKeys",
      "outputs": [
        {
          "internalType": "address",
          "name": "",
          "type": "address"
        }
      ],
      "stateMutability": "view",
      "type": "function"
    },
    {
      "inputs": [
        {
          "internalType": "address",
          "name": "",
          "type": "address"
        }
      ],
      "name": "nftPriceFeedMap",
      "outputs": [
        {
          "internalType": "bool",
          "name": "registered",
          "type": "bool"
        }
      ],
      "stateMutability": "view",
      "type": "function"
    },
    {
      "inputs": [],
      "name": "owner",
      "outputs": [
        {
          "internalType": "address",
          "name": "",
          "type": "address"
        }
      ],
      "stateMutability": "view",
      "type": "function"
    },
    {
      "inputs": [],
      "name": "priceFeedAdmin",
      "outputs": [
        {
          "internalType": "address",
          "name": "",
          "type": "address"
        }
      ],
      "stateMutability": "view",
      "type": "function"
    },
    {
      "inputs": [
        {
          "internalType": "address",
          "name": "_nftContract",
          "type": "address"
        },
        {
          "internalType": "uint8",
          "name": "nftType",
          "type": "uint8"
        }
      ],
      "name": "removeAsset",
      "outputs": [],
      "stateMutability": "nonpayable",
      "type": "function"
    },
    {
      "inputs": [],
      "name": "renounceOwnership",
      "outputs": [],
      "stateMutability": "nonpayable",
      "type": "function"
    },
    {
      "inputs": [
        {
          "internalType": "address",
          "name": "_nftContract",
          "type": "address"
        },
        {
          "internalType": "uint256",
          "name": "_price",
          "type": "uint256"
        },
        {
          "internalType": "uint256",
          "name": "_sales",
          "type": "uint256"
        },
        {
          "internalType": "uint256",
          "name": "_volatility",
          "type": "uint256"
        }
      ],
      "name": "setAssetData",
      "outputs": [],
      "stateMutability": "nonpayable",
      "type": "function"
    },
    {
      "inputs": [
        {
          "internalType": "address[]",
          "name": "_nftContracts",
          "type": "address[]"
        },
        {
          "internalType": "string[]",
          "name": "_names",
          "type": "string[]"
        },
        {
          "internalType": "string[]",
          "name": "_symbols",
          "type": "string[]"
        },
        {
          "internalType": "string[]",
          "name": "_urls",
          "type": "string[]"
        },
        {
          "internalType": "uint8",
          "name": "nftType",
          "type": "uint8"
        }
      ],
      "name": "setAssets",
      "outputs": [],
      "stateMutability": "nonpayable",
      "type": "function"
    },
    {
      "inputs": [
        {
          "internalType": "uint256",
          "name": "_maxPriceDeviation",
          "type": "uint256"
        },
        {
          "internalType": "uint256",
          "name": "_maxPriceDeviationWithTime",
          "type": "uint256"
        },
        {
          "internalType": "uint256",
          "name": "_timeIntervalWithPrice",
          "type": "uint256"
        },
        {
          "internalType": "uint256",
          "name": "_minUpdateTime",
          "type": "uint256"
        }
      ],
      "name": "setDataValidityParameters",
      "outputs": [],
      "stateMutability": "nonpayable",
      "type": "function"
    },
    {
      "inputs": [
        {
          "internalType": "address[]",
          "name": "_nftContracts",
          "type": "address[]"
        },
        {
          "internalType": "uint256[]",
          "name": "_prices",
          "type": "uint256[]"
        },
        {
          "internalType": "uint256[]",
          "name": "_sales",
          "type": "uint256[]"
        },
        {
          "internalType": "uint256[]",
          "name": "_volatility",
          "type": "uint256[]"
        }
      ],
      "name": "setMultipleAssetsData",
      "outputs": [],
      "stateMutability": "nonpayable",
      "type": "function"
    },
    {
      "inputs": [
        {
          "internalType": "address",
          "name": "_nftContract",
          "type": "address"
        },
        {
          "internalType": "bool",
          "name": "val",
          "type": "bool"
        }
      ],
      "name": "setPause",
      "outputs": [],
      "stateMutability": "nonpayable",
      "type": "function"
    },
    {
      "inputs": [
        {
          "internalType": "address",
          "name": "_admin",
          "type": "address"
        }
      ],
      "name": "setPriceFeedAdmin",
      "outputs": [],
      "stateMutability": "nonpayable",
      "type": "function"
    },
    {
      "inputs": [
        {
          "internalType": "uint256",
          "name": "_twapInterval",
          "type": "uint256"
        }
      ],
      "name": "setTwapInterval",
      "outputs": [],
      "stateMutability": "nonpayable",
      "type": "function"
    },
    {
      "inputs": [],
      "name": "timeIntervalWithPrice",
      "outputs": [
        {
          "internalType": "uint256",
          "name": "",
          "type": "uint256"
        }
      ],
      "stateMutability": "view",
      "type": "function"
    },
    {
      "inputs": [
        {
          "internalType": "address",
          "name": "newOwner",
          "type": "address"
        }
      ],
      "name": "transferOwnership",
      "outputs": [],
      "stateMutability": "nonpayable",
      "type": "function"
    },
    {
      "inputs": [],
      "name": "twapInterval",
      "outputs": [
        {
          "internalType": "uint256",
          "name": "",
          "type": "uint256"
        }
      ],
      "stateMutability": "view",
      "type": "function"
    },
    {
      "inputs": [
        {
          "internalType": "address",
          "name": "",
          "type": "address"
        }
      ],
      "name": "twapPriceMap",
      "outputs": [
        {
          "internalType": "uint256",
          "name": "",
          "type": "uint256"
        }
      ],
      "stateMutability": "view",
      "type": "function"
    }
  ],
  "bytecode": "0x608060405234801561001057600080fd5b50612fe5806100206000396000f3fe608060405234801561001057600080fd5b50600436106102065760003560e01c80638da5cb5b1161011a578063c22dc722116100ad578063ec70cb361161007c578063ec70cb361461049b578063ef1d95b1146104ae578063f2fde38b146104c1578063fcd766dc146104d4578063fda0c598146104e757600080fd5b8063c22dc7221461044f578063d84f885a14610462578063e889e5d614610475578063ea6f3bcd1461048857600080fd5b8063abad1bb3116100e9578063abad1bb3146103d8578063b24bb6da146103fb578063b3596f071461040e578063c0e2c80c1461043c57600080fd5b80638da5cb5b146103a2578063975b8662146103b3578063985a6de6146103bc57806398f5ec89146103c557600080fd5b80635365a8c61161019d578063663cdb231161016c578063663cdb231461032957806369bede4e1461034b57806369da148d1461037e578063715018a61461038757806383c2d72e1461038f57600080fd5b80635365a8c6146102c55780635ea679ef146102f05780635f0ca42a14610303578063650999af1461031657600080fd5b80633c1d5df0116101d95780633c1d5df0146102835780633c745f931461028c57806341a6990f1461029f57806345ff4c80146102b257600080fd5b80630dc946531461020b5780630e9f781d14610237578063143671ef1461024e578063189ea5771461026e575b600080fd5b61021e6102193660046126f5565b6104fa565b60405161022e94939291906127b2565b60405180910390f35b610240609e5481565b60405190815260200161022e565b61024061025c366004612853565b60a26020526000908152604090205481565b61028161027c36600461286e565b610974565b005b61024060a15481565b61028161029a3660046128a7565b6109f0565b6102406102ad366004612853565b610d0d565b6102816102c03660046128da565b610da1565b6102d86102d3366004612924565b610eec565b6040516001600160a01b03909116815260200161022e565b6102816102fe36600461294e565b610f24565b610281610311366004612967565b610f31565b610281610324366004612853565b610f4d565b61033c610337366004612853565b610f9f565b60405161022e93929190612999565b61036e610359366004612853565b60986020526000908152604090205460ff1681565b604051901515815260200161022e565b610240609f5481565b610281611159565b6097546102d8906001600160a01b031681565b6033546001600160a01b03166102d8565b610240609c5481565b610240609d5481565b6102406103d3366004612853565b61116d565b61036e6103e6366004612853565b60a06020526000908152604090205460ff1681565b610281610409366004612a28565b6111db565b61042161041c366004612853565b6113ff565b6040805193845260208401929092529082015260600161022e565b61028161044a366004612b8f565b6115c6565b61028161045d366004612c39565b6115e2565b610240610470366004612c75565b611615565b610240610483366004612c75565b6116d2565b610281610496366004612c91565b61178e565b6102406104a9366004612853565b611950565b6102406104bc366004612853565b611a31565b6102816104cf366004612853565b611a4f565b6102d86104e236600461294e565b611ac8565b6102406104f5366004612853565b611af2565b60ff81166000908152609b602052604081205460609182918291829167ffffffffffffffff81111561052e5761052e612aec565b60405190808252806020026020018201604052801561056157816020015b606081526020019060019003908161054c5790505b5060ff87166000908152609b60205260408120549192509067ffffffffffffffff81111561059157610591612aec565b6040519080825280602002602001820160405280156105c457816020015b60608152602001906001900390816105af5790505b5060ff88166000908152609b60205260408120549192509067ffffffffffffffff8111156105f4576105f4612aec565b60405190808252806020026020018201604052801561062757816020015b60608152602001906001900390816106125790505b50905060005b60ff89166000908152609b60205260409020548110156108e95760ff89166000908152609b6020526040812080548390811061066b5761066b612d65565b60009182526020808320909101546001600160a01b03168083526099909152604090912080549192509061069e90612d7b565b80601f01602080910402602001604051908101604052809291908181526020018280546106ca90612d7b565b80156107175780601f106106ec57610100808354040283529160200191610717565b820191906000526020600020905b8154815290600101906020018083116106fa57829003601f168201915b505050505085838151811061072e5761072e612d65565b602002602001018190525060996000826001600160a01b03166001600160a01b03168152602001908152602001600020600101805461076c90612d7b565b80601f016020809104026020016040519081016040528092919081815260200182805461079890612d7b565b80156107e55780601f106107ba576101008083540402835291602001916107e5565b820191906000526020600020905b8154815290600101906020018083116107c857829003601f168201915b50505050508483815181106107fc576107fc612d65565b602002602001018190525060996000826001600160a01b03166001600160a01b03168152602001908152602001600020600201805461083a90612d7b565b80601f016020809104026020016040519081016040528092919081815260200182805461086690612d7b565b80156108b35780601f10610888576101008083540402835291602001916108b3565b820191906000526020600020905b81548152906001019060200180831161089657829003601f168201915b50505050508383815181106108ca576108ca612d65565b60200260200101819052505080806108e190612dcc565b91505061062d565b50609b60008960ff1660ff1681526020019081526020016000208383838380548060200260200160405190810160405280929190818152602001828054801561095b57602002820191906000526020600020905b81546001600160a01b0316815260019091019060200180831161093d575b5050505050935096509650965096505050509193509193565b6097546001600160a01b0316336001600160a01b0316146109d05760405162461bcd60e51b815260206004820152601160248201527027232a27b930b1b6329d1010b0b236b4b760791b60448201526064015b60405180910390fd5b836109da81611da0565b426109e88686868685611e0e565b505050505050565b6109f861206a565b610a038260016120c4565b6001600160a01b0382166000908152609860205260408120805460ff1916815590610a3160018301826125bb565b50506001600160a01b038216600090815260996020526040812090610a5682826125dc565b610a646001830160006125dc565b610a726002830160006125dc565b505060ff81166000908152609b6020526040812054609a5490915b81811015610b8e57846001600160a01b0316609a8281548110610ab257610ab2612d65565b6000918252602090912001546001600160a01b03161415610b7c57609a610ada600184612de7565b81548110610aea57610aea612d65565b600091825260209091200154609a80546001600160a01b039092169183908110610b1657610b16612d65565b9060005260206000200160006101000a8154816001600160a01b0302191690836001600160a01b03160217905550609a805480610b5557610b55612dfe565b600082815260209020810160001990810180546001600160a01b0319169055019055610b8e565b80610b8681612dcc565b915050610a8d565b5060005b82811015610cd25760ff84166000908152609b6020526040902080546001600160a01b038716919083908110610bca57610bca612d65565b6000918252602090912001546001600160a01b03161415610cc05760ff84166000908152609b60205260409020610c02600185612de7565b81548110610c1257610c12612d65565b600091825260208083209091015460ff87168352609b909152604090912080546001600160a01b039092169183908110610c4e57610c4e612d65565b600091825260208083209190910180546001600160a01b0319166001600160a01b03949094169390931790925560ff86168152609b90915260409020805480610c9957610c99612dfe565b600082815260209020810160001990810180546001600160a01b0319169055019055610cd2565b80610cca81612dcc565b915050610b92565b506040516001600160a01b038516907f37803e2125c48ee96c38ddf04e826daf335b0e1603579040fd275aba6d06b6fc90600090a250505050565b6000610d188261213e565b610d345760405162461bcd60e51b81526004016109c790612e14565b6000610d3f83611a31565b905080610d4f5750600092915050565b6001600160a01b0383166000908152609860205260409020600190810190610d779083612de7565b81548110610d8757610d87612d65565b906000526020600020906005020160040154915050919050565b600054610100900460ff1615808015610dc15750600054600160ff909116105b80610ddb5750303b158015610ddb575060005460ff166001145b610e3e5760405162461bcd60e51b815260206004820152602e60248201527f496e697469616c697a61626c653a20636f6e747261637420697320616c72656160448201526d191e481a5b9a5d1a585b1a5e995960921b60648201526084016109c7565b6000805460ff191660011790558015610e61576000805461ff0019166101001790555b610e6961215c565b609780546001600160a01b0319166001600160a01b038916179055609c869055609d859055609e849055609f83905560a18290558015610ee3576000805461ff0019169055604051600181527f7f26b83ff96e1f2b6a682f133852f6798a09c465da95921460cefb38474024989060200160405180910390a15b50505050505050565b609b6020528160005260406000208181548110610f0857600080fd5b6000918252602090912001546001600160a01b03169150829050565b610f2c61206a565b60a155565b610f3961206a565b609c93909355609d91909155609e55609f55565b610f5561206a565b609780546001600160a01b0319166001600160a01b0383169081179091556040517f97b0055e5a3e9fb6730e963abc01ac48eba73106410fed451e50adf93ca99aff90600090a250565b609960205260009081526040902080548190610fba90612d7b565b80601f0160208091040260200160405190810160405280929190818152602001828054610fe690612d7b565b80156110335780601f1061100857610100808354040283529160200191611033565b820191906000526020600020905b81548152906001019060200180831161101657829003601f168201915b50505050509080600101805461104890612d7b565b80601f016020809104026020016040519081016040528092919081815260200182805461107490612d7b565b80156110c15780601f10611096576101008083540402835291602001916110c1565b820191906000526020600020905b8154815290600101906020018083116110a457829003601f168201915b5050505050908060020180546110d690612d7b565b80601f016020809104026020016040519081016040528092919081815260200182805461110290612d7b565b801561114f5780601f106111245761010080835404028352916020019161114f565b820191906000526020600020905b81548152906001019060200180831161113257829003601f168201915b5050505050905083565b61116161206a565b61116b600061218b565b565b60008061117983611a31565b9050806111895750600092915050565b6001600160a01b03831660009081526098602052604090206001908101906111b19083612de7565b815481106111c1576111c1612d65565b906000526020600020906005020160000154915050919050565b6097546001600160a01b0316336001600160a01b0316146112325760405162461bcd60e51b815260206004820152601160248201527027232a27b930b1b6329d1010b0b236b4b760791b60448201526064016109c7565b8685146112515760405162461bcd60e51b81526004016109c790612e4b565b8683146112aa5760405162461bcd60e51b815260206004820152602160248201527f4e46544f7261636c653a2073616c6573206c656e677468206e6f74206d6174636044820152600d60fb1b60648201526084016109c7565b8681146113085760405162461bcd60e51b815260206004820152602660248201527f4e46544f7261636c653a20766f6c6174696c697479206c656e677468206e6f74604482015265040dac2e8c6d60d31b60648201526084016109c7565b4260005b888110156113f357600060a060008c8c8581811061132c5761132c612d65565b90506020020160208101906113419190612853565b6001600160a01b0316815260208101919091526040016000205460ff169050806113e0576113e08b8b8481811061137a5761137a612d65565b905060200201602081019061138f9190612853565b8a8a858181106113a1576113a1612d65565b905060200201358989868181106113ba576113ba612d65565b905060200201358888878181106113d3576113d3612d65565b9050602002013587611e0e565b50806113eb81612dcc565b91505061130c565b50505050505050505050565b600080600061140d8461213e565b6114295760405162461bcd60e51b81526004016109c790612e14565b600061143485611a31565b9050600081116114815760405162461bcd60e51b81526020600482015260186024820152774e46544f7261636c653a206e6f207072696365206461746160401b60448201526064016109c7565b6001600160a01b038516600090815260a2602052604090205480611595576001600160a01b03861660009081526098602052604090206001908101906114c79084612de7565b815481106114d7576114d7612d65565b6000918252602080832060016005909302018201546001600160a01b038a1684526098909152604090922081019061150f9085612de7565b8154811061151f5761151f612d65565b90600052602060002090600502016002015460986000896001600160a01b03166001600160a01b031681526020019081526020016000206001016001856115669190612de7565b8154811061157657611576612d65565b90600052602060002090600502016003015494509450945050506115bf565b6001600160a01b0386166000908152609860205260409020819060019081019061150f9085612de7565b9193909250565b6115ce61206a565b6115db85858585856121dd565b5050505050565b6115ea61206a565b6001600160a01b0391909116600090815260a060205260409020805460ff1916911515919091179055565b60006116208361213e565b61163c5760405162461bcd60e51b81526004016109c790612e14565b600061164784611a31565b905060008111801561165857508083105b6116745760405162461bcd60e51b81526004016109c790612e8d565b6001600160a01b038416600090815260986020526040902060019081019061169c8584612de7565b6116a69190612de7565b815481106116b6576116b6612d65565b9060005260206000209060050201600401549150505b92915050565b60006116dd8361213e565b6116f95760405162461bcd60e51b81526004016109c790612e14565b600061170484611a31565b905060008111801561171557508083105b6117315760405162461bcd60e51b81526004016109c790612e8d565b6001600160a01b03841660009081526098602052604090206001908101906117598584612de7565b6117639190612de7565b8154811061177357611773612d65565b90600052602060002090600502016001015491505092915050565b61179661206a565b8786146117b55760405162461bcd60e51b81526004016109c790612e4b565b8784146117d45760405162461bcd60e51b81526004016109c790612e4b565b8782146117f35760405162461bcd60e51b81526004016109c790612e4b565b60005b888110156113f35761193e8a8a8381811061181357611813612d65565b90506020020160208101906118289190612853565b89898481811061183a5761183a612d65565b905060200281019061184c9190612ec4565b8080601f0160208091040260200160405190810160405280939291908181526020018383808284376000920191909152508b92508a915086905081811061189557611895612d65565b90506020028101906118a79190612ec4565b8080601f0160208091040260200160405190810160405280939291908181526020018383808284376000920191909152508a92508991508790508181106118f0576118f0612d65565b90506020028101906119029190612ec4565b8080601f0160208091040260200160405190810160405280939291908181526020018383808284376000920191909152508992506121dd915050565b8061194881612dcc565b9150506117f6565b600061195b8261213e565b6119775760405162461bcd60e51b81526004016109c790612e14565b600061198283611a31565b9050600081116119cf5760405162461bcd60e51b81526020600482015260186024820152774e46544f7261636c653a206e6f207072696365206461746160401b60448201526064016109c7565b60008060008060006119e0886113ff565b909450925090506119f2826003612f0b565b6119fe84612710612de7565b611a089190612f2a565b9450611a148186612329565b611a2590662386f26fc10000612f0b565b98975050505050505050565b6001600160a01b031660009081526098602052604090206001015490565b611a5761206a565b6001600160a01b038116611abc5760405162461bcd60e51b815260206004820152602660248201527f4f776e61626c653a206e6577206f776e657220697320746865207a65726f206160448201526564647265737360d01b60648201526084016109c7565b611ac58161218b565b50565b609a8181548110611ad857600080fd5b6000918252602090912001546001600160a01b0316905081565b6000611afd8261213e565b611b195760405162461bcd60e51b81526004016109c790612e14565b60a154611b685760405162461bcd60e51b815260206004820152601e60248201527f4e46544f7261636c653a20696e74657276616c2063616e27742062652030000060448201526064016109c7565b6000611b7383611a31565b905060008111611b955760405162461bcd60e51b81526004016109c790612e8d565b6000611ba2600183612de7565b6001600160a01b03851660009081526098602052604081206001018054929350909183908110611bd457611bd4612d65565b600091825260208083206040805160a08101825260059094029091018054845260018101549284019290925260028201549083015260038101546060830152600401546080820181905260a1549193509190611c2d4290565b611c379190612de7565b905080821080611c45575083155b15611c5857505060200151949350505050565b6000611c648342612de7565b905060008390506000828660200151611c7d9190612f0b565b90505b86611c9d57611c8f8382612f42565b9a9950505050505050505050565b611ca8600188612de7565b6001600160a01b038b16600090815260986020526040902060010180549198509088908110611cd957611cd9612d65565b60009182526020918290206040805160a081018252600590930290910180548352600181015493830184905260028101549183019190915260038101546060830152600401546080820181905290975090858211611d5857611d3b8685612de7565b611d459082612f0b565b611d4f9084612f2a565b92505050611d93565b6000611d648386612de7565b9050611d708183612f0b565b611d7a9085612f2a565b9350611d868187612f2a565b9550829450505050611c80565b60a154611c8f9082612f42565b6001600160a01b038116600090815260a0602052604090205460ff168015611e0a5760405162461bcd60e51b815260206004820181905260248201527f4e46544f7261636c653a206e667420707269636520666565642070617573656460448201526064016109c7565b5050565b611e198560016120c4565b611e2285610d0d565b8111611e705760405162461bcd60e51b815260206004820152601e60248201527f4e46544f7261636c653a20696e636f72726563742074696d657374616d70000060448201526064016109c7565b60008411611ec05760405162461bcd60e51b815260206004820152601d60248201527f4e46544f7261636c653a2070726963652063616e206e6f74206265203000000060448201526064016109c7565b6000611ecd8686846123f5565b905080611f1c5760405162461bcd60e51b815260206004820152601d60248201527f4e46544f7261636c653a20696e76616c6964207072696365206461746100000060448201526064016109c7565b6000611f2787611a31565b6040805160a08101825282815260208082018a81528284018a8152606084018a8152608085018a81526001600160a01b038f1660009081526098865296872060019081018054808301825590895295882087516005909702019586559351938501939093559051600284015551600383015551600490910155919250611fac89611af2565b6001600160a01b038a16600081815260a2602090815260409182902084905581518c81529081018b90529081018990526060810188905260808101869052919250907f33d686446fa2fbacc6d321bb1daf22159d2d39d3608270b520cc4707b561c9949060a00160405180910390a260408051828152602081018790526001600160a01b038b16917f58bdf68b6e757afad014720959e6c9ecd94de1cc24b964ebf48b08b50366b321910160405180910390a2505050505050505050565b6033546001600160a01b0316331461116b5760405162461bcd60e51b815260206004820181905260248201527f4f776e61626c653a2063616c6c6572206973206e6f7420746865206f776e657260448201526064016109c7565b80156120ef576120d38261213e565b611e0a5760405162461bcd60e51b81526004016109c790612e14565b6120f88261213e565b15611e0a5760405162461bcd60e51b815260206004820152601660248201527513919513dc9858db194e881ad95e48195e1a5cdd195960521b60448201526064016109c7565b6001600160a01b031660009081526098602052604090205460ff1690565b600054610100900460ff166121835760405162461bcd60e51b81526004016109c790612f64565b61116b61258b565b603380546001600160a01b038381166001600160a01b0319831681179093556040519116919082907f8be0079c531659141344cd1fd0a4f28419497f9722a3daafe3b4186f6b6457e090600090a35050565b6121e88560006120c4565b6001600160a01b0385166000818152609860209081526040808320805460ff19166001908117909155609a80548083019091557f44da158ba27f9252712a74ff6a55c5d531f69609f1f6e7f17c4443a8e2089be40180546001600160a01b0319908116871790915560ff87168552609b845282852080549283018155855283852090910180549091168517905592825260998152919020855161228d92870190612616565b506001600160a01b038516600090815260996020908152604090912084516122bd92600190920191860190612616565b506001600160a01b038516600090815260996020908152604090912083516122ed92600290920191850190612616565b506040516001600160a01b038616907f0e3c58ebfb2e7465fbb1c32e6b4f40c3c4f5ca77e8218a386aff8617831260d790600090a25050505050565b6000821580612336575081155b15612343575060006116cc565b816123516002612710612f42565b61235d90600019612de7565b6123679190612f42565b8311156123c25760405162461bcd60e51b815260206004820152602360248201527f4572726f72732e4d4154485f4d554c5449504c49434154494f4e5f4f564552466044820152624c4f5760e81b60648201526084016109c7565b6127106123d0600282612f42565b6123da8486612f0b565b6123e49190612f2a565b6123ee9190612f42565b9392505050565b60008061240185611a31565b90508015612580576001600160a01b03851660009081526098602052604081206001908101906124319084612de7565b8154811061244157612441612d65565b906000526020600020906005020160010154905080851415612468576001925050506123ee565b6001600160a01b03861660009081526098602052604081206001908101906124909085612de7565b815481106124a0576124a0612d65565b90600052602060002090600502016004015490506000828711156124ed5782670de0b6b3a76400006124d2828a612de7565b6124dc9190612f0b565b6124e69190612f42565b9050612518565b82670de0b6b3a76400006125018983612de7565b61250b9190612f0b565b6125159190612f42565b90505b60006125248388612de7565b9050609c5482111561253e576000955050505050506123ee565b609f54811015612556576000955050505050506123ee565b609d54821180156125685750609e5481105b1561257b576000955050505050506123ee565b505050505b506001949350505050565b600054610100900460ff166125b25760405162461bcd60e51b81526004016109c790612f64565b61116b3361218b565b5080546000825560050290600052602060002090810190611ac5919061269a565b5080546125e890612d7b565b6000825580601f106125f8575050565b601f016020900490600052602060002090810190611ac591906126ca565b82805461262290612d7b565b90600052602060002090601f016020900481019282612644576000855561268a565b82601f1061265d57805160ff191683800117855561268a565b8280016001018555821561268a579182015b8281111561268a57825182559160200191906001019061266f565b506126969291506126ca565b5090565b5b80821115612696576000808255600182018190556002820181905560038201819055600482015560050161269b565b5b8082111561269657600081556001016126cb565b803560ff811681146126f057600080fd5b919050565b60006020828403121561270757600080fd5b6123ee826126df565b6000815180845260005b818110156127365760208185018101518683018201520161271a565b81811115612748576000602083870101525b50601f01601f19169290920160200192915050565b600081518084526020808501808196508360051b8101915082860160005b858110156127a5578284038952612793848351612710565b9885019893509084019060010161277b565b5091979650505050505050565b6080808252855190820181905260009060209060a0840190828901845b828110156127f45781516001600160a01b0316845292840192908401906001016127cf565b50505083810382850152612808818861275d565b915050828103604084015261281d818661275d565b90508281036060840152612831818561275d565b979650505050505050565b80356001600160a01b03811681146126f057600080fd5b60006020828403121561286557600080fd5b6123ee8261283c565b6000806000806080858703121561288457600080fd5b61288d8561283c565b966020860135965060408601359560600135945092505050565b600080604083850312156128ba57600080fd5b6128c38361283c565b91506128d1602084016126df565b90509250929050565b60008060008060008060c087890312156128f357600080fd5b6128fc8761283c565b9860208801359850604088013597606081013597506080810135965060a00135945092505050565b6000806040838503121561293757600080fd5b612940836126df565b946020939093013593505050565b60006020828403121561296057600080fd5b5035919050565b6000806000806080858703121561297d57600080fd5b5050823594602084013594506040840135936060013592509050565b6060815260006129ac6060830186612710565b82810360208401526129be8186612710565b905082810360408401526129d28185612710565b9695505050505050565b60008083601f8401126129ee57600080fd5b50813567ffffffffffffffff811115612a0657600080fd5b6020830191508360208260051b8501011115612a2157600080fd5b9250929050565b6000806000806000806000806080898b031215612a4457600080fd5b883567ffffffffffffffff80821115612a5c57600080fd5b612a688c838d016129dc565b909a50985060208b0135915080821115612a8157600080fd5b612a8d8c838d016129dc565b909850965060408b0135915080821115612aa657600080fd5b612ab28c838d016129dc565b909650945060608b0135915080821115612acb57600080fd5b50612ad88b828c016129dc565b999c989b5096995094979396929594505050565b634e487b7160e01b600052604160045260246000fd5b600082601f830112612b1357600080fd5b813567ffffffffffffffff80821115612b2e57612b2e612aec565b604051601f8301601f19908116603f01168101908282118183101715612b5657612b56612aec565b81604052838152866020858801011115612b6f57600080fd5b836020870160208301376000602085830101528094505050505092915050565b600080600080600060a08688031215612ba757600080fd5b612bb08661283c565b9450602086013567ffffffffffffffff80821115612bcd57600080fd5b612bd989838a01612b02565b95506040880135915080821115612bef57600080fd5b612bfb89838a01612b02565b94506060880135915080821115612c1157600080fd5b50612c1e88828901612b02565b925050612c2d608087016126df565b90509295509295909350565b60008060408385031215612c4c57600080fd5b612c558361283c565b915060208301358015158114612c6a57600080fd5b809150509250929050565b60008060408385031215612c8857600080fd5b6129408361283c565b600080600080600080600080600060a08a8c031215612caf57600080fd5b893567ffffffffffffffff80821115612cc757600080fd5b612cd38d838e016129dc565b909b50995060208c0135915080821115612cec57600080fd5b612cf88d838e016129dc565b909950975060408c0135915080821115612d1157600080fd5b612d1d8d838e016129dc565b909750955060608c0135915080821115612d3657600080fd5b50612d438c828d016129dc565b9094509250612d56905060808b016126df565b90509295985092959850929598565b634e487b7160e01b600052603260045260246000fd5b600181811c90821680612d8f57607f821691505b60208210811415612db057634e487b7160e01b600052602260045260246000fd5b50919050565b634e487b7160e01b600052601160045260246000fd5b6000600019821415612de057612de0612db6565b5060010190565b600082821015612df957612df9612db6565b500390565b634e487b7160e01b600052603160045260246000fd5b6020808252601a908201527f4e46544f7261636c653a206b6579206e6f742065786973746564000000000000604082015260600190565b60208082526022908201527f4e46544f7261636c653a20707269636573206c656e677468206e6f74206d61746040820152610c6d60f31b606082015260800190565b6020808252601d908201527f4e46544f7261636c653a204e6f7420656e6f75676820686973746f7279000000604082015260600190565b6000808335601e19843603018112612edb57600080fd5b83018035915067ffffffffffffffff821115612ef657600080fd5b602001915036819003821315612a2157600080fd5b6000816000190483118215151615612f2557612f25612db6565b500290565b60008219821115612f3d57612f3d612db6565b500190565b600082612f5f57634e487b7160e01b600052601260045260246000fd5b500490565b6020808252602b908201527f496e697469616c697a61626c653a20636f6e7472616374206973206e6f74206960408201526a6e697469616c697a696e6760a81b60608201526080019056fea26469706673582212204a66f0e15ce204f63b02ea382898099fb0b87cc76a643499f56538fab985fed764736f6c63430008080033",
  "linkReferences": {},
  "deployedLinkReferences": {}
}