{
  "_format": "hh-sol-artifact-1",
  "contractName": "NFTUSDToken",
  "sourceName": "contracts/NFTUSDToken.sol",
  "abi": [
    {
      "inputs": [],
      "stateMutability": "nonpayable",
      "type": "constructor"
    },
    {
      "inputs": [],
      "name": "InvalidShortString",
      "type": "error"
    },
    {
      "inputs": [
        {
          "internalType": "string",
          "name": "str",
          "type": "string"
        }
      ],
      "name": "StringTooLong",
      "type": "error"
    },
    {
      "anonymous": false,
      "inputs": [
        {
          "indexed": true,
          "internalType": "address",
          "name": "owner",
          "type": "address"
        },
        {
          "indexed": true,
          "internalType": "address",
          "name": "spender",
          "type": "address"
        },
        {
          "indexed": false,
          "internalType": "uint256",
          "name": "value",
          "type": "uint256"
        }
      ],
      "name": "Approval",
      "type": "event"
    },
    {
      "anonymous": false,
      "inputs": [
        {
          "indexed": true,
          "internalType": "address",
          "name": "from",
          "type": "address"
        },
        {
          "indexed": true,
          "internalType": "address",
          "name": "to",
          "type": "address"
        },
        {
          "indexed": false,
          "internalType": "uint256",
          "name": "value",
          "type": "uint256"
        }
      ],
      "name": "BalanceTransfer",
      "type": "event"
    },
    {
      "anonymous": false,
      "inputs": [
        {
          "indexed": true,
          "internalType": "address",
          "name": "from",
          "type": "address"
        },
        {
          "indexed": false,
          "internalType": "uint256",
          "name": "value",
          "type": "uint256"
        }
      ],
      "name": "Burn",
      "type": "event"
    },
    {
      "anonymous": false,
      "inputs": [],
      "name": "EIP712DomainChanged",
      "type": "event"
    },
    {
      "anonymous": false,
      "inputs": [
        {
          "indexed": true,
          "internalType": "address",
          "name": "from",
          "type": "address"
        },
        {
          "indexed": false,
          "internalType": "uint256",
          "name": "value",
          "type": "uint256"
        }
      ],
      "name": "Mint",
      "type": "event"
    },
    {
      "anonymous": false,
      "inputs": [
        {
          "indexed": true,
          "internalType": "address",
          "name": "previousOwner",
          "type": "address"
        },
        {
          "indexed": true,
          "internalType": "address",
          "name": "newOwner",
          "type": "address"
        }
      ],
      "name": "OwnershipTransferred",
      "type": "event"
    },
    {
      "anonymous": false,
      "inputs": [
        {
          "indexed": true,
          "internalType": "address",
          "name": "from",
          "type": "address"
        },
        {
          "indexed": true,
          "internalType": "address",
          "name": "to",
          "type": "address"
        },
        {
          "indexed": false,
          "internalType": "uint256",
          "name": "value",
          "type": "uint256"
        }
      ],
      "name": "Transfer",
      "type": "event"
    },
    {
      "inputs": [],
      "name": "DOMAIN_SEPARATOR",
      "outputs": [
        {
          "internalType": "bytes32",
          "name": "",
          "type": "bytes32"
        }
      ],
      "stateMutability": "view",
      "type": "function"
    },
    {
      "inputs": [
        {
          "internalType": "address",
          "name": "owner",
          "type": "address"
        },
        {
          "internalType": "address",
          "name": "spender",
          "type": "address"
        }
      ],
      "name": "allowance",
      "outputs": [
        {
          "internalType": "uint256",
          "name": "",
          "type": "uint256"
        }
      ],
      "stateMutability": "view",
      "type": "function"
    },
    {
      "inputs": [
        {
          "internalType": "address",
          "name": "spender",
          "type": "address"
        },
        {
          "internalType": "uint256",
          "name": "amount",
          "type": "uint256"
        }
      ],
      "name": "approve",
      "outputs": [
        {
          "internalType": "bool",
          "name": "",
          "type": "bool"
        }
      ],
      "stateMutability": "nonpayable",
      "type": "function"
    },
    {
      "inputs": [
        {
          "internalType": "address",
          "name": "account",
          "type": "address"
        }
      ],
      "name": "balanceOf",
      "outputs": [
        {
          "internalType": "uint256",
          "name": "",
          "type": "uint256"
        }
      ],
      "stateMutability": "view",
      "type": "function"
    },
    {
      "inputs": [
        {
          "internalType": "address",
          "name": "user",
          "type": "address"
        },
        {
          "internalType": "uint256",
          "name": "amount",
          "type": "uint256"
        }
      ],
      "name": "burn",
      "outputs": [],
      "stateMutability": "nonpayable",
      "type": "function"
    },
    {
      "inputs": [],
      "name": "decimals",
      "outputs": [
        {
          "internalType": "uint8",
          "name": "",
          "type": "uint8"
        }
      ],
      "stateMutability": "view",
      "type": "function"
    },
    {
      "inputs": [
        {
          "internalType": "address",
          "name": "spender",
          "type": "address"
        },
        {
          "internalType": "uint256",
          "name": "subtractedValue",
          "type": "uint256"
        }
      ],
      "name": "decreaseAllowance",
      "outputs": [
        {
          "internalType": "bool",
          "name": "",
          "type": "bool"
        }
      ],
      "stateMutability": "nonpayable",
      "type": "function"
    },
    {
      "inputs": [],
      "name": "eip712Domain",
      "outputs": [
        {
          "internalType": "bytes1",
          "name": "fields",
          "type": "bytes1"
        },
        {
          "internalType": "string",
          "name": "name",
          "type": "string"
        },
        {
          "internalType": "string",
          "name": "version",
          "type": "string"
        },
        {
          "internalType": "uint256",
          "name": "chainId",
          "type": "uint256"
        },
        {
          "internalType": "address",
          "name": "verifyingContract",
          "type": "address"
        },
        {
          "internalType": "bytes32",
          "name": "salt",
          "type": "bytes32"
        },
        {
          "internalType": "uint256[]",
          "name": "extensions",
          "type": "uint256[]"
        }
      ],
      "stateMutability": "view",
      "type": "function"
    },
    {
      "inputs": [
        {
          "internalType": "address",
          "name": "spender",
          "type": "address"
        },
        {
          "internalType": "uint256",
          "name": "addedValue",
          "type": "uint256"
        }
      ],
      "name": "increaseAllowance",
      "outputs": [
        {
          "internalType": "bool",
          "name": "",
          "type": "bool"
        }
      ],
      "stateMutability": "nonpayable",
      "type": "function"
    },
    {
      "inputs": [
        {
          "internalType": "address",
          "name": "pool",
          "type": "address"
        }
      ],
      "name": "initializePool",
      "outputs": [],
      "stateMutability": "nonpayable",
      "type": "function"
    },
    {
      "inputs": [
        {
          "internalType": "address",
          "name": "user",
          "type": "address"
        },
        {
          "internalType": "uint256",
          "name": "amount",
          "type": "uint256"
        }
      ],
      "name": "mint",
      "outputs": [],
      "stateMutability": "nonpayable",
      "type": "function"
    },
    {
      "inputs": [],
      "name": "name",
      "outputs": [
        {
          "internalType": "string",
          "name": "",
          "type": "string"
        }
      ],
      "stateMutability": "view",
      "type": "function"
    },
    {
      "inputs": [
        {
          "internalType": "address",
          "name": "owner",
          "type": "address"
        }
      ],
      "name": "nonces",
      "outputs": [
        {
          "internalType": "uint256",
          "name": "",
          "type": "uint256"
        }
      ],
      "stateMutability": "view",
      "type": "function"
    },
    {
      "inputs": [],
      "name": "owner",
      "outputs": [
        {
          "internalType": "address",
          "name": "",
          "type": "address"
        }
      ],
      "stateMutability": "view",
      "type": "function"
    },
    {
      "inputs": [
        {
          "internalType": "address",
          "name": "owner",
          "type": "address"
        },
        {
          "internalType": "address",
          "name": "spender",
          "type": "address"
        },
        {
          "internalType": "uint256",
          "name": "value",
          "type": "uint256"
        },
        {
          "internalType": "uint256",
          "name": "deadline",
          "type": "uint256"
        },
        {
          "internalType": "uint8",
          "name": "v",
          "type": "uint8"
        },
        {
          "internalType": "bytes32",
          "name": "r",
          "type": "bytes32"
        },
        {
          "internalType": "bytes32",
          "name": "s",
          "type": "bytes32"
        }
      ],
      "name": "permit",
      "outputs": [],
      "stateMutability": "nonpayable",
      "type": "function"
    },
    {
      "inputs": [],
      "name": "renounceOwnership",
      "outputs": [],
      "stateMutability": "nonpayable",
      "type": "function"
    },
    {
      "inputs": [
        {
          "internalType": "address",
          "name": "_poolAddress",
          "type": "address"
        },
        {
          "internalType": "address",
          "name": "_receiver",
          "type": "address"
        },
        {
          "internalType": "uint256",
          "name": "_amount",
          "type": "uint256"
        }
      ],
      "name": "returnFromPool",
      "outputs": [],
      "stateMutability": "nonpayable",
      "type": "function"
    },
    {
      "inputs": [
        {
          "internalType": "address",
          "name": "_sender",
          "type": "address"
        },
        {
          "internalType": "address",
          "name": "_poolAddress",
          "type": "address"
        },
        {
          "internalType": "uint256",
          "name": "_amount",
          "type": "uint256"
        }
      ],
      "name": "sendToPool",
      "outputs": [],
      "stateMutability": "nonpayable",
      "type": "function"
    },
    {
      "inputs": [],
      "name": "symbol",
      "outputs": [
        {
          "internalType": "string",
          "name": "",
          "type": "string"
        }
      ],
      "stateMutability": "view",
      "type": "function"
    },
    {
      "inputs": [],
      "name": "totalSupply",
      "outputs": [
        {
          "internalType": "uint256",
          "name": "",
          "type": "uint256"
        }
      ],
      "stateMutability": "view",
      "type": "function"
    },
    {
      "inputs": [
        {
          "internalType": "address",
          "name": "to",
          "type": "address"
        },
        {
          "internalType": "uint256",
          "name": "amount",
          "type": "uint256"
        }
      ],
      "name": "transfer",
      "outputs": [
        {
          "internalType": "bool",
          "name": "",
          "type": "bool"
        }
      ],
      "stateMutability": "nonpayable",
      "type": "function"
    },
    {
      "inputs": [
        {
          "internalType": "address",
          "name": "from",
          "type": "address"
        },
        {
          "internalType": "address",
          "name": "to",
          "type": "address"
        },
        {
          "internalType": "uint256",
          "name": "amount",
          "type": "uint256"
        }
      ],
      "name": "transferFrom",
      "outputs": [
        {
          "internalType": "bool",
          "name": "",
          "type": "bool"
        }
      ],
      "stateMutability": "nonpayable",
      "type": "function"
    },
    {
      "inputs": [
        {
          "internalType": "address",
          "name": "newOwner",
          "type": "address"
        }
      ],
      "name": "transferOwnership",
      "outputs": [],
      "stateMutability": "nonpayable",
      "type": "function"
    }
  ],
  "bytecode": "0x6101606040523480156200001257600080fd5b506040518060400160405280600b81526020016a27232a2aa9a22a37b5b2b760a91b81525080604051806040016040528060018152602001603160f81b8152506040518060400160405280600b81526020016a27232a2aa9a22a37b5b2b760a91b815250604051806040016040528060068152602001651391951554d160d21b8152508160039080519060200190620000ad9291906200029f565b508051620000c39060049060208401906200029f565b505050620000e1600583620001aa60201b620008c51790919060201c565b61012052620000fe816006620001aa602090811b620008c517901c565b61014052815160208084019190912060e052815190820120610100524660a0526200018c60e05161010051604080517f8b73c3c69bb8fe3d512ecc4cf759cc79239f7b179b0ffacaa9a75d522b39400f60208201529081019290925260608201524660808201523060a082015260009060c00160405160208183030381529060405280519060200120905090565b6080525050503060601b60c052620001a433620001fe565b620003fc565b6000602083511015620001ca57620001c28362000250565b9050620001f8565b82620001e1836200029c60201b620008fc1760201c565b8151620001f292602001906200029f565b5060ff90505b92915050565b600980546001600160a01b038381166001600160a01b0319831681179093556040519116919082907f8be0079c531659141344cd1fd0a4f28419497f9722a3daafe3b4186f6b6457e090600090a35050565b600080829050601f8151111562000287578260405163305a27a960e01b81526004016200027e919062000345565b60405180910390fd5b805162000294826200039d565b179392505050565b90565b828054620002ad90620003c5565b90600052602060002090601f016020900481019282620002d157600085556200031c565b82601f10620002ec57805160ff19168380011785556200031c565b828001600101855582156200031c579182015b828111156200031c578251825591602001919060010190620002ff565b506200032a9291506200032e565b5090565b5b808211156200032a57600081556001016200032f565b600060208083528351808285015260005b81811015620003745785810183015185820160400152820162000356565b8181111562000387576000604083870101525b50601f01601f1916929092016040019392505050565b80516020808301519190811015620003bf576000198160200360031b1b821691505b50919050565b600181811c90821680620003da57607f821691505b60208210811415620003bf57634e487b7160e01b600052602260045260246000fd5b60805160a05160c05160601c60e05161010051610120516101405161182f6200045a60003960006105690152600061053e01526000610d2201526000610cfa01526000610c5501526000610c7f01526000610ca9015261182f6000f3fe608060405234801561001057600080fd5b506004361061014d5760003560e01c8063715018a6116100c3578063a457c2d71161007c578063a457c2d7146102b2578063a9059cbb146102c5578063bb997bac146101a5578063d505accf146102d8578063dd62ed3e146102eb578063f2fde38b146102fe57600080fd5b8063715018a6146102465780637ecebe001461024e57806384b0196e146102615780638da5cb5b1461027c57806395d89b41146102975780639dc29fac1461029f57600080fd5b8063313ce56711610115578063313ce567146101cd5780633644e515146101dc57806339509351146101e4578063407431f7146101f757806340c10f191461020a57806370a082311461021d57600080fd5b806306fdde0314610152578063095ea7b31461017057806318160ddd1461019357806320c582be146101a557806323b872dd146101ba575b600080fd5b61015a610311565b604051610167919061153a565b60405180910390f35b61018361017e366004611570565b6103a3565b6040519015158152602001610167565b6002545b604051908152602001610167565b6101b86101b336600461159a565b6103bd565b005b6101836101c836600461159a565b610400565b60405160128152602001610167565b610197610424565b6101836101f2366004611570565b610433565b6101b86102053660046115d6565b610455565b6101b8610218366004611570565b610483565b61019761022b3660046115d6565b6001600160a01b031660009081526020819052604090205490565b6101b86104fe565b61019761025c3660046115d6565b610512565b610269610530565b60405161016797969594939291906115f1565b6009546040516001600160a01b039091168152602001610167565b61015a6105b9565b6101b86102ad366004611570565b6105c8565b6101836102c0366004611570565b610637565b6101836102d3366004611570565b6106b2565b6101b86102e6366004611687565b6106c0565b6101976102f93660046116fa565b610824565b6101b861030c3660046115d6565b61084f565b6060600380546103209061172d565b80601f016020809104026020016040519081016040528092919081815260200182805461034c9061172d565b80156103995780601f1061036e57610100808354040283529160200191610399565b820191906000526020600020905b81548152906001019060200180831161037c57829003601f168201915b5050505050905090565b6000336103b18185856108ff565b60019150505b92915050565b600a546001600160a01b031633146103f05760405162461bcd60e51b81526004016103e790611762565b60405180910390fd5b6103fb838383610a24565b505050565b60003361040e858285610bd4565b610419858585610a24565b506001949350505050565b600061042e610c48565b905090565b6000336103b18185856104468383610824565b6104509190611799565b6108ff565b61045d610d73565b600a80546001600160a01b0319166001600160a01b0383161790556104806104fe565b50565b600a546001600160a01b031633146104ad5760405162461bcd60e51b81526004016103e790611762565b6104b78282610dcd565b816001600160a01b03167f0f6798a560793a54c3bcfe86a93cde1e73087d944c0ea20544137d4121396885826040516104f291815260200190565b60405180910390a25050565b610506610d73565b6105106000610ddb565b565b6001600160a01b0381166000908152600760205260408120546103b7565b6000606080828080836105647f00000000000000000000000000000000000000000000000000000000000000006005610e2d565b61058f7f00000000000000000000000000000000000000000000000000000000000000006006610e2d565b60408051600080825260208201909252600f60f81b9b939a50919850469750309650945092509050565b6060600480546103209061172d565b600a546001600160a01b031633146105f25760405162461bcd60e51b81526004016103e790611762565b6105fc8282610ed1565b816001600160a01b03167fcc16f5dbb4873280815c1ee09dbd06736cffcc184412cf7a71a0fdb75d397ca5826040516104f291815260200190565b600033816106458286610824565b9050838110156106a55760405162461bcd60e51b815260206004820152602560248201527f45524332303a2064656372656173656420616c6c6f77616e63652062656c6f77604482015264207a65726f60d81b60648201526084016103e7565b61041982868684036108ff565b6000336103b1818585610a24565b834211156107105760405162461bcd60e51b815260206004820152601d60248201527f45524332305065726d69743a206578706972656420646561646c696e6500000060448201526064016103e7565b60007f6e71edae12b1b97f4d1f60370fef10105fa2faae0126114a169c64845d6126c988888861073f8c610edb565b6040805160208101969096526001600160a01b0394851690860152929091166060840152608083015260a082015260c0810186905260e001604051602081830303815290604052805190602001209050600061079a82610f03565b905060006107aa82878787610f30565b9050896001600160a01b0316816001600160a01b03161461080d5760405162461bcd60e51b815260206004820152601e60248201527f45524332305065726d69743a20696e76616c6964207369676e6174757265000060448201526064016103e7565b6108188a8a8a6108ff565b50505050505050505050565b6001600160a01b03918216600090815260016020908152604080832093909416825291909152205490565b610857610d73565b6001600160a01b0381166108bc5760405162461bcd60e51b815260206004820152602660248201527f4f776e61626c653a206e6577206f776e657220697320746865207a65726f206160448201526564647265737360d01b60648201526084016103e7565b61048081610ddb565b60006020835110156108e1576108da83610f58565b90506103b7565b828281516108f29260200190611454565b5060ff90506103b7565b90565b6001600160a01b0383166109615760405162461bcd60e51b8152602060048201526024808201527f45524332303a20617070726f76652066726f6d20746865207a65726f206164646044820152637265737360e01b60648201526084016103e7565b6001600160a01b0382166109c25760405162461bcd60e51b815260206004820152602260248201527f45524332303a20617070726f766520746f20746865207a65726f206164647265604482015261737360f01b60648201526084016103e7565b6001600160a01b0383811660008181526001602090815260408083209487168084529482529182902085905590518481527f8c5be1e5ebec7d5bd14f71427d1e84f3dd0314c0f7b2291e5b200ac8c7c3b92591015b60405180910390a3505050565b6001600160a01b038316610a885760405162461bcd60e51b815260206004820152602560248201527f45524332303a207472616e736665722066726f6d20746865207a65726f206164604482015264647265737360d81b60648201526084016103e7565b6001600160a01b038216610aea5760405162461bcd60e51b815260206004820152602360248201527f45524332303a207472616e7366657220746f20746865207a65726f206164647260448201526265737360e81b60648201526084016103e7565b6001600160a01b03831660009081526020819052604090205481811015610b625760405162461bcd60e51b815260206004820152602660248201527f45524332303a207472616e7366657220616d6f756e7420657863656564732062604482015265616c616e636560d01b60648201526084016103e7565b6001600160a01b03848116600081815260208181526040808320878703905593871680835291849020805487019055925185815290927fddf252ad1be2c89b69c2b068fc378daa952ba7f163c4a11628f55a4df523b3ef910160405180910390a3610bce848484610f96565b50505050565b6000610be08484610824565b90506000198114610bce5781811015610c3b5760405162461bcd60e51b815260206004820152601d60248201527f45524332303a20696e73756666696369656e7420616c6c6f77616e636500000060448201526064016103e7565b610bce84848484036108ff565b6000306001600160a01b037f000000000000000000000000000000000000000000000000000000000000000016148015610ca157507f000000000000000000000000000000000000000000000000000000000000000046145b15610ccb57507f000000000000000000000000000000000000000000000000000000000000000090565b61042e604080517f8b73c3c69bb8fe3d512ecc4cf759cc79239f7b179b0ffacaa9a75d522b39400f60208201527f0000000000000000000000000000000000000000000000000000000000000000918101919091527f000000000000000000000000000000000000000000000000000000000000000060608201524660808201523060a082015260009060c00160405160208183030381529060405280519060200120905090565b6009546001600160a01b031633146105105760405162461bcd60e51b815260206004820181905260248201527f4f776e61626c653a2063616c6c6572206973206e6f7420746865206f776e657260448201526064016103e7565b610dd78282610fdb565b5050565b600980546001600160a01b038381166001600160a01b0319831681179093556040519116919082907f8be0079c531659141344cd1fd0a4f28419497f9722a3daafe3b4186f6b6457e090600090a35050565b606060ff8314610e40576108da836110a2565b818054610e4c9061172d565b80601f0160208091040260200160405190810160405280929190818152602001828054610e789061172d565b8015610ec55780601f10610e9a57610100808354040283529160200191610ec5565b820191906000526020600020905b815481529060010190602001808311610ea857829003601f168201915b505050505090506103b7565b610dd782826110e1565b6001600160a01b03811660009081526007602052604090208054600181018255905b50919050565b60006103b7610f10610c48565b8360405161190160f01b8152600281019290925260228201526042902090565b6000806000610f418787878761121a565b91509150610f4e816112de565b5095945050505050565b600080829050601f81511115610f83578260405163305a27a960e01b81526004016103e7919061153a565b8051610f8e826117bf565b179392505050565b816001600160a01b0316836001600160a01b03167f7960cca2f662d25b1ac177cf65f1cdf087f4b9d25e1a7f8f06a5e5570e80a8d583604051610a1791815260200190565b6001600160a01b0382166110315760405162461bcd60e51b815260206004820152601f60248201527f45524332303a206d696e7420746f20746865207a65726f20616464726573730060448201526064016103e7565b80600260008282546110439190611799565b90915550506001600160a01b038216600081815260208181526040808320805486019055518481527fddf252ad1be2c89b69c2b068fc378daa952ba7f163c4a11628f55a4df523b3ef910160405180910390a3610dd760008383610f96565b606060006110af8361142c565b604080516020808252818301909252919250600091906020820181803683375050509182525060208101929092525090565b6001600160a01b0382166111415760405162461bcd60e51b815260206004820152602160248201527f45524332303a206275726e2066726f6d20746865207a65726f206164647265736044820152607360f81b60648201526084016103e7565b6001600160a01b038216600090815260208190526040902054818110156111b55760405162461bcd60e51b815260206004820152602260248201527f45524332303a206275726e20616d6f756e7420657863656564732062616c616e604482015261636560f01b60648201526084016103e7565b6001600160a01b0383166000818152602081815260408083208686039055600280548790039055518581529192917fddf252ad1be2c89b69c2b068fc378daa952ba7f163c4a11628f55a4df523b3ef910160405180910390a36103fb83600084610f96565b6000807f7fffffffffffffffffffffffffffffff5d576e7357a4501ddfe92f46681b20a083111561125157506000905060036112d5565b6040805160008082526020820180845289905260ff881692820192909252606081018690526080810185905260019060a0016020604051602081039080840390855afa1580156112a5573d6000803e3d6000fd5b5050604051601f1901519150506001600160a01b0381166112ce576000600192509250506112d5565b9150600090505b94509492505050565b60008160048111156112f2576112f26117e3565b14156112fb5750565b600181600481111561130f5761130f6117e3565b141561135d5760405162461bcd60e51b815260206004820152601860248201527f45434453413a20696e76616c6964207369676e6174757265000000000000000060448201526064016103e7565b6002816004811115611371576113716117e3565b14156113bf5760405162461bcd60e51b815260206004820152601f60248201527f45434453413a20696e76616c6964207369676e6174757265206c656e6774680060448201526064016103e7565b60038160048111156113d3576113d36117e3565b14156104805760405162461bcd60e51b815260206004820152602260248201527f45434453413a20696e76616c6964207369676e6174757265202773272076616c604482015261756560f01b60648201526084016103e7565b600060ff8216601f8111156103b757604051632cd44ac360e21b815260040160405180910390fd5b8280546114609061172d565b90600052602060002090601f01602090048101928261148257600085556114c8565b82601f1061149b57805160ff19168380011785556114c8565b828001600101855582156114c8579182015b828111156114c85782518255916020019190600101906114ad565b506114d49291506114d8565b5090565b5b808211156114d457600081556001016114d9565b6000815180845260005b81811015611513576020818501810151868301820152016114f7565b81811115611525576000602083870101525b50601f01601f19169290920160200192915050565b60208152600061154d60208301846114ed565b9392505050565b80356001600160a01b038116811461156b57600080fd5b919050565b6000806040838503121561158357600080fd5b61158c83611554565b946020939093013593505050565b6000806000606084860312156115af57600080fd5b6115b884611554565b92506115c660208501611554565b9150604084013590509250925092565b6000602082840312156115e857600080fd5b61154d82611554565b60ff60f81b881681526000602060e08184015261161160e084018a6114ed565b8381036040850152611623818a6114ed565b606085018990526001600160a01b038816608086015260a0850187905284810360c0860152855180825283870192509083019060005b8181101561167557835183529284019291840191600101611659565b50909c9b505050505050505050505050565b600080600080600080600060e0888a0312156116a257600080fd5b6116ab88611554565b96506116b960208901611554565b95506040880135945060608801359350608088013560ff811681146116dd57600080fd5b9699959850939692959460a0840135945060c09093013592915050565b6000806040838503121561170d57600080fd5b61171683611554565b915061172460208401611554565b90509250929050565b600181811c9082168061174157607f821691505b60208210811415610efd57634e487b7160e01b600052602260045260246000fd5b6020808252601f908201527f4f776e61626c653a2063616c6c6572206973206e6f742074686520706f6f6c00604082015260600190565b600082198211156117ba57634e487b7160e01b600052601160045260246000fd5b500190565b80516020808301519190811015610efd5760001960209190910360031b1b16919050565b634e487b7160e01b600052602160045260246000fdfea2646970667358221220816ff31906b3f58dae8fc0e53b9cd2992cebca925c1deb33a66418505e610c4d64736f6c63430008080033",
  "linkReferences": {},
  "deployedLinkReferences": {}
}