{
  "_format": "hh-sol-artifact-1",
  "contractName": "NFTUSDToken",
  "sourceName": "contracts/NFTUSDToken.sol",
  "abi": [
    {
      "inputs": [],
      "stateMutability": "nonpayable",
      "type": "constructor"
    },
    {
      "inputs": [],
      "name": "InvalidShortString",
      "type": "error"
    },
    {
      "inputs": [
        {
          "internalType": "string",
          "name": "str",
          "type": "string"
        }
      ],
      "name": "StringTooLong",
      "type": "error"
    },
    {
      "anonymous": false,
      "inputs": [
        {
          "indexed": true,
          "internalType": "address",
          "name": "owner",
          "type": "address"
        },
        {
          "indexed": true,
          "internalType": "address",
          "name": "spender",
          "type": "address"
        },
        {
          "indexed": false,
          "internalType": "uint256",
          "name": "value",
          "type": "uint256"
        }
      ],
      "name": "Approval",
      "type": "event"
    },
    {
      "anonymous": false,
      "inputs": [],
      "name": "EIP712DomainChanged",
      "type": "event"
    },
    {
      "anonymous": false,
      "inputs": [
        {
          "indexed": true,
          "internalType": "address",
          "name": "previousOwner",
          "type": "address"
        },
        {
          "indexed": true,
          "internalType": "address",
          "name": "newOwner",
          "type": "address"
        }
      ],
      "name": "OwnershipTransferred",
      "type": "event"
    },
    {
      "anonymous": false,
      "inputs": [
        {
          "indexed": true,
          "internalType": "address",
          "name": "from",
          "type": "address"
        },
        {
          "indexed": true,
          "internalType": "address",
          "name": "to",
          "type": "address"
        },
        {
          "indexed": false,
          "internalType": "uint256",
          "name": "value",
          "type": "uint256"
        }
      ],
      "name": "Transfer",
      "type": "event"
    },
    {
      "inputs": [],
      "name": "DOMAIN_SEPARATOR",
      "outputs": [
        {
          "internalType": "bytes32",
          "name": "",
          "type": "bytes32"
        }
      ],
      "stateMutability": "view",
      "type": "function"
    },
    {
      "inputs": [
        {
          "internalType": "address",
          "name": "owner",
          "type": "address"
        },
        {
          "internalType": "address",
          "name": "spender",
          "type": "address"
        }
      ],
      "name": "allowance",
      "outputs": [
        {
          "internalType": "uint256",
          "name": "",
          "type": "uint256"
        }
      ],
      "stateMutability": "view",
      "type": "function"
    },
    {
      "inputs": [
        {
          "internalType": "address",
          "name": "spender",
          "type": "address"
        },
        {
          "internalType": "uint256",
          "name": "amount",
          "type": "uint256"
        }
      ],
      "name": "approve",
      "outputs": [
        {
          "internalType": "bool",
          "name": "",
          "type": "bool"
        }
      ],
      "stateMutability": "nonpayable",
      "type": "function"
    },
    {
      "inputs": [
        {
          "internalType": "address",
          "name": "account",
          "type": "address"
        }
      ],
      "name": "balanceOf",
      "outputs": [
        {
          "internalType": "uint256",
          "name": "",
          "type": "uint256"
        }
      ],
      "stateMutability": "view",
      "type": "function"
    },
    {
      "inputs": [
        {
          "internalType": "address",
          "name": "from",
          "type": "address"
        },
        {
          "internalType": "uint256",
          "name": "amount",
          "type": "uint256"
        }
      ],
      "name": "burn",
      "outputs": [],
      "stateMutability": "nonpayable",
      "type": "function"
    },
    {
      "inputs": [],
      "name": "decimals",
      "outputs": [
        {
          "internalType": "uint8",
          "name": "",
          "type": "uint8"
        }
      ],
      "stateMutability": "view",
      "type": "function"
    },
    {
      "inputs": [
        {
          "internalType": "address",
          "name": "spender",
          "type": "address"
        },
        {
          "internalType": "uint256",
          "name": "subtractedValue",
          "type": "uint256"
        }
      ],
      "name": "decreaseAllowance",
      "outputs": [
        {
          "internalType": "bool",
          "name": "",
          "type": "bool"
        }
      ],
      "stateMutability": "nonpayable",
      "type": "function"
    },
    {
      "inputs": [],
      "name": "eip712Domain",
      "outputs": [
        {
          "internalType": "bytes1",
          "name": "fields",
          "type": "bytes1"
        },
        {
          "internalType": "string",
          "name": "name",
          "type": "string"
        },
        {
          "internalType": "string",
          "name": "version",
          "type": "string"
        },
        {
          "internalType": "uint256",
          "name": "chainId",
          "type": "uint256"
        },
        {
          "internalType": "address",
          "name": "verifyingContract",
          "type": "address"
        },
        {
          "internalType": "bytes32",
          "name": "salt",
          "type": "bytes32"
        },
        {
          "internalType": "uint256[]",
          "name": "extensions",
          "type": "uint256[]"
        }
      ],
      "stateMutability": "view",
      "type": "function"
    },
    {
      "inputs": [
        {
          "internalType": "address",
          "name": "spender",
          "type": "address"
        },
        {
          "internalType": "uint256",
          "name": "addedValue",
          "type": "uint256"
        }
      ],
      "name": "increaseAllowance",
      "outputs": [
        {
          "internalType": "bool",
          "name": "",
          "type": "bool"
        }
      ],
      "stateMutability": "nonpayable",
      "type": "function"
    },
    {
      "inputs": [
        {
          "internalType": "address",
          "name": "pool",
          "type": "address"
        }
      ],
      "name": "initializePool",
      "outputs": [],
      "stateMutability": "nonpayable",
      "type": "function"
    },
    {
      "inputs": [
        {
          "internalType": "address",
          "name": "to",
          "type": "address"
        },
        {
          "internalType": "uint256",
          "name": "amount",
          "type": "uint256"
        }
      ],
      "name": "mint",
      "outputs": [],
      "stateMutability": "nonpayable",
      "type": "function"
    },
    {
      "inputs": [],
      "name": "name",
      "outputs": [
        {
          "internalType": "string",
          "name": "",
          "type": "string"
        }
      ],
      "stateMutability": "view",
      "type": "function"
    },
    {
      "inputs": [
        {
          "internalType": "address",
          "name": "owner",
          "type": "address"
        }
      ],
      "name": "nonces",
      "outputs": [
        {
          "internalType": "uint256",
          "name": "",
          "type": "uint256"
        }
      ],
      "stateMutability": "view",
      "type": "function"
    },
    {
      "inputs": [],
      "name": "owner",
      "outputs": [
        {
          "internalType": "address",
          "name": "",
          "type": "address"
        }
      ],
      "stateMutability": "view",
      "type": "function"
    },
    {
      "inputs": [
        {
          "internalType": "address",
          "name": "owner",
          "type": "address"
        },
        {
          "internalType": "address",
          "name": "spender",
          "type": "address"
        },
        {
          "internalType": "uint256",
          "name": "value",
          "type": "uint256"
        },
        {
          "internalType": "uint256",
          "name": "deadline",
          "type": "uint256"
        },
        {
          "internalType": "uint8",
          "name": "v",
          "type": "uint8"
        },
        {
          "internalType": "bytes32",
          "name": "r",
          "type": "bytes32"
        },
        {
          "internalType": "bytes32",
          "name": "s",
          "type": "bytes32"
        }
      ],
      "name": "permit",
      "outputs": [],
      "stateMutability": "nonpayable",
      "type": "function"
    },
    {
      "inputs": [],
      "name": "renounceOwnership",
      "outputs": [],
      "stateMutability": "nonpayable",
      "type": "function"
    },
    {
      "inputs": [],
      "name": "symbol",
      "outputs": [
        {
          "internalType": "string",
          "name": "",
          "type": "string"
        }
      ],
      "stateMutability": "view",
      "type": "function"
    },
    {
      "inputs": [],
      "name": "totalSupply",
      "outputs": [
        {
          "internalType": "uint256",
          "name": "",
          "type": "uint256"
        }
      ],
      "stateMutability": "view",
      "type": "function"
    },
    {
      "inputs": [
        {
          "internalType": "address",
          "name": "to",
          "type": "address"
        },
        {
          "internalType": "uint256",
          "name": "amount",
          "type": "uint256"
        }
      ],
      "name": "transfer",
      "outputs": [
        {
          "internalType": "bool",
          "name": "",
          "type": "bool"
        }
      ],
      "stateMutability": "nonpayable",
      "type": "function"
    },
    {
      "inputs": [
        {
          "internalType": "address",
          "name": "from",
          "type": "address"
        },
        {
          "internalType": "address",
          "name": "to",
          "type": "address"
        },
        {
          "internalType": "uint256",
          "name": "amount",
          "type": "uint256"
        }
      ],
      "name": "transferFrom",
      "outputs": [
        {
          "internalType": "bool",
          "name": "",
          "type": "bool"
        }
      ],
      "stateMutability": "nonpayable",
      "type": "function"
    },
    {
      "inputs": [
        {
          "internalType": "address",
          "name": "newOwner",
          "type": "address"
        }
      ],
      "name": "transferOwnership",
      "outputs": [],
      "stateMutability": "nonpayable",
      "type": "function"
    }
  ],
  "bytecode": "0x6101606040523480156200001257600080fd5b506040518060400160405280600b81526020016a27232a2aa9a22a37b5b2b760a91b81525080604051806040016040528060018152602001603160f81b8152506040518060400160405280600b81526020016a27232a2aa9a22a37b5b2b760a91b815250604051806040016040528060068152602001651391951554d160d21b8152508160039080519060200190620000ad9291906200029f565b508051620000c39060049060208401906200029f565b505050620000e1600583620001aa60201b620008401790919060201c565b61012052620000fe816006620001aa602090811b6200084017901c565b61014052815160208084019190912060e052815190820120610100524660a0526200018c60e05161010051604080517f8b73c3c69bb8fe3d512ecc4cf759cc79239f7b179b0ffacaa9a75d522b39400f60208201529081019290925260608201524660808201523060a082015260009060c00160405160208183030381529060405280519060200120905090565b6080525050503060601b60c052620001a433620001fe565b620003fc565b6000602083511015620001ca57620001c28362000250565b9050620001f8565b82620001e1836200029c60201b620008771760201c565b8151620001f292602001906200029f565b5060ff90505b92915050565b600980546001600160a01b038381166001600160a01b0319831681179093556040519116919082907f8be0079c531659141344cd1fd0a4f28419497f9722a3daafe3b4186f6b6457e090600090a35050565b600080829050601f8151111562000287578260405163305a27a960e01b81526004016200027e919062000345565b60405180910390fd5b805162000294826200039d565b179392505050565b90565b828054620002ad90620003c5565b90600052602060002090601f016020900481019282620002d157600085556200031c565b82601f10620002ec57805160ff19168380011785556200031c565b828001600101855582156200031c579182015b828111156200031c578251825591602001919060010190620002ff565b506200032a9291506200032e565b5090565b5b808211156200032a57600081556001016200032f565b600060208083528351808285015260005b81811015620003745785810183015185820160400152820162000356565b8181111562000387576000604083870101525b50601f01601f1916929092016040019392505050565b80516020808301519190811015620003bf576000198160200360031b1b821691505b50919050565b600181811c90821680620003da57607f821691505b60208210811415620003bf57634e487b7160e01b600052602260045260246000fd5b60805160a05160c05160601c60e0516101005161012051610140516117146200045a60003960006104ef015260006104c401526000610c9601526000610c6e01526000610bc901526000610bf301526000610c1d01526117146000f3fe608060405234801561001057600080fd5b50600436106101375760003560e01c8063715018a6116100b85780639dc29fac1161007c5780639dc29fac14610276578063a457c2d714610289578063a9059cbb1461029c578063d505accf146102af578063dd62ed3e146102c2578063f2fde38b146102d557600080fd5b8063715018a61461021d5780637ecebe001461022557806384b0196e146102385780638da5cb5b1461025357806395d89b411461026e57600080fd5b80633644e515116100ff5780633644e515146101b157806339509351146101b9578063407431f7146101cc57806340c10f19146101e157806370a08231146101f457600080fd5b806306fdde031461013c578063095ea7b31461015a57806318160ddd1461017d57806323b872dd1461018f578063313ce567146101a2575b600080fd5b6101446102e8565b6040516101519190611456565b60405180910390f35b61016d61016836600461148c565b61037a565b6040519015158152602001610151565b6002545b604051908152602001610151565b61016d61019d3660046114b6565b610394565b60405160128152602001610151565b6101816103b8565b61016d6101c736600461148c565b6103c7565b6101df6101da3660046114f2565b6103e9565b005b6101df6101ef36600461148c565b610417565b6101816102023660046114f2565b6001600160a01b031660009081526020819052604090205490565b6101df610484565b6101816102333660046114f2565b610498565b6102406104b6565b604051610151979695949392919061150d565b6009546040516001600160a01b039091168152602001610151565b61014461053f565b6101df61028436600461148c565b61054e565b61016d61029736600461148c565b6105b2565b61016d6102aa36600461148c565b61062d565b6101df6102bd3660046115a3565b61063b565b6101816102d0366004611616565b61079f565b6101df6102e33660046114f2565b6107ca565b6060600380546102f790611649565b80601f016020809104026020016040519081016040528092919081815260200182805461032390611649565b80156103705780601f1061034557610100808354040283529160200191610370565b820191906000526020600020905b81548152906001019060200180831161035357829003601f168201915b5050505050905090565b60003361038881858561087a565b60019150505b92915050565b6000336103a285828561099e565b6103ad858585610a18565b506001949350505050565b60006103c2610bbc565b905090565b6000336103888185856103da838361079f565b6103e4919061167e565b61087a565b6103f1610ce7565b600a80546001600160a01b0319166001600160a01b038316179055610414610484565b50565b600a546001600160a01b031633146104765760405162461bcd60e51b815260206004820152601f60248201527f4f776e61626c653a2063616c6c6572206973206e6f742074686520706f6f6c0060448201526064015b60405180910390fd5b6104808282610d41565b5050565b61048c610ce7565b6104966000610d4b565b565b6001600160a01b03811660009081526007602052604081205461038e565b6000606080828080836104ea7f00000000000000000000000000000000000000000000000000000000000000006005610d9d565b6105157f00000000000000000000000000000000000000000000000000000000000000006006610d9d565b60408051600080825260208201909252600f60f81b9b939a50919850469750309650945092509050565b6060600480546102f790611649565b600a546001600160a01b031633146105a85760405162461bcd60e51b815260206004820152601f60248201527f4f776e61626c653a2063616c6c6572206973206e6f742074686520706f6f6c00604482015260640161046d565b6104808282610e41565b600033816105c0828661079f565b9050838110156106205760405162461bcd60e51b815260206004820152602560248201527f45524332303a2064656372656173656420616c6c6f77616e63652062656c6f77604482015264207a65726f60d81b606482015260840161046d565b6103ad828686840361087a565b600033610388818585610a18565b8342111561068b5760405162461bcd60e51b815260206004820152601d60248201527f45524332305065726d69743a206578706972656420646561646c696e65000000604482015260640161046d565b60007f6e71edae12b1b97f4d1f60370fef10105fa2faae0126114a169c64845d6126c98888886106ba8c610e4b565b6040805160208101969096526001600160a01b0394851690860152929091166060840152608083015260a082015260c0810186905260e001604051602081830303815290604052805190602001209050600061071582610e73565b9050600061072582878787610ea0565b9050896001600160a01b0316816001600160a01b0316146107885760405162461bcd60e51b815260206004820152601e60248201527f45524332305065726d69743a20696e76616c6964207369676e61747572650000604482015260640161046d565b6107938a8a8a61087a565b50505050505050505050565b6001600160a01b03918216600090815260016020908152604080832093909416825291909152205490565b6107d2610ce7565b6001600160a01b0381166108375760405162461bcd60e51b815260206004820152602660248201527f4f776e61626c653a206e6577206f776e657220697320746865207a65726f206160448201526564647265737360d01b606482015260840161046d565b61041481610d4b565b600060208351101561085c5761085583610ec8565b905061038e565b8282815161086d9260200190611370565b5060ff905061038e565b90565b6001600160a01b0383166108dc5760405162461bcd60e51b8152602060048201526024808201527f45524332303a20617070726f76652066726f6d20746865207a65726f206164646044820152637265737360e01b606482015260840161046d565b6001600160a01b03821661093d5760405162461bcd60e51b815260206004820152602260248201527f45524332303a20617070726f766520746f20746865207a65726f206164647265604482015261737360f01b606482015260840161046d565b6001600160a01b0383811660008181526001602090815260408083209487168084529482529182902085905590518481527f8c5be1e5ebec7d5bd14f71427d1e84f3dd0314c0f7b2291e5b200ac8c7c3b925910160405180910390a3505050565b60006109aa848461079f565b90506000198114610a125781811015610a055760405162461bcd60e51b815260206004820152601d60248201527f45524332303a20696e73756666696369656e7420616c6c6f77616e6365000000604482015260640161046d565b610a12848484840361087a565b50505050565b6001600160a01b038316610a7c5760405162461bcd60e51b815260206004820152602560248201527f45524332303a207472616e736665722066726f6d20746865207a65726f206164604482015264647265737360d81b606482015260840161046d565b6001600160a01b038216610ade5760405162461bcd60e51b815260206004820152602360248201527f45524332303a207472616e7366657220746f20746865207a65726f206164647260448201526265737360e81b606482015260840161046d565b6001600160a01b03831660009081526020819052604090205481811015610b565760405162461bcd60e51b815260206004820152602660248201527f45524332303a207472616e7366657220616d6f756e7420657863656564732062604482015265616c616e636560d01b606482015260840161046d565b6001600160a01b03848116600081815260208181526040808320878703905593871680835291849020805487019055925185815290927fddf252ad1be2c89b69c2b068fc378daa952ba7f163c4a11628f55a4df523b3ef910160405180910390a3610a12565b6000306001600160a01b037f000000000000000000000000000000000000000000000000000000000000000016148015610c1557507f000000000000000000000000000000000000000000000000000000000000000046145b15610c3f57507f000000000000000000000000000000000000000000000000000000000000000090565b6103c2604080517f8b73c3c69bb8fe3d512ecc4cf759cc79239f7b179b0ffacaa9a75d522b39400f60208201527f0000000000000000000000000000000000000000000000000000000000000000918101919091527f000000000000000000000000000000000000000000000000000000000000000060608201524660808201523060a082015260009060c00160405160208183030381529060405280519060200120905090565b6009546001600160a01b031633146104965760405162461bcd60e51b815260206004820181905260248201527f4f776e61626c653a2063616c6c6572206973206e6f7420746865206f776e6572604482015260640161046d565b6104808282610f06565b600980546001600160a01b038381166001600160a01b0319831681179093556040519116919082907f8be0079c531659141344cd1fd0a4f28419497f9722a3daafe3b4186f6b6457e090600090a35050565b606060ff8314610db05761085583610fc5565b818054610dbc90611649565b80601f0160208091040260200160405190810160405280929190818152602001828054610de890611649565b8015610e355780601f10610e0a57610100808354040283529160200191610e35565b820191906000526020600020905b815481529060010190602001808311610e1857829003601f168201915b5050505050905061038e565b6104808282611004565b6001600160a01b03811660009081526007602052604090208054600181018255905b50919050565b600061038e610e80610bbc565b8360405161190160f01b8152600281019290925260228201526042902090565b6000806000610eb187878787611136565b91509150610ebe816111fa565b5095945050505050565b600080829050601f81511115610ef3578260405163305a27a960e01b815260040161046d9190611456565b8051610efe826116a4565b179392505050565b6001600160a01b038216610f5c5760405162461bcd60e51b815260206004820152601f60248201527f45524332303a206d696e7420746f20746865207a65726f206164647265737300604482015260640161046d565b8060026000828254610f6e919061167e565b90915550506001600160a01b038216600081815260208181526040808320805486019055518481527fddf252ad1be2c89b69c2b068fc378daa952ba7f163c4a11628f55a4df523b3ef910160405180910390a35050565b60606000610fd283611348565b604080516020808252818301909252919250600091906020820181803683375050509182525060208101929092525090565b6001600160a01b0382166110645760405162461bcd60e51b815260206004820152602160248201527f45524332303a206275726e2066726f6d20746865207a65726f206164647265736044820152607360f81b606482015260840161046d565b6001600160a01b038216600090815260208190526040902054818110156110d85760405162461bcd60e51b815260206004820152602260248201527f45524332303a206275726e20616d6f756e7420657863656564732062616c616e604482015261636560f01b606482015260840161046d565b6001600160a01b0383166000818152602081815260408083208686039055600280548790039055518581529192917fddf252ad1be2c89b69c2b068fc378daa952ba7f163c4a11628f55a4df523b3ef910160405180910390a3505050565b6000807f7fffffffffffffffffffffffffffffff5d576e7357a4501ddfe92f46681b20a083111561116d57506000905060036111f1565b6040805160008082526020820180845289905260ff881692820192909252606081018690526080810185905260019060a0016020604051602081039080840390855afa1580156111c1573d6000803e3d6000fd5b5050604051601f1901519150506001600160a01b0381166111ea576000600192509250506111f1565b9150600090505b94509492505050565b600081600481111561120e5761120e6116c8565b14156112175750565b600181600481111561122b5761122b6116c8565b14156112795760405162461bcd60e51b815260206004820152601860248201527f45434453413a20696e76616c6964207369676e61747572650000000000000000604482015260640161046d565b600281600481111561128d5761128d6116c8565b14156112db5760405162461bcd60e51b815260206004820152601f60248201527f45434453413a20696e76616c6964207369676e6174757265206c656e67746800604482015260640161046d565b60038160048111156112ef576112ef6116c8565b14156104145760405162461bcd60e51b815260206004820152602260248201527f45434453413a20696e76616c6964207369676e6174757265202773272076616c604482015261756560f01b606482015260840161046d565b600060ff8216601f81111561038e57604051632cd44ac360e21b815260040160405180910390fd5b82805461137c90611649565b90600052602060002090601f01602090048101928261139e57600085556113e4565b82601f106113b757805160ff19168380011785556113e4565b828001600101855582156113e4579182015b828111156113e45782518255916020019190600101906113c9565b506113f09291506113f4565b5090565b5b808211156113f057600081556001016113f5565b6000815180845260005b8181101561142f57602081850181015186830182015201611413565b81811115611441576000602083870101525b50601f01601f19169290920160200192915050565b6020815260006114696020830184611409565b9392505050565b80356001600160a01b038116811461148757600080fd5b919050565b6000806040838503121561149f57600080fd5b6114a883611470565b946020939093013593505050565b6000806000606084860312156114cb57600080fd5b6114d484611470565b92506114e260208501611470565b9150604084013590509250925092565b60006020828403121561150457600080fd5b61146982611470565b60ff60f81b881681526000602060e08184015261152d60e084018a611409565b838103604085015261153f818a611409565b606085018990526001600160a01b038816608086015260a0850187905284810360c0860152855180825283870192509083019060005b8181101561159157835183529284019291840191600101611575565b50909c9b505050505050505050505050565b600080600080600080600060e0888a0312156115be57600080fd5b6115c788611470565b96506115d560208901611470565b95506040880135945060608801359350608088013560ff811681146115f957600080fd5b9699959850939692959460a0840135945060c09093013592915050565b6000806040838503121561162957600080fd5b61163283611470565b915061164060208401611470565b90509250929050565b600181811c9082168061165d57607f821691505b60208210811415610e6d57634e487b7160e01b600052602260045260246000fd5b6000821982111561169f57634e487b7160e01b600052601160045260246000fd5b500190565b80516020808301519190811015610e6d5760001960209190910360031b1b16919050565b634e487b7160e01b600052602160045260246000fdfea2646970667358221220a07d7b357996cbadecad1e9d2098f83f3f54b2f4496b8028a490e312dfd3aff564736f6c63430008080033",
  "linkReferences": {},
  "deployedLinkReferences": {}
}