{
  "_format": "hh-sol-artifact-1",
  "contractName": "NFTUSDToken",
  "sourceName": "contracts/NFTUSDToken.sol",
  "abi": [
    {
      "inputs": [],
      "stateMutability": "nonpayable",
      "type": "constructor"
    },
    {
      "inputs": [],
      "name": "InvalidShortString",
      "type": "error"
    },
    {
      "inputs": [
        {
          "internalType": "string",
          "name": "str",
          "type": "string"
        }
      ],
      "name": "StringTooLong",
      "type": "error"
    },
    {
      "anonymous": false,
      "inputs": [
        {
          "indexed": true,
          "internalType": "address",
          "name": "owner",
          "type": "address"
        },
        {
          "indexed": true,
          "internalType": "address",
          "name": "spender",
          "type": "address"
        },
        {
          "indexed": false,
          "internalType": "uint256",
          "name": "value",
          "type": "uint256"
        }
      ],
      "name": "Approval",
      "type": "event"
    },
    {
      "anonymous": false,
      "inputs": [
        {
          "indexed": true,
          "internalType": "address",
          "name": "from",
          "type": "address"
        },
        {
          "indexed": true,
          "internalType": "address",
          "name": "to",
          "type": "address"
        },
        {
          "indexed": false,
          "internalType": "uint256",
          "name": "value",
          "type": "uint256"
        }
      ],
      "name": "BalanceTransfer",
      "type": "event"
    },
    {
      "anonymous": false,
      "inputs": [
        {
          "indexed": true,
          "internalType": "address",
          "name": "from",
          "type": "address"
        },
        {
          "indexed": false,
          "internalType": "uint256",
          "name": "value",
          "type": "uint256"
        }
      ],
      "name": "Burn",
      "type": "event"
    },
    {
      "anonymous": false,
      "inputs": [],
      "name": "EIP712DomainChanged",
      "type": "event"
    },
    {
      "anonymous": false,
      "inputs": [
        {
          "indexed": true,
          "internalType": "address",
          "name": "from",
          "type": "address"
        },
        {
          "indexed": false,
          "internalType": "uint256",
          "name": "value",
          "type": "uint256"
        }
      ],
      "name": "Mint",
      "type": "event"
    },
    {
      "anonymous": false,
      "inputs": [
        {
          "indexed": true,
          "internalType": "address",
          "name": "previousOwner",
          "type": "address"
        },
        {
          "indexed": true,
          "internalType": "address",
          "name": "newOwner",
          "type": "address"
        }
      ],
      "name": "OwnershipTransferred",
      "type": "event"
    },
    {
      "anonymous": false,
      "inputs": [
        {
          "indexed": true,
          "internalType": "address",
          "name": "from",
          "type": "address"
        },
        {
          "indexed": true,
          "internalType": "address",
          "name": "to",
          "type": "address"
        },
        {
          "indexed": false,
          "internalType": "uint256",
          "name": "value",
          "type": "uint256"
        }
      ],
      "name": "Transfer",
      "type": "event"
    },
    {
      "inputs": [],
      "name": "DOMAIN_SEPARATOR",
      "outputs": [
        {
          "internalType": "bytes32",
          "name": "",
          "type": "bytes32"
        }
      ],
      "stateMutability": "view",
      "type": "function"
    },
    {
      "inputs": [
        {
          "internalType": "address",
          "name": "owner",
          "type": "address"
        },
        {
          "internalType": "address",
          "name": "spender",
          "type": "address"
        }
      ],
      "name": "allowance",
      "outputs": [
        {
          "internalType": "uint256",
          "name": "",
          "type": "uint256"
        }
      ],
      "stateMutability": "view",
      "type": "function"
    },
    {
      "inputs": [
        {
          "internalType": "address",
          "name": "spender",
          "type": "address"
        },
        {
          "internalType": "uint256",
          "name": "amount",
          "type": "uint256"
        }
      ],
      "name": "approve",
      "outputs": [
        {
          "internalType": "bool",
          "name": "",
          "type": "bool"
        }
      ],
      "stateMutability": "nonpayable",
      "type": "function"
    },
    {
      "inputs": [
        {
          "internalType": "address",
          "name": "account",
          "type": "address"
        }
      ],
      "name": "balanceOf",
      "outputs": [
        {
          "internalType": "uint256",
          "name": "",
          "type": "uint256"
        }
      ],
      "stateMutability": "view",
      "type": "function"
    },
    {
      "inputs": [
        {
          "internalType": "address",
          "name": "user",
          "type": "address"
        },
        {
          "internalType": "uint256",
          "name": "amount",
          "type": "uint256"
        }
      ],
      "name": "burn",
      "outputs": [],
      "stateMutability": "nonpayable",
      "type": "function"
    },
    {
      "inputs": [],
      "name": "decimals",
      "outputs": [
        {
          "internalType": "uint8",
          "name": "",
          "type": "uint8"
        }
      ],
      "stateMutability": "view",
      "type": "function"
    },
    {
      "inputs": [
        {
          "internalType": "address",
          "name": "spender",
          "type": "address"
        },
        {
          "internalType": "uint256",
          "name": "subtractedValue",
          "type": "uint256"
        }
      ],
      "name": "decreaseAllowance",
      "outputs": [
        {
          "internalType": "bool",
          "name": "",
          "type": "bool"
        }
      ],
      "stateMutability": "nonpayable",
      "type": "function"
    },
    {
      "inputs": [],
      "name": "eip712Domain",
      "outputs": [
        {
          "internalType": "bytes1",
          "name": "fields",
          "type": "bytes1"
        },
        {
          "internalType": "string",
          "name": "name",
          "type": "string"
        },
        {
          "internalType": "string",
          "name": "version",
          "type": "string"
        },
        {
          "internalType": "uint256",
          "name": "chainId",
          "type": "uint256"
        },
        {
          "internalType": "address",
          "name": "verifyingContract",
          "type": "address"
        },
        {
          "internalType": "bytes32",
          "name": "salt",
          "type": "bytes32"
        },
        {
          "internalType": "uint256[]",
          "name": "extensions",
          "type": "uint256[]"
        }
      ],
      "stateMutability": "view",
      "type": "function"
    },
    {
      "inputs": [
        {
          "internalType": "address",
          "name": "spender",
          "type": "address"
        },
        {
          "internalType": "uint256",
          "name": "addedValue",
          "type": "uint256"
        }
      ],
      "name": "increaseAllowance",
      "outputs": [
        {
          "internalType": "bool",
          "name": "",
          "type": "bool"
        }
      ],
      "stateMutability": "nonpayable",
      "type": "function"
    },
    {
      "inputs": [
        {
          "internalType": "address",
          "name": "pool",
          "type": "address"
        }
      ],
      "name": "initializePool",
      "outputs": [],
      "stateMutability": "nonpayable",
      "type": "function"
    },
    {
      "inputs": [
        {
          "internalType": "address",
          "name": "user",
          "type": "address"
        },
        {
          "internalType": "uint256",
          "name": "amount",
          "type": "uint256"
        }
      ],
      "name": "mint",
      "outputs": [],
      "stateMutability": "nonpayable",
      "type": "function"
    },
    {
      "inputs": [],
      "name": "name",
      "outputs": [
        {
          "internalType": "string",
          "name": "",
          "type": "string"
        }
      ],
      "stateMutability": "view",
      "type": "function"
    },
    {
      "inputs": [
        {
          "internalType": "address",
          "name": "owner",
          "type": "address"
        }
      ],
      "name": "nonces",
      "outputs": [
        {
          "internalType": "uint256",
          "name": "",
          "type": "uint256"
        }
      ],
      "stateMutability": "view",
      "type": "function"
    },
    {
      "inputs": [],
      "name": "owner",
      "outputs": [
        {
          "internalType": "address",
          "name": "",
          "type": "address"
        }
      ],
      "stateMutability": "view",
      "type": "function"
    },
    {
      "inputs": [
        {
          "internalType": "address",
          "name": "owner",
          "type": "address"
        },
        {
          "internalType": "address",
          "name": "spender",
          "type": "address"
        },
        {
          "internalType": "uint256",
          "name": "value",
          "type": "uint256"
        },
        {
          "internalType": "uint256",
          "name": "deadline",
          "type": "uint256"
        },
        {
          "internalType": "uint8",
          "name": "v",
          "type": "uint8"
        },
        {
          "internalType": "bytes32",
          "name": "r",
          "type": "bytes32"
        },
        {
          "internalType": "bytes32",
          "name": "s",
          "type": "bytes32"
        }
      ],
      "name": "permit",
      "outputs": [],
      "stateMutability": "nonpayable",
      "type": "function"
    },
    {
      "inputs": [
        {
          "internalType": "address",
          "name": "_sender",
          "type": "address"
        },
        {
          "internalType": "address",
          "name": "_receiver",
          "type": "address"
        },
        {
          "internalType": "uint256",
          "name": "_amount",
          "type": "uint256"
        }
      ],
      "name": "redeemedTransfer",
      "outputs": [],
      "stateMutability": "nonpayable",
      "type": "function"
    },
    {
      "inputs": [],
      "name": "renounceOwnership",
      "outputs": [],
      "stateMutability": "nonpayable",
      "type": "function"
    },
    {
      "inputs": [
        {
          "internalType": "address",
          "name": "_poolAddress",
          "type": "address"
        },
        {
          "internalType": "address",
          "name": "_receiver",
          "type": "address"
        },
        {
          "internalType": "uint256",
          "name": "_amount",
          "type": "uint256"
        }
      ],
      "name": "returnFromPool",
      "outputs": [],
      "stateMutability": "nonpayable",
      "type": "function"
    },
    {
      "inputs": [
        {
          "internalType": "address",
          "name": "_sender",
          "type": "address"
        },
        {
          "internalType": "address",
          "name": "_poolAddress",
          "type": "address"
        },
        {
          "internalType": "uint256",
          "name": "_amount",
          "type": "uint256"
        }
      ],
      "name": "sendToPool",
      "outputs": [],
      "stateMutability": "nonpayable",
      "type": "function"
    },
    {
      "inputs": [],
      "name": "symbol",
      "outputs": [
        {
          "internalType": "string",
          "name": "",
          "type": "string"
        }
      ],
      "stateMutability": "view",
      "type": "function"
    },
    {
      "inputs": [],
      "name": "totalSupply",
      "outputs": [
        {
          "internalType": "uint256",
          "name": "",
          "type": "uint256"
        }
      ],
      "stateMutability": "view",
      "type": "function"
    },
    {
      "inputs": [
        {
          "internalType": "address",
          "name": "to",
          "type": "address"
        },
        {
          "internalType": "uint256",
          "name": "amount",
          "type": "uint256"
        }
      ],
      "name": "transfer",
      "outputs": [
        {
          "internalType": "bool",
          "name": "",
          "type": "bool"
        }
      ],
      "stateMutability": "nonpayable",
      "type": "function"
    },
    {
      "inputs": [
        {
          "internalType": "address",
          "name": "from",
          "type": "address"
        },
        {
          "internalType": "address",
          "name": "to",
          "type": "address"
        },
        {
          "internalType": "uint256",
          "name": "amount",
          "type": "uint256"
        }
      ],
      "name": "transferFrom",
      "outputs": [
        {
          "internalType": "bool",
          "name": "",
          "type": "bool"
        }
      ],
      "stateMutability": "nonpayable",
      "type": "function"
    },
    {
      "inputs": [
        {
          "internalType": "address",
          "name": "newOwner",
          "type": "address"
        }
      ],
      "name": "transferOwnership",
      "outputs": [],
      "stateMutability": "nonpayable",
      "type": "function"
    }
  ],
  "bytecode": "0x6101606040523480156200001257600080fd5b506040518060400160405280600b81526020016a27232a2aa9a22a37b5b2b760a91b81525080604051806040016040528060018152602001603160f81b8152506040518060400160405280600b81526020016a27232a2aa9a22a37b5b2b760a91b815250604051806040016040528060068152602001651391951554d160d21b8152508160039080519060200190620000ad9291906200029f565b508051620000c39060049060208401906200029f565b505050620000e1600583620001aa60201b620008d01790919060201c565b61012052620000fe816006620001aa602090811b620008d017901c565b61014052815160208084019190912060e052815190820120610100524660a0526200018c60e05161010051604080517f8b73c3c69bb8fe3d512ecc4cf759cc79239f7b179b0ffacaa9a75d522b39400f60208201529081019290925260608201524660808201523060a082015260009060c00160405160208183030381529060405280519060200120905090565b6080525050503060601b60c052620001a433620001fe565b620003fc565b6000602083511015620001ca57620001c28362000250565b9050620001f8565b82620001e1836200029c60201b620009071760201c565b8151620001f292602001906200029f565b5060ff90505b92915050565b600980546001600160a01b038381166001600160a01b0319831681179093556040519116919082907f8be0079c531659141344cd1fd0a4f28419497f9722a3daafe3b4186f6b6457e090600090a35050565b600080829050601f8151111562000287578260405163305a27a960e01b81526004016200027e919062000345565b60405180910390fd5b805162000294826200039d565b179392505050565b90565b828054620002ad90620003c5565b90600052602060002090601f016020900481019282620002d157600085556200031c565b82601f10620002ec57805160ff19168380011785556200031c565b828001600101855582156200031c579182015b828111156200031c578251825591602001919060010190620002ff565b506200032a9291506200032e565b5090565b5b808211156200032a57600081556001016200032f565b600060208083528351808285015260005b81811015620003745785810183015185820160400152820162000356565b8181111562000387576000604083870101525b50601f01601f1916929092016040019392505050565b80516020808301519190811015620003bf576000198160200360031b1b821691505b50919050565b600181811c90821680620003da57607f821691505b60208210811415620003bf57634e487b7160e01b600052602260045260246000fd5b60805160a05160c05160601c60e05161010051610120516101405161183a6200045a60003960006105740152600061054901526000610d2d01526000610d0501526000610c6001526000610c8a01526000610cb4015261183a6000f3fe608060405234801561001057600080fd5b50600436106101585760003560e01c8063715018a6116100c3578063a457c2d71161007c578063a457c2d7146102bd578063a9059cbb146102d0578063bb997bac1461019e578063d505accf146102e3578063dd62ed3e146102f6578063f2fde38b1461030957600080fd5b8063715018a6146102515780637ecebe001461025957806384b0196e1461026c5780638da5cb5b1461028757806395d89b41146102a25780639dc29fac146102aa57600080fd5b8063313ce56711610115578063313ce567146101d85780633644e515146101e757806339509351146101ef578063407431f71461020257806340c10f191461021557806370a082311461022857600080fd5b806306fdde031461015d578063095ea7b31461017b5780631299bfa81461019e57806318160ddd146101b357806320c582be1461019e57806323b872dd146101c5575b600080fd5b61016561031c565b6040516101729190611545565b60405180910390f35b61018e61018936600461157b565b6103ae565b6040519015158152602001610172565b6101b16101ac3660046115a5565b6103c8565b005b6002545b604051908152602001610172565b61018e6101d33660046115a5565b61040b565b60405160128152602001610172565b6101b761042f565b61018e6101fd36600461157b565b61043e565b6101b16102103660046115e1565b610460565b6101b161022336600461157b565b61048e565b6101b76102363660046115e1565b6001600160a01b031660009081526020819052604090205490565b6101b1610509565b6101b76102673660046115e1565b61051d565b61027461053b565b60405161017297969594939291906115fc565b6009546040516001600160a01b039091168152602001610172565b6101656105c4565b6101b16102b836600461157b565b6105d3565b61018e6102cb36600461157b565b610642565b61018e6102de36600461157b565b6106bd565b6101b16102f1366004611692565b6106cb565b6101b7610304366004611705565b61082f565b6101b16103173660046115e1565b61085a565b60606003805461032b90611738565b80601f016020809104026020016040519081016040528092919081815260200182805461035790611738565b80156103a45780601f10610379576101008083540402835291602001916103a4565b820191906000526020600020905b81548152906001019060200180831161038757829003601f168201915b5050505050905090565b6000336103bc81858561090a565b60019150505b92915050565b600a546001600160a01b031633146103fb5760405162461bcd60e51b81526004016103f29061176d565b60405180910390fd5b610406838383610a2f565b505050565b600033610419858285610bdf565b610424858585610a2f565b506001949350505050565b6000610439610c53565b905090565b6000336103bc818585610451838361082f565b61045b91906117a4565b61090a565b610468610d7e565b600a80546001600160a01b0319166001600160a01b03831617905561048b610509565b50565b600a546001600160a01b031633146104b85760405162461bcd60e51b81526004016103f29061176d565b6104c28282610dd8565b816001600160a01b03167f0f6798a560793a54c3bcfe86a93cde1e73087d944c0ea20544137d4121396885826040516104fd91815260200190565b60405180910390a25050565b610511610d7e565b61051b6000610de6565b565b6001600160a01b0381166000908152600760205260408120546103c2565b60006060808280808361056f7f00000000000000000000000000000000000000000000000000000000000000006005610e38565b61059a7f00000000000000000000000000000000000000000000000000000000000000006006610e38565b60408051600080825260208201909252600f60f81b9b939a50919850469750309650945092509050565b60606004805461032b90611738565b600a546001600160a01b031633146105fd5760405162461bcd60e51b81526004016103f29061176d565b6106078282610edc565b816001600160a01b03167fcc16f5dbb4873280815c1ee09dbd06736cffcc184412cf7a71a0fdb75d397ca5826040516104fd91815260200190565b60003381610650828661082f565b9050838110156106b05760405162461bcd60e51b815260206004820152602560248201527f45524332303a2064656372656173656420616c6c6f77616e63652062656c6f77604482015264207a65726f60d81b60648201526084016103f2565b610424828686840361090a565b6000336103bc818585610a2f565b8342111561071b5760405162461bcd60e51b815260206004820152601d60248201527f45524332305065726d69743a206578706972656420646561646c696e6500000060448201526064016103f2565b60007f6e71edae12b1b97f4d1f60370fef10105fa2faae0126114a169c64845d6126c988888861074a8c610ee6565b6040805160208101969096526001600160a01b0394851690860152929091166060840152608083015260a082015260c0810186905260e00160405160208183030381529060405280519060200120905060006107a582610f0e565b905060006107b582878787610f3b565b9050896001600160a01b0316816001600160a01b0316146108185760405162461bcd60e51b815260206004820152601e60248201527f45524332305065726d69743a20696e76616c6964207369676e6174757265000060448201526064016103f2565b6108238a8a8a61090a565b50505050505050505050565b6001600160a01b03918216600090815260016020908152604080832093909416825291909152205490565b610862610d7e565b6001600160a01b0381166108c75760405162461bcd60e51b815260206004820152602660248201527f4f776e61626c653a206e6577206f776e657220697320746865207a65726f206160448201526564647265737360d01b60648201526084016103f2565b61048b81610de6565b60006020835110156108ec576108e583610f63565b90506103c2565b828281516108fd926020019061145f565b5060ff90506103c2565b90565b6001600160a01b03831661096c5760405162461bcd60e51b8152602060048201526024808201527f45524332303a20617070726f76652066726f6d20746865207a65726f206164646044820152637265737360e01b60648201526084016103f2565b6001600160a01b0382166109cd5760405162461bcd60e51b815260206004820152602260248201527f45524332303a20617070726f766520746f20746865207a65726f206164647265604482015261737360f01b60648201526084016103f2565b6001600160a01b0383811660008181526001602090815260408083209487168084529482529182902085905590518481527f8c5be1e5ebec7d5bd14f71427d1e84f3dd0314c0f7b2291e5b200ac8c7c3b92591015b60405180910390a3505050565b6001600160a01b038316610a935760405162461bcd60e51b815260206004820152602560248201527f45524332303a207472616e736665722066726f6d20746865207a65726f206164604482015264647265737360d81b60648201526084016103f2565b6001600160a01b038216610af55760405162461bcd60e51b815260206004820152602360248201527f45524332303a207472616e7366657220746f20746865207a65726f206164647260448201526265737360e81b60648201526084016103f2565b6001600160a01b03831660009081526020819052604090205481811015610b6d5760405162461bcd60e51b815260206004820152602660248201527f45524332303a207472616e7366657220616d6f756e7420657863656564732062604482015265616c616e636560d01b60648201526084016103f2565b6001600160a01b03848116600081815260208181526040808320878703905593871680835291849020805487019055925185815290927fddf252ad1be2c89b69c2b068fc378daa952ba7f163c4a11628f55a4df523b3ef910160405180910390a3610bd9848484610fa1565b50505050565b6000610beb848461082f565b90506000198114610bd95781811015610c465760405162461bcd60e51b815260206004820152601d60248201527f45524332303a20696e73756666696369656e7420616c6c6f77616e636500000060448201526064016103f2565b610bd9848484840361090a565b6000306001600160a01b037f000000000000000000000000000000000000000000000000000000000000000016148015610cac57507f000000000000000000000000000000000000000000000000000000000000000046145b15610cd657507f000000000000000000000000000000000000000000000000000000000000000090565b610439604080517f8b73c3c69bb8fe3d512ecc4cf759cc79239f7b179b0ffacaa9a75d522b39400f60208201527f0000000000000000000000000000000000000000000000000000000000000000918101919091527f000000000000000000000000000000000000000000000000000000000000000060608201524660808201523060a082015260009060c00160405160208183030381529060405280519060200120905090565b6009546001600160a01b0316331461051b5760405162461bcd60e51b815260206004820181905260248201527f4f776e61626c653a2063616c6c6572206973206e6f7420746865206f776e657260448201526064016103f2565b610de28282610fe6565b5050565b600980546001600160a01b038381166001600160a01b0319831681179093556040519116919082907f8be0079c531659141344cd1fd0a4f28419497f9722a3daafe3b4186f6b6457e090600090a35050565b606060ff8314610e4b576108e5836110ad565b818054610e5790611738565b80601f0160208091040260200160405190810160405280929190818152602001828054610e8390611738565b8015610ed05780601f10610ea557610100808354040283529160200191610ed0565b820191906000526020600020905b815481529060010190602001808311610eb357829003601f168201915b505050505090506103c2565b610de282826110ec565b6001600160a01b03811660009081526007602052604090208054600181018255905b50919050565b60006103c2610f1b610c53565b8360405161190160f01b8152600281019290925260228201526042902090565b6000806000610f4c87878787611225565b91509150610f59816112e9565b5095945050505050565b600080829050601f81511115610f8e578260405163305a27a960e01b81526004016103f29190611545565b8051610f99826117ca565b179392505050565b816001600160a01b0316836001600160a01b03167f7960cca2f662d25b1ac177cf65f1cdf087f4b9d25e1a7f8f06a5e5570e80a8d583604051610a2291815260200190565b6001600160a01b03821661103c5760405162461bcd60e51b815260206004820152601f60248201527f45524332303a206d696e7420746f20746865207a65726f20616464726573730060448201526064016103f2565b806002600082825461104e91906117a4565b90915550506001600160a01b038216600081815260208181526040808320805486019055518481527fddf252ad1be2c89b69c2b068fc378daa952ba7f163c4a11628f55a4df523b3ef910160405180910390a3610de260008383610fa1565b606060006110ba83611437565b604080516020808252818301909252919250600091906020820181803683375050509182525060208101929092525090565b6001600160a01b03821661114c5760405162461bcd60e51b815260206004820152602160248201527f45524332303a206275726e2066726f6d20746865207a65726f206164647265736044820152607360f81b60648201526084016103f2565b6001600160a01b038216600090815260208190526040902054818110156111c05760405162461bcd60e51b815260206004820152602260248201527f45524332303a206275726e20616d6f756e7420657863656564732062616c616e604482015261636560f01b60648201526084016103f2565b6001600160a01b0383166000818152602081815260408083208686039055600280548790039055518581529192917fddf252ad1be2c89b69c2b068fc378daa952ba7f163c4a11628f55a4df523b3ef910160405180910390a361040683600084610fa1565b6000807f7fffffffffffffffffffffffffffffff5d576e7357a4501ddfe92f46681b20a083111561125c57506000905060036112e0565b6040805160008082526020820180845289905260ff881692820192909252606081018690526080810185905260019060a0016020604051602081039080840390855afa1580156112b0573d6000803e3d6000fd5b5050604051601f1901519150506001600160a01b0381166112d9576000600192509250506112e0565b9150600090505b94509492505050565b60008160048111156112fd576112fd6117ee565b14156113065750565b600181600481111561131a5761131a6117ee565b14156113685760405162461bcd60e51b815260206004820152601860248201527f45434453413a20696e76616c6964207369676e6174757265000000000000000060448201526064016103f2565b600281600481111561137c5761137c6117ee565b14156113ca5760405162461bcd60e51b815260206004820152601f60248201527f45434453413a20696e76616c6964207369676e6174757265206c656e6774680060448201526064016103f2565b60038160048111156113de576113de6117ee565b141561048b5760405162461bcd60e51b815260206004820152602260248201527f45434453413a20696e76616c6964207369676e6174757265202773272076616c604482015261756560f01b60648201526084016103f2565b600060ff8216601f8111156103c257604051632cd44ac360e21b815260040160405180910390fd5b82805461146b90611738565b90600052602060002090601f01602090048101928261148d57600085556114d3565b82601f106114a657805160ff19168380011785556114d3565b828001600101855582156114d3579182015b828111156114d35782518255916020019190600101906114b8565b506114df9291506114e3565b5090565b5b808211156114df57600081556001016114e4565b6000815180845260005b8181101561151e57602081850181015186830182015201611502565b81811115611530576000602083870101525b50601f01601f19169290920160200192915050565b60208152600061155860208301846114f8565b9392505050565b80356001600160a01b038116811461157657600080fd5b919050565b6000806040838503121561158e57600080fd5b6115978361155f565b946020939093013593505050565b6000806000606084860312156115ba57600080fd5b6115c38461155f565b92506115d16020850161155f565b9150604084013590509250925092565b6000602082840312156115f357600080fd5b6115588261155f565b60ff60f81b881681526000602060e08184015261161c60e084018a6114f8565b838103604085015261162e818a6114f8565b606085018990526001600160a01b038816608086015260a0850187905284810360c0860152855180825283870192509083019060005b8181101561168057835183529284019291840191600101611664565b50909c9b505050505050505050505050565b600080600080600080600060e0888a0312156116ad57600080fd5b6116b68861155f565b96506116c46020890161155f565b95506040880135945060608801359350608088013560ff811681146116e857600080fd5b9699959850939692959460a0840135945060c09093013592915050565b6000806040838503121561171857600080fd5b6117218361155f565b915061172f6020840161155f565b90509250929050565b600181811c9082168061174c57607f821691505b60208210811415610f0857634e487b7160e01b600052602260045260246000fd5b6020808252601f908201527f4f776e61626c653a2063616c6c6572206973206e6f742074686520706f6f6c00604082015260600190565b600082198211156117c557634e487b7160e01b600052601160045260246000fd5b500190565b80516020808301519190811015610f085760001960209190910360031b1b16919050565b634e487b7160e01b600052602160045260246000fdfea2646970667358221220396a9699474463a1005955801b5d0487e7d73c444b7a59e7d27067bd8b589e6164736f6c63430008080033",
  "linkReferences": {},
  "deployedLinkReferences": {}
}