{
  "_format": "hh-sol-artifact-1",
  "contractName": "StabilityPool",
  "sourceName": "contracts/SbabilityPool.sol",
  "abi": [
    {
      "anonymous": false,
      "inputs": [
        {
          "indexed": false,
          "internalType": "uint8",
          "name": "version",
          "type": "uint8"
        }
      ],
      "name": "Initialized",
      "type": "event"
    },
    {
      "anonymous": false,
      "inputs": [
        {
          "indexed": true,
          "internalType": "address",
          "name": "previousOwner",
          "type": "address"
        },
        {
          "indexed": true,
          "internalType": "address",
          "name": "newOwner",
          "type": "address"
        }
      ],
      "name": "OwnershipTransferred",
      "type": "event"
    },
    {
      "anonymous": false,
      "inputs": [
        {
          "indexed": false,
          "internalType": "address",
          "name": "token",
          "type": "address"
        },
        {
          "indexed": false,
          "internalType": "uint256",
          "name": "amount",
          "type": "uint256"
        }
      ],
      "name": "Recovered",
      "type": "event"
    },
    {
      "anonymous": false,
      "inputs": [
        {
          "indexed": false,
          "internalType": "uint256",
          "name": "reward",
          "type": "uint256"
        }
      ],
      "name": "RewardAdded",
      "type": "event"
    },
    {
      "anonymous": false,
      "inputs": [
        {
          "indexed": true,
          "internalType": "address",
          "name": "user",
          "type": "address"
        },
        {
          "indexed": true,
          "internalType": "address",
          "name": "rewardsToken",
          "type": "address"
        },
        {
          "indexed": false,
          "internalType": "uint256",
          "name": "reward",
          "type": "uint256"
        }
      ],
      "name": "RewardPaid",
      "type": "event"
    },
    {
      "anonymous": false,
      "inputs": [
        {
          "indexed": false,
          "internalType": "address",
          "name": "token",
          "type": "address"
        },
        {
          "indexed": false,
          "internalType": "uint256",
          "name": "newDuration",
          "type": "uint256"
        }
      ],
      "name": "RewardsDurationUpdated",
      "type": "event"
    },
    {
      "anonymous": false,
      "inputs": [
        {
          "indexed": true,
          "internalType": "address",
          "name": "user",
          "type": "address"
        },
        {
          "indexed": false,
          "internalType": "uint256",
          "name": "amount",
          "type": "uint256"
        }
      ],
      "name": "Staked",
      "type": "event"
    },
    {
      "anonymous": false,
      "inputs": [
        {
          "indexed": true,
          "internalType": "address",
          "name": "user",
          "type": "address"
        },
        {
          "indexed": false,
          "internalType": "uint256",
          "name": "amount",
          "type": "uint256"
        }
      ],
      "name": "Withdrawn",
      "type": "event"
    },
    {
      "inputs": [
        {
          "internalType": "address",
          "name": "asset",
          "type": "address"
        },
        {
          "internalType": "uint256",
          "name": "amount",
          "type": "uint256"
        },
        {
          "internalType": "address",
          "name": "nftAsset",
          "type": "address"
        },
        {
          "internalType": "uint256",
          "name": "nftTokenId",
          "type": "uint256"
        },
        {
          "internalType": "address",
          "name": "onBehalfOf",
          "type": "address"
        }
      ],
      "name": "borrow",
      "outputs": [],
      "stateMutability": "nonpayable",
      "type": "function"
    },
    {
      "inputs": [],
      "name": "borrowFee",
      "outputs": [
        {
          "internalType": "uint256",
          "name": "",
          "type": "uint256"
        }
      ],
      "stateMutability": "view",
      "type": "function"
    },
    {
      "inputs": [
        {
          "internalType": "uint256",
          "name": "_amount",
          "type": "uint256"
        }
      ],
      "name": "deposit",
      "outputs": [],
      "stateMutability": "nonpayable",
      "type": "function"
    },
    {
      "inputs": [
        {
          "internalType": "address",
          "name": "account",
          "type": "address"
        },
        {
          "internalType": "address",
          "name": "_rewardsToken",
          "type": "address"
        }
      ],
      "name": "earned",
      "outputs": [
        {
          "internalType": "uint256",
          "name": "",
          "type": "uint256"
        }
      ],
      "stateMutability": "view",
      "type": "function"
    },
    {
      "inputs": [
        {
          "internalType": "address",
          "name": "user",
          "type": "address"
        }
      ],
      "name": "getAllLoanMessage",
      "outputs": [
        {
          "internalType": "uint256[]",
          "name": "loanIds",
          "type": "uint256[]"
        },
        {
          "internalType": "address[]",
          "name": "nftAssets",
          "type": "address[]"
        },
        {
          "internalType": "uint256[]",
          "name": "nftTokenIds",
          "type": "uint256[]"
        },
        {
          "internalType": "uint256[]",
          "name": "amounts",
          "type": "uint256[]"
        }
      ],
      "stateMutability": "view",
      "type": "function"
    },
    {
      "inputs": [
        {
          "internalType": "uint256",
          "name": "loanId",
          "type": "uint256"
        }
      ],
      "name": "getLoanCollateralAndReserve",
      "outputs": [
        {
          "internalType": "address",
          "name": "nftAsset",
          "type": "address"
        },
        {
          "internalType": "uint256",
          "name": "nftTokenId",
          "type": "uint256"
        },
        {
          "internalType": "uint256",
          "name": "amount",
          "type": "uint256"
        }
      ],
      "stateMutability": "view",
      "type": "function"
    },
    {
      "inputs": [
        {
          "internalType": "address",
          "name": "user",
          "type": "address"
        }
      ],
      "name": "getLoanIds",
      "outputs": [
        {
          "internalType": "uint256[]",
          "name": "",
          "type": "uint256[]"
        }
      ],
      "stateMutability": "view",
      "type": "function"
    },
    {
      "inputs": [],
      "name": "getReward",
      "outputs": [],
      "stateMutability": "nonpayable",
      "type": "function"
    },
    {
      "inputs": [],
      "name": "getTotalExtractionFee",
      "outputs": [
        {
          "internalType": "uint256",
          "name": "",
          "type": "uint256"
        }
      ],
      "stateMutability": "view",
      "type": "function"
    },
    {
      "inputs": [],
      "name": "getTotalNFTUSDDeposits",
      "outputs": [
        {
          "internalType": "uint256",
          "name": "",
          "type": "uint256"
        }
      ],
      "stateMutability": "view",
      "type": "function"
    },
    {
      "inputs": [],
      "name": "getTotalSecurityDeposit",
      "outputs": [
        {
          "internalType": "uint256",
          "name": "",
          "type": "uint256"
        }
      ],
      "stateMutability": "view",
      "type": "function"
    },
    {
      "inputs": [
        {
          "internalType": "address",
          "name": "user",
          "type": "address"
        }
      ],
      "name": "healthFactor",
      "outputs": [
        {
          "internalType": "uint256",
          "name": "accountDebt",
          "type": "uint256"
        },
        {
          "internalType": "uint256",
          "name": "totalNFTLocked",
          "type": "uint256"
        }
      ],
      "stateMutability": "view",
      "type": "function"
    },
    {
      "inputs": [
        {
          "internalType": "address",
          "name": "_nftOracle",
          "type": "address"
        },
        {
          "internalType": "address",
          "name": "_nftUSDToken",
          "type": "address"
        },
        {
          "internalType": "address",
          "name": "_ndlToken",
          "type": "address"
        },
        {
          "internalType": "address",
          "name": "_poolLoans",
          "type": "address"
        }
      ],
      "name": "initialize",
      "outputs": [],
      "stateMutability": "nonpayable",
      "type": "function"
    },
    {
      "inputs": [],
      "name": "isOwner",
      "outputs": [
        {
          "internalType": "bool",
          "name": "",
          "type": "bool"
        }
      ],
      "stateMutability": "view",
      "type": "function"
    },
    {
      "inputs": [
        {
          "internalType": "address",
          "name": "_rewardsToken",
          "type": "address"
        }
      ],
      "name": "lastTimeRewardApplicable",
      "outputs": [
        {
          "internalType": "uint256",
          "name": "",
          "type": "uint256"
        }
      ],
      "stateMutability": "view",
      "type": "function"
    },
    {
      "inputs": [
        {
          "internalType": "address",
          "name": "borrower",
          "type": "address"
        },
        {
          "internalType": "address",
          "name": "nftAsset",
          "type": "address"
        },
        {
          "internalType": "uint256",
          "name": "nftTokenId",
          "type": "uint256"
        }
      ],
      "name": "liquidate",
      "outputs": [
        {
          "internalType": "uint256",
          "name": "",
          "type": "uint256"
        }
      ],
      "stateMutability": "nonpayable",
      "type": "function"
    },
    {
      "inputs": [],
      "name": "liquidationFee",
      "outputs": [
        {
          "internalType": "uint256",
          "name": "",
          "type": "uint256"
        }
      ],
      "stateMutability": "view",
      "type": "function"
    },
    {
      "inputs": [],
      "name": "ndlToken",
      "outputs": [
        {
          "internalType": "contract INDLToken",
          "name": "",
          "type": "address"
        }
      ],
      "stateMutability": "view",
      "type": "function"
    },
    {
      "inputs": [],
      "name": "nftOracle",
      "outputs": [
        {
          "internalType": "contract INFTOracle",
          "name": "",
          "type": "address"
        }
      ],
      "stateMutability": "view",
      "type": "function"
    },
    {
      "inputs": [],
      "name": "nftusdToken",
      "outputs": [
        {
          "internalType": "contract INFTUSDToken",
          "name": "",
          "type": "address"
        }
      ],
      "stateMutability": "view",
      "type": "function"
    },
    {
      "inputs": [
        {
          "internalType": "address",
          "name": "_rewardsToken",
          "type": "address"
        },
        {
          "internalType": "uint256",
          "name": "reward",
          "type": "uint256"
        }
      ],
      "name": "notifyRewardAmount",
      "outputs": [],
      "stateMutability": "nonpayable",
      "type": "function"
    },
    {
      "inputs": [
        {
          "internalType": "address",
          "name": "operator",
          "type": "address"
        },
        {
          "internalType": "address",
          "name": "from",
          "type": "address"
        },
        {
          "internalType": "uint256",
          "name": "tokenId",
          "type": "uint256"
        },
        {
          "internalType": "bytes",
          "name": "data",
          "type": "bytes"
        }
      ],
      "name": "onERC721Received",
      "outputs": [
        {
          "internalType": "bytes4",
          "name": "",
          "type": "bytes4"
        }
      ],
      "stateMutability": "pure",
      "type": "function"
    },
    {
      "inputs": [],
      "name": "owner",
      "outputs": [
        {
          "internalType": "address",
          "name": "",
          "type": "address"
        }
      ],
      "stateMutability": "view",
      "type": "function"
    },
    {
      "inputs": [],
      "name": "percentBorrow",
      "outputs": [
        {
          "internalType": "uint256",
          "name": "",
          "type": "uint256"
        }
      ],
      "stateMutability": "view",
      "type": "function"
    },
    {
      "inputs": [],
      "name": "poolLoan",
      "outputs": [
        {
          "internalType": "contract ILoanPool",
          "name": "",
          "type": "address"
        }
      ],
      "stateMutability": "view",
      "type": "function"
    },
    {
      "inputs": [],
      "name": "redemptionFee",
      "outputs": [
        {
          "internalType": "uint256",
          "name": "",
          "type": "uint256"
        }
      ],
      "stateMutability": "view",
      "type": "function"
    },
    {
      "inputs": [
        {
          "internalType": "address",
          "name": "nftAsset",
          "type": "address"
        },
        {
          "internalType": "uint256",
          "name": "nftTokenId",
          "type": "uint256"
        },
        {
          "internalType": "uint256",
          "name": "amount",
          "type": "uint256"
        }
      ],
      "name": "repay",
      "outputs": [
        {
          "internalType": "uint256",
          "name": "",
          "type": "uint256"
        },
        {
          "internalType": "bool",
          "name": "",
          "type": "bool"
        }
      ],
      "stateMutability": "nonpayable",
      "type": "function"
    },
    {
      "inputs": [
        {
          "internalType": "address",
          "name": "",
          "type": "address"
        }
      ],
      "name": "rewardData",
      "outputs": [
        {
          "internalType": "uint256",
          "name": "rewardsDuration",
          "type": "uint256"
        },
        {
          "internalType": "uint256",
          "name": "periodFinish",
          "type": "uint256"
        },
        {
          "internalType": "uint256",
          "name": "rewardRate",
          "type": "uint256"
        },
        {
          "internalType": "uint256",
          "name": "lastUpdateTime",
          "type": "uint256"
        },
        {
          "internalType": "uint256",
          "name": "rewardPerTokenStored",
          "type": "uint256"
        }
      ],
      "stateMutability": "view",
      "type": "function"
    },
    {
      "inputs": [
        {
          "internalType": "address",
          "name": "_rewardsToken",
          "type": "address"
        }
      ],
      "name": "rewardPerToken",
      "outputs": [
        {
          "internalType": "uint256",
          "name": "",
          "type": "uint256"
        }
      ],
      "stateMutability": "view",
      "type": "function"
    },
    {
      "inputs": [
        {
          "internalType": "uint256",
          "name": "",
          "type": "uint256"
        }
      ],
      "name": "rewardTokens",
      "outputs": [
        {
          "internalType": "address",
          "name": "",
          "type": "address"
        }
      ],
      "stateMutability": "view",
      "type": "function"
    },
    {
      "inputs": [
        {
          "internalType": "address",
          "name": "",
          "type": "address"
        },
        {
          "internalType": "address",
          "name": "",
          "type": "address"
        }
      ],
      "name": "rewards",
      "outputs": [
        {
          "internalType": "uint256",
          "name": "",
          "type": "uint256"
        }
      ],
      "stateMutability": "view",
      "type": "function"
    },
    {
      "inputs": [
        {
          "internalType": "address",
          "name": "_rewardsToken",
          "type": "address"
        },
        {
          "internalType": "uint256",
          "name": "_rewardsDuration",
          "type": "uint256"
        }
      ],
      "name": "setRewardsDuration",
      "outputs": [],
      "stateMutability": "nonpayable",
      "type": "function"
    },
    {
      "inputs": [],
      "name": "totalExtractionFee",
      "outputs": [
        {
          "internalType": "uint256",
          "name": "",
          "type": "uint256"
        }
      ],
      "stateMutability": "view",
      "type": "function"
    },
    {
      "inputs": [],
      "name": "totalSecurityDeposit",
      "outputs": [
        {
          "internalType": "uint256",
          "name": "",
          "type": "uint256"
        }
      ],
      "stateMutability": "view",
      "type": "function"
    },
    {
      "inputs": [
        {
          "internalType": "address",
          "name": "",
          "type": "address"
        },
        {
          "internalType": "address",
          "name": "",
          "type": "address"
        }
      ],
      "name": "userRewardPerTokenPaid",
      "outputs": [
        {
          "internalType": "uint256",
          "name": "",
          "type": "uint256"
        }
      ],
      "stateMutability": "view",
      "type": "function"
    },
    {
      "inputs": [
        {
          "internalType": "uint256",
          "name": "_amount",
          "type": "uint256"
        }
      ],
      "name": "withdraw",
      "outputs": [],
      "stateMutability": "nonpayable",
      "type": "function"
    }
  ],
  "bytecode": "0x608060405234801561001057600080fd5b50603380546001600160a01b031916339081179091556040516000907f8be0079c531659141344cd1fd0a4f28419497f9722a3daafe3b4186f6b6457e0908290a3613641806100606000396000f3fe608060405234801561001057600080fd5b506004361061021c5760003560e01c80637bb7bed111610125578063b66503cf116100ad578063e70b9e271161007c578063e70b9e2714610537578063ebdb426e1461055f578063f122977714610572578063f8c8765e14610585578063feeb00881461059857600080fd5b8063b66503cf146104ff578063b6b55f2514610512578063badfd7ca14610525578063e626648a1461052e57600080fd5b80638dffaa98116100f45780638dffaa98146104b45780638f32d59b146104bd57806398e2335d146104db578063a36a3630146104e3578063b071d32c146104ec57600080fd5b80637bb7bed1146104605780638cd2e0c7146104735780638d2d4e9b1461049b5780638da5cb5b146104a357600080fd5b8063458f5815116101a857806369fda19c1161017757806369fda19c146103925780636ad9f9df146103b55780636b64c885146103dd5780637035ab98146103fd5780637762b9151461042857600080fd5b8063458f58151461030857806348e5d9f8146103115780635b1f335f14610376578063638634ee1461037f57600080fd5b806326c01303116101ef57806326c01303146102bf578063286c2add146102d257806329994d3f146102e55780632e1a7d4d146102ed5780633d18b9121461030057600080fd5b806305fa354414610221578063150b7a0214610251578063211dc32d146102895780632378bea6146102aa575b600080fd5b603454610234906001600160a01b031681565b6040516001600160a01b0390911681526020015b60405180910390f35b61027061025f366004612f2a565b630a85bd0160e11b95945050505050565b6040516001600160e01b03199091168152602001610248565b61029c610297366004612fc9565b6105ab565b604051908152602001610248565b6102bd6102b8366004613002565b610645565b005b61029c6102cd36600461302e565b61075d565b603554610234906001600160a01b031681565b60425461029c565b6102bd6102fb36600461306f565b610f87565b6102bd611184565b61029c603b5481565b61034e61031f366004613088565b603d60205260009081526040902080546001820154600283015460038401546004909401549293919290919085565b604080519586526020860194909452928401919091526060830152608082015260a001610248565b61029c60425481565b61029c61038d366004613088565b6113c9565b6103a56103a0366004613088565b6113f0565b60405161024894939291906130e0565b6103c86103c3366004613088565b611673565b60408051928352602083019190915201610248565b6103f06103eb366004613088565b611866565b6040516102489190613168565b61029c61040b366004612fc9565b603f60209081526000928352604080842090915290825290205481565b61043b61043636600461306f565b6118e8565b604080516001600160a01b039094168452602084019290925290820152606001610248565b61023461046e36600461306f565b611976565b61048661048136600461317b565b6119a0565b60408051928352901515602083015201610248565b60435461029c565b6033546001600160a01b0316610234565b61029c60385481565b6033546001600160a01b031633146040519015158152602001610248565b603c5461029c565b61029c603a5481565b6102bd6104fa3660046131b0565b611ee2565b6102bd61050d366004613002565b61252d565b6102bd61052036600461306f565b6126a9565b61029c60435481565b61029c60395481565b61029c610545366004612fc9565b604060208181526000938452818420905290825290205481565b603654610234906001600160a01b031681565b61029c610580366004613088565b612899565b6102bd61059336600461320f565b61293b565b603754610234906001600160a01b031681565b6001600160a01b0380831660008181526040602081815281832094861680845294815281832054938352603f8152818320948352939093529182205461063c919061063690670de0b6b3a764000090610630906106119061060b89612899565b90612ac1565b6001600160a01b03891660009081526041602052604090205490612b03565b90612b82565b90612bc4565b90505b92915050565b6001600160a01b0382166000908152603d602052604090206001015442116106b45760405162461bcd60e51b815260206004820152601a60248201527f52657761726420706572696f64207374696c6c2061637469766500000000000060448201526064015b60405180910390fd5b600081116107045760405162461bcd60e51b815260206004820181905260248201527f526577617264206475726174696f6e206d757374206265206e6f6e2d7a65726f60448201526064016106ab565b6001600160a01b0382166000908152603d602052604090819020829055517fad2f86b01ed93b4b3a150d448c61a4f5d8d38075d3c0c64cc0a26fd6e1f4954590610751908490849061326b565b60405180910390a15050565b600080600061076b86611673565b915091508082106107be5760405162461bcd60e51b815260206004820152601e60248201527f74686973206973206e6f7420746865206c6971756964617465206c696e65000060448201526064016106ab565b60375460405163058dcda760e21b815233916000916001600160a01b0390911690631637369c906107f5908a908a9060040161326b565b60206040518083038186803b15801561080d57600080fd5b505afa158015610821573d6000803e3d6000fd5b505050506040513d601f19601f820116820180604052508101906108459190613284565b603754604051632820036560e11b8152600481018390529192506000916001600160a01b039091169063504006ca9060240160e06040518083038186803b15801561088f57600080fd5b505afa1580156108a3573d6000803e3d6000fd5b505050506040513d601f19601f820116820180604052508101906108c791906132f4565b603554604051637638659b60e11b81526001600160a01b038b811660048301529293506000929091169063ec70cb369060240160206040518083038186803b15801561091257600080fd5b505afa158015610926573d6000803e3d6000fd5b505050506040513d601f19601f8201168201806040525081019061094a9190613284565b90508160a00151811161099f5760405162461bcd60e51b815260206004820152601e60248201527f74686973206973206e6f7420746865206c6971756964617465206c696e65000060448201526064016106ab565b6034546040516370a0823160e01b81523360048201526000916001600160a01b0316906370a082319060240160206040518083038186803b1580156109e357600080fd5b505afa1580156109f7573d6000803e3d6000fd5b505050506040513d601f19601f82011682018060405250810190610a1b9190613284565b9050610a366038548460a00151612c2390919063ffffffff16565b8110610cc15760345460385460a08501516001600160a01b0390921691639dc29fac918891610a6491612c23565b6040518363ffffffff1660e01b8152600401610a8192919061326b565b600060405180830381600087803b158015610a9b57600080fd5b505af1158015610aaf573d6000803e3d6000fd5b505060345460385460a08701516001600160a01b03909216935063a9059cbb92508891610adb91612c23565b8660a00151610aea91906133ab565b6040518363ffffffff1660e01b8152600401610b0792919061326b565b602060405180830381600087803b158015610b2157600080fd5b505af1158015610b35573d6000803e3d6000fd5b505050506040513d601f19601f82011682018060405250810190610b5991906133c2565b50603754604080850151855160a08701519251635eb45d7560e01b81526001600160a01b0390941693635eb45d7593610b999392916001906004016133e4565b600060405180830381600087803b158015610bb357600080fd5b505af1158015610bc7573d6000803e3d6000fd5b505060365460395460a08701516001600160a01b03909216935063c77acc3692508891610bf391612c23565b6040518363ffffffff1660e01b8152600401610c1092919061326b565b600060405180830381600087803b158015610c2a57600080fd5b505af1158015610c3e573d6000803e3d6000fd5b505060365460395460a0870151610c6794506001600160a01b03909216925061050d9190612c23565b60395460a0840151610c7891612c23565b60436000828254610c89919061340c565b9091555050603854610cac90610ca1906127106133ab565b60a085015190612c23565b604254610cb991906133ab565b604255610f76565b603754604080850151855160a08701519251635eb45d7560e01b81526001600160a01b0390941693635eb45d7593610d009392916000906004016133e4565b600060405180830381600087803b158015610d1a57600080fd5b505af1158015610d2e573d6000803e3d6000fd5b505060375460405163bc238ff560e01b81526001600160a01b038981166004830181905260248301528e81166044830152606482018e905260848201879052909116925063bc238ff5915060a401602060405180830381600087803b158015610d9657600080fd5b505af1158015610daa573d6000803e3d6000fd5b505050506040513d601f19601f82011682018060405250810190610dce9190613284565b506034546038546001600160a01b03909116906340c10f199087908490610df6908790612c23565b610e0091906133ab565b6040518363ffffffff1660e01b8152600401610e1d92919061326b565b600060405180830381600087803b158015610e3757600080fd5b505af1158015610e4b573d6000803e3d6000fd5b50506036546039546001600160a01b03909116925063c77acc3691508790610e74908590612c23565b6040518363ffffffff1660e01b8152600401610e9192919061326b565b600060405180830381600087803b158015610eab57600080fd5b505af1158015610ebf573d6000803e3d6000fd5b5050603654603954610ee493506001600160a01b03909116915061050d908490612c23565b603954610ef2908290612c23565b60436000828254610f03919061340c565b9091555050603454603854610f42916001600160a01b03169061050d90610f2c906127106133ab565b858760a00151610f3c91906133ab565b90612c23565b610f65603854612710610f5591906133ab565b838560a00151610f3c91906133ab565b604254610f7291906133ab565b6042555b5060009a9950505050505050505050565b3360005b603e5481101561107d576000603e8281548110610faa57610faa613424565b6000918252602090912001546001600160a01b03169050610fca81612899565b6001600160a01b0382166000908152603d6020526040902060040155610fef816113c9565b6001600160a01b038083166000908152603d602052604090206003019190915583161561106a5761102083826105ab565b6001600160a01b0380851660008181526040602081815281832094871680845294815281832095909555603d855280822060040154928252603f8552808220938252929093529120555b50806110758161343a565b915050610f8b565b503361108883612cac565b603c546110959084612ac1565b603c556001600160a01b0381166000908152604160205260409020546110bb9084612ac1565b6001600160a01b0382811660008181526041602052604090819020939093556034549251631062c15f60e11b81523060048201526024810191909152604481018690529116906320c582be90606401600060405180830381600087803b15801561112457600080fd5b505af1158015611138573d6000803e3d6000fd5b50505050806001600160a01b03167f7084f5476618d8e60b11ef0d7d3f06914655adb8793e28ff7f018d4c76d505d58460405161117791815260200190565b60405180910390a2505050565b3360005b603e5481101561127a576000603e82815481106111a7576111a7613424565b6000918252602090912001546001600160a01b031690506111c781612899565b6001600160a01b0382166000908152603d60205260409020600401556111ec816113c9565b6001600160a01b038083166000908152603d60205260409020600301919091558316156112675761121d83826105ab565b6001600160a01b0380851660008181526040602081815281832094871680845294815281832095909555603d855280822060040154928252603f8552808220938252929093529120555b50806112728161343a565b915050611188565b5060005b603e548110156113c5576000603e828154811061129d5761129d613424565b600091825260208083209091015433835260408083528084206001600160a01b039092168085529190925291205490915080156113b057336000818152604060208181528183206001600160a01b0387168085529152818320929092555163a9059cbb60e01b8152909163a9059cbb9161131c9190859060040161326b565b602060405180830381600087803b15801561133657600080fd5b505af115801561134a573d6000803e3d6000fd5b505050506040513d601f19601f8201168201806040525081019061136e91906133c2565b506040518181526001600160a01b0383169033907f540798df468d7b23d11f156fdb954cb19ad414d150722a7b6d55ba369dea792e9060200160405180910390a35b505080806113bd9061343a565b91505061127e565b5050565b6001600160a01b0381166000908152603d602052604081206001015461063f904290612d0e565b603754604051636b64c88560e01b81526001600160a01b0383811660048301526060928392839283921690636b64c8859060240160006040518083038186803b15801561143c57600080fd5b505afa158015611450573d6000803e3d6000fd5b505050506040513d6000823e601f3d908101601f191682016040526114789190810190613455565b9350835167ffffffffffffffff8111156114945761149461329d565b6040519080825280602002602001820160405280156114bd578160200160208202803683370190505b509250835167ffffffffffffffff8111156114da576114da61329d565b604051908082528060200260200182016040528015611503578160200160208202803683370190505b509150835167ffffffffffffffff8111156115205761152061329d565b604051908082528060200260200182016040528015611549578160200160208202803683370190505b50905060005b845181101561166b5760375485516001600160a01b0390911690637762b9159087908490811061158157611581613424565b60200260200101516040518263ffffffff1660e01b81526004016115a791815260200190565b60606040518083038186803b1580156115bf57600080fd5b505afa1580156115d3573d6000803e3d6000fd5b505050506040513d601f19601f820116820180604052508101906115f791906134fb565b86848151811061160957611609613424565b6020026020010186858151811061162257611622613424565b6020026020010186868151811061163b5761163b613424565b60209081029190910101929092529190526001600160a01b039091169052806116638161343a565b91505061154f565b509193509193565b603754604051636b64c88560e01b81526001600160a01b0383811660048301526000928392839290911690636b64c8859060240160006040518083038186803b1580156116bf57600080fd5b505afa1580156116d3573d6000803e3d6000fd5b505050506040513d6000823e601f3d908101601f191682016040526116fb9190810190613455565b905060008080805b845181101561185c5760375485516001600160a01b0390911690637762b9159087908490811061173557611735613424565b60200260200101516040518263ffffffff1660e01b815260040161175b91815260200190565b60606040518083038186803b15801561177357600080fd5b505afa158015611787573d6000803e3d6000fd5b505050506040513d601f19601f820116820180604052508101906117ab91906134fb565b603554604051637638659b60e11b81526001600160a01b038086166004830152949750919550929092169163ec70cb36915060240160206040518083038186803b1580156117f857600080fd5b505afa15801561180c573d6000803e3d6000fd5b505050506040513d601f19601f820116820180604052508101906118309190613284565b935061183c848761340c565b9550611848828861340c565b9650806118548161343a565b915050611703565b5050505050915091565b603754604051636b64c88560e01b81526001600160a01b0383811660048301526060921690636b64c8859060240160006040518083038186803b1580156118ac57600080fd5b505afa1580156118c0573d6000803e3d6000fd5b505050506040513d6000823e601f3d908101601f1916820160405261063f9190810190613455565b603754604051637762b91560e01b815260048101839052600091829182916001600160a01b031690637762b9159060240160606040518083038186803b15801561193157600080fd5b505afa158015611945573d6000803e3d6000fd5b505050506040513d601f19601f8201168201806040525081019061196991906134fb565b9250925092509193909250565b603e818154811061198657600080fd5b6000918252602090912001546001600160a01b0316905081565b6000806000805b603e54811015611a99576000603e82815481106119c6576119c6613424565b6000918252602090912001546001600160a01b031690506119e681612899565b6001600160a01b0382166000908152603d6020526040902060040155611a0b816113c9565b6001600160a01b038083166000908152603d6020526040902060030191909155831615611a8657611a3c83826105ab565b6001600160a01b0380851660008181526040602081815281832094871680845294815281832095909555603d855280822060040154928252603f8552808220938252929093529120555b5080611a918161343a565b9150506119a7565b5060375460405163058dcda760e21b815233916000916001600160a01b0390911690631637369c90611ad1908b908b9060040161326b565b60206040518083038186803b158015611ae957600080fd5b505afa158015611afd573d6000803e3d6000fd5b505050506040513d601f19601f82011682018060405250810190611b219190613284565b905080611b635760405162461bcd60e51b815260206004820152601060248201526f1b9bc81cdd58da081919589d081b999d60821b60448201526064016106ab565b603754604051637762b91560e01b8152600481018390526000916001600160a01b031690637762b9159060240160606040518083038186803b158015611ba857600080fd5b505afa158015611bbc573d6000803e3d6000fd5b505050506040513d601f19601f82011682018060405250810190611be091906134fb565b925050506000819050600081611c016038548b612d2490919063ffffffff16565b1015611c8457603854611c15908a90612d24565b603754604051630ed96e7d60e11b81529193506001600160a01b031690631db2dcfa90611c4d908890889087906000906004016133e4565b600060405180830381600087803b158015611c6757600080fd5b505af1158015611c7b573d6000803e3d6000fd5b50505050611cf4565b50603754604051631014ba7b60e31b81526001600160a01b038681166004830152602482018690526044820184905260019216906380a5d3d890606401600060405180830381600087803b158015611cdb57600080fd5b505af1158015611cef573d6000803e3d6000fd5b505050505b603654603b546001600160a01b039091169063c77acc36908790611d19908690612c23565b6040518363ffffffff1660e01b8152600401611d3692919061326b565b600060405180830381600087803b158015611d5057600080fd5b505af1158015611d64573d6000803e3d6000fd5b5050603654603b54611d8993506001600160a01b03909116915061050d908590612c23565b6034546038546001600160a01b0390911690639dc29fac908790611dae908690612c23565b6040518363ffffffff1660e01b8152600401611dcb92919061326b565b600060405180830381600087803b158015611de557600080fd5b505af1158015611df9573d6000803e3d6000fd5b50506034546038546001600160a01b039091169250639dc29fac91503090611e2e90611e27906127106133ab565b8690612c23565b6040518363ffffffff1660e01b8152600401611e4b92919061326b565b600060405180830381600087803b158015611e6557600080fd5b505af1158015611e79573d6000803e3d6000fd5b50505050611e97603854612710611e9091906133ab565b8390612c23565b60426000828254611ea891906133ab565b9091555050603b54611ebb908390612c23565b60436000828254611ecc919061340c565b90915550919b90159a5098505050505050505050565b6000805b603e54811015611fd8576000603e8281548110611f0557611f05613424565b6000918252602090912001546001600160a01b03169050611f2581612899565b6001600160a01b0382166000908152603d6020526040902060040155611f4a816113c9565b6001600160a01b038083166000908152603d6020526040902060030191909155831615611fc557611f7b83826105ab565b6001600160a01b0380851660008181526040602081815281832094871680845294815281832095909555603d855280822060040154928252603f8552808220938252929093529120555b5080611fd08161343a565b915050611ee6565b506001600160a01b03821661203b5760405162461bcd60e51b8152602060048201526024808201527f4572726f72732e564c5f494e56414c49445f4f4e424548414c464f465f4144446044820152635245535360e01b60648201526084016106ab565b6000851161208b5760405162461bcd60e51b815260206004820152601860248201527f4572726f72732e564c5f494e56414c49445f414d4f554e54000000000000000060448201526064016106ab565b60375460405163058dcda760e21b815233916000916001600160a01b0390911690631637369c906120c2908990899060040161326b565b60206040518083038186803b1580156120da57600080fd5b505afa1580156120ee573d6000803e3d6000fd5b505050506040513d601f19601f820116820180604052508101906121129190613284565b603554604051637638659b60e11b81526001600160a01b0389811660048301529293506000929091169063ec70cb369060240160206040518083038186803b15801561215d57600080fd5b505afa158015612171573d6000803e3d6000fd5b505050506040513d601f19601f820116820180604052508101906121959190613284565b9050806121db5760405162461bcd60e51b81526020600482015260146024820152731b9bc81cdd58da081b999d081cdd5c1c1b1e595960621b60448201526064016106ab565b8781116122385760405162461bcd60e51b815260206004820152602560248201527f626f72726f7720616d6f756e7420697320746f206869676820666f72207468696044820152641cc813919560da1b60648201526084016106ab565b816122e15760375460405163bc238ff560e01b81526001600160a01b0385811660048301528781166024830152898116604483015260648201899052608482018b90529091169063bc238ff59060a401602060405180830381600087803b1580156122a257600080fd5b505af11580156122b6573d6000803e3d6000fd5b505050506040513d601f19601f820116820180604052508101906122da9190613284565b915061234b565b603754604051630ed96e7d60e11b81526001600160a01b0390911690631db2dcfa9061231890869086908d906001906004016133e4565b600060405180830381600087803b15801561233257600080fd5b505af1158015612346573d6000803e3d6000fd5b505050505b60365460395461236a916001600160a01b03169061050d908b90612c23565b6036546039546001600160a01b039091169063c77acc3690859061238f908c90612c23565b6040518363ffffffff1660e01b81526004016123ac92919061326b565b600060405180830381600087803b1580156123c657600080fd5b505af11580156123da573d6000803e3d6000fd5b50506039546123ec92508a9150612c23565b604360008282546123fd919061340c565b90915550506034546038546001600160a01b03909116906340c10f19908790612427908c90612c23565b6040518363ffffffff1660e01b815260040161244492919061326b565b600060405180830381600087803b15801561245e57600080fd5b505af1158015612472573d6000803e3d6000fd5b50506034546038546001600160a01b0390911692506340c10f199150309061249b908c90612c23565b6124a5908c6133ab565b6040518363ffffffff1660e01b81526004016124c292919061326b565b600060405180830381600087803b1580156124dc57600080fd5b505af11580156124f0573d6000803e3d6000fd5b505060385461250292508a9150612c23565b61250c90896133ab565b6042600082825461251d919061340c565b9091555050505050505050505050565b6001600160a01b0382166000908152603d60205260409020600101544210612594576001600160a01b0382166000908152603d6020526040902054612573908290612b82565b6001600160a01b0383166000908152603d602052604090206002015561262e565b6001600160a01b0382166000908152603d60205260408120600101546125ba9042612ac1565b6001600160a01b0384166000908152603d6020526040812060020154919250906125e5908390612b03565b6001600160a01b0385166000908152603d602052604090205490915061260f906106308584612bc4565b6001600160a01b0385166000908152603d602052604090206002015550505b6001600160a01b0382166000908152603d602052604090204260038201819055905461265a9190612bc4565b6001600160a01b0383166000908152603d602090815260409182902060010192909255518281527fde88a922e0d3b88b24e9623efeb464919c6bf9f66857a65e2bfcf2ce87a9433d9101610751565b3360005b603e5481101561279f576000603e82815481106126cc576126cc613424565b6000918252602090912001546001600160a01b031690506126ec81612899565b6001600160a01b0382166000908152603d6020526040902060040155612711816113c9565b6001600160a01b038083166000908152603d602052604090206003019190915583161561278c5761274283826105ab565b6001600160a01b0380851660008181526040602081815281832094871680845294815281832095909555603d855280822060040154928252603f8552808220938252929093529120555b50806127978161343a565b9150506126ad565b50336127aa83612cac565b603c546127b79084612bc4565b603c556001600160a01b0381166000908152604160205260409020546127dd9084612bc4565b6001600160a01b0382811660008181526041602052604090819020939093556034549251632ee65eeb60e21b815260048101919091523060248201526044810186905291169063bb997bac90606401600060405180830381600087803b15801561284657600080fd5b505af115801561285a573d6000803e3d6000fd5b50505050806001600160a01b03167f9e71bc8eea02a63969f509818f2dafb9254532904319f9dbda79b67bd34a5f3d8460405161117791815260200190565b6000603c54600014156128c557506001600160a01b03166000908152603d602052604090206004015490565b603c546001600160a01b0383166000908152603d60205260409020600281015460039091015461063f9261291992909161063091670de0b6b3a7640000916129139190829061060b8b6113c9565b90612b03565b6001600160a01b0384166000908152603d602052604090206004015490612bc4565b600054610100900460ff161580801561295b5750600054600160ff909116105b806129755750303b158015612975575060005460ff166001145b6129d85760405162461bcd60e51b815260206004820152602e60248201527f496e697469616c697a61626c653a20636f6e747261637420697320616c72656160448201526d191e481a5b9a5d1a585b1a5e995960921b60648201526084016106ab565b6000805460ff1916600117905580156129fb576000805461ff0019166101001790555b603480546001600160a01b038087166001600160a01b0319928316179092556036805486841690831617905560358054888416908316179055603780549285169290911691909117905561232860385561019060395560c8603b55612a5e612de4565b612a69836001612e2e565b612a74846001612e2e565b8015612aba576000805461ff0019169055604051600181527f7f26b83ff96e1f2b6a682f133852f6798a09c465da95921460cefb38474024989060200160405180910390a15b5050505050565b600061063c83836040518060400160405280601e81526020017f536166654d6174683a207375627472616374696f6e206f766572666c6f770000815250612ead565b600082612b125750600061063f565b6000612b1e8385613532565b905082612b2b8583613551565b1461063c5760405162461bcd60e51b815260206004820152602160248201527f536166654d6174683a206d756c7469706c69636174696f6e206f766572666c6f6044820152607760f81b60648201526084016106ab565b600061063c83836040518060400160405280601a81526020017f536166654d6174683a206469766973696f6e206279207a65726f000000000000815250612ee7565b600080612bd1838561340c565b90508381101561063c5760405162461bcd60e51b815260206004820152601b60248201527f536166654d6174683a206164646974696f6e206f766572666c6f77000000000060448201526064016106ab565b6000821580612c30575081155b15612c3d5750600061063f565b81612c4b6002612710613551565b612c57906000196133ab565b612c619190613551565b831115612c805760405162461bcd60e51b81526004016106ab90613573565b612710612c8e600282613551565b612c988486613532565b612ca2919061340c565b61063c9190613551565b60008111612d0b5760405162461bcd60e51b815260206004820152602660248201527f53746162696c697479506f6f6c3a20416d6f756e74206d757374206265206e6f6044820152656e2d7a65726f60d01b60648201526084016106ab565b50565b6000818310612d1d578161063c565b5090919050565b600081612d735760405162461bcd60e51b815260206004820152601c60248201527f4572726f72732e4d4154485f4449564953494f4e5f42595f5a45524f0000000060448201526064016106ab565b6000612d80600284613551565b9050612710612d91826000196133ab565b612d9b9190613551565b841115612dba5760405162461bcd60e51b81526004016106ab90613573565b8281612dc861271087613532565b612dd2919061340c565b612ddc9190613551565b949350505050565b6033546040516000916001600160a01b0316907f8be0079c531659141344cd1fd0a4f28419497f9722a3daafe3b4186f6b6457e0908390a3603380546001600160a01b0319169055565b6001600160a01b0382166000908152603d602052604090205415612e5157600080fd5b603e8054600181019091557f8d800d6614d35eed73733ee453164a3b48076eb3138f466adeeb9dec7bb31f700180546001600160a01b039093166001600160a01b0319909316831790556000918252603d602052604090912055565b60008184841115612ed15760405162461bcd60e51b81526004016106ab91906135b6565b506000612ede84866133ab565b95945050505050565b60008183612f085760405162461bcd60e51b81526004016106ab91906135b6565b506000612ede8486613551565b6001600160a01b0381168114612d0b57600080fd5b600080600080600060808688031215612f4257600080fd5b8535612f4d81612f15565b94506020860135612f5d81612f15565b935060408601359250606086013567ffffffffffffffff80821115612f8157600080fd5b818801915088601f830112612f9557600080fd5b813581811115612fa457600080fd5b896020828501011115612fb657600080fd5b9699959850939650602001949392505050565b60008060408385031215612fdc57600080fd5b8235612fe781612f15565b91506020830135612ff781612f15565b809150509250929050565b6000806040838503121561301557600080fd5b823561302081612f15565b946020939093013593505050565b60008060006060848603121561304357600080fd5b833561304e81612f15565b9250602084013561305e81612f15565b929592945050506040919091013590565b60006020828403121561308157600080fd5b5035919050565b60006020828403121561309a57600080fd5b813561063c81612f15565b600081518084526020808501945080840160005b838110156130d5578151875295820195908201906001016130b9565b509495945050505050565b6080815260006130f360808301876130a5565b82810360208481019190915286518083528782019282019060005b818110156131335784516001600160a01b03168352938301939183019160010161310e565b5050848103604086015261314781886130a5565b92505050828103606084015261315d81856130a5565b979650505050505050565b60208152600061063c60208301846130a5565b60008060006060848603121561319057600080fd5b833561319b81612f15565b95602085013595506040909401359392505050565b600080600080600060a086880312156131c857600080fd5b85356131d381612f15565b94506020860135935060408601356131ea81612f15565b925060608601359150608086013561320181612f15565b809150509295509295909350565b6000806000806080858703121561322557600080fd5b843561323081612f15565b9350602085013561324081612f15565b9250604085013561325081612f15565b9150606085013561326081612f15565b939692955090935050565b6001600160a01b03929092168252602082015260400190565b60006020828403121561329657600080fd5b5051919050565b634e487b7160e01b600052604160045260246000fd5b604051601f8201601f1916810167ffffffffffffffff811182821017156132dc576132dc61329d565b604052919050565b80516132ef81612f15565b919050565b600060e0828403121561330657600080fd5b60405160e0810181811067ffffffffffffffff821117156133295761332961329d565b6040528251815260208301516006811061334257600080fd5b6020820152613353604084016132e4565b6040820152613364606084016132e4565b60608201526080830151608082015260a083015160a082015261338960c084016132e4565b60c08201529392505050565b634e487b7160e01b600052601160045260246000fd5b6000828210156133bd576133bd613395565b500390565b6000602082840312156133d457600080fd5b8151801515811461063c57600080fd5b6001600160a01b03949094168452602084019290925260408301521515606082015260800190565b6000821982111561341f5761341f613395565b500190565b634e487b7160e01b600052603260045260246000fd5b600060001982141561344e5761344e613395565b5060010190565b6000602080838503121561346857600080fd5b825167ffffffffffffffff8082111561348057600080fd5b818501915085601f83011261349457600080fd5b8151818111156134a6576134a661329d565b8060051b91506134b78483016132b3565b81815291830184019184810190888411156134d157600080fd5b938501935b838510156134ef578451825293850193908501906134d6565b98975050505050505050565b60008060006060848603121561351057600080fd5b835161351b81612f15565b602085015160409095015190969495509392505050565b600081600019048311821515161561354c5761354c613395565b500290565b60008261356e57634e487b7160e01b600052601260045260246000fd5b500490565b60208082526023908201527f4572726f72732e4d4154485f4d554c5449504c49434154494f4e5f4f564552466040820152624c4f5760e81b606082015260800190565b600060208083528351808285015260005b818110156135e3578581018301518582016040015282016135c7565b818111156135f5576000604083870101525b50601f01601f191692909201604001939250505056fea2646970667358221220bc964a482a9a9e61fb72cacc45f44e56eb44cf3c1c2003863687cb2bf0b1519a64736f6c63430008080033",
  "linkReferences": {},
  "deployedLinkReferences": {}
}