{
  "_format": "hh-sol-artifact-1",
  "contractName": "StabilityPool",
  "sourceName": "contracts/SbabilityPool.sol",
  "abi": [
    {
      "anonymous": false,
      "inputs": [
        {
          "indexed": false,
          "internalType": "uint8",
          "name": "version",
          "type": "uint8"
        }
      ],
      "name": "Initialized",
      "type": "event"
    },
    {
      "anonymous": false,
      "inputs": [
        {
          "indexed": true,
          "internalType": "address",
          "name": "previousOwner",
          "type": "address"
        },
        {
          "indexed": true,
          "internalType": "address",
          "name": "newOwner",
          "type": "address"
        }
      ],
      "name": "OwnershipTransferred",
      "type": "event"
    },
    {
      "anonymous": false,
      "inputs": [
        {
          "indexed": false,
          "internalType": "address",
          "name": "token",
          "type": "address"
        },
        {
          "indexed": false,
          "internalType": "uint256",
          "name": "amount",
          "type": "uint256"
        }
      ],
      "name": "Recovered",
      "type": "event"
    },
    {
      "anonymous": false,
      "inputs": [
        {
          "indexed": false,
          "internalType": "uint256",
          "name": "reward",
          "type": "uint256"
        }
      ],
      "name": "RewardAdded",
      "type": "event"
    },
    {
      "anonymous": false,
      "inputs": [
        {
          "indexed": true,
          "internalType": "address",
          "name": "user",
          "type": "address"
        },
        {
          "indexed": true,
          "internalType": "address",
          "name": "rewardsToken",
          "type": "address"
        },
        {
          "indexed": false,
          "internalType": "uint256",
          "name": "reward",
          "type": "uint256"
        }
      ],
      "name": "RewardPaid",
      "type": "event"
    },
    {
      "anonymous": false,
      "inputs": [
        {
          "indexed": false,
          "internalType": "address",
          "name": "token",
          "type": "address"
        },
        {
          "indexed": false,
          "internalType": "uint256",
          "name": "newDuration",
          "type": "uint256"
        }
      ],
      "name": "RewardsDurationUpdated",
      "type": "event"
    },
    {
      "anonymous": false,
      "inputs": [
        {
          "indexed": true,
          "internalType": "address",
          "name": "user",
          "type": "address"
        },
        {
          "indexed": false,
          "internalType": "uint256",
          "name": "amount",
          "type": "uint256"
        }
      ],
      "name": "Staked",
      "type": "event"
    },
    {
      "anonymous": false,
      "inputs": [
        {
          "indexed": true,
          "internalType": "address",
          "name": "user",
          "type": "address"
        },
        {
          "indexed": false,
          "internalType": "uint256",
          "name": "amount",
          "type": "uint256"
        }
      ],
      "name": "Withdrawn",
      "type": "event"
    },
    {
      "inputs": [
        {
          "internalType": "address",
          "name": "asset",
          "type": "address"
        },
        {
          "internalType": "uint256",
          "name": "amount",
          "type": "uint256"
        },
        {
          "internalType": "address",
          "name": "nftAsset",
          "type": "address"
        },
        {
          "internalType": "uint256",
          "name": "nftTokenId",
          "type": "uint256"
        },
        {
          "internalType": "address",
          "name": "onBehalfOf",
          "type": "address"
        }
      ],
      "name": "borrow",
      "outputs": [],
      "stateMutability": "nonpayable",
      "type": "function"
    },
    {
      "inputs": [],
      "name": "borrowFee",
      "outputs": [
        {
          "internalType": "uint256",
          "name": "",
          "type": "uint256"
        }
      ],
      "stateMutability": "view",
      "type": "function"
    },
    {
      "inputs": [
        {
          "internalType": "uint256",
          "name": "_amount",
          "type": "uint256"
        }
      ],
      "name": "deposit",
      "outputs": [],
      "stateMutability": "nonpayable",
      "type": "function"
    },
    {
      "inputs": [
        {
          "internalType": "address",
          "name": "account",
          "type": "address"
        },
        {
          "internalType": "address",
          "name": "_rewardsToken",
          "type": "address"
        }
      ],
      "name": "earned",
      "outputs": [
        {
          "internalType": "uint256",
          "name": "",
          "type": "uint256"
        }
      ],
      "stateMutability": "view",
      "type": "function"
    },
    {
      "inputs": [
        {
          "internalType": "address",
          "name": "user",
          "type": "address"
        }
      ],
      "name": "getAllLoanMessage",
      "outputs": [
        {
          "components": [
            {
              "internalType": "uint256",
              "name": "loanId",
              "type": "uint256"
            },
            {
              "internalType": "enum DataTypes.LoanState",
              "name": "state",
              "type": "uint8"
            },
            {
              "internalType": "address",
              "name": "borrower",
              "type": "address"
            },
            {
              "internalType": "address",
              "name": "nftAsset",
              "type": "address"
            },
            {
              "internalType": "string",
              "name": "nftName",
              "type": "string"
            },
            {
              "internalType": "uint256",
              "name": "nftTokenId",
              "type": "uint256"
            },
            {
              "internalType": "uint256",
              "name": "amount",
              "type": "uint256"
            },
            {
              "internalType": "address",
              "name": "liquityAddress",
              "type": "address"
            }
          ],
          "internalType": "struct DataTypes.LoanData[]",
          "name": "loanData",
          "type": "tuple[]"
        }
      ],
      "stateMutability": "view",
      "type": "function"
    },
    {
      "inputs": [
        {
          "internalType": "uint256",
          "name": "loanId",
          "type": "uint256"
        }
      ],
      "name": "getLoanCollateralAndReserve",
      "outputs": [
        {
          "internalType": "address",
          "name": "nftAsset",
          "type": "address"
        },
        {
          "internalType": "uint256",
          "name": "nftTokenId",
          "type": "uint256"
        },
        {
          "internalType": "uint256",
          "name": "amount",
          "type": "uint256"
        }
      ],
      "stateMutability": "view",
      "type": "function"
    },
    {
      "inputs": [
        {
          "internalType": "address",
          "name": "user",
          "type": "address"
        }
      ],
      "name": "getLoanIds",
      "outputs": [
        {
          "internalType": "uint256[]",
          "name": "",
          "type": "uint256[]"
        }
      ],
      "stateMutability": "view",
      "type": "function"
    },
    {
      "inputs": [],
      "name": "getReward",
      "outputs": [],
      "stateMutability": "nonpayable",
      "type": "function"
    },
    {
      "inputs": [],
      "name": "getTotalExtractionFee",
      "outputs": [
        {
          "internalType": "uint256",
          "name": "",
          "type": "uint256"
        }
      ],
      "stateMutability": "view",
      "type": "function"
    },
    {
      "inputs": [],
      "name": "getTotalNFTUSDDeposits",
      "outputs": [
        {
          "internalType": "uint256",
          "name": "",
          "type": "uint256"
        }
      ],
      "stateMutability": "view",
      "type": "function"
    },
    {
      "inputs": [],
      "name": "getTotalSecurityDeposit",
      "outputs": [
        {
          "internalType": "uint256",
          "name": "",
          "type": "uint256"
        }
      ],
      "stateMutability": "view",
      "type": "function"
    },
    {
      "inputs": [
        {
          "internalType": "address",
          "name": "user",
          "type": "address"
        }
      ],
      "name": "healthFactor",
      "outputs": [
        {
          "internalType": "uint256",
          "name": "accountDebt",
          "type": "uint256"
        },
        {
          "internalType": "uint256",
          "name": "totalNFTLocked",
          "type": "uint256"
        }
      ],
      "stateMutability": "view",
      "type": "function"
    },
    {
      "inputs": [
        {
          "internalType": "address",
          "name": "_nftOracle",
          "type": "address"
        },
        {
          "internalType": "address",
          "name": "_nftUSDToken",
          "type": "address"
        },
        {
          "internalType": "address",
          "name": "_ndlToken",
          "type": "address"
        },
        {
          "internalType": "address",
          "name": "_poolLoans",
          "type": "address"
        }
      ],
      "name": "initialize",
      "outputs": [],
      "stateMutability": "nonpayable",
      "type": "function"
    },
    {
      "inputs": [],
      "name": "isOwner",
      "outputs": [
        {
          "internalType": "bool",
          "name": "",
          "type": "bool"
        }
      ],
      "stateMutability": "view",
      "type": "function"
    },
    {
      "inputs": [
        {
          "internalType": "address",
          "name": "_rewardsToken",
          "type": "address"
        }
      ],
      "name": "lastTimeRewardApplicable",
      "outputs": [
        {
          "internalType": "uint256",
          "name": "",
          "type": "uint256"
        }
      ],
      "stateMutability": "view",
      "type": "function"
    },
    {
      "inputs": [
        {
          "internalType": "address",
          "name": "borrower",
          "type": "address"
        },
        {
          "internalType": "address",
          "name": "nftAsset",
          "type": "address"
        },
        {
          "internalType": "uint256",
          "name": "nftTokenId",
          "type": "uint256"
        }
      ],
      "name": "liquidate",
      "outputs": [
        {
          "internalType": "uint256",
          "name": "",
          "type": "uint256"
        }
      ],
      "stateMutability": "nonpayable",
      "type": "function"
    },
    {
      "inputs": [],
      "name": "liquidationFee",
      "outputs": [
        {
          "internalType": "uint256",
          "name": "",
          "type": "uint256"
        }
      ],
      "stateMutability": "view",
      "type": "function"
    },
    {
      "inputs": [],
      "name": "ndlToken",
      "outputs": [
        {
          "internalType": "contract INDLToken",
          "name": "",
          "type": "address"
        }
      ],
      "stateMutability": "view",
      "type": "function"
    },
    {
      "inputs": [],
      "name": "nftOracle",
      "outputs": [
        {
          "internalType": "contract INFTOracle",
          "name": "",
          "type": "address"
        }
      ],
      "stateMutability": "view",
      "type": "function"
    },
    {
      "inputs": [],
      "name": "nftusdToken",
      "outputs": [
        {
          "internalType": "contract INFTUSDToken",
          "name": "",
          "type": "address"
        }
      ],
      "stateMutability": "view",
      "type": "function"
    },
    {
      "inputs": [
        {
          "internalType": "address",
          "name": "_rewardsToken",
          "type": "address"
        },
        {
          "internalType": "uint256",
          "name": "reward",
          "type": "uint256"
        }
      ],
      "name": "notifyRewardAmount",
      "outputs": [],
      "stateMutability": "nonpayable",
      "type": "function"
    },
    {
      "inputs": [
        {
          "internalType": "address",
          "name": "operator",
          "type": "address"
        },
        {
          "internalType": "address",
          "name": "from",
          "type": "address"
        },
        {
          "internalType": "uint256",
          "name": "tokenId",
          "type": "uint256"
        },
        {
          "internalType": "bytes",
          "name": "data",
          "type": "bytes"
        }
      ],
      "name": "onERC721Received",
      "outputs": [
        {
          "internalType": "bytes4",
          "name": "",
          "type": "bytes4"
        }
      ],
      "stateMutability": "pure",
      "type": "function"
    },
    {
      "inputs": [],
      "name": "owner",
      "outputs": [
        {
          "internalType": "address",
          "name": "",
          "type": "address"
        }
      ],
      "stateMutability": "view",
      "type": "function"
    },
    {
      "inputs": [],
      "name": "percentBorrow",
      "outputs": [
        {
          "internalType": "uint256",
          "name": "",
          "type": "uint256"
        }
      ],
      "stateMutability": "view",
      "type": "function"
    },
    {
      "inputs": [],
      "name": "poolLoan",
      "outputs": [
        {
          "internalType": "contract ILoanPool",
          "name": "",
          "type": "address"
        }
      ],
      "stateMutability": "view",
      "type": "function"
    },
    {
      "inputs": [],
      "name": "redemptionFee",
      "outputs": [
        {
          "internalType": "uint256",
          "name": "",
          "type": "uint256"
        }
      ],
      "stateMutability": "view",
      "type": "function"
    },
    {
      "inputs": [
        {
          "internalType": "address",
          "name": "nftAsset",
          "type": "address"
        },
        {
          "internalType": "uint256",
          "name": "nftTokenId",
          "type": "uint256"
        },
        {
          "internalType": "uint256",
          "name": "amount",
          "type": "uint256"
        }
      ],
      "name": "repay",
      "outputs": [
        {
          "internalType": "uint256",
          "name": "",
          "type": "uint256"
        },
        {
          "internalType": "bool",
          "name": "",
          "type": "bool"
        }
      ],
      "stateMutability": "nonpayable",
      "type": "function"
    },
    {
      "inputs": [
        {
          "internalType": "address",
          "name": "",
          "type": "address"
        }
      ],
      "name": "rewardData",
      "outputs": [
        {
          "internalType": "uint256",
          "name": "rewardsDuration",
          "type": "uint256"
        },
        {
          "internalType": "uint256",
          "name": "periodFinish",
          "type": "uint256"
        },
        {
          "internalType": "uint256",
          "name": "rewardRate",
          "type": "uint256"
        },
        {
          "internalType": "uint256",
          "name": "lastUpdateTime",
          "type": "uint256"
        },
        {
          "internalType": "uint256",
          "name": "rewardPerTokenStored",
          "type": "uint256"
        }
      ],
      "stateMutability": "view",
      "type": "function"
    },
    {
      "inputs": [
        {
          "internalType": "address",
          "name": "_rewardsToken",
          "type": "address"
        }
      ],
      "name": "rewardPerToken",
      "outputs": [
        {
          "internalType": "uint256",
          "name": "",
          "type": "uint256"
        }
      ],
      "stateMutability": "view",
      "type": "function"
    },
    {
      "inputs": [
        {
          "internalType": "uint256",
          "name": "",
          "type": "uint256"
        }
      ],
      "name": "rewardTokens",
      "outputs": [
        {
          "internalType": "address",
          "name": "",
          "type": "address"
        }
      ],
      "stateMutability": "view",
      "type": "function"
    },
    {
      "inputs": [
        {
          "internalType": "address",
          "name": "",
          "type": "address"
        },
        {
          "internalType": "address",
          "name": "",
          "type": "address"
        }
      ],
      "name": "rewards",
      "outputs": [
        {
          "internalType": "uint256",
          "name": "",
          "type": "uint256"
        }
      ],
      "stateMutability": "view",
      "type": "function"
    },
    {
      "inputs": [
        {
          "internalType": "address",
          "name": "_rewardsToken",
          "type": "address"
        },
        {
          "internalType": "uint256",
          "name": "_rewardsDuration",
          "type": "uint256"
        }
      ],
      "name": "setRewardsDuration",
      "outputs": [],
      "stateMutability": "nonpayable",
      "type": "function"
    },
    {
      "inputs": [],
      "name": "totalExtractionFee",
      "outputs": [
        {
          "internalType": "uint256",
          "name": "",
          "type": "uint256"
        }
      ],
      "stateMutability": "view",
      "type": "function"
    },
    {
      "inputs": [],
      "name": "totalSecurityDeposit",
      "outputs": [
        {
          "internalType": "uint256",
          "name": "",
          "type": "uint256"
        }
      ],
      "stateMutability": "view",
      "type": "function"
    },
    {
      "inputs": [
        {
          "internalType": "address",
          "name": "",
          "type": "address"
        },
        {
          "internalType": "address",
          "name": "",
          "type": "address"
        }
      ],
      "name": "userRewardPerTokenPaid",
      "outputs": [
        {
          "internalType": "uint256",
          "name": "",
          "type": "uint256"
        }
      ],
      "stateMutability": "view",
      "type": "function"
    },
    {
      "inputs": [
        {
          "internalType": "uint256",
          "name": "_amount",
          "type": "uint256"
        }
      ],
      "name": "withdraw",
      "outputs": [],
      "stateMutability": "nonpayable",
      "type": "function"
    }
  ],
  "bytecode": "0x608060405234801561001057600080fd5b50603380546001600160a01b031916339081179091556040516000907f8be0079c531659141344cd1fd0a4f28419497f9722a3daafe3b4186f6b6457e0908290a361389d806100606000396000f3fe608060405234801561001057600080fd5b506004361061021c5760003560e01c80637bb7bed111610125578063b66503cf116100ad578063e70b9e271161007c578063e70b9e2714610534578063ebdb426e1461055c578063f12297771461056f578063f8c8765e14610582578063feeb00881461059557600080fd5b8063b66503cf146104fc578063b6b55f251461050f578063badfd7ca14610522578063e626648a1461052b57600080fd5b80638dffaa98116100f45780638dffaa98146104b15780638f32d59b146104ba57806398e2335d146104d8578063a36a3630146104e0578063b071d32c146104e957600080fd5b80637bb7bed11461045d5780638cd2e0c7146104705780638d2d4e9b146104985780638da5cb5b146104a057600080fd5b8063458f5815116101a857806369fda19c1161017757806369fda19c146103925780636ad9f9df146103b25780636b64c885146103da5780637035ab98146103fa5780637762b9151461042557600080fd5b8063458f58151461030857806348e5d9f8146103115780635b1f335f14610376578063638634ee1461037f57600080fd5b806326c01303116101ef57806326c01303146102bf578063286c2add146102d257806329994d3f146102e55780632e1a7d4d146102ed5780633d18b9121461030057600080fd5b806305fa354414610221578063150b7a0214610251578063211dc32d146102895780632378bea6146102aa575b600080fd5b603454610234906001600160a01b031681565b6040516001600160a01b0390911681526020015b60405180910390f35b61027061025f366004612fb9565b630a85bd0160e11b95945050505050565b6040516001600160e01b03199091168152602001610248565b61029c610297366004613058565b6105a8565b604051908152602001610248565b6102bd6102b8366004613091565b610642565b005b61029c6102cd3660046130bd565b61075a565b603554610234906001600160a01b031681565b60425461029c565b6102bd6102fb3660046130fe565b611013565b6102bd611210565b61029c603b5481565b61034e61031f366004613117565b603d60205260009081526040902080546001820154600283015460038401546004909401549293919290919085565b604080519586526020860194909452928401919091526060830152608082015260a001610248565b61029c60425481565b61029c61038d366004613117565b611455565b6103a56103a0366004613117565b61147c565b6040516102489190613190565b6103c56103c0366004613117565b611675565b60408051928352602083019190915201610248565b6103ed6103e8366004613117565b611868565b6040516102489190613286565b61029c610408366004613058565b603f60209081526000928352604080842090915290825290205481565b6104386104333660046130fe565b6118ea565b604080516001600160a01b039094168452602084019290925290820152606001610248565b61023461046b3660046130fe565b611978565b61048361047e3660046132ca565b6119a2565b60408051928352901515602083015201610248565b60435461029c565b6033546001600160a01b0316610234565b61029c60385481565b6033546001600160a01b031633146040519015158152602001610248565b603c5461029c565b61029c603a5481565b6102bd6104f73660046132ff565b611ee6565b6102bd61050a366004613091565b6125b6565b6102bd61051d3660046130fe565b612732565b61029c60435481565b61029c60395481565b61029c610542366004613058565b604060208181526000938452818420905290825290205481565b603654610234906001600160a01b031681565b61029c61057d366004613117565b612922565b6102bd61059036600461335e565b6129c4565b603754610234906001600160a01b031681565b6001600160a01b0380831660008181526040602081815281832094861680845294815281832054938352603f81528183209483529390935291822054610639919061063390670de0b6b3a76400009061062d9061060e9061060889612922565b90612b4c565b6001600160a01b03891660009081526041602052604090205490612b8e565b90612c0d565b90612c4f565b90505b92915050565b6001600160a01b0382166000908152603d602052604090206001015442116106b15760405162461bcd60e51b815260206004820152601a60248201527f52657761726420706572696f64207374696c6c2061637469766500000000000060448201526064015b60405180910390fd5b600081116107015760405162461bcd60e51b815260206004820181905260248201527f526577617264206475726174696f6e206d757374206265206e6f6e2d7a65726f60448201526064016106a8565b6001600160a01b0382166000908152603d602052604090819020829055517fad2f86b01ed93b4b3a150d448c61a4f5d8d38075d3c0c64cc0a26fd6e1f495459061074e90849084906133ba565b60405180910390a15050565b600080600061076886611675565b915091508082106107bb5760405162461bcd60e51b815260206004820152601e60248201527f74686973206973206e6f7420746865206c6971756964617465206c696e65000060448201526064016106a8565b60375460405163058dcda760e21b815233916000916001600160a01b0390911690631637369c906107f2908a908a906004016133ba565b60206040518083038186803b15801561080a57600080fd5b505afa15801561081e573d6000803e3d6000fd5b505050506040513d601f19601f8201168201806040525081019061084291906133d3565b603754604051632820036560e11b8152600481018390529192506000916001600160a01b039091169063504006ca9060240160006040518083038186803b15801561088c57600080fd5b505afa1580156108a0573d6000803e3d6000fd5b505050506040513d6000823e601f3d908101601f191682016040526108c891908101906134e0565b603554604051637638659b60e11b81526001600160a01b038b811660048301529293506000929091169063ec70cb369060240160206040518083038186803b15801561091357600080fd5b505afa158015610927573d6000803e3d6000fd5b505050506040513d601f19601f8201168201806040525081019061094b91906133d3565b90508160c0015181116109a05760405162461bcd60e51b815260206004820152601e60248201527f74686973206973206e6f7420746865206c6971756964617465206c696e65000060448201526064016106a8565b6034546040516370a0823160e01b81523360048201526000916001600160a01b0316906370a082319060240160206040518083038186803b1580156109e457600080fd5b505afa1580156109f8573d6000803e3d6000fd5b505050506040513d601f19601f82011682018060405250810190610a1c91906133d3565b9050610a376038548460c00151612cae90919063ffffffff16565b8110610cc35760345460385460c08501516001600160a01b0390921691639dc29fac918891610a6591612cae565b6040518363ffffffff1660e01b8152600401610a829291906133ba565b600060405180830381600087803b158015610a9c57600080fd5b505af1158015610ab0573d6000803e3d6000fd5b505060345460385460c08701516001600160a01b03909216935063a9059cbb92508891610adc91612cae565b8660c00151610aeb91906135c6565b6040518363ffffffff1660e01b8152600401610b089291906133ba565b602060405180830381600087803b158015610b2257600080fd5b505af1158015610b36573d6000803e3d6000fd5b505050506040513d601f19601f82011682018060405250810190610b5a91906135dd565b50603754604080850151855160c08701519251635eb45d7560e01b81526001600160a01b0390941693635eb45d7593610b9a9392916001906004016135ff565b600060405180830381600087803b158015610bb457600080fd5b505af1158015610bc8573d6000803e3d6000fd5b505060365460395460c08701516001600160a01b03909216935063c77acc3692508891610bf491612cae565b6040518363ffffffff1660e01b8152600401610c119291906133ba565b600060405180830381600087803b158015610c2b57600080fd5b505af1158015610c3f573d6000803e3d6000fd5b505060365460395460c0870151610c6894506001600160a01b03909216925061050a9190612cae565b60395460c0840151610c7991612cae565b60436000828254610c8a9190613627565b9091555050603854610cae90610ca390620f42406135c6565b60c085015190612cae565b604254610cbb91906135c6565b604255611002565b603754604080850151855160c08701519251635eb45d7560e01b81526001600160a01b0390941693635eb45d7593610d029392916000906004016135ff565b600060405180830381600087803b158015610d1c57600080fd5b505af1158015610d30573d6000803e3d6000fd5b505060355460405163557d313960e11b81526001600160a01b038e8116600483015260009450909116915063aafa62729060240160006040518083038186803b158015610d7c57600080fd5b505afa158015610d90573d6000803e3d6000fd5b505050506040513d6000823e601f3d908101601f19168201604052610db8919081019061363f565b9050603760009054906101000a90046001600160a01b03166001600160a01b0316639262f5c087888e8e86896040518763ffffffff1660e01b8152600401610e0596959493929190613674565b602060405180830381600087803b158015610e1f57600080fd5b505af1158015610e33573d6000803e3d6000fd5b505050506040513d601f19601f82011682018060405250810190610e5791906133d3565b506034546038546001600160a01b03909116906340c10f199088908590610e7f908890612cae565b610e8991906135c6565b6040518363ffffffff1660e01b8152600401610ea69291906133ba565b600060405180830381600087803b158015610ec057600080fd5b505af1158015610ed4573d6000803e3d6000fd5b50506036546039546001600160a01b03909116925063c77acc3691508890610efd908690612cae565b6040518363ffffffff1660e01b8152600401610f1a9291906133ba565b600060405180830381600087803b158015610f3457600080fd5b505af1158015610f48573d6000803e3d6000fd5b5050603654603954610f6d93506001600160a01b03909116915061050a908590612cae565b603954610f7b908390612cae565b60436000828254610f8c9190613627565b9091555050603454603854610fcc916001600160a01b03169061050a90610fb690620f42406135c6565b868860c00151610fc691906135c6565b90612cae565b610ff0603854620f4240610fe091906135c6565b848660c00151610fc691906135c6565b604254610ffd91906135c6565b604255505b5060009a9950505050505050505050565b3360005b603e54811015611109576000603e8281548110611036576110366136c2565b6000918252602090912001546001600160a01b0316905061105681612922565b6001600160a01b0382166000908152603d602052604090206004015561107b81611455565b6001600160a01b038083166000908152603d60205260409020600301919091558316156110f6576110ac83826105a8565b6001600160a01b0380851660008181526040602081815281832094871680845294815281832095909555603d855280822060040154928252603f8552808220938252929093529120555b5080611101816136d8565b915050611017565b503361111483612d39565b603c546111219084612b4c565b603c556001600160a01b0381166000908152604160205260409020546111479084612b4c565b6001600160a01b0382811660008181526041602052604090819020939093556034549251631062c15f60e11b81523060048201526024810191909152604481018690529116906320c582be90606401600060405180830381600087803b1580156111b057600080fd5b505af11580156111c4573d6000803e3d6000fd5b50505050806001600160a01b03167f7084f5476618d8e60b11ef0d7d3f06914655adb8793e28ff7f018d4c76d505d58460405161120391815260200190565b60405180910390a2505050565b3360005b603e54811015611306576000603e8281548110611233576112336136c2565b6000918252602090912001546001600160a01b0316905061125381612922565b6001600160a01b0382166000908152603d602052604090206004015561127881611455565b6001600160a01b038083166000908152603d60205260409020600301919091558316156112f3576112a983826105a8565b6001600160a01b0380851660008181526040602081815281832094871680845294815281832095909555603d855280822060040154928252603f8552808220938252929093529120555b50806112fe816136d8565b915050611214565b5060005b603e54811015611451576000603e8281548110611329576113296136c2565b600091825260208083209091015433835260408083528084206001600160a01b0390921680855291909252912054909150801561143c57336000818152604060208181528183206001600160a01b0387168085529152818320929092555163a9059cbb60e01b8152909163a9059cbb916113a8919085906004016133ba565b602060405180830381600087803b1580156113c257600080fd5b505af11580156113d6573d6000803e3d6000fd5b505050506040513d601f19601f820116820180604052508101906113fa91906135dd565b506040518181526001600160a01b0383169033907f540798df468d7b23d11f156fdb954cb19ad414d150722a7b6d55ba369dea792e9060200160405180910390a35b50508080611449906136d8565b91505061130a565b5050565b6001600160a01b0381166000908152603d602052604081206001015461063c904290612d9b565b603754604051636b64c88560e01b81526001600160a01b038381166004830152606092600092911690636b64c8859060240160006040518083038186803b1580156114c657600080fd5b505afa1580156114da573d6000803e3d6000fd5b505050506040513d6000823e601f3d908101601f1916820160405261150291908101906136f3565b9050805167ffffffffffffffff81111561151e5761151e6133ec565b60405190808252806020026020018201604052801561158c57816020015b6040805161010081018252600080825260208083018290529282018190526060808301829052608083015260a0820181905260c0820181905260e0820152825260001990920191018161153c5790505b50915060005b815181101561166e5760375482516001600160a01b039091169063504006ca908490849081106115c4576115c46136c2565b60200260200101516040518263ffffffff1660e01b81526004016115ea91815260200190565b60006040518083038186803b15801561160257600080fd5b505afa158015611616573d6000803e3d6000fd5b505050506040513d6000823e601f3d908101601f1916820160405261163e91908101906134e0565b838281518110611650576116506136c2565b60200260200101819052508080611666906136d8565b915050611592565b5050919050565b603754604051636b64c88560e01b81526001600160a01b0383811660048301526000928392839290911690636b64c8859060240160006040518083038186803b1580156116c157600080fd5b505afa1580156116d5573d6000803e3d6000fd5b505050506040513d6000823e601f3d908101601f191682016040526116fd91908101906136f3565b905060008080805b845181101561185e5760375485516001600160a01b0390911690637762b91590879084908110611737576117376136c2565b60200260200101516040518263ffffffff1660e01b815260040161175d91815260200190565b60606040518083038186803b15801561177557600080fd5b505afa158015611789573d6000803e3d6000fd5b505050506040513d601f19601f820116820180604052508101906117ad9190613799565b603554604051637638659b60e11b81526001600160a01b038086166004830152949750919550929092169163ec70cb36915060240160206040518083038186803b1580156117fa57600080fd5b505afa15801561180e573d6000803e3d6000fd5b505050506040513d601f19601f8201168201806040525081019061183291906133d3565b935061183e8487613627565b955061184a8288613627565b965080611856816136d8565b915050611705565b5050505050915091565b603754604051636b64c88560e01b81526001600160a01b0383811660048301526060921690636b64c8859060240160006040518083038186803b1580156118ae57600080fd5b505afa1580156118c2573d6000803e3d6000fd5b505050506040513d6000823e601f3d908101601f1916820160405261063c91908101906136f3565b603754604051637762b91560e01b815260048101839052600091829182916001600160a01b031690637762b9159060240160606040518083038186803b15801561193357600080fd5b505afa158015611947573d6000803e3d6000fd5b505050506040513d601f19601f8201168201806040525081019061196b9190613799565b9250925092509193909250565b603e818154811061198857600080fd5b6000918252602090912001546001600160a01b0316905081565b6000806000805b603e54811015611a9b576000603e82815481106119c8576119c86136c2565b6000918252602090912001546001600160a01b031690506119e881612922565b6001600160a01b0382166000908152603d6020526040902060040155611a0d81611455565b6001600160a01b038083166000908152603d6020526040902060030191909155831615611a8857611a3e83826105a8565b6001600160a01b0380851660008181526040602081815281832094871680845294815281832095909555603d855280822060040154928252603f8552808220938252929093529120555b5080611a93816136d8565b9150506119a9565b5060375460405163058dcda760e21b815233916000916001600160a01b0390911690631637369c90611ad3908b908b906004016133ba565b60206040518083038186803b158015611aeb57600080fd5b505afa158015611aff573d6000803e3d6000fd5b505050506040513d601f19601f82011682018060405250810190611b2391906133d3565b905080611b655760405162461bcd60e51b815260206004820152601060248201526f1b9bc81cdd58da081919589d081b999d60821b60448201526064016106a8565b603754604051637762b91560e01b8152600481018390526000916001600160a01b031690637762b9159060240160606040518083038186803b158015611baa57600080fd5b505afa158015611bbe573d6000803e3d6000fd5b505050506040513d601f19601f82011682018060405250810190611be29190613799565b925050506000819050600081611c036038548b612db190919063ffffffff16565b1015611c8657603854611c17908a90612db1565b603754604051630ed96e7d60e11b81529193506001600160a01b031690631db2dcfa90611c4f908890889087906000906004016135ff565b600060405180830381600087803b158015611c6957600080fd5b505af1158015611c7d573d6000803e3d6000fd5b50505050611cf6565b50603754604051631014ba7b60e31b81526001600160a01b038681166004830152602482018690526044820184905260019216906380a5d3d890606401600060405180830381600087803b158015611cdd57600080fd5b505af1158015611cf1573d6000803e3d6000fd5b505050505b603654603b546001600160a01b039091169063c77acc36908790611d1b908690612cae565b6040518363ffffffff1660e01b8152600401611d389291906133ba565b600060405180830381600087803b158015611d5257600080fd5b505af1158015611d66573d6000803e3d6000fd5b5050603654603b54611d8b93506001600160a01b03909116915061050a908590612cae565b6034546038546001600160a01b0390911690639dc29fac908790611db0908690612cae565b6040518363ffffffff1660e01b8152600401611dcd9291906133ba565b600060405180830381600087803b158015611de757600080fd5b505af1158015611dfb573d6000803e3d6000fd5b50506034546038546001600160a01b039091169250639dc29fac91503090611e3190611e2a90620f42406135c6565b8690612cae565b6040518363ffffffff1660e01b8152600401611e4e9291906133ba565b600060405180830381600087803b158015611e6857600080fd5b505af1158015611e7c573d6000803e3d6000fd5b50505050611e9b603854620f4240611e9491906135c6565b8390612cae565b60426000828254611eac91906135c6565b9091555050603b54611ebf908390612cae565b60436000828254611ed09190613627565b90915550919b90159a5098505050505050505050565b6000805b603e54811015611fdc576000603e8281548110611f0957611f096136c2565b6000918252602090912001546001600160a01b03169050611f2981612922565b6001600160a01b0382166000908152603d6020526040902060040155611f4e81611455565b6001600160a01b038083166000908152603d6020526040902060030191909155831615611fc957611f7f83826105a8565b6001600160a01b0380851660008181526040602081815281832094871680845294815281832095909555603d855280822060040154928252603f8552808220938252929093529120555b5080611fd4816136d8565b915050611eea565b506001600160a01b03821661203f5760405162461bcd60e51b8152602060048201526024808201527f4572726f72732e564c5f494e56414c49445f4f4e424548414c464f465f4144446044820152635245535360e01b60648201526084016106a8565b6000851161208f5760405162461bcd60e51b815260206004820152601860248201527f4572726f72732e564c5f494e56414c49445f414d4f554e54000000000000000060448201526064016106a8565b60375460405163058dcda760e21b815233916000916001600160a01b0390911690631637369c906120c690899089906004016133ba565b60206040518083038186803b1580156120de57600080fd5b505afa1580156120f2573d6000803e3d6000fd5b505050506040513d601f19601f8201168201806040525081019061211691906133d3565b603554604051637638659b60e11b81526001600160a01b0389811660048301529293506000929091169063ec70cb369060240160206040518083038186803b15801561216157600080fd5b505afa158015612175573d6000803e3d6000fd5b505050506040513d601f19601f8201168201806040525081019061219991906133d3565b9050806121df5760405162461bcd60e51b81526020600482015260146024820152731b9bc81cdd58da081b999d081cdd5c1c1b1e595960621b60448201526064016106a8565b87811161223c5760405162461bcd60e51b815260206004820152602560248201527f626f72726f7720616d6f756e7420697320746f206869676820666f72207468696044820152641cc813919560da1b60648201526084016106a8565b8161236a5760355460405163557d313960e11b81526001600160a01b038981166004830152600092169063aafa62729060240160006040518083038186803b15801561228757600080fd5b505afa15801561229b573d6000803e3d6000fd5b505050506040513d6000823e601f3d908101601f191682016040526122c3919081019061363f565b9050603760009054906101000a90046001600160a01b03166001600160a01b0316639262f5c085888b8b868f6040518763ffffffff1660e01b815260040161231096959493929190613674565b602060405180830381600087803b15801561232a57600080fd5b505af115801561233e573d6000803e3d6000fd5b505050506040513d601f19601f8201168201806040525081019061236291906133d3565b9250506123d4565b603754604051630ed96e7d60e11b81526001600160a01b0390911690631db2dcfa906123a190869086908d906001906004016135ff565b600060405180830381600087803b1580156123bb57600080fd5b505af11580156123cf573d6000803e3d6000fd5b505050505b6036546039546123f3916001600160a01b03169061050a908b90612cae565b6036546039546001600160a01b039091169063c77acc36908590612418908c90612cae565b6040518363ffffffff1660e01b81526004016124359291906133ba565b600060405180830381600087803b15801561244f57600080fd5b505af1158015612463573d6000803e3d6000fd5b505060395461247592508a9150612cae565b604360008282546124869190613627565b90915550506034546038546001600160a01b03909116906340c10f199087906124b0908c90612cae565b6040518363ffffffff1660e01b81526004016124cd9291906133ba565b600060405180830381600087803b1580156124e757600080fd5b505af11580156124fb573d6000803e3d6000fd5b50506034546038546001600160a01b0390911692506340c10f1991503090612524908c90612cae565b61252e908c6135c6565b6040518363ffffffff1660e01b815260040161254b9291906133ba565b600060405180830381600087803b15801561256557600080fd5b505af1158015612579573d6000803e3d6000fd5b505060385461258b92508a9150612cae565b61259590896135c6565b604260008282546125a69190613627565b9091555050505050505050505050565b6001600160a01b0382166000908152603d6020526040902060010154421061261d576001600160a01b0382166000908152603d60205260409020546125fc908290612c0d565b6001600160a01b0383166000908152603d60205260409020600201556126b7565b6001600160a01b0382166000908152603d60205260408120600101546126439042612b4c565b6001600160a01b0384166000908152603d60205260408120600201549192509061266e908390612b8e565b6001600160a01b0385166000908152603d60205260409020549091506126989061062d8584612c4f565b6001600160a01b0385166000908152603d602052604090206002015550505b6001600160a01b0382166000908152603d60205260409020426003820181905590546126e39190612c4f565b6001600160a01b0383166000908152603d602090815260409182902060010192909255518281527fde88a922e0d3b88b24e9623efeb464919c6bf9f66857a65e2bfcf2ce87a9433d910161074e565b3360005b603e54811015612828576000603e8281548110612755576127556136c2565b6000918252602090912001546001600160a01b0316905061277581612922565b6001600160a01b0382166000908152603d602052604090206004015561279a81611455565b6001600160a01b038083166000908152603d6020526040902060030191909155831615612815576127cb83826105a8565b6001600160a01b0380851660008181526040602081815281832094871680845294815281832095909555603d855280822060040154928252603f8552808220938252929093529120555b5080612820816136d8565b915050612736565b503361283383612d39565b603c546128409084612c4f565b603c556001600160a01b0381166000908152604160205260409020546128669084612c4f565b6001600160a01b0382811660008181526041602052604090819020939093556034549251632ee65eeb60e21b815260048101919091523060248201526044810186905291169063bb997bac90606401600060405180830381600087803b1580156128cf57600080fd5b505af11580156128e3573d6000803e3d6000fd5b50505050806001600160a01b03167f9e71bc8eea02a63969f509818f2dafb9254532904319f9dbda79b67bd34a5f3d8460405161120391815260200190565b6000603c546000141561294e57506001600160a01b03166000908152603d602052604090206004015490565b603c546001600160a01b0383166000908152603d60205260409020600281015460039091015461063c926129a292909161062d91670de0b6b3a76400009161299c919082906106088b611455565b90612b8e565b6001600160a01b0384166000908152603d602052604090206004015490612c4f565b600054610100900460ff16158080156129e45750600054600160ff909116105b806129fe5750303b1580156129fe575060005460ff166001145b612a615760405162461bcd60e51b815260206004820152602e60248201527f496e697469616c697a61626c653a20636f6e747261637420697320616c72656160448201526d191e481a5b9a5d1a585b1a5e995960921b60648201526084016106a8565b6000805460ff191660011790558015612a84576000805461ff0019166101001790555b603480546001600160a01b038087166001600160a01b03199283161790925560368054868416908316179055603580548884169083161790556037805492851692909116919091179055620dbba0603855619c40603955614e20603b55612ae9612e73565b612af4836001612ebd565b612aff846001612ebd565b8015612b45576000805461ff0019169055604051600181527f7f26b83ff96e1f2b6a682f133852f6798a09c465da95921460cefb38474024989060200160405180910390a15b5050505050565b600061063983836040518060400160405280601e81526020017f536166654d6174683a207375627472616374696f6e206f766572666c6f770000815250612f3c565b600082612b9d5750600061063c565b6000612ba983856137d0565b905082612bb685836137ef565b146106395760405162461bcd60e51b815260206004820152602160248201527f536166654d6174683a206d756c7469706c69636174696f6e206f766572666c6f6044820152607760f81b60648201526084016106a8565b600061063983836040518060400160405280601a81526020017f536166654d6174683a206469766973696f6e206279207a65726f000000000000815250612f76565b600080612c5c8385613627565b9050838110156106395760405162461bcd60e51b815260206004820152601b60248201527f536166654d6174683a206164646974696f6e206f766572666c6f77000000000060448201526064016106a8565b6000821580612cbb575081155b15612cc85750600061063c565b81612cd76002620f42406137ef565b612ce3906000196135c6565b612ced91906137ef565b831115612d0c5760405162461bcd60e51b81526004016106a890613811565b620f4240612d1b6002826137ef565b612d2584866137d0565b612d2f9190613627565b61063991906137ef565b60008111612d985760405162461bcd60e51b815260206004820152602660248201527f53746162696c697479506f6f6c3a20416d6f756e74206d757374206265206e6f6044820152656e2d7a65726f60d01b60648201526084016106a8565b50565b6000818310612daa5781610639565b5090919050565b600081612e005760405162461bcd60e51b815260206004820152601c60248201527f4572726f72732e4d4154485f4449564953494f4e5f42595f5a45524f0000000060448201526064016106a8565b6000612e0d6002846137ef565b9050620f4240612e1f826000196135c6565b612e2991906137ef565b841115612e485760405162461bcd60e51b81526004016106a890613811565b8281612e57620f4240876137d0565b612e619190613627565b612e6b91906137ef565b949350505050565b6033546040516000916001600160a01b0316907f8be0079c531659141344cd1fd0a4f28419497f9722a3daafe3b4186f6b6457e0908390a3603380546001600160a01b0319169055565b6001600160a01b0382166000908152603d602052604090205415612ee057600080fd5b603e8054600181019091557f8d800d6614d35eed73733ee453164a3b48076eb3138f466adeeb9dec7bb31f700180546001600160a01b039093166001600160a01b0319909316831790556000918252603d602052604090912055565b60008184841115612f605760405162461bcd60e51b81526004016106a89190613854565b506000612f6d84866135c6565b95945050505050565b60008183612f975760405162461bcd60e51b81526004016106a89190613854565b506000612f6d84866137ef565b6001600160a01b0381168114612d9857600080fd5b600080600080600060808688031215612fd157600080fd5b8535612fdc81612fa4565b94506020860135612fec81612fa4565b935060408601359250606086013567ffffffffffffffff8082111561301057600080fd5b818801915088601f83011261302457600080fd5b81358181111561303357600080fd5b89602082850101111561304557600080fd5b9699959850939650602001949392505050565b6000806040838503121561306b57600080fd5b823561307681612fa4565b9150602083013561308681612fa4565b809150509250929050565b600080604083850312156130a457600080fd5b82356130af81612fa4565b946020939093013593505050565b6000806000606084860312156130d257600080fd5b83356130dd81612fa4565b925060208401356130ed81612fa4565b929592945050506040919091013590565b60006020828403121561311057600080fd5b5035919050565b60006020828403121561312957600080fd5b813561063981612fa4565b60005b8381101561314f578181015183820152602001613137565b8381111561315e576000848401525b50505050565b6000815180845261317c816020860160208601613134565b601f01601f19169290920160200192915050565b60006020808301818452808551808352604092508286019150828160051b8701018488016000805b8481101561327757603f198a850301865282516101008151865289820151600681106131f257634e487b7160e01b85526021600452602485fd5b868b0152818901516001600160a01b039081168a8801526060808401519091169087015260808083015181880183905261322e83890182613164565b60a085810151908a015260c080860151908a015260e0948501516001600160a01b038116868b01529490935091506132639050565b5096890196945050918701916001016131b8565b50919998505050505050505050565b6020808252825182820181905260009190848201906040850190845b818110156132be578351835292840192918401916001016132a2565b50909695505050505050565b6000806000606084860312156132df57600080fd5b83356132ea81612fa4565b95602085013595506040909401359392505050565b600080600080600060a0868803121561331757600080fd5b853561332281612fa4565b945060208601359350604086013561333981612fa4565b925060608601359150608086013561335081612fa4565b809150509295509295909350565b6000806000806080858703121561337457600080fd5b843561337f81612fa4565b9350602085013561338f81612fa4565b9250604085013561339f81612fa4565b915060608501356133af81612fa4565b939692955090935050565b6001600160a01b03929092168252602082015260400190565b6000602082840312156133e557600080fd5b5051919050565b634e487b7160e01b600052604160045260246000fd5b604051610100810167ffffffffffffffff81118282101715613426576134266133ec565b60405290565b604051601f8201601f1916810167ffffffffffffffff81118282101715613455576134556133ec565b604052919050565b80516006811061346c57600080fd5b919050565b805161346c81612fa4565b600082601f83011261348d57600080fd5b815167ffffffffffffffff8111156134a7576134a76133ec565b6134ba601f8201601f191660200161342c565b8181528460208386010111156134cf57600080fd5b612e6b826020830160208701613134565b6000602082840312156134f257600080fd5b815167ffffffffffffffff8082111561350a57600080fd5b90830190610100828603121561351f57600080fd5b613527613402565b825181526135376020840161345d565b602082015261354860408401613471565b604082015261355960608401613471565b606082015260808301518281111561357057600080fd5b61357c8782860161347c565b60808301525060a083015160a082015260c083015160c08201526135a260e08401613471565b60e082015295945050505050565b634e487b7160e01b600052601160045260246000fd5b6000828210156135d8576135d86135b0565b500390565b6000602082840312156135ef57600080fd5b8151801515811461063957600080fd5b6001600160a01b03949094168452602084019290925260408301521515606082015260800190565b6000821982111561363a5761363a6135b0565b500190565b60006020828403121561365157600080fd5b815167ffffffffffffffff81111561366857600080fd5b612e6b8482850161347c565b6001600160a01b0387811682528681166020830152851660408201526060810184905260c0608082018190526000906136af90830185613164565b90508260a0830152979650505050505050565b634e487b7160e01b600052603260045260246000fd5b60006000198214156136ec576136ec6135b0565b5060010190565b6000602080838503121561370657600080fd5b825167ffffffffffffffff8082111561371e57600080fd5b818501915085601f83011261373257600080fd5b815181811115613744576137446133ec565b8060051b915061375584830161342c565b818152918301840191848101908884111561376f57600080fd5b938501935b8385101561378d57845182529385019390850190613774565b98975050505050505050565b6000806000606084860312156137ae57600080fd5b83516137b981612fa4565b602085015160409095015190969495509392505050565b60008160001904831182151516156137ea576137ea6135b0565b500290565b60008261380c57634e487b7160e01b600052601260045260246000fd5b500490565b60208082526023908201527f4572726f72732e4d4154485f4d554c5449504c49434154494f4e5f4f564552466040820152624c4f5760e81b606082015260800190565b602081526000610639602083018461316456fea26469706673582212206615235ead76e64d2691b683071910abecdaf082fcf14576e1f1bf76b0d2d49b64736f6c63430008080033",
  "linkReferences": {},
  "deployedLinkReferences": {}
}