{
  "_format": "hh-sol-artifact-1",
  "contractName": "StabilityPool",
  "sourceName": "contracts/SbabilityPool.sol",
  "abi": [
    {
      "anonymous": false,
      "inputs": [
        {
          "indexed": false,
          "internalType": "uint128",
          "name": "_currentEpoch",
          "type": "uint128"
        }
      ],
      "name": "EpochUpdated",
      "type": "event"
    },
    {
      "anonymous": false,
      "inputs": [
        {
          "indexed": false,
          "internalType": "uint256",
          "name": "_G",
          "type": "uint256"
        },
        {
          "indexed": false,
          "internalType": "uint128",
          "name": "_epoch",
          "type": "uint128"
        },
        {
          "indexed": false,
          "internalType": "uint128",
          "name": "_scale",
          "type": "uint128"
        }
      ],
      "name": "G_Updated",
      "type": "event"
    },
    {
      "anonymous": false,
      "inputs": [
        {
          "indexed": false,
          "internalType": "uint8",
          "name": "version",
          "type": "uint8"
        }
      ],
      "name": "Initialized",
      "type": "event"
    },
    {
      "anonymous": false,
      "inputs": [
        {
          "indexed": true,
          "internalType": "address",
          "name": "previousOwner",
          "type": "address"
        },
        {
          "indexed": true,
          "internalType": "address",
          "name": "newOwner",
          "type": "address"
        }
      ],
      "name": "OwnershipTransferred",
      "type": "event"
    },
    {
      "anonymous": false,
      "inputs": [
        {
          "indexed": false,
          "internalType": "uint256",
          "name": "_S",
          "type": "uint256"
        },
        {
          "indexed": false,
          "internalType": "uint128",
          "name": "_epoch",
          "type": "uint128"
        },
        {
          "indexed": false,
          "internalType": "uint128",
          "name": "_scale",
          "type": "uint128"
        }
      ],
      "name": "S_Updated",
      "type": "event"
    },
    {
      "anonymous": false,
      "inputs": [
        {
          "indexed": false,
          "internalType": "uint128",
          "name": "_currentScale",
          "type": "uint128"
        }
      ],
      "name": "ScaleUpdated",
      "type": "event"
    },
    {
      "inputs": [],
      "name": "P",
      "outputs": [
        {
          "internalType": "uint256",
          "name": "",
          "type": "uint256"
        }
      ],
      "stateMutability": "view",
      "type": "function"
    },
    {
      "inputs": [
        {
          "internalType": "address",
          "name": "asset",
          "type": "address"
        },
        {
          "internalType": "uint256",
          "name": "amount",
          "type": "uint256"
        },
        {
          "internalType": "address",
          "name": "nftAsset",
          "type": "address"
        },
        {
          "internalType": "uint256",
          "name": "nftTokenId",
          "type": "uint256"
        },
        {
          "internalType": "address",
          "name": "onBehalfOf",
          "type": "address"
        }
      ],
      "name": "borrow",
      "outputs": [],
      "stateMutability": "payable",
      "type": "function"
    },
    {
      "inputs": [],
      "name": "borrowFee",
      "outputs": [
        {
          "internalType": "uint256",
          "name": "",
          "type": "uint256"
        }
      ],
      "stateMutability": "view",
      "type": "function"
    },
    {
      "inputs": [],
      "name": "currentEpoch",
      "outputs": [
        {
          "internalType": "uint128",
          "name": "",
          "type": "uint128"
        }
      ],
      "stateMutability": "view",
      "type": "function"
    },
    {
      "inputs": [],
      "name": "currentScale",
      "outputs": [
        {
          "internalType": "uint128",
          "name": "",
          "type": "uint128"
        }
      ],
      "stateMutability": "view",
      "type": "function"
    },
    {
      "inputs": [
        {
          "internalType": "uint256",
          "name": "_amount",
          "type": "uint256"
        }
      ],
      "name": "deposit",
      "outputs": [],
      "stateMutability": "nonpayable",
      "type": "function"
    },
    {
      "inputs": [
        {
          "internalType": "address",
          "name": "",
          "type": "address"
        }
      ],
      "name": "depositSnapshots",
      "outputs": [
        {
          "internalType": "uint256",
          "name": "S",
          "type": "uint256"
        },
        {
          "internalType": "uint256",
          "name": "P",
          "type": "uint256"
        },
        {
          "internalType": "uint256",
          "name": "G",
          "type": "uint256"
        },
        {
          "internalType": "uint128",
          "name": "scale",
          "type": "uint128"
        },
        {
          "internalType": "uint128",
          "name": "epoch",
          "type": "uint128"
        }
      ],
      "stateMutability": "view",
      "type": "function"
    },
    {
      "inputs": [
        {
          "internalType": "address",
          "name": "",
          "type": "address"
        }
      ],
      "name": "deposits",
      "outputs": [
        {
          "internalType": "uint256",
          "name": "",
          "type": "uint256"
        }
      ],
      "stateMutability": "view",
      "type": "function"
    },
    {
      "inputs": [
        {
          "internalType": "uint128",
          "name": "",
          "type": "uint128"
        },
        {
          "internalType": "uint128",
          "name": "",
          "type": "uint128"
        }
      ],
      "name": "epochToScaleToG",
      "outputs": [
        {
          "internalType": "uint256",
          "name": "",
          "type": "uint256"
        }
      ],
      "stateMutability": "view",
      "type": "function"
    },
    {
      "inputs": [
        {
          "internalType": "uint128",
          "name": "",
          "type": "uint128"
        },
        {
          "internalType": "uint128",
          "name": "",
          "type": "uint128"
        }
      ],
      "name": "epochToScaleToSum",
      "outputs": [
        {
          "internalType": "uint256",
          "name": "",
          "type": "uint256"
        }
      ],
      "stateMutability": "view",
      "type": "function"
    },
    {
      "inputs": [
        {
          "internalType": "address",
          "name": "_depositor",
          "type": "address"
        }
      ],
      "name": "getDepositorNDLGain",
      "outputs": [
        {
          "internalType": "uint256",
          "name": "",
          "type": "uint256"
        }
      ],
      "stateMutability": "view",
      "type": "function"
    },
    {
      "inputs": [
        {
          "internalType": "address",
          "name": "_depositor",
          "type": "address"
        }
      ],
      "name": "getDepositorNFTUSDGain",
      "outputs": [
        {
          "internalType": "uint256",
          "name": "",
          "type": "uint256"
        }
      ],
      "stateMutability": "view",
      "type": "function"
    },
    {
      "inputs": [],
      "name": "getTotalNFTUSDDeposits",
      "outputs": [
        {
          "internalType": "uint256",
          "name": "",
          "type": "uint256"
        }
      ],
      "stateMutability": "view",
      "type": "function"
    },
    {
      "inputs": [
        {
          "internalType": "address",
          "name": "_nftOracle",
          "type": "address"
        },
        {
          "internalType": "address",
          "name": "_nftUSDToken",
          "type": "address"
        },
        {
          "internalType": "address",
          "name": "_ndlToken",
          "type": "address"
        },
        {
          "internalType": "address",
          "name": "_poolLoans",
          "type": "address"
        }
      ],
      "name": "initialize",
      "outputs": [],
      "stateMutability": "nonpayable",
      "type": "function"
    },
    {
      "inputs": [],
      "name": "isOwner",
      "outputs": [
        {
          "internalType": "bool",
          "name": "",
          "type": "bool"
        }
      ],
      "stateMutability": "view",
      "type": "function"
    },
    {
      "inputs": [],
      "name": "ndlToken",
      "outputs": [
        {
          "internalType": "contract INDLToken",
          "name": "",
          "type": "address"
        }
      ],
      "stateMutability": "view",
      "type": "function"
    },
    {
      "inputs": [],
      "name": "nftOracle",
      "outputs": [
        {
          "internalType": "contract INFTOracle",
          "name": "",
          "type": "address"
        }
      ],
      "stateMutability": "view",
      "type": "function"
    },
    {
      "inputs": [],
      "name": "nftusdToken",
      "outputs": [
        {
          "internalType": "contract INFTUSDToken",
          "name": "",
          "type": "address"
        }
      ],
      "stateMutability": "view",
      "type": "function"
    },
    {
      "inputs": [
        {
          "internalType": "address",
          "name": "operator",
          "type": "address"
        },
        {
          "internalType": "address",
          "name": "from",
          "type": "address"
        },
        {
          "internalType": "uint256",
          "name": "tokenId",
          "type": "uint256"
        },
        {
          "internalType": "bytes",
          "name": "data",
          "type": "bytes"
        }
      ],
      "name": "onERC721Received",
      "outputs": [
        {
          "internalType": "bytes4",
          "name": "",
          "type": "bytes4"
        }
      ],
      "stateMutability": "pure",
      "type": "function"
    },
    {
      "inputs": [],
      "name": "owner",
      "outputs": [
        {
          "internalType": "address",
          "name": "",
          "type": "address"
        }
      ],
      "stateMutability": "view",
      "type": "function"
    },
    {
      "inputs": [],
      "name": "percentBorrow",
      "outputs": [
        {
          "internalType": "uint256",
          "name": "",
          "type": "uint256"
        }
      ],
      "stateMutability": "view",
      "type": "function"
    },
    {
      "inputs": [],
      "name": "poolLoan",
      "outputs": [
        {
          "internalType": "contract ILoanPool",
          "name": "",
          "type": "address"
        }
      ],
      "stateMutability": "view",
      "type": "function"
    },
    {
      "inputs": [],
      "name": "totalExtractionFee",
      "outputs": [
        {
          "internalType": "uint256",
          "name": "",
          "type": "uint256"
        }
      ],
      "stateMutability": "view",
      "type": "function"
    },
    {
      "inputs": [],
      "name": "totalSecurityDeposit",
      "outputs": [
        {
          "internalType": "uint256",
          "name": "",
          "type": "uint256"
        }
      ],
      "stateMutability": "view",
      "type": "function"
    }
  ],
  "bytecode": "0x6080604052670de0b6b3a764000060435534801561001c57600080fd5b50603380546001600160a01b031916339081179091556040516000907f8be0079c531659141344cd1fd0a4f28419497f9722a3daafe3b4186f6b6457e0908290a361171d8061006c6000396000f3fe60806040526004361061014b5760003560e01c806398e2335d116100b6578063e47d9ad01161006f578063e47d9ad014610464578063e626648a14610484578063ebdb426e1461049a578063f8c8765e146104ba578063fc7e286d146104da578063feeb00881461050757600080fd5b806398e2335d146103c4578063a4e59ac8146103d9578063b071d32c146103f9578063b6b55f251461040e578063badfd7ca1461042e578063d88e5bc01461044457600080fd5b806382e0a5741161010857806382e0a5741461028d57806386da0824146102c55780638b8fbd921461034f5780638da5cb5b146103655780638dffaa98146103835780638f32d59b1461039957600080fd5b806305fa354414610150578063150b7a021461018d578063286c2add146101d257806328a0a04d146101f25780635b1f335f14610238578063766718081461024e575b600080fd5b34801561015c57600080fd5b50603454610170906001600160a01b031681565b6040516001600160a01b0390911681526020015b60405180910390f35b34801561019957600080fd5b506101b96101a83660046113b4565b630a85bd0160e11b95945050505050565b6040516001600160e01b03199091168152602001610184565b3480156101de57600080fd5b50603554610170906001600160a01b031681565b3480156101fe57600080fd5b5061022a61020d366004611466565b603e60209081526000928352604080842090915290825290205481565b604051908152602001610184565b34801561024457600080fd5b5061022a60405481565b34801561025a57600080fd5b50603a5461027590600160801b90046001600160801b031681565b6040516001600160801b039091168152602001610184565b34801561029957600080fd5b5061022a6102a8366004611466565b603f60209081526000928352604080842090915290825290205481565b3480156102d157600080fd5b5061031b6102e0366004611499565b603d602052600090815260409020805460018201546002830154600390930154919290916001600160801b0380821691600160801b90041685565b604080519586526020860194909452928401919091526001600160801b03908116606084015216608082015260a001610184565b34801561035b57600080fd5b5061022a60435481565b34801561037157600080fd5b506033546001600160a01b0316610170565b34801561038f57600080fd5b5061022a60385481565b3480156103a557600080fd5b506033546001600160a01b031633146040519015158152602001610184565b3480156103d057600080fd5b50603b5461022a565b3480156103e557600080fd5b50603a54610275906001600160801b031681565b61040c6104073660046114b4565b610527565b005b34801561041a57600080fd5b5061040c61042936600461150b565b610a62565b34801561043a57600080fd5b5061022a60415481565b34801561045057600080fd5b5061022a61045f366004611499565b610aa9565b34801561047057600080fd5b5061022a61047f366004611499565b610b45565b34801561049057600080fd5b5061022a60395481565b3480156104a657600080fd5b50603654610170906001600160a01b031681565b3480156104c657600080fd5b5061040c6104d5366004611524565b610bff565b3480156104e657600080fd5b5061022a6104f5366004611499565b603c6020526000908152604090205481565b34801561051357600080fd5b50603754610170906001600160a01b031681565b6001600160a01b03811661058e5760405162461bcd60e51b8152602060048201526024808201527f4572726f72732e564c5f494e56414c49445f4f4e424548414c464f465f4144446044820152635245535360e01b60648201526084015b60405180910390fd5b60003360375460405163058dcda760e21b81526001600160a01b0387811660048301526024820187905292935060009290911690631637369c9060440160206040518083038186803b1580156105e357600080fd5b505afa1580156105f7573d6000803e3d6000fd5b505050506040513d601f19601f8201168201806040525081019061061b9190611578565b60355460405163b3596f0760e01b81526001600160a01b0388811660048301529293506000928392839291169063b3596f079060240160606040518083038186803b15801561066957600080fd5b505afa15801561067d573d6000803e3d6000fd5b505050506040513d601f19601f820116820180604052508101906106a19190611591565b92509250925082600014156106ef5760405162461bcd60e51b81526020600482015260146024820152731b9bc81cdd58da081b999d081cdd5c1c1b1e595960621b6044820152606401610585565b60006106fc8360036115d5565b610708836127106115f4565b610712919061160b565b905061071e8482610d6a565b925089831161077d5760405162461bcd60e51b815260206004820152602560248201527f626f72726f7720616d6f756e7420697320746f206869676820666f72207468696044820152641cc813919560da1b6064820152608401610585565b846108265760375460405163bc238ff560e01b81526001600160a01b03888116600483015289811660248301528b81166044830152606482018b9052608482018d90529091169063bc238ff59060a401602060405180830381600087803b1580156107e757600080fd5b505af11580156107fb573d6000803e3d6000fd5b505050506040513d601f19601f8201168201806040525081019061081f9190611578565b9450610894565b60375460405163bd3e960960e01b81526001600160a01b03888116600483015260248201889052604482018d90529091169063bd3e960990606401600060405180830381600087803b15801561087b57600080fd5b505af115801561088f573d6000803e3d6000fd5b505050505b6036546039546001600160a01b0390911690631fb7ab609088906108b9908e90610d6a565b6040516001600160e01b031960e085901b1681526001600160a01b0390921660048301526024820152604401600060405180830381600087803b1580156108ff57600080fd5b505af1158015610913573d6000803e3d6000fd5b50506034546038546001600160a01b0390911692506340c10f199150899061093c908e90610d6a565b6040516001600160e01b031960e085901b1681526001600160a01b0390921660048301526024820152604401600060405180830381600087803b15801561098257600080fd5b505af1158015610996573d6000803e3d6000fd5b50506034546038546001600160a01b0390911692506340c10f19915030906109bf908e90610d6a565b6109c9908e6115f4565b6040516001600160e01b031960e085901b1681526001600160a01b0390921660048301526024820152604401600060405180830381600087803b158015610a0f57600080fd5b505af1158015610a23573d6000803e3d6000fd5b5050603854610a3592508c9150610d6a565b610a3f908b6115f4565b60406000828254610a50919061160b565b90915550505050505050505050505050565b610a6b81610e38565b336000818152603c602052604081205491610a8590610aa9565b9050610a9033610e9a565b610a9a3384610ea5565b610aa43382610f29565b505050565b6001600160a01b0381166000908152603c602052604081205480610ad05750600092915050565b6001600160a01b0383166000908152603d60209081526040808320815160a08101835281548152600182015493810193909352600281015491830191909152600301546001600160801b038082166060840152600160801b90910416608082015290610b3c8383610fd5565b95945050505050565b6001600160a01b0381166000908152603c602052604081205480610b6c5750600092915050565b6001600160a01b0383166000908152603d60209081526040808320815160a08101835281548152600182015493810193909352600281015491830191909152600301546001600160801b038082166060840152600160801b909104166080820152670de0b6b3a764000091610bf583610bef610be88786611098565b869061110e565b9061118d565b9695505050505050565b600054610100900460ff1615808015610c1f5750600054600160ff909116105b80610c395750303b158015610c39575060005460ff166001145b610c9c5760405162461bcd60e51b815260206004820152602e60248201527f496e697469616c697a61626c653a20636f6e747261637420697320616c72656160448201526d191e481a5b9a5d1a585b1a5e995960921b6064820152608401610585565b6000805460ff191660011790558015610cbf576000805461ff0019166101001790555b603480546001600160a01b038087166001600160a01b03199283161790925560368054868416908316179055603580548884169083161790556037805492851692909116919091179055612328603855610190603955610d1d6111cf565b8015610d63576000805461ff0019169055604051600181527f7f26b83ff96e1f2b6a682f133852f6798a09c465da95921460cefb38474024989060200160405180910390a15b5050505050565b6000821580610d77575081155b15610d8457506000610e32565b81610d926002612710611623565b610d9e906000196115f4565b610da89190611623565b831115610e035760405162461bcd60e51b815260206004820152602360248201527f4572726f72732e4d4154485f4d554c5449504c49434154494f4e5f4f564552466044820152624c4f5760e81b6064820152608401610585565b612710610e11600282611623565b610e1b84866115d5565b610e25919061160b565b610e2f9190611623565b90505b92915050565b60008111610e975760405162461bcd60e51b815260206004820152602660248201527f53746162696c697479506f6f6c3a20416d6f756e74206d757374206265206e6f6044820152656e2d7a65726f60d01b6064820152608401610585565b50565b6000610aa482610b45565b603454604051632ee65eeb60e21b81526001600160a01b038481166004830152306024830152604482018490529091169063bb997bac90606401600060405180830381600087803b158015610ef957600080fd5b505af1158015610f0d573d6000803e3d6000fd5b5050603b5460009250610f21915083611219565b603b55505050565b80610f32575050565b604254600090610f429083611278565b604281905560345460405163a9059cbb60e01b81526001600160a01b0386811660048301526024820186905292935091169063a9059cbb90604401602060405180830381600087803b158015610f9757600080fd5b505af1158015610fab573d6000803e3d6000fd5b505050506040513d601f19601f82011682018060405250810190610fcf9190611645565b50505050565b6080810151606082015182516020808501516001600160801b038086166000908152603e845260408082209287168252919093528220549194939291859061101d9084611278565b6001600160801b038087166000908152603e602052604081209293509190829061104a90881660016112ba565b6001600160801b031681526020810191909152604001600090812054915061108a670de0b6b3a7640000610bef86816110838888611219565b8f9061110e565b9a9950505050505050505050565b608081015160608201516040808401516020808601516001600160801b038087166000908152603f84528581209187168152925292812054909493929085906110e19084611278565b6001600160801b038087166000908152603f602052604081209293509190829061104a90881660016112ba565b60008261111d57506000610e32565b600061112983856115d5565b9050826111368583611623565b14610e2f5760405162461bcd60e51b815260206004820152602160248201527f536166654d6174683a206d756c7469706c69636174696f6e206f766572666c6f6044820152607760f81b6064820152608401610585565b6000610e2f83836040518060400160405280601a81526020017f536166654d6174683a206469766973696f6e206279207a65726f000000000000815250611339565b6033546040516000916001600160a01b0316907f8be0079c531659141344cd1fd0a4f28419497f9722a3daafe3b4186f6b6457e0908390a3603380546001600160a01b0319169055565b600080611226838561160b565b905083811015610e2f5760405162461bcd60e51b815260206004820152601b60248201527f536166654d6174683a206164646974696f6e206f766572666c6f7700000000006044820152606401610585565b6000610e2f83836040518060400160405280601e81526020017f536166654d6174683a207375627472616374696f6e206f766572666c6f770000815250611367565b6000806112c78385611667565b9050836001600160801b0316816001600160801b03161015610e2f5760405162461bcd60e51b815260206004820152602560248201527f4c697175697479536166654d6174683132383a206164646974696f6e206f766560448201526472666c6f7760d81b6064820152608401610585565b6000818361135a5760405162461bcd60e51b81526004016105859190611692565b506000610b3c8486611623565b6000818484111561138b5760405162461bcd60e51b81526004016105859190611692565b506000610b3c84866115f4565b80356001600160a01b03811681146113af57600080fd5b919050565b6000806000806000608086880312156113cc57600080fd5b6113d586611398565b94506113e360208701611398565b935060408601359250606086013567ffffffffffffffff8082111561140757600080fd5b818801915088601f83011261141b57600080fd5b81358181111561142a57600080fd5b89602082850101111561143c57600080fd5b9699959850939650602001949392505050565b80356001600160801b03811681146113af57600080fd5b6000806040838503121561147957600080fd5b6114828361144f565b91506114906020840161144f565b90509250929050565b6000602082840312156114ab57600080fd5b610e2f82611398565b600080600080600060a086880312156114cc57600080fd5b6114d586611398565b9450602086013593506114ea60408701611398565b9250606086013591506114ff60808701611398565b90509295509295909350565b60006020828403121561151d57600080fd5b5035919050565b6000806000806080858703121561153a57600080fd5b61154385611398565b935061155160208601611398565b925061155f60408601611398565b915061156d60608601611398565b905092959194509250565b60006020828403121561158a57600080fd5b5051919050565b6000806000606084860312156115a657600080fd5b8351925060208401519150604084015190509250925092565b634e487b7160e01b600052601160045260246000fd5b60008160001904831182151516156115ef576115ef6115bf565b500290565b600082821015611606576116066115bf565b500390565b6000821982111561161e5761161e6115bf565b500190565b60008261164057634e487b7160e01b600052601260045260246000fd5b500490565b60006020828403121561165757600080fd5b81518015158114610e2f57600080fd5b60006001600160801b03808316818516808303821115611689576116896115bf565b01949350505050565b600060208083528351808285015260005b818110156116bf578581018301518582016040015282016116a3565b818111156116d1576000604083870101525b50601f01601f191692909201604001939250505056fea26469706673582212209cfc3eb80ee59e192ce96b723f410dfa16e0cb561b6e10c295c609930c58cb1764736f6c63430008080033",
  "linkReferences": {},
  "deployedLinkReferences": {}
}