{
  "_format": "hh-sol-artifact-1",
  "contractName": "StabilityPool",
  "sourceName": "contracts/SbabilityPool.sol",
  "abi": [
    {
      "anonymous": false,
      "inputs": [
        {
          "indexed": true,
          "internalType": "address",
          "name": "initiator",
          "type": "address"
        },
        {
          "indexed": true,
          "internalType": "address",
          "name": "onBehalfOf",
          "type": "address"
        },
        {
          "indexed": false,
          "internalType": "uint256",
          "name": "extractionAmount",
          "type": "uint256"
        }
      ],
      "name": "Extraction",
      "type": "event"
    },
    {
      "anonymous": false,
      "inputs": [
        {
          "indexed": false,
          "internalType": "uint8",
          "name": "version",
          "type": "uint8"
        }
      ],
      "name": "Initialized",
      "type": "event"
    },
    {
      "anonymous": false,
      "inputs": [
        {
          "indexed": true,
          "internalType": "address",
          "name": "previousOwner",
          "type": "address"
        },
        {
          "indexed": true,
          "internalType": "address",
          "name": "newOwner",
          "type": "address"
        }
      ],
      "name": "OwnershipTransferred",
      "type": "event"
    },
    {
      "anonymous": false,
      "inputs": [
        {
          "indexed": false,
          "internalType": "address",
          "name": "token",
          "type": "address"
        },
        {
          "indexed": false,
          "internalType": "uint256",
          "name": "amount",
          "type": "uint256"
        }
      ],
      "name": "Recovered",
      "type": "event"
    },
    {
      "anonymous": false,
      "inputs": [
        {
          "indexed": true,
          "internalType": "address",
          "name": "initiator",
          "type": "address"
        },
        {
          "indexed": true,
          "internalType": "address",
          "name": "borrower",
          "type": "address"
        },
        {
          "indexed": false,
          "internalType": "uint256",
          "name": "payAmount",
          "type": "uint256"
        }
      ],
      "name": "Repay",
      "type": "event"
    },
    {
      "anonymous": false,
      "inputs": [
        {
          "indexed": false,
          "internalType": "uint8",
          "name": "types",
          "type": "uint8"
        },
        {
          "indexed": false,
          "internalType": "uint256",
          "name": "reward",
          "type": "uint256"
        }
      ],
      "name": "RewardAdded",
      "type": "event"
    },
    {
      "anonymous": false,
      "inputs": [
        {
          "indexed": true,
          "internalType": "address",
          "name": "user",
          "type": "address"
        },
        {
          "indexed": true,
          "internalType": "address",
          "name": "rewardsToken",
          "type": "address"
        },
        {
          "indexed": false,
          "internalType": "uint256",
          "name": "reward",
          "type": "uint256"
        }
      ],
      "name": "RewardPaid",
      "type": "event"
    },
    {
      "anonymous": false,
      "inputs": [
        {
          "indexed": false,
          "internalType": "address",
          "name": "token",
          "type": "address"
        },
        {
          "indexed": false,
          "internalType": "uint256",
          "name": "newDuration",
          "type": "uint256"
        }
      ],
      "name": "RewardsDurationUpdated",
      "type": "event"
    },
    {
      "anonymous": false,
      "inputs": [
        {
          "indexed": true,
          "internalType": "address",
          "name": "user",
          "type": "address"
        },
        {
          "indexed": false,
          "internalType": "uint8",
          "name": "types",
          "type": "uint8"
        },
        {
          "indexed": false,
          "internalType": "uint256",
          "name": "amount",
          "type": "uint256"
        }
      ],
      "name": "Staked",
      "type": "event"
    },
    {
      "anonymous": false,
      "inputs": [
        {
          "indexed": true,
          "internalType": "address",
          "name": "user",
          "type": "address"
        },
        {
          "indexed": false,
          "internalType": "uint8",
          "name": "types",
          "type": "uint8"
        },
        {
          "indexed": false,
          "internalType": "uint256",
          "name": "amount",
          "type": "uint256"
        }
      ],
      "name": "Withdrawn",
      "type": "event"
    },
    {
      "inputs": [
        {
          "internalType": "address",
          "name": "nftAsset",
          "type": "address"
        },
        {
          "internalType": "uint256",
          "name": "nftTokenId",
          "type": "uint256"
        },
        {
          "internalType": "bool",
          "name": "isUpLayer",
          "type": "bool"
        },
        {
          "internalType": "uint256",
          "name": "threshold",
          "type": "uint256"
        }
      ],
      "name": "LockedNFT",
      "outputs": [
        {
          "internalType": "uint256",
          "name": "loanId",
          "type": "uint256"
        }
      ],
      "stateMutability": "nonpayable",
      "type": "function"
    },
    {
      "inputs": [
        {
          "internalType": "address",
          "name": "user",
          "type": "address"
        }
      ],
      "name": "_getUserDebtMessage",
      "outputs": [
        {
          "internalType": "uint256",
          "name": "accountDebt",
          "type": "uint256"
        },
        {
          "internalType": "uint256",
          "name": "securityDeposit",
          "type": "uint256"
        },
        {
          "internalType": "uint256",
          "name": "totalNFTLocked",
          "type": "uint256"
        }
      ],
      "stateMutability": "view",
      "type": "function"
    },
    {
      "inputs": [],
      "name": "borrowFee",
      "outputs": [
        {
          "internalType": "uint256",
          "name": "",
          "type": "uint256"
        }
      ],
      "stateMutability": "view",
      "type": "function"
    },
    {
      "inputs": [
        {
          "internalType": "uint8",
          "name": "types",
          "type": "uint8"
        },
        {
          "internalType": "uint256",
          "name": "_amount",
          "type": "uint256"
        }
      ],
      "name": "deposit",
      "outputs": [],
      "stateMutability": "nonpayable",
      "type": "function"
    },
    {
      "inputs": [
        {
          "internalType": "address",
          "name": "account",
          "type": "address"
        },
        {
          "internalType": "address",
          "name": "_rewardsToken",
          "type": "address"
        }
      ],
      "name": "earned",
      "outputs": [
        {
          "internalType": "uint256",
          "name": "",
          "type": "uint256"
        }
      ],
      "stateMutability": "view",
      "type": "function"
    },
    {
      "inputs": [
        {
          "internalType": "address",
          "name": "onBehalfOf",
          "type": "address"
        },
        {
          "internalType": "uint256",
          "name": "amount",
          "type": "uint256"
        }
      ],
      "name": "extraction",
      "outputs": [],
      "stateMutability": "nonpayable",
      "type": "function"
    },
    {
      "inputs": [
        {
          "internalType": "address",
          "name": "user",
          "type": "address"
        }
      ],
      "name": "getAllLoanMessage",
      "outputs": [
        {
          "components": [
            {
              "internalType": "uint256",
              "name": "loanId",
              "type": "uint256"
            },
            {
              "internalType": "enum DataTypes.LoanState",
              "name": "state",
              "type": "uint8"
            },
            {
              "internalType": "address",
              "name": "borrower",
              "type": "address"
            },
            {
              "internalType": "address",
              "name": "nftAsset",
              "type": "address"
            },
            {
              "internalType": "string",
              "name": "nftName",
              "type": "string"
            },
            {
              "internalType": "uint256",
              "name": "nftTokenId",
              "type": "uint256"
            },
            {
              "internalType": "uint256",
              "name": "amount",
              "type": "uint256"
            },
            {
              "internalType": "address",
              "name": "liquityAddress",
              "type": "address"
            },
            {
              "internalType": "uint8",
              "name": "nftType",
              "type": "uint8"
            },
            {
              "internalType": "bool",
              "name": "isUpLayer",
              "type": "bool"
            },
            {
              "internalType": "uint256",
              "name": "threshold",
              "type": "uint256"
            }
          ],
          "internalType": "struct DataTypes.LoanData[]",
          "name": "loanData",
          "type": "tuple[]"
        }
      ],
      "stateMutability": "view",
      "type": "function"
    },
    {
      "inputs": [
        {
          "internalType": "uint8",
          "name": "types",
          "type": "uint8"
        },
        {
          "internalType": "address",
          "name": "user",
          "type": "address"
        }
      ],
      "name": "getDeposit",
      "outputs": [
        {
          "internalType": "uint256",
          "name": "",
          "type": "uint256"
        }
      ],
      "stateMutability": "view",
      "type": "function"
    },
    {
      "inputs": [
        {
          "internalType": "uint256",
          "name": "loanId",
          "type": "uint256"
        }
      ],
      "name": "getLoanCollateralAndReserve",
      "outputs": [
        {
          "internalType": "address",
          "name": "nftAsset",
          "type": "address"
        },
        {
          "internalType": "uint256",
          "name": "nftTokenId",
          "type": "uint256"
        },
        {
          "internalType": "bool",
          "name": "isUpLayer",
          "type": "bool"
        }
      ],
      "stateMutability": "view",
      "type": "function"
    },
    {
      "inputs": [
        {
          "internalType": "address",
          "name": "user",
          "type": "address"
        }
      ],
      "name": "getLoanIds",
      "outputs": [
        {
          "internalType": "uint256[]",
          "name": "",
          "type": "uint256[]"
        }
      ],
      "stateMutability": "view",
      "type": "function"
    },
    {
      "inputs": [],
      "name": "getReward",
      "outputs": [],
      "stateMutability": "nonpayable",
      "type": "function"
    },
    {
      "inputs": [
        {
          "internalType": "uint8",
          "name": "types",
          "type": "uint8"
        }
      ],
      "name": "getThreshold",
      "outputs": [
        {
          "internalType": "uint256",
          "name": "",
          "type": "uint256"
        }
      ],
      "stateMutability": "view",
      "type": "function"
    },
    {
      "inputs": [],
      "name": "getTotalExtractionFee",
      "outputs": [
        {
          "internalType": "uint256",
          "name": "",
          "type": "uint256"
        }
      ],
      "stateMutability": "view",
      "type": "function"
    },
    {
      "inputs": [],
      "name": "getTotalNFTUSDDeposits",
      "outputs": [
        {
          "internalType": "uint256",
          "name": "",
          "type": "uint256"
        }
      ],
      "stateMutability": "view",
      "type": "function"
    },
    {
      "inputs": [],
      "name": "getTotalSecurityDeposit",
      "outputs": [
        {
          "internalType": "uint256",
          "name": "",
          "type": "uint256"
        }
      ],
      "stateMutability": "view",
      "type": "function"
    },
    {
      "inputs": [
        {
          "internalType": "address",
          "name": "user",
          "type": "address"
        }
      ],
      "name": "healthFactor",
      "outputs": [
        {
          "internalType": "uint256",
          "name": "accountDebt",
          "type": "uint256"
        },
        {
          "internalType": "uint256",
          "name": "securityDeposit",
          "type": "uint256"
        },
        {
          "internalType": "uint256",
          "name": "totalNFTLocked",
          "type": "uint256"
        }
      ],
      "stateMutability": "view",
      "type": "function"
    },
    {
      "inputs": [
        {
          "internalType": "address",
          "name": "_nftOracle",
          "type": "address"
        },
        {
          "internalType": "address",
          "name": "_nftUSDToken",
          "type": "address"
        },
        {
          "internalType": "address",
          "name": "_ndlToken",
          "type": "address"
        },
        {
          "internalType": "address",
          "name": "_poolLoans",
          "type": "address"
        }
      ],
      "name": "initialize",
      "outputs": [],
      "stateMutability": "nonpayable",
      "type": "function"
    },
    {
      "inputs": [
        {
          "internalType": "address",
          "name": "user",
          "type": "address"
        }
      ],
      "name": "isLiquidate",
      "outputs": [
        {
          "internalType": "bool",
          "name": "",
          "type": "bool"
        }
      ],
      "stateMutability": "view",
      "type": "function"
    },
    {
      "inputs": [],
      "name": "isOwner",
      "outputs": [
        {
          "internalType": "bool",
          "name": "",
          "type": "bool"
        }
      ],
      "stateMutability": "view",
      "type": "function"
    },
    {
      "inputs": [
        {
          "internalType": "address",
          "name": "_rewardsToken",
          "type": "address"
        }
      ],
      "name": "lastTimeRewardApplicable",
      "outputs": [
        {
          "internalType": "uint256",
          "name": "",
          "type": "uint256"
        }
      ],
      "stateMutability": "view",
      "type": "function"
    },
    {
      "inputs": [
        {
          "internalType": "uint8",
          "name": "",
          "type": "uint8"
        },
        {
          "internalType": "address",
          "name": "",
          "type": "address"
        },
        {
          "internalType": "address",
          "name": "",
          "type": "address"
        }
      ],
      "name": "layerRewardPerTokenPaid",
      "outputs": [
        {
          "internalType": "uint256",
          "name": "",
          "type": "uint256"
        }
      ],
      "stateMutability": "view",
      "type": "function"
    },
    {
      "inputs": [
        {
          "internalType": "uint8",
          "name": "",
          "type": "uint8"
        },
        {
          "internalType": "uint256",
          "name": "",
          "type": "uint256"
        }
      ],
      "name": "layerRewardTokens",
      "outputs": [
        {
          "internalType": "address",
          "name": "",
          "type": "address"
        }
      ],
      "stateMutability": "view",
      "type": "function"
    },
    {
      "inputs": [
        {
          "internalType": "uint8",
          "name": "",
          "type": "uint8"
        },
        {
          "internalType": "address",
          "name": "",
          "type": "address"
        },
        {
          "internalType": "address",
          "name": "",
          "type": "address"
        }
      ],
      "name": "layerRewards",
      "outputs": [
        {
          "internalType": "uint256",
          "name": "",
          "type": "uint256"
        }
      ],
      "stateMutability": "view",
      "type": "function"
    },
    {
      "inputs": [
        {
          "internalType": "address",
          "name": "borrower",
          "type": "address"
        },
        {
          "internalType": "address",
          "name": "nftAsset",
          "type": "address"
        },
        {
          "internalType": "uint256",
          "name": "nftTokenId",
          "type": "uint256"
        },
        {
          "internalType": "uint256",
          "name": "amount",
          "type": "uint256"
        },
        {
          "internalType": "bool",
          "name": "isLock",
          "type": "bool"
        },
        {
          "internalType": "bool",
          "name": "isUpLayer",
          "type": "bool"
        },
        {
          "internalType": "uint256",
          "name": "threshold",
          "type": "uint256"
        }
      ],
      "name": "liquidate",
      "outputs": [],
      "stateMutability": "nonpayable",
      "type": "function"
    },
    {
      "inputs": [],
      "name": "liquidationFee",
      "outputs": [
        {
          "internalType": "uint256",
          "name": "",
          "type": "uint256"
        }
      ],
      "stateMutability": "view",
      "type": "function"
    },
    {
      "inputs": [],
      "name": "ndlToken",
      "outputs": [
        {
          "internalType": "contract INDLToken",
          "name": "",
          "type": "address"
        }
      ],
      "stateMutability": "view",
      "type": "function"
    },
    {
      "inputs": [],
      "name": "nftOracle",
      "outputs": [
        {
          "internalType": "contract INFTOracle",
          "name": "",
          "type": "address"
        }
      ],
      "stateMutability": "view",
      "type": "function"
    },
    {
      "inputs": [],
      "name": "nftusdToken",
      "outputs": [
        {
          "internalType": "contract INFTUSDToken",
          "name": "",
          "type": "address"
        }
      ],
      "stateMutability": "view",
      "type": "function"
    },
    {
      "inputs": [
        {
          "internalType": "address",
          "name": "_rewardsToken",
          "type": "address"
        },
        {
          "internalType": "uint256",
          "name": "reward",
          "type": "uint256"
        }
      ],
      "name": "notifyRewardAmount",
      "outputs": [],
      "stateMutability": "nonpayable",
      "type": "function"
    },
    {
      "inputs": [
        {
          "internalType": "address",
          "name": "operator",
          "type": "address"
        },
        {
          "internalType": "address",
          "name": "from",
          "type": "address"
        },
        {
          "internalType": "uint256",
          "name": "tokenId",
          "type": "uint256"
        },
        {
          "internalType": "bytes",
          "name": "data",
          "type": "bytes"
        }
      ],
      "name": "onERC721Received",
      "outputs": [
        {
          "internalType": "bytes4",
          "name": "",
          "type": "bytes4"
        }
      ],
      "stateMutability": "pure",
      "type": "function"
    },
    {
      "inputs": [],
      "name": "owner",
      "outputs": [
        {
          "internalType": "address",
          "name": "",
          "type": "address"
        }
      ],
      "stateMutability": "view",
      "type": "function"
    },
    {
      "inputs": [],
      "name": "percentBorrow",
      "outputs": [
        {
          "internalType": "uint256",
          "name": "",
          "type": "uint256"
        }
      ],
      "stateMutability": "view",
      "type": "function"
    },
    {
      "inputs": [],
      "name": "percentSecurityDeposit",
      "outputs": [
        {
          "internalType": "uint256",
          "name": "",
          "type": "uint256"
        }
      ],
      "stateMutability": "view",
      "type": "function"
    },
    {
      "inputs": [],
      "name": "poolLoan",
      "outputs": [
        {
          "internalType": "contract ILoanPool",
          "name": "",
          "type": "address"
        }
      ],
      "stateMutability": "view",
      "type": "function"
    },
    {
      "inputs": [
        {
          "internalType": "address",
          "name": "nftAsset",
          "type": "address"
        },
        {
          "internalType": "uint256",
          "name": "nftTokenId",
          "type": "uint256"
        },
        {
          "internalType": "uint256",
          "name": "amount",
          "type": "uint256"
        }
      ],
      "name": "redeemNFT",
      "outputs": [],
      "stateMutability": "nonpayable",
      "type": "function"
    },
    {
      "inputs": [],
      "name": "redemptionFee",
      "outputs": [
        {
          "internalType": "uint256",
          "name": "",
          "type": "uint256"
        }
      ],
      "stateMutability": "view",
      "type": "function"
    },
    {
      "inputs": [
        {
          "internalType": "address",
          "name": "onBehalfOf",
          "type": "address"
        },
        {
          "internalType": "uint256",
          "name": "amount",
          "type": "uint256"
        }
      ],
      "name": "repay",
      "outputs": [],
      "stateMutability": "nonpayable",
      "type": "function"
    },
    {
      "inputs": [
        {
          "internalType": "address",
          "name": "",
          "type": "address"
        }
      ],
      "name": "rewardData",
      "outputs": [
        {
          "internalType": "uint256",
          "name": "rewardsDuration",
          "type": "uint256"
        },
        {
          "internalType": "uint256",
          "name": "periodFinish",
          "type": "uint256"
        },
        {
          "internalType": "uint256",
          "name": "rewardRate",
          "type": "uint256"
        },
        {
          "internalType": "uint256",
          "name": "lastUpdateTime",
          "type": "uint256"
        },
        {
          "internalType": "uint256",
          "name": "rewardPerTokenStored",
          "type": "uint256"
        }
      ],
      "stateMutability": "view",
      "type": "function"
    },
    {
      "inputs": [
        {
          "internalType": "address",
          "name": "_rewardsToken",
          "type": "address"
        }
      ],
      "name": "rewardPerToken",
      "outputs": [
        {
          "internalType": "uint256",
          "name": "",
          "type": "uint256"
        }
      ],
      "stateMutability": "view",
      "type": "function"
    },
    {
      "inputs": [
        {
          "internalType": "uint256",
          "name": "",
          "type": "uint256"
        }
      ],
      "name": "rewardTokens",
      "outputs": [
        {
          "internalType": "address",
          "name": "",
          "type": "address"
        }
      ],
      "stateMutability": "view",
      "type": "function"
    },
    {
      "inputs": [
        {
          "internalType": "address",
          "name": "",
          "type": "address"
        },
        {
          "internalType": "address",
          "name": "",
          "type": "address"
        }
      ],
      "name": "rewards",
      "outputs": [
        {
          "internalType": "uint256",
          "name": "",
          "type": "uint256"
        }
      ],
      "stateMutability": "view",
      "type": "function"
    },
    {
      "inputs": [
        {
          "internalType": "address",
          "name": "_rewardsToken",
          "type": "address"
        },
        {
          "internalType": "uint256",
          "name": "_rewardsDuration",
          "type": "uint256"
        }
      ],
      "name": "setRewardsDuration",
      "outputs": [],
      "stateMutability": "nonpayable",
      "type": "function"
    },
    {
      "inputs": [
        {
          "internalType": "uint8",
          "name": "types",
          "type": "uint8"
        },
        {
          "internalType": "uint256",
          "name": "_threshold",
          "type": "uint256"
        }
      ],
      "name": "setThreshold",
      "outputs": [],
      "stateMutability": "nonpayable",
      "type": "function"
    },
    {
      "inputs": [],
      "name": "totalExtractionFee",
      "outputs": [
        {
          "internalType": "uint256",
          "name": "",
          "type": "uint256"
        }
      ],
      "stateMutability": "view",
      "type": "function"
    },
    {
      "inputs": [],
      "name": "totalNDLEarned",
      "outputs": [
        {
          "internalType": "uint256",
          "name": "",
          "type": "uint256"
        }
      ],
      "stateMutability": "view",
      "type": "function"
    },
    {
      "inputs": [],
      "name": "totalSecurityDeposit",
      "outputs": [
        {
          "internalType": "uint256",
          "name": "",
          "type": "uint256"
        }
      ],
      "stateMutability": "view",
      "type": "function"
    },
    {
      "inputs": [
        {
          "internalType": "address",
          "name": "",
          "type": "address"
        },
        {
          "internalType": "address",
          "name": "",
          "type": "address"
        }
      ],
      "name": "userRewardPerTokenPaid",
      "outputs": [
        {
          "internalType": "uint256",
          "name": "",
          "type": "uint256"
        }
      ],
      "stateMutability": "view",
      "type": "function"
    },
    {
      "inputs": [
        {
          "internalType": "uint8",
          "name": "types",
          "type": "uint8"
        },
        {
          "internalType": "uint256",
          "name": "_amount",
          "type": "uint256"
        }
      ],
      "name": "withdraw",
      "outputs": [],
      "stateMutability": "nonpayable",
      "type": "function"
    }
  ],
  "bytecode": "0x608060405234801561001057600080fd5b50603380546001600160a01b031916339081179091556040516000907f8be0079c531659141344cd1fd0a4f28419497f9722a3daafe3b4186f6b6457e0908290a3614f2a806100606000396000f3fe608060405234801561001057600080fd5b50600436106102a05760003560e01c80637762b91511610167578063badfd7ca116100ce578063e70b9e2711610087578063e70b9e27146106c2578063ebdb426e146106ed578063f122977714610700578063f4d4c9d714610713578063f8c8765e14610726578063feeb00881461073957600080fd5b8063badfd7ca14610636578063c24488391461063f578063cddc619914610648578063d7da792d1461065b578063de7bea7414610696578063e626648a146106b957600080fd5b80638dffaa98116101205780638dffaa98146105d75780638f32d59b146105e057806398e2335d146105ff578063a36a363014610607578063b42e3e2d14610610578063b66503cf1461062357600080fd5b80637762b915146105455780637bb7bed1146105675780637d411bbe1461057a5780638c640f96146105ab5780638d2d4e9b146105be5780638da5cb5b146105c657600080fd5b80633d18b9121161020b578063638634ee116101c4578063638634ee1461048957806369fda19c1461049c5780636ad9f9df146104bc5780636b64c885146104ea5780637035ab981461050a578063754cb30b1461053257600080fd5b80633d18b912146103ee5780633f489914146103f6578063458f58151461040957806348e5d9f814610412578063591ac2cd146104775780635b1f335f1461048057600080fd5b80632378bea61161025d5780632378bea614610387578063286c2add1461039a57806329994d3f146103ad578063350ea803146103b55780633b69e6b6146103c85780633d098c00146103db57600080fd5b806305fa3544146102a55780630c4794e2146102d5578063150b7a0214610314578063211dc32d1461034c57806322867d781461035f5780632370d24b14610374575b600080fd5b6034546102b8906001600160a01b031681565b6040516001600160a01b0390911681526020015b60405180910390f35b6103066102e33660046144d0565b604b60209081526000938452604080852082529284528284209052825290205481565b6040519081526020016102cc565b61033361032236600461451b565b630a85bd0160e11b95945050505050565b6040516001600160e01b031990911681526020016102cc565b61030661035a3660046145ba565b61074c565b61037261036d3660046145f3565b6107e6565b005b6102b861038236600461461f565b610c1b565b6103726103953660046145f3565b610c53565b6035546102b8906001600160a01b031681565b604354610306565b6103066103c336600461464b565b610d66565b6103726103d6366004614693565b6110e4565b6103726103e936600461461f565b611aa1565b610372611b11565b61037261040436600461461f565b611d5c565b610306603c5481565b61044f61042036600461470e565b603e60205260009081526040902080546001820154600283015460038401546004909401549293919290919085565b604080519586526020860194909452928401919091526060830152608082015260a0016102cc565b61030660455481565b61030660435481565b61030661049736600461470e565b6120e6565b6104af6104aa36600461470e565b61210d565b6040516102cc91906147a9565b6104cf6104ca36600461470e565b61231e565b604080519384526020840192909252908201526060016102cc565b6104fd6104f836600461470e565b612601565b6040516102cc91906148ae565b6103066105183660046145ba565b604060208181526000938452818420905290825290205481565b6103726105403660046145f3565b612683565b6105586105533660046148f2565b612baa565b6040516102cc9392919061490b565b6102b86105753660046148f2565b612c38565b6103066105883660046144d0565b604a60209081526000938452604080852082529284528284209052825290205481565b6104cf6105b936600461470e565b612c62565b604454610306565b6033546001600160a01b03166102b8565b61030660385481565b6033546001600160a01b031633145b60405190151581526020016102cc565b603d54610306565b610306603b5481565b61037261061e36600461492e565b612f64565b6103726106313660046145f3565b613629565b61030660445481565b61030660395481565b6105ef61065636600461470e565b613779565b610306610669366004614963565b60ff821660009081526048602090815260408083206001600160a01b038516845290915290205492915050565b6103066106a4366004614981565b60ff1660009081526046602052604090205490565b610306603a5481565b6103066106d03660046145ba565b604160209081526000928352604080842090915290825290205481565b6036546102b8906001600160a01b031681565b61030661070e36600461470e565b6137d3565b61037261072136600461461f565b61386f565b61037261073436600461499e565b613bdc565b6037546102b8906001600160a01b031681565b6001600160a01b03808316600081815260416020908152604080832094861680845294825280832054938352808252808320948352939052918220546107dd91906107d790670de0b6b3a7640000906107d1906107b2906107ac896137d3565b90613d63565b6001600160a01b03891660009081526042602052604090205490613da5565b90613e24565b90613e66565b90505b92915050565b6001600160a01b0382166108155760405162461bcd60e51b815260040161080c906149fa565b60405180910390fd5b600081116108605760405162461bcd60e51b8152602060048201526018602482015277115c9c9bdc9ccb959317d253959053125117d05353d5539560421b604482015260640161080c565b603754604051630dbe3c5760e31b81526001600160a01b0384811660048301523392600092911690636df1e2b89060240160206040518083038186803b1580156108a957600080fd5b505afa1580156108bd573d6000803e3d6000fd5b505050506040513d601f19601f820116820180604052508101906108e19190614a3e565b90506000811161091d5760405162461bcd60e51b81526020600482015260076024820152661b9bc81919589d60ca1b604482015260640161080c565b82811015610929578092505b6034546038546001600160a01b0390911690639dc29fac90849061094e908790613ec5565b6040518363ffffffff1660e01b815260040161096b929190614a57565b600060405180830381600087803b15801561098557600080fd5b505af1158015610999573d6000803e3d6000fd5b50506034546039546001600160a01b039091169250639dc29fac915030906109c2908790613ec5565b6040518363ffffffff1660e01b81526004016109df929190614a57565b600060405180830381600087803b1580156109f957600080fd5b505af1158015610a0d573d6000803e3d6000fd5b50505050610a32610a2960395485613ec590919063ffffffff16565b60435490613d63565b604355603654603c546001600160a01b039091169063c77acc36908490610a5a908790613ec5565b6040518363ffffffff1660e01b8152600401610a77929190614a57565b600060405180830381600087803b158015610a9157600080fd5b505af1158015610aa5573d6000803e3d6000fd5b50505050610aca610ac1603c5485613ec590919063ffffffff16565b60445490613e66565b604455603c54610ae890610adf908590613ec5565b60455490613e66565b60455560375460405162441dbf60e61b81526001600160a01b03909116906311076fc090610b1f908790879060009060040161490b565b600060405180830381600087803b158015610b3957600080fd5b505af1158015610b4d573d6000803e3d6000fd5b50506037546039546001600160a01b039091169250630a7a980591508690610b76908790613ec5565b60006040518463ffffffff1660e01b8152600401610b969392919061490b565b600060405180830381600087803b158015610bb057600080fd5b505af1158015610bc4573d6000803e3d6000fd5b50505050836001600160a01b0316826001600160a01b03167f05f2eeda0e08e4b437f487c8d7d29b14537d15e3488170dc3de5dbdf8dac468485604051610c0d91815260200190565b60405180910390a350505050565b604c6020528160005260406000208181548110610c3757600080fd5b6000918252602090912001546001600160a01b03169150829050565b6001600160a01b0382166000908152603e60205260409020600101544211610cbd5760405162461bcd60e51b815260206004820152601a60248201527f52657761726420706572696f64207374696c6c20616374697665000000000000604482015260640161080c565b60008111610d0d5760405162461bcd60e51b815260206004820181905260248201527f526577617264206475726174696f6e206d757374206265206e6f6e2d7a65726f604482015260640161080c565b6001600160a01b0382166000908152603e602052604090819020829055517fad2f86b01ed93b4b3a150d448c61a4f5d8d38075d3c0c64cc0a26fd6e1f4954590610d5a9084908490614a57565b60405180910390a15050565b60375460405163058dcda760e21b815260009133916001600160a01b0390911690631637369c90610d9d9089908990600401614a57565b60206040518083038186803b158015610db557600080fd5b505afa158015610dc9573d6000803e3d6000fd5b505050506040513d601f19601f82011682018060405250810190610ded9190614a3e565b60355460405163557d313960e11b81526001600160a01b0389811660048301529294506000929091169063aafa62729060240160006040518083038186803b158015610e3857600080fd5b505afa158015610e4c573d6000803e3d6000fd5b505050506040513d6000823e601f3d908101601f19168201604052610e749190810190614b4d565b905082610ec35760405162461bcd60e51b815260206004820152601860248201527f74686973206e667420686173206265656e206c6f636b65640000000000000000604482015260640161080c565b60355460405163032c49ed60e01b81526001600160a01b038981166004830152600092169063032c49ed90602401602060405180830381600087803b158015610f0b57600080fd5b505af1158015610f1f573d6000803e3d6000fd5b505050506040513d601f19601f82011682018060405250810190610f439190614b92565b90508060ff166001141561104657620f4240851015610fb05760405162461bcd60e51b815260206004820152602360248201527f7468726573686f6c64206d7573742062652067726561746572207468616e203160448201526230302560e81b606482015260840161080c565b60375460405163c6952f8d60e01b81526001600160a01b039091169063c6952f8d90610fed9086908c908c9088908d908d90600190600401614baf565b602060405180830381600087803b15801561100757600080fd5b505af115801561101b573d6000803e3d6000fd5b505050506040513d601f19601f8201168201806040525081019061103f9190614a3e565b93506110d9565b60375460405163c6952f8d60e01b81526001600160a01b039091169063c6952f8d906110849086908c908c9088908d90600090600190600401614baf565b602060405180830381600087803b15801561109e57600080fd5b505af11580156110b2573d6000803e3d6000fd5b505050506040513d601f19601f820116820180604052508101906110d69190614a3e565b93505b505050949350505050565b6110ed87613779565b1561113a5760405162461bcd60e51b815260206004820152601d60248201527f746869732075736572206973206e6f74206c6971756964617461626c65000000604482015260640161080c565b6111a960405180610160016040528060006001600160a01b0316815260200160006001600160a01b031681526020016000815260200160008152602001600081526020016000815260200160008152602001600081526020016000815260200160008152602001600081525090565b6111b288612c62565b60a0840152610100830152608082015233815260375460405163058dcda760e21b81526000916001600160a01b031690631637369c906111f8908b908b90600401614a57565b60206040518083038186803b15801561121057600080fd5b505afa158015611224573d6000803e3d6000fd5b505050506040513d601f19601f820116820180604052508101906112489190614a3e565b603754604051632820036560e11b8152600481018390529192506000916001600160a01b039091169063504006ca9060240160006040518083038186803b15801561129257600080fd5b505afa1580156112a6573d6000803e3d6000fd5b505050506040513d6000823e601f3d908101601f191682016040526112ce9190810190614c28565b603554604051637638659b60e11b81526001600160a01b038c8116600483015292935091169063ec70cb369060240160206040518083038186803b15801561131557600080fd5b505afa158015611329573d6000803e3d6000fd5b505050506040513d601f19601f8201168201806040525081019061134d9190614a3e565b604084810191909152603454845191516370a0823160e01b81526001600160a01b0392831660048201529116906370a082319060240160206040518083038186803b15801561139b57600080fd5b505afa1580156113af573d6000803e3d6000fd5b505050506040513d601f19601f820116820180604052508101906113d39190614a3e565b8360600181815250506113f98360a0015184608001518561010001518660400151613f8c565b83606001511161144b5760405162461bcd60e51b815260206004820152601a60248201527f757365722062616c616e6365206973206e6f7420656e6f756768000000000000604482015260640161080c565b60408301516101208401526101008301516039546080850151600092916114729190613ec5565b11801561148657508360a001518460800151105b156114be576114af8460a001516107d18660800151876101000151613da590919063ffffffff16565b61014085018190529050611545565b8360a0015184608001516114d29190614d45565b84610120018181516114e49190614d5c565b90525060a084015160808501516114fb9190614d45565b61014085018190526080850151604086015161010087015161152c936107d192916115269190614d45565b90613da5565b90508084610140018181516115419190614d5c565b9052505b8084604001516115559190614d45565b846060015110156119205760375460408381015186518551925163a9c9447560e01b81526001600160a01b03928316600482015290821660248201526044810192909252600060648301529091169063a9c9447590608401600060405180830381600087803b1580156115c757600080fd5b505af11580156115db573d6000803e3d6000fd5b505060355460405163557d313960e11b81526001600160a01b038e8116600483015260009450909116915063aafa62729060240160006040518083038186803b15801561162757600080fd5b505afa15801561163b573d6000803e3d6000fd5b505050506040513d6000823e601f3d908101601f191682016040526116639190810190614b4d565b603754865160405163c6952f8d60e01b81529293506001600160a01b039091169163c6952f8d916116a3918f908f9087908e908e90600090600401614baf565b602060405180830381600087803b1580156116bd57600080fd5b505af11580156116d1573d6000803e3d6000fd5b505050506040513d601f19601f820116820180604052508101906116f59190614a3e565b506000611723603a5487606001518589604001516117139190614d45565b61171d9190614d45565b90613ec5565b604087015160c0880181905260395491925061173e91613ec5565b60e0870152603754865160c088015160405162441dbf60e61b81526001600160a01b03909316926311076fc09261177c92909160019060040161490b565b600060405180830381600087803b15801561179657600080fd5b505af11580156117aa573d6000803e3d6000fd5b5050603754885160e08a0151604051630a7a980560e01b81526001600160a01b039093169450630a7a980593506117e69260019060040161490b565b600060405180830381600087803b15801561180057600080fd5b505af1158015611814573d6000803e3d6000fd5b5050603454885160608a015160408b01516001600160a01b0390931694506340c10f1993509091611866919061184b908990614d45565b6118559190614d45565b60385460c08c01516107ac91613ec5565b6040518363ffffffff1660e01b8152600401611883929190614a57565b600060405180830381600087803b15801561189d57600080fd5b505af11580156118b1573d6000803e3d6000fd5b505060365488516040516363bd661b60e11b81526001600160a01b03909216935063c77acc3692506118e7918590600401614a57565b600060405180830381600087803b15801561190157600080fd5b505af1158015611915573d6000803e3d6000fd5b505050505050611a7b565b60375460408381015186518551925163a9c9447560e01b81526001600160a01b03928316600482015290821660248201526044810192909252600160648301529091169063a9c9447590608401600060405180830381600087803b15801561198757600080fd5b505af115801561199b573d6000803e3d6000fd5b5050603454865160408801516001600160a01b039092169350639dc29fac9250906119c7908590614d45565b6040518363ffffffff1660e01b81526004016119e4929190614a57565b600060405180830381600087803b1580156119fe57600080fd5b505af1158015611a12573d6000803e3d6000fd5b5050603454604051632770a7eb60e21b81526001600160a01b039091169250639dc29fac9150611a489030908590600401614a57565b600060405180830381600087803b158015611a6257600080fd5b505af1158015611a76573d6000803e3d6000fd5b505050505b611a948460000151856101200151866101400151614042565b5050505050505050505050565b6033546001600160a01b03163314611afb5760405162461bcd60e51b815260206004820181905260248201527f4f776e61626c653a2063616c6c6572206973206e6f7420746865206f776e6572604482015260640161080c565b60ff909116600090815260466020526040902055565b3360005b603f54811015611c09576000603f8281548110611b3457611b34614d74565b6000918252602090912001546001600160a01b03169050611b54816137d3565b6001600160a01b0382166000908152603e6020526040902060040155611b79816120e6565b6001600160a01b038083166000908152603e6020526040902060030191909155831615611bf657611baa838261074c565b6001600160a01b03808516600081815260416020908152604080832094871680845294825280832095909555603e81528482206004015492825284815284822093825292909252919020555b5080611c0181614d8a565b915050611b15565b5060005b603f54811015611d58576000603f8281548110611c2c57611c2c614d74565b60009182526020808320909101543383526041825260408084206001600160a01b03909216808552919092529120549091508015611d43573360008181526041602090815260408083206001600160a01b038716808552925280832092909255905163a9059cbb60e01b8152909163a9059cbb91611caf91908590600401614a57565b602060405180830381600087803b158015611cc957600080fd5b505af1158015611cdd573d6000803e3d6000fd5b505050506040513d601f19601f82011682018060405250810190611d019190614da5565b506040518181526001600160a01b0383169033907f540798df468d7b23d11f156fdb954cb19ad414d150722a7b6d55ba369dea792e9060200160405180910390a35b50508080611d5090614d8a565b915050611c0d565b5050565b3360005b603f54811015611e54576000603f8281548110611d7f57611d7f614d74565b6000918252602090912001546001600160a01b03169050611d9f816137d3565b6001600160a01b0382166000908152603e6020526040902060040155611dc4816120e6565b6001600160a01b038083166000908152603e6020526040902060030191909155831615611e4157611df5838261074c565b6001600160a01b03808516600081815260416020908152604080832094871680845294825280832095909555603e81528482206004015492825284815284822093825292909252919020555b5080611e4c81614d8a565b915050611d60565b5033611e5f83614125565b60ff8416611eea5760ff8416600090815260476020526040902054611e849084613e66565b60ff8516600090815260476020908152604080832093909355604881528282206001600160a01b038516835290522054611ebe9084613e66565b60ff851660009081526048602090815260408083206001600160a01b038616845290915290205561202c565b60ff841660009081526048602090815260408083206001600160a01b0385168452909152902054611f1c908490614d45565b60ff8516600090815260466020526040902054111580611f61575060ff841660009081526048602090815260408083206001600160a01b038516845290915290205483145b611fad5760405162461bcd60e51b815260206004820152601f60248201527f6e6f7420656e6f75676820616d6f756e7420666f722074686973207479706500604482015260640161080c565b60ff8416600090815260476020526040902054611fca9084613d63565b60ff8516600090815260476020908152604080832093909355604881528282206001600160a01b0385168352905220546120049084613d63565b60ff851660009081526048602090815260408083206001600160a01b03861684529091529020555b603454604051631062c15f60e11b81523060048201526001600160a01b03838116602483015260448201869052909116906320c582be90606401600060405180830381600087803b15801561208057600080fd5b505af1158015612094573d6000803e3d6000fd5b50506040805160ff88168152602081018790526001600160a01b03851693507f83637d0d125e3dae88720b1ad229ce05c339c065b6282caf315dcb35a999d6d49250015b60405180910390a250505050565b6001600160a01b0381166000908152603e60205260408120600101546107e0904290614187565b603754604051636b64c88560e01b81526001600160a01b038381166004830152606092600092911690636b64c8859060240160006040518083038186803b15801561215757600080fd5b505afa15801561216b573d6000803e3d6000fd5b505050506040513d6000823e601f3d908101601f191682016040526121939190810190614dc2565b9050805167ffffffffffffffff8111156121af576121af614a70565b60405190808252806020026020018201604052801561223557816020015b6040805161016081018252600080825260208083018290529282018190526060808301829052608083015260a0820181905260c0820181905260e082018190526101008201819052610120820181905261014082015282526000199092019101816121cd5790505b50915060005b81518110156123175760375482516001600160a01b039091169063504006ca9084908490811061226d5761226d614d74565b60200260200101516040518263ffffffff1660e01b815260040161229391815260200190565b60006040518083038186803b1580156122ab57600080fd5b505afa1580156122bf573d6000803e3d6000fd5b505050506040513d6000823e601f3d908101601f191682016040526122e79190810190614c28565b8382815181106122f9576122f9614d74565b6020026020010181905250808061230f90614d8a565b91505061223b565b5050919050565b603754604051636b64c88560e01b81526001600160a01b0383811660048301526000928392839283921690636b64c8859060240160006040518083038186803b15801561236a57600080fd5b505afa15801561237e573d6000803e3d6000fd5b505050506040513d6000823e601f3d908101601f191682016040526123a69190810190614dc2565b603754604051630dbe3c5760e31b81526001600160a01b03888116600483015292935060009283921690636df1e2b89060240160206040518083038186803b1580156123f157600080fd5b505afa158015612405573d6000803e3d6000fd5b505050506040513d601f19601f820116820180604052508101906124299190614a3e565b603754604051632c038f0960e21b81526001600160a01b038a8116600483015292985091169063b00e3c249060240160206040518083038186803b15801561247057600080fd5b505afa158015612484573d6000803e3d6000fd5b505050506040513d601f19601f820116820180604052508101906124a89190614a3e565b945060005b83518110156125f65760375484516001600160a01b0390911690637762b915908690849081106124df576124df614d74565b60200260200101516040518263ffffffff1660e01b815260040161250591815260200190565b60606040518083038186803b15801561251d57600080fd5b505afa158015612531573d6000803e3d6000fd5b505050506040513d601f19601f820116820180604052508101906125559190614e68565b5050603554604051637638659b60e11b81526001600160a01b03808416600483015292945091169063ec70cb369060240160206040518083038186803b15801561259e57600080fd5b505afa1580156125b2573d6000803e3d6000fd5b505050506040513d601f19601f820116820180604052508101906125d69190614a3e565b92506125e28386614d5c565b9450806125ee81614d8a565b9150506124ad565b505050509193909250565b603754604051636b64c88560e01b81526001600160a01b0383811660048301526060921690636b64c8859060240160006040518083038186803b15801561264757600080fd5b505afa15801561265b573d6000803e3d6000fd5b505050506040513d6000823e601f3d908101601f191682016040526107e09190810190614dc2565b6000805b603f5481101561277b576000603f82815481106126a6576126a6614d74565b6000918252602090912001546001600160a01b031690506126c6816137d3565b6001600160a01b0382166000908152603e60205260409020600401556126eb816120e6565b6001600160a01b038083166000908152603e60205260409020600301919091558316156127685761271c838261074c565b6001600160a01b03808516600081815260416020908152604080832094871680845294825280832095909555603e81528482206004015492825284815284822093825292909252919020555b508061277381614d8a565b915050612687565b506001600160a01b0383166127a25760405162461bcd60e51b815260040161080c906149fa565b600082116127ed5760405162461bcd60e51b8152602060048201526018602482015277115c9c9bdc9ccb959317d253959053125117d05353d5539560421b604482015260640161080c565b6127f633613779565b156128435760405162461bcd60e51b815260206004820152601b60248201527f4572726f72732e564c5f494e56414c49445f4c49515549444154450000000000604482015260640161080c565b6128856040518060c0016040528060006001600160a01b0316815260200160008152602001600081526020016000815260200160008152602001600081525090565b338082526128929061231e565b604084015260a0830152602082018190526128ae908490614d5c565b816040015111156128c557606081018390526128de565b602081015160408201516128d891613d63565b60608201525b603a5460608201516128ef91613ec5565b6080820152603954612902908490613ec5565b60a0820181905260435461291591613e66565b604355608081015160445461292991613e66565b60445560345460a08201516040516340c10f1960e01b81526001600160a01b03909216916340c10f199161296291309190600401614a57565b600060405180830381600087803b15801561297c57600080fd5b505af1158015612990573d6000803e3d6000fd5b505060345460a084015160608501516001600160a01b0390921693506340c10f19925087916129be91613d63565b6040518363ffffffff1660e01b81526004016129db929190614a57565b600060405180830381600087803b1580156129f557600080fd5b505af1158015612a09573d6000803e3d6000fd5b5050603654835160808501516040516363bd661b60e11b81526001600160a01b03909316945063c77acc369350612a4292600401614a57565b600060405180830381600087803b158015612a5c57600080fd5b505af1158015612a70573d6000803e3d6000fd5b505050506080810151604554612a8591613e66565b6045556037548151606083015160405162441dbf60e61b81526001600160a01b03909316926311076fc092612ac192909160019060040161490b565b600060405180830381600087803b158015612adb57600080fd5b505af1158015612aef573d6000803e3d6000fd5b5050603754835160a0850151604051630a7a980560e01b81526001600160a01b039093169450630a7a98059350612b2b9260019060040161490b565b600060405180830381600087803b158015612b4557600080fd5b505af1158015612b59573d6000803e3d6000fd5b50505050836001600160a01b031681600001516001600160a01b03167f1e88ad547795adfd07355ebdf5e9d59eb4e3bcd28206fd8323e155bccccd73558360600151604051610c0d91815260200190565b603754604051637762b91560e01b815260048101839052600091829182916001600160a01b031690637762b9159060240160606040518083038186803b158015612bf357600080fd5b505afa158015612c07573d6000803e3d6000fd5b505050506040513d601f19601f82011682018060405250810190612c2b9190614e68565b9250925092509193909250565b603f8181548110612c4857600080fd5b6000918252602090912001546001600160a01b0316905081565b603754604051636b64c88560e01b81526001600160a01b0383811660048301526000928392839283921690636b64c8859060240160006040518083038186803b158015612cae57600080fd5b505afa158015612cc2573d6000803e3d6000fd5b505050506040513d6000823e601f3d908101601f19168201604052612cea9190810190614dc2565b603754604051630dbe3c5760e31b81526001600160a01b03888116600483015292935060009283928392911690636df1e2b89060240160206040518083038186803b158015612d3857600080fd5b505afa158015612d4c573d6000803e3d6000fd5b505050506040513d601f19601f82011682018060405250810190612d709190614a3e565b603754604051632c038f0960e21b81526001600160a01b038b8116600483015292995091169063b00e3c249060240160206040518083038186803b158015612db757600080fd5b505afa158015612dcb573d6000803e3d6000fd5b505050506040513d601f19601f82011682018060405250810190612def9190614a3e565b955060005b8451811015612f585760375485516001600160a01b0390911690637762b91590879084908110612e2657612e26614d74565b60200260200101516040518263ffffffff1660e01b8152600401612e4c91815260200190565b60606040518083038186803b158015612e6457600080fd5b505afa158015612e78573d6000803e3d6000fd5b505050506040513d601f19601f82011682018060405250810190612e9c9190614e68565b603554604051637638659b60e11b81526001600160a01b038086166004830152949750919550929092169163ec70cb36915060240160206040518083038186803b158015612ee957600080fd5b505afa158015612efd573d6000803e3d6000fd5b505050506040513d601f19601f82011682018060405250810190612f219190614a3e565b93508115612f3a57603854612f37908590613ec5565b93505b612f448487614d5c565b955080612f5081614d8a565b915050612df4565b50505050509193909250565b603554604051637638659b60e11b81526001600160a01b038581166004830152600092169063ec70cb369060240160206040518083038186803b158015612faa57600080fd5b505afa158015612fbe573d6000803e3d6000fd5b505050506040513d601f19601f82011682018060405250810190612fe29190614a3e565b60375460405163058dcda760e21b81529192506000916001600160a01b0390911690631637369c9061301a9088908890600401614a57565b60206040518083038186803b15801561303257600080fd5b505afa158015613046573d6000803e3d6000fd5b505050506040513d601f19601f8201168201806040525081019061306a9190614a3e565b9050806130b95760405162461bcd60e51b815260206004820152601c60248201527f74686973206e667420686173206e6f74206265656e206c6f636b656400000000604482015260640161080c565b60355460405163032c49ed60e01b81526001600160a01b038781166004830152339260009291169063032c49ed90602401602060405180830381600087803b15801561310457600080fd5b505af1158015613118573d6000803e3d6000fd5b505050506040513d601f19601f8201168201806040525081019061313c9190614b92565b603754604051632820036560e11b8152600481018690529192506000916001600160a01b039091169063504006ca9060240160006040518083038186803b15801561318657600080fd5b505afa15801561319a573d6000803e3d6000fd5b505050506040513d6000823e601f3d908101601f191682016040526131c29190810190614c28565b90506000806131d08561231e565b9250509150846001600160a01b031683604001516001600160a01b031614156132d6578261012001511561320f5760385461320c908890613ec5565b96505b6132198783614d5c565b8110156132d15761323f8580836132308b87614d5c565b61323a9190614d45565b61419d565b603654603c546001600160a01b039091169063c77acc3690879061326890856117138d89614d5c565b6040518363ffffffff1660e01b8152600401613285929190614a57565b600060405180830381600087803b15801561329f57600080fd5b505af11580156132b3573d6000803e3d6000fd5b505050506132cd610adf603c54838a866117139190614d5c565b6045555b6135b9565b8787116133255760405162461bcd60e51b815260206004820152601d60248201527f616d6f756e74206973206c6f776572207468616e2074686973204e4654000000604482015260640161080c565b8360ff166002141561339f5760405162461bcd60e51b815260206004820152603760248201527f74686973206e667420697320206120636f6c6c61746572616c206e66742c206960448201527f7420636f756c64206e6f742062652072656465656d6564000000000000000000606482015260840161080c565b8360ff1660011415806133b55750826101200151155b6134015760405162461bcd60e51b815260206004820152601c60248201527f74686973206e6674206973206e6f74206120636f6c6c61746572616c00000000604482015260640161080c565b8761341a84610140015189613ec590919063ffffffff16565b116134715760405162461bcd60e51b815260206004820152602160248201527f616d6f756e74206973206c6f776572207468616e20666f722074686973204e466044820152601560fa1b606482015260840161080c565b8188111561351a576134888584604001518461419d565b60345460408401516001600160a01b0390911690631299bfa89087906134ae868d614d45565b6040516001600160e01b031960e086901b1681526001600160a01b0393841660048201529290911660248301526044820152606401600060405180830381600087803b1580156134fd57600080fd5b505af1158015613511573d6000803e3d6000fd5b50505050613529565b6135298584604001518a61419d565b603654603c546001600160a01b039091169063c77acc3690879061354e908c90613ec5565b6040518363ffffffff1660e01b815260040161356b929190614a57565b600060405180830381600087803b15801561358557600080fd5b505af1158015613599573d6000803e3d6000fd5b505050506135b5610adf603c548a613ec590919063ffffffff16565b6045555b6037546040516393a595f560e01b81526001600160a01b03909116906393a595f5906135eb9088908a90600401614a57565b600060405180830381600087803b15801561360557600080fd5b505af1158015613619573d6000803e3d6000fd5b5050505050505050505050505050565b6001600160a01b0382166000908152603e60205260409020600101544210613690576001600160a01b0382166000908152603e602052604090205461366f908290613e24565b6001600160a01b0383166000908152603e602052604090206002015561372a565b6001600160a01b0382166000908152603e60205260408120600101546136b69042613d63565b6001600160a01b0384166000908152603e6020526040812060020154919250906136e1908390613da5565b6001600160a01b0385166000908152603e602052604090205490915061370b906107d18584613e66565b6001600160a01b0385166000908152603e602052604090206002015550505b6001600160a01b0382166000908152603e60205260409020426003820181905590546137569190613e66565b6001600160a01b039092166000908152603e602052604090206001019190915550565b60008060008061378885612c62565b925092509250816137a460395485613ec590919063ffffffff16565b11156137b557506001949350505050565b808311156137c857506001949350505050565b506000949350505050565b6000603d54600014156137ff57506001600160a01b03166000908152603e602052604090206004015490565b603d546001600160a01b0383166000908152603e6020526040902060028101546003909101546107e09261384d9290916107d191670de0b6b3a764000091611526919082906107ac8b6120e6565b6001600160a01b0384166000908152603e602052604090206004015490613e66565b3360005b603f54811015613967576000603f828154811061389257613892614d74565b6000918252602090912001546001600160a01b031690506138b2816137d3565b6001600160a01b0382166000908152603e60205260409020600401556138d7816120e6565b6001600160a01b038083166000908152603e602052604090206003019190915583161561395457613908838261074c565b6001600160a01b03808516600081815260416020908152604080832094871680845294825280832095909555603e81528482206004015492825284815284822093825292909252919020555b508061395f81614d8a565b915050613873565b503361397283614125565b60ff84166139fd5760ff84166000908152604760205260409020546139979084613e66565b60ff8516600090815260476020908152604080832093909355604881528282206001600160a01b0385168352905220546139d19084613e66565b60ff851660009081526048602090815260408083206001600160a01b0386168452909152902055613b2c565b60ff841660009081526046602052604090205483101580613a61575060ff841660009081526048602090815260408083206001600160a01b0385168452909152902054613a4b908490614d5c565b60ff851660009081526046602052604090205411155b613aad5760405162461bcd60e51b815260206004820152601f60248201527f6e6f7420656e6f75676820616d6f756e7420666f722074686973207479706500604482015260640161080c565b60ff8416600090815260476020526040902054613aca9084613e66565b60ff8516600090815260476020908152604080832093909355604881528282206001600160a01b038516835290522054613b049084613e66565b60ff851660009081526048602090815260408083206001600160a01b03861684529091529020555b603454604051632ee65eeb60e21b81526001600160a01b038381166004830152306024830152604482018690529091169063bb997bac90606401600060405180830381600087803b158015613b8057600080fd5b505af1158015613b94573d6000803e3d6000fd5b50506040805160ff88168152602081018790526001600160a01b03851693507f3cf14181ae25669a913d72411736fc5c01f538fa503e963b0b2e56bcefb3edaf9250016120d8565b600054610100900460ff1615808015613bfc5750600054600160ff909116105b80613c165750303b158015613c16575060005460ff166001145b613c795760405162461bcd60e51b815260206004820152602e60248201527f496e697469616c697a61626c653a20636f6e747261637420697320616c72656160448201526d191e481a5b9a5d1a585b1a5e995960921b606482015260840161080c565b6000805460ff191660011790558015613c9c576000805461ff0019166101001790555b603480546001600160a01b038087166001600160a01b03199283161790925560368054868416908316179055603580548884169083161790556037805492851692909116919091179055620dbba0603855620186a0603955619c40603a55614e20603c55613d0b8360016143c5565b613d168460016143c5565b8015613d5c576000805461ff0019169055604051600181527f7f26b83ff96e1f2b6a682f133852f6798a09c465da95921460cefb38474024989060200160405180910390a15b5050505050565b60006107dd83836040518060400160405280601e81526020017f536166654d6174683a207375627472616374696f6e206f766572666c6f770000815250614444565b600082613db4575060006107e0565b6000613dc08385614ea0565b905082613dcd8583614ebf565b146107dd5760405162461bcd60e51b815260206004820152602160248201527f536166654d6174683a206d756c7469706c69636174696f6e206f766572666c6f6044820152607760f81b606482015260840161080c565b60006107dd83836040518060400160405280601a81526020017f536166654d6174683a206469766973696f6e206279207a65726f00000000000081525061447e565b600080613e738385614d5c565b9050838110156107dd5760405162461bcd60e51b815260206004820152601b60248201527f536166654d6174683a206164646974696f6e206f766572666c6f770000000000604482015260640161080c565b6000821580613ed2575081155b15613edf575060006107e0565b81613eee6002620f4240614ebf565b613efa90600019614d45565b613f049190614ebf565b831115613f5f5760405162461bcd60e51b815260206004820152602360248201527f4572726f72732e4d4154485f4d554c5449504c49434154494f4e5f4f564552466044820152624c4f5760e81b606482015260840161080c565b620f4240613f6e600282614ebf565b613f788486614ea0565b613f829190614d5c565b6107dd9190614ebf565b60008085613f9a8686614d45565b613fa49190614d5c565b90506000811161400f5760405162461bcd60e51b815260206004820152603060248201527f64656372656173654465706f736974206973206e6f7420656e6f75676820746f60448201526f0818dbdd995c881d1a1a5cc81919589d60821b606482015260840161080c565b600061401f876107d18487613da5565b60395461402d908690613ec5565b6140379190614d45565b979650505050505050565b60375460405162441dbf60e61b81526001600160a01b03909116906311076fc090614076908690869060009060040161490b565b600060405180830381600087803b15801561409057600080fd5b505af11580156140a4573d6000803e3d6000fd5b5050603754604051630a7a980560e01b81526001600160a01b039091169250630a7a980591506140dd908690859060009060040161490b565b600060405180830381600087803b1580156140f757600080fd5b505af115801561410b573d6000803e3d6000fd5b505050508060435461411d9190614d45565b604355505050565b600081116141845760405162461bcd60e51b815260206004820152602660248201527f53746162696c697479506f6f6c3a20416d6f756e74206d757374206265206e6f6044820152656e2d7a65726f60d01b606482015260840161080c565b50565b600081831061419657816107dd565b5090919050565b6034546038546001600160a01b0390911690639dc29fac9085906141c2908590613ec5565b6040518363ffffffff1660e01b81526004016141df929190614a57565b600060405180830381600087803b1580156141f957600080fd5b505af115801561420d573d6000803e3d6000fd5b50506034546038546001600160a01b039091169250639dc29fac91503090614236908590613ec5565b6040518363ffffffff1660e01b8152600401614253929190614a57565b600060405180830381600087803b15801561426d57600080fd5b505af1158015614281573d6000803e3d6000fd5b505060375460405162441dbf60e61b81526001600160a01b0390911692506311076fc091506142b9908690859060009060040161490b565b600060405180830381600087803b1580156142d357600080fd5b505af11580156142e7573d6000803e3d6000fd5b50506037546039546001600160a01b039091169250630a7a980591508590614310908590613ec5565b60006040518463ffffffff1660e01b81526004016143309392919061490b565b600060405180830381600087803b15801561434a57600080fd5b505af115801561435e573d6000803e3d6000fd5b5050505061437a610a2960395483613ec590919063ffffffff16565b6043556040518181526001600160a01b0380841691908516907f05f2eeda0e08e4b437f487c8d7d29b14537d15e3488170dc3de5dbdf8dac46849060200160405180910390a3505050565b6001600160a01b0382166000908152603e6020526040902054156143e857600080fd5b603f8054600181019091557fc03004e3ce0784bf68186394306849f9b7b1200073105cd9aeb554a1802b58fd0180546001600160a01b039093166001600160a01b0319909316831790556000918252603e602052604090912055565b600081848411156144685760405162461bcd60e51b815260040161080c9190614ee1565b5060006144758486614d45565b95945050505050565b6000818361449f5760405162461bcd60e51b815260040161080c9190614ee1565b5060006144758486614ebf565b60ff8116811461418457600080fd5b6001600160a01b038116811461418457600080fd5b6000806000606084860312156144e557600080fd5b83356144f0816144ac565b92506020840135614500816144bb565b91506040840135614510816144bb565b809150509250925092565b60008060008060006080868803121561453357600080fd5b853561453e816144bb565b9450602086013561454e816144bb565b935060408601359250606086013567ffffffffffffffff8082111561457257600080fd5b818801915088601f83011261458657600080fd5b81358181111561459557600080fd5b8960208285010111156145a757600080fd5b9699959850939650602001949392505050565b600080604083850312156145cd57600080fd5b82356145d8816144bb565b915060208301356145e8816144bb565b809150509250929050565b6000806040838503121561460657600080fd5b8235614611816144bb565b946020939093013593505050565b6000806040838503121561463257600080fd5b8235614611816144ac565b801515811461418457600080fd5b6000806000806080858703121561466157600080fd5b843561466c816144bb565b93506020850135925060408501356146838161463d565b9396929550929360600135925050565b600080600080600080600060e0888a0312156146ae57600080fd5b87356146b9816144bb565b965060208801356146c9816144bb565b9550604088013594506060880135935060808801356146e78161463d565b925060a08801356146f78161463d565b8092505060c0880135905092959891949750929550565b60006020828403121561472057600080fd5b81356107dd816144bb565b6006811061474957634e487b7160e01b600052602160045260246000fd5b9052565b60005b83811015614768578181015183820152602001614750565b83811115614777576000848401525b50505050565b6000815180845261479581602086016020860161474d565b601f01601f19169290920160200192915050565b60006020808301818452808551808352604092508286019150828160051b87010184880160005b838110156148a057603f19898403018552815161016081518552888201516147fa8a87018261472b565b50878201516001600160a01b03908116868a0152606080840151909116908601526080808301518187018390526148338388018261477d565b9250505060a080830151818701525060c080830151818701525060e080830151614867828801826001600160a01b03169052565b50506101008281015160ff16908601526101208083015115159086015261014091820151919094015293860193908601906001016147d0565b509098975050505050505050565b6020808252825182820181905260009190848201906040850190845b818110156148e6578351835292840192918401916001016148ca565b50909695505050505050565b60006020828403121561490457600080fd5b5035919050565b6001600160a01b0393909316835260208301919091521515604082015260600190565b60008060006060848603121561494357600080fd5b833561494e816144bb565b95602085013595506040909401359392505050565b6000806040838503121561497657600080fd5b82356145d8816144ac565b60006020828403121561499357600080fd5b81356107dd816144ac565b600080600080608085870312156149b457600080fd5b84356149bf816144bb565b935060208501356149cf816144bb565b925060408501356149df816144bb565b915060608501356149ef816144bb565b939692955090935050565b60208082526024908201527f4572726f72732e564c5f494e56414c49445f4f4e424548414c464f465f4144446040820152635245535360e01b606082015260800190565b600060208284031215614a5057600080fd5b5051919050565b6001600160a01b03929092168252602082015260400190565b634e487b7160e01b600052604160045260246000fd5b604051610160810167ffffffffffffffff81118282101715614aaa57614aaa614a70565b60405290565b604051601f8201601f1916810167ffffffffffffffff81118282101715614ad957614ad9614a70565b604052919050565b600082601f830112614af257600080fd5b815167ffffffffffffffff811115614b0c57614b0c614a70565b614b1f601f8201601f1916602001614ab0565b818152846020838601011115614b3457600080fd5b614b4582602083016020870161474d565b949350505050565b600060208284031215614b5f57600080fd5b815167ffffffffffffffff811115614b7657600080fd5b614b4584828501614ae1565b8051614b8d816144ac565b919050565b600060208284031215614ba457600080fd5b81516107dd816144ac565b6001600160a01b038881168252871660208201526040810186905260e060608201819052600090614be29083018761477d565b94151560808301525060a0810192909252151560c090910152949350505050565b805160068110614b8d57600080fd5b8051614b8d816144bb565b8051614b8d8161463d565b600060208284031215614c3a57600080fd5b815167ffffffffffffffff80821115614c5257600080fd5b908301906101608286031215614c6757600080fd5b614c6f614a86565b82518152614c7f60208401614c03565b6020820152614c9060408401614c12565b6040820152614ca160608401614c12565b6060820152608083015182811115614cb857600080fd5b614cc487828601614ae1565b60808301525060a083015160a082015260c083015160c0820152614cea60e08401614c12565b60e08201526101009150614cff828401614b82565b828201526101209150614d13828401614c1d565b9181019190915261014091820151918101919091529392505050565b634e487b7160e01b600052601160045260246000fd5b600082821015614d5757614d57614d2f565b500390565b60008219821115614d6f57614d6f614d2f565b500190565b634e487b7160e01b600052603260045260246000fd5b6000600019821415614d9e57614d9e614d2f565b5060010190565b600060208284031215614db757600080fd5b81516107dd8161463d565b60006020808385031215614dd557600080fd5b825167ffffffffffffffff80821115614ded57600080fd5b818501915085601f830112614e0157600080fd5b815181811115614e1357614e13614a70565b8060051b9150614e24848301614ab0565b8181529183018401918481019088841115614e3e57600080fd5b938501935b83851015614e5c57845182529385019390850190614e43565b98975050505050505050565b600080600060608486031215614e7d57600080fd5b8351614e88816144bb565b6020850151604086015191945092506145108161463d565b6000816000190483118215151615614eba57614eba614d2f565b500290565b600082614edc57634e487b7160e01b600052601260045260246000fd5b500490565b6020815260006107dd602083018461477d56fea264697066735822122055f0e7c50f0578dbb2f163778d94146b46c30a6a4988834e884e4ddee7bf19b564736f6c63430008080033",
  "linkReferences": {},
  "deployedLinkReferences": {}
}